{
  "address": "0x0D9ca6982c8Bd826e645FCd21EA1DE3ad41075Ec",
  "abi": [
    {
      "inputs": [],
      "stateMutability": "nonpayable",
      "type": "constructor"
    },
    {
      "anonymous": false,
      "inputs": [
        {
          "indexed": true,
          "internalType": "address",
          "name": "owner",
          "type": "address"
        },
        {
          "indexed": true,
          "internalType": "address",
          "name": "approved",
          "type": "address"
        },
        {
          "indexed": true,
          "internalType": "uint256",
          "name": "tokenId",
          "type": "uint256"
        }
      ],
      "name": "Approval",
      "type": "event"
    },
    {
      "anonymous": false,
      "inputs": [
        {
          "indexed": true,
          "internalType": "address",
          "name": "owner",
          "type": "address"
        },
        {
          "indexed": true,
          "internalType": "address",
          "name": "operator",
          "type": "address"
        },
        {
          "indexed": false,
          "internalType": "bool",
          "name": "approved",
          "type": "bool"
        }
      ],
      "name": "ApprovalForAll",
      "type": "event"
    },
    {
      "anonymous": false,
      "inputs": [
        {
          "indexed": true,
          "internalType": "address",
          "name": "previousOwner",
          "type": "address"
        },
        {
          "indexed": true,
          "internalType": "address",
          "name": "newOwner",
          "type": "address"
        }
      ],
      "name": "OwnershipTransferred",
      "type": "event"
    },
    {
      "anonymous": false,
      "inputs": [
        {
          "indexed": false,
          "internalType": "bytes32",
          "name": "data",
          "type": "bytes32"
        },
        {
          "indexed": false,
          "internalType": "string",
          "name": "message",
          "type": "string"
        }
      ],
      "name": "StepCreated",
      "type": "event"
    },
    {
      "anonymous": false,
      "inputs": [
        {
          "indexed": false,
          "internalType": "uint256",
          "name": "stepId",
          "type": "uint256"
        }
      ],
      "name": "StepExecuted",
      "type": "event"
    },
    {
      "anonymous": false,
      "inputs": [
        {
          "indexed": true,
          "internalType": "address",
          "name": "from",
          "type": "address"
        },
        {
          "indexed": true,
          "internalType": "address",
          "name": "to",
          "type": "address"
        },
        {
          "indexed": true,
          "internalType": "uint256",
          "name": "tokenId",
          "type": "uint256"
        }
      ],
      "name": "Transfer",
      "type": "event"
    },
    {
      "inputs": [],
      "name": "MAX_SUPPLY",
      "outputs": [
        {
          "internalType": "uint256",
          "name": "",
          "type": "uint256"
        }
      ],
      "stateMutability": "view",
      "type": "function"
    },
    {
      "inputs": [],
      "name": "MINT_PRICE",
      "outputs": [
        {
          "internalType": "uint256",
          "name": "",
          "type": "uint256"
        }
      ],
      "stateMutability": "view",
      "type": "function"
    },
    {
      "inputs": [],
      "name": "RESERVED_TREASURY_AMOUNT",
      "outputs": [
        {
          "internalType": "uint256",
          "name": "",
          "type": "uint256"
        }
      ],
      "stateMutability": "view",
      "type": "function"
    },
    {
      "inputs": [],
      "name": "abort",
      "outputs": [],
      "stateMutability": "nonpayable",
      "type": "function"
    },
    {
      "inputs": [],
      "name": "ancillaryData",
      "outputs": [
        {
          "internalType": "bytes",
          "name": "",
          "type": "bytes"
        }
      ],
      "stateMutability": "view",
      "type": "function"
    },
    {
      "inputs": [],
      "name": "apeIsSent",
      "outputs": [
        {
          "internalType": "bool",
          "name": "",
          "type": "bool"
        }
      ],
      "stateMutability": "view",
      "type": "function"
    },
    {
      "inputs": [
        {
          "internalType": "address",
          "name": "to",
          "type": "address"
        },
        {
          "internalType": "uint256",
          "name": "tokenId",
          "type": "uint256"
        }
      ],
      "name": "approve",
      "outputs": [],
      "stateMutability": "nonpayable",
      "type": "function"
    },
    {
      "inputs": [
        {
          "internalType": "address",
          "name": "owner",
          "type": "address"
        }
      ],
      "name": "balanceOf",
      "outputs": [
        {
          "internalType": "uint256",
          "name": "",
          "type": "uint256"
        }
      ],
      "stateMutability": "view",
      "type": "function"
    },
    {
      "inputs": [],
      "name": "callbackError",
      "outputs": [
        {
          "internalType": "bool",
          "name": "",
          "type": "bool"
        }
      ],
      "stateMutability": "view",
      "type": "function"
    },
    {
      "inputs": [],
      "name": "charityIsSent",
      "outputs": [
        {
          "internalType": "bool",
          "name": "",
          "type": "bool"
        }
      ],
      "stateMutability": "view",
      "type": "function"
    },
    {
      "inputs": [
        {
          "internalType": "uint256[]",
          "name": "tokenIds",
          "type": "uint256[]"
        }
      ],
      "name": "claimRefund",
      "outputs": [],
      "stateMutability": "nonpayable",
      "type": "function"
    },
    {
      "inputs": [
        {
          "internalType": "uint256[]",
          "name": "tokenIds",
          "type": "uint256[]"
        }
      ],
      "name": "claimableAmount",
      "outputs": [
        {
          "internalType": "uint256",
          "name": "",
          "type": "uint256"
        }
      ],
      "stateMutability": "view",
      "type": "function"
    },
    {
      "inputs": [
        {
          "internalType": "uint256",
          "name": "stepId",
          "type": "uint256"
        }
      ],
      "name": "executeStep",
      "outputs": [],
      "stateMutability": "nonpayable",
      "type": "function"
    },
    {
      "inputs": [
        {
          "internalType": "uint256",
          "name": "tokenId",
          "type": "uint256"
        }
      ],
      "name": "getApproved",
      "outputs": [
        {
          "internalType": "address",
          "name": "",
          "type": "address"
        }
      ],
      "stateMutability": "view",
      "type": "function"
    },
    {
      "inputs": [],
      "name": "governanceApproved",
      "outputs": [
        {
          "internalType": "bool",
          "name": "",
          "type": "bool"
        }
      ],
      "stateMutability": "view",
      "type": "function"
    },
    {
      "inputs": [],
      "name": "governanceIsApproved",
      "outputs": [
        {
          "internalType": "bool",
          "name": "",
          "type": "bool"
        }
      ],
      "stateMutability": "view",
      "type": "function"
    },
    {
      "inputs": [
        {
          "internalType": "address",
          "name": "owner",
          "type": "address"
        },
        {
          "internalType": "address",
          "name": "operator",
          "type": "address"
        }
      ],
      "name": "isApprovedForAll",
      "outputs": [
        {
          "internalType": "bool",
          "name": "",
          "type": "bool"
        }
      ],
      "stateMutability": "view",
      "type": "function"
    },
    {
      "inputs": [
        {
          "internalType": "address",
          "name": "to",
          "type": "address"
        },
        {
          "internalType": "uint256",
          "name": "quantity",
          "type": "uint256"
        }
      ],
      "name": "mint",
      "outputs": [],
      "stateMutability": "payable",
      "type": "function"
    },
    {
      "inputs": [],
      "name": "mintProgress",
      "outputs": [
        {
          "internalType": "bool",
          "name": "",
          "type": "bool"
        }
      ],
      "stateMutability": "view",
      "type": "function"
    },
    {
      "inputs": [],
      "name": "name",
      "outputs": [
        {
          "internalType": "string",
          "name": "",
          "type": "string"
        }
      ],
      "stateMutability": "view",
      "type": "function"
    },
    {
      "inputs": [],
      "name": "owner",
      "outputs": [
        {
          "internalType": "address",
          "name": "",
          "type": "address"
        }
      ],
      "stateMutability": "view",
      "type": "function"
    },
    {
      "inputs": [
        {
          "internalType": "uint256",
          "name": "tokenId",
          "type": "uint256"
        }
      ],
      "name": "ownerOf",
      "outputs": [
        {
          "internalType": "address",
          "name": "",
          "type": "address"
        }
      ],
      "stateMutability": "view",
      "type": "function"
    },
    {
      "inputs": [
        {
          "internalType": "bytes32",
          "name": "identifier",
          "type": "bytes32"
        },
        {
          "internalType": "uint256",
          "name": "timestamp",
          "type": "uint256"
        },
        {
          "internalType": "bytes",
          "name": "_ancillaryData",
          "type": "bytes"
        },
        {
          "internalType": "int256",
          "name": "price",
          "type": "int256"
        }
      ],
      "name": "priceSettled",
      "outputs": [],
      "stateMutability": "nonpayable",
      "type": "function"
    },
    {
      "inputs": [],
      "name": "renounceOwnership",
      "outputs": [],
      "stateMutability": "nonpayable",
      "type": "function"
    },
    {
      "inputs": [],
      "name": "requestGovernanceCheck",
      "outputs": [],
      "stateMutability": "nonpayable",
      "type": "function"
    },
    {
      "inputs": [],
      "name": "reverted",
      "outputs": [
        {
          "internalType": "bool",
          "name": "",
          "type": "bool"
        }
      ],
      "stateMutability": "view",
      "type": "function"
    },
    {
      "inputs": [
        {
          "internalType": "address",
          "name": "from",
          "type": "address"
        },
        {
          "internalType": "address",
          "name": "to",
          "type": "address"
        },
        {
          "internalType": "uint256",
          "name": "tokenId",
          "type": "uint256"
        }
      ],
      "name": "safeTransferFrom",
      "outputs": [],
      "stateMutability": "nonpayable",
      "type": "function"
    },
    {
      "inputs": [
        {
          "internalType": "address",
          "name": "from",
          "type": "address"
        },
        {
          "internalType": "address",
          "name": "to",
          "type": "address"
        },
        {
          "internalType": "uint256",
          "name": "tokenId",
          "type": "uint256"
        },
        {
          "internalType": "bytes",
          "name": "_data",
          "type": "bytes"
        }
      ],
      "name": "safeTransferFrom",
      "outputs": [],
      "stateMutability": "nonpayable",
      "type": "function"
    },
    {
      "inputs": [
        {
          "internalType": "address",
          "name": "newOwner",
          "type": "address"
        }
      ],
      "name": "sendApe",
      "outputs": [],
      "stateMutability": "nonpayable",
      "type": "function"
    },
    {
      "inputs": [],
      "name": "sendToCharity",
      "outputs": [],
      "stateMutability": "nonpayable",
      "type": "function"
    },
    {
      "inputs": [
        {
          "internalType": "address",
          "name": "operator",
          "type": "address"
        },
        {
          "internalType": "bool",
          "name": "approved",
          "type": "bool"
        }
      ],
      "name": "setApprovalForAll",
      "outputs": [],
      "stateMutability": "nonpayable",
      "type": "function"
    },
    {
      "inputs": [],
      "name": "stepCount",
      "outputs": [
        {
          "internalType": "uint256",
          "name": "",
          "type": "uint256"
        }
      ],
      "stateMutability": "view",
      "type": "function"
    },
    {
      "inputs": [
        {
          "internalType": "uint256",
          "name": "",
          "type": "uint256"
        }
      ],
      "name": "steps",
      "outputs": [
        {
          "internalType": "bytes32",
          "name": "data",
          "type": "bytes32"
        },
        {
          "internalType": "string",
          "name": "message",
          "type": "string"
        },
        {
          "internalType": "bool",
          "name": "completed",
          "type": "bool"
        }
      ],
      "stateMutability": "view",
      "type": "function"
    },
    {
      "inputs": [],
      "name": "stepsCompleted",
      "outputs": [
        {
          "internalType": "uint256",
          "name": "completed",
          "type": "uint256"
        }
      ],
      "stateMutability": "view",
      "type": "function"
    },
    {
      "inputs": [
        {
          "internalType": "bytes4",
          "name": "interfaceId",
          "type": "bytes4"
        }
      ],
      "name": "supportsInterface",
      "outputs": [
        {
          "internalType": "bool",
          "name": "",
          "type": "bool"
        }
      ],
      "stateMutability": "view",
      "type": "function"
    },
    {
      "inputs": [],
      "name": "symbol",
      "outputs": [
        {
          "internalType": "string",
          "name": "",
          "type": "string"
        }
      ],
      "stateMutability": "view",
      "type": "function"
    },
    {
      "inputs": [
        {
          "internalType": "uint256",
          "name": "index",
          "type": "uint256"
        }
      ],
      "name": "tokenByIndex",
      "outputs": [
        {
          "internalType": "uint256",
          "name": "",
          "type": "uint256"
        }
      ],
      "stateMutability": "view",
      "type": "function"
    },
    {
      "inputs": [
        {
          "internalType": "address",
          "name": "owner",
          "type": "address"
        },
        {
          "internalType": "uint256",
          "name": "index",
          "type": "uint256"
        }
      ],
      "name": "tokenOfOwnerByIndex",
      "outputs": [
        {
          "internalType": "uint256",
          "name": "",
          "type": "uint256"
        }
      ],
      "stateMutability": "view",
      "type": "function"
    },
    {
      "inputs": [
        {
          "internalType": "uint256",
          "name": "tokenId",
          "type": "uint256"
        }
      ],
      "name": "tokenURI",
      "outputs": [
        {
          "internalType": "string",
          "name": "",
          "type": "string"
        }
      ],
      "stateMutability": "view",
      "type": "function"
    },
    {
      "inputs": [],
      "name": "totalSupply",
      "outputs": [
        {
          "internalType": "uint256",
          "name": "",
          "type": "uint256"
        }
      ],
      "stateMutability": "view",
      "type": "function"
    },
    {
      "inputs": [
        {
          "internalType": "address",
          "name": "from",
          "type": "address"
        },
        {
          "internalType": "address",
          "name": "to",
          "type": "address"
        },
        {
          "internalType": "uint256",
          "name": "tokenId",
          "type": "uint256"
        }
      ],
      "name": "transferFrom",
      "outputs": [],
      "stateMutability": "nonpayable",
      "type": "function"
    },
    {
      "inputs": [
        {
          "internalType": "address",
          "name": "newOwner",
          "type": "address"
        }
      ],
      "name": "transferOwnership",
      "outputs": [],
      "stateMutability": "nonpayable",
      "type": "function"
    },
    {
      "inputs": [],
      "name": "withdrawFunds",
      "outputs": [],
      "stateMutability": "nonpayable",
      "type": "function"
    }
  ],
  "transactionHash": "0x0d58aa0728b16e6b0c96d8d036ec07537450900df88af2812d14f441d0d7a729",
  "args": [],
  "numDeployments": 14,
  "solcInputHash": "991b000bc17e8c39695e065b72f5e4d3",
  "bytecode": "0x60806040526000600a60146101000a81548160ff0219169083151502179055506000600f60006101000a81548160ff0219169083151502179055506000600f60016101000a81548160ff0219169083151502179055506040518060600160405280602981526020016200630c6029913960109080519060200190620000869291906200064b565b506040518060a0016040528060658152602001620061db6065913960119080519060200190620000b89291906200064b565b506040518060400160405280601781526020017f206f662074686520766f74657320617265205945533f2c00000000000000000081525060129080519060200190620001069291906200064b565b5060405180610100016040528060cc81526020016200624060cc91396013908051906020019062000139929190620006dc565b507f5945535f4f525f4e4f5f51554552590000000000000000000000000000000000601455426015556000601660006101000a81548160ff0219169083151502179055506000601660016101000a81548160ff021916908315150217905550348015620001a557600080fd5b50662386f26fc1000066038d7ea4c680006040518060400160405280600781526020017f4d79546f6b656e000000000000000000000000000000000000000000000000008152506040518060400160405280600381526020017f4d544b000000000000000000000000000000000000000000000000000000000081525081600090805190602001906200023a9291906200064b565b508060019080519060200190620002539291906200064b565b505050620002766200026a6200047c60201b60201c565b6200048460201b60201c565b81600b8190555080600c819055505050620003026040518060400160405280601681526020017f676f7665726e616e63654973417070726f7665642829000000000000000000008152506040518060400160405280601381526020017f476f7665726e616e636520617070726f76616c000000000000000000000000008152506200054a60201b60201c565b6200037e6040518060400160405280600e81526020017f6d696e7450726f677265737328290000000000000000000000000000000000008152506040518060400160405280600b81526020017f48616c66206d696e7465640000000000000000000000000000000000000000008152506200054a60201b60201c565b620003fa6040518060400160405280600b81526020017f617065497353656e7428290000000000000000000000000000000000000000008152506040518060400160405280601181526020017f424159432073656e7420746f20757365720000000000000000000000000000008152506200054a60201b60201c565b620004766040518060400160405280600f81526020017f63686172697479497353656e74282900000000000000000000000000000000008152506040518060400160405280600c81526020017f436861726974792073656e7400000000000000000000000000000000000000008152506200054a60201b60201c565b6200093f565b600033905090565b6000600a60009054906101000a900473ffffffffffffffffffffffffffffffffffffffff16905081600a60006101000a81548173ffffffffffffffffffffffffffffffffffffffff021916908373ffffffffffffffffffffffffffffffffffffffff1602179055508173ffffffffffffffffffffffffffffffffffffffff168173ffffffffffffffffffffffffffffffffffffffff167f8be0079c531659141344cd1fd0a4f28419497f9722a3daafe3b4186f6b6457e060405160405180910390a35050565b6000826040516020016200055f919062000815565b604051602081830303815290604052805190602001209050600e6040518060600160405280838152602001848152602001600015158152509080600181540180825580915050600190039060005260206000209060030201600090919091909150600082015181600001556020820151816001019080519060200190620005e89291906200064b565b5060408201518160020160006101000a81548160ff02191690831515021790555050507fca729272cde0dd3fe1a318c7526cdb798b16b524780aacd4fe24b04c87954fd481836040516200063e9291906200082e565b60405180910390a1505050565b8280546200065990620008c9565b90600052602060002090601f0160209004810192826200067d5760008555620006c9565b82601f106200069857805160ff1916838001178555620006c9565b82800160010185558215620006c9579182015b82811115620006c8578251825591602001919060010190620006ab565b5b509050620006d891906200076d565b5090565b828054620006ea90620008c9565b90600052602060002090601f0160209004810192826200070e57600085556200075a565b82601f106200072957805160ff19168380011785556200075a565b828001600101855582156200075a579182015b82811115620007595782518255916020019190600101906200073c565b5b5090506200076991906200076d565b5090565b5b80821115620007885760008160009055506001016200076e565b5090565b620007978162000889565b82525050565b6000620007aa8262000862565b620007b681856200086d565b9350620007c881856020860162000893565b620007d3816200092e565b840191505092915050565b6000620007eb8262000862565b620007f781856200087e565b93506200080981856020860162000893565b80840191505092915050565b6000620008238284620007de565b915081905092915050565b60006040820190506200084560008301856200078c565b81810360208301526200085981846200079d565b90509392505050565b600081519050919050565b600082825260208201905092915050565b600081905092915050565b6000819050919050565b60005b83811015620008b357808201518184015260208101905062000896565b83811115620008c3576000848401525b50505050565b60006002820490506001821680620008e257607f821691505b60208210811415620008f957620008f8620008ff565b5b50919050565b7f4e487b7100000000000000000000000000000000000000000000000000000000600052602260045260246000fd5b6000601f19601f8301169050919050565b61588c806200094f6000396000f3fe60806040526004361061025c5760003560e01c80636559905711610144578063b88d4fde116100b6578063d7e5d8ac1161007a578063d7e5d8ac146108e1578063e3389f09146108f8578063e985e9c51461090f578063f2f1f22f1461094c578063f2fde38b14610977578063f54a6f83146109a05761025c565b8063b88d4fde146107fa578063bc0af82a14610823578063bf5febca1461084e578063c002d23d14610879578063c87b56dd146108a45761025c565b806378ebce481161010857806378ebce48146106fe578063867fc17a146107275780638da5cb5b1461075057806395d89b411461077b578063a22cb465146107a6578063b64c7a73146107cf5761025c565b80636559905714610615578063661a4f531461064057806370a082311461066b578063715018a6146106a85780637217e0b9146106bf5761025c565b80632f745c59116101dd57806342842e0e116101a157806342842e0e146104df5780634bdfc736146105085780634f6ccce71461054557806356b16953146105825780636352211e146105ad578063637eb40b146105ea5761025c565b80632f745c591461041957806332cb6b0c1461045657806335a063b41461048157806340c10f1914610498578063415deffa146104b45761025c565b8063095ea7b311610224578063095ea7b31461035a57806316e3c7491461038357806318160ddd146103ae57806323b872dd146103d957806324600fc3146104025761025c565b806301ffc9a71461026157806304cc1fd51461029e57806306fdde03146102c7578063081812fc146102f25780630914c0151461032f575b600080fd5b34801561026d57600080fd5b5061028860048036038101906102839190613e45565b6109c9565b60405161029591906146aa565b60405180910390f35b3480156102aa57600080fd5b506102c560048036038101906102c09190613dca565b6109db565b005b3480156102d357600080fd5b506102dc610b8f565b6040516102e991906147cb565b60405180910390f35b3480156102fe57600080fd5b5061031960048036038101906103149190613e97565b610c21565b604051610326919061460c565b60405180910390f35b34801561033b57600080fd5b50610344610ca6565b6040516103519190614be6565b60405180910390f35b34801561036657600080fd5b50610381600480360381019061037c9190613d4d565b610cb1565b005b34801561038f57600080fd5b50610398610dc9565b6040516103a591906146aa565b60405180910390f35b3480156103ba57600080fd5b506103c3610de0565b6040516103d09190614be6565b60405180910390f35b3480156103e557600080fd5b5061040060048036038101906103fb9190613c47565b610ded565b005b34801561040e57600080fd5b50610417610e4d565b005b34801561042557600080fd5b50610440600480360381019061043b9190613d4d565b610fd4565b60405161044d9190614be6565b60405180910390f35b34801561046257600080fd5b5061046b611079565b6040516104789190614be6565b60405180910390f35b34801561048d57600080fd5b5061049661107e565b005b6104b260048036038101906104ad9190613d4d565b611117565b005b3480156104c057600080fd5b506104c96111fa565b6040516104d69190614be6565b60405180910390f35b3480156104eb57600080fd5b5061050660048036038101906105019190613c47565b611207565b005b34801561051457600080fd5b5061052f600480360381019061052a9190613d89565b611227565b60405161053c9190614be6565b60405180910390f35b34801561055157600080fd5b5061056c60048036038101906105679190613e97565b61145b565b6040516105799190614be6565b60405180910390f35b34801561058e57600080fd5b506105976114f2565b6040516105a491906146aa565b60405180910390f35b3480156105b957600080fd5b506105d460048036038101906105cf9190613e97565b611510565b6040516105e1919061460c565b60405180910390f35b3480156105f657600080fd5b506105ff6115c2565b60405161060c91906146aa565b60405180910390f35b34801561062157600080fd5b5061062a6115d9565b60405161063791906147a9565b60405180910390f35b34801561064c57600080fd5b50610655611667565b60405161066291906146aa565b60405180910390f35b34801561067757600080fd5b50610692600480360381019061068d9190613bb9565b61167a565b60405161069f9190614be6565b60405180910390f35b3480156106b457600080fd5b506106bd611732565b005b3480156106cb57600080fd5b506106e660048036038101906106e19190613e97565b6117ba565b6040516106f5939291906146c5565b60405180910390f35b34801561070a57600080fd5b5061072560048036038101906107209190613bb9565b611889565b005b34801561073357600080fd5b5061074e60048036038101906107499190613e97565b611923565b005b34801561075c57600080fd5b50610765611c36565b604051610772919061460c565b60405180910390f35b34801561078757600080fd5b50610790611c60565b60405161079d91906147cb565b60405180910390f35b3480156107b257600080fd5b506107cd60048036038101906107c89190613d11565b611cf2565b005b3480156107db57600080fd5b506107e4611d08565b6040516107f19190614be6565b60405180910390f35b34801561080657600080fd5b50610821600480360381019061081c9190613c96565b611e5d565b005b34801561082f57600080fd5b50610838611ebf565b60405161084591906146aa565b60405180910390f35b34801561085a57600080fd5b50610863611ed2565b60405161087091906146aa565b60405180910390f35b34801561088557600080fd5b5061088e611ee9565b60405161089b9190614be6565b60405180910390f35b3480156108b057600080fd5b506108cb60048036038101906108c69190613e97565b611ef4565b6040516108d891906147cb565b60405180910390f35b3480156108ed57600080fd5b506108f6611f9b565b005b34801561090457600080fd5b5061090d612034565b005b34801561091b57600080fd5b5061093660048036038101906109319190613c0b565b612175565b60405161094391906146aa565b60405180910390f35b34801561095857600080fd5b50610961612209565b60405161096e91906146aa565b60405180910390f35b34801561098357600080fd5b5061099e60048036038101906109999190613bb9565b61221c565b005b3480156109ac57600080fd5b506109c760048036038101906109c29190613d89565b612314565b005b60006109d482612613565b9050919050565b60006109e561268d565b90508073ffffffffffffffffffffffffffffffffffffffff163373ffffffffffffffffffffffffffffffffffffffff1614610a55576040517f08c379a0000000000000000000000000000000000000000000000000000000008152600401610a4c90614a86565b60405180910390fd5b6015548414610a99576040517f08c379a0000000000000000000000000000000000000000000000000000000008152600401610a90906147ed565b60405180910390fd5b6014548514610add576040517f08c379a0000000000000000000000000000000000000000000000000000000008152600401610ad490614b86565b60405180910390fd5b82805190602001206013604051610af491906145d1565b604051809103902014610b3c576040517f08c379a0000000000000000000000000000000000000000000000000000000008152600401610b3390614b46565b60405180910390fd5b670de0b6b3a7640000821415610b6c576001600f60006101000a81548160ff021916908315150217905550610b88565b6001600f60016101000a81548160ff0219169083151502179055505b5050505050565b606060008054610b9e90614f0d565b80601f0160208091040260200160405190810160405280929190818152602001828054610bca90614f0d565b8015610c175780601f10610bec57610100808354040283529160200191610c17565b820191906000526020600020905b815481529060010190602001808311610bfa57829003601f168201915b5050505050905090565b6000610c2c8261273a565b610c6b576040517f08c379a0000000000000000000000000000000000000000000000000000000008152600401610c6290614aa6565b60405180910390fd5b6004600083815260200190815260200160002060009054906101000a900473ffffffffffffffffffffffffffffffffffffffff169050919050565b662386f26fc1000081565b6000610cbc82611510565b90508073ffffffffffffffffffffffffffffffffffffffff168373ffffffffffffffffffffffffffffffffffffffff161415610d2d576040517f08c379a0000000000000000000000000000000000000000000000000000000008152600401610d2490614b26565b60405180910390fd5b8073ffffffffffffffffffffffffffffffffffffffff16610d4c6127a6565b73ffffffffffffffffffffffffffffffffffffffff161480610d7b5750610d7a81610d756127a6565b612175565b5b610dba576040517f08c379a0000000000000000000000000000000000000000000000000000000008152600401610db190614a06565b60405180910390fd5b610dc483836127ae565b505050565b6000600f60009054906101000a900460ff16905090565b6000600880549050905090565b610dfe610df86127a6565b82612867565b610e3d576040517f08c379a0000000000000000000000000000000000000000000000000000000008152600401610e3490614b66565b60405180910390fd5b610e48838383612945565b505050565b610e556127a6565b73ffffffffffffffffffffffffffffffffffffffff16610e73611c36565b73ffffffffffffffffffffffffffffffffffffffff1614610ec9576040517f08c379a0000000000000000000000000000000000000000000000000000000008152600401610ec090614ae6565b60405180910390fd5b60005b600e80549050811015610f8457600e8181548110610f13577f4e487b7100000000000000000000000000000000000000000000000000000000600052603260045260246000fd5b906000526020600020906003020160020160009054906101000a900460ff16610f71576040517f08c379a0000000000000000000000000000000000000000000000000000000008152600401610f6890614ac6565b60405180910390fd5b8080610f7c90614f70565b915050610ecc565b5060004790503373ffffffffffffffffffffffffffffffffffffffff166108fc829081150290604051600060405180830381858888f19350505050158015610fd0573d6000803e3d6000fd5b5050565b6000610fdf8361167a565b8210611020576040517f08c379a000000000000000000000000000000000000000000000000000000000815260040161101790614866565b60405180910390fd5b600660008473ffffffffffffffffffffffffffffffffffffffff1673ffffffffffffffffffffffffffffffffffffffff168152602001908152602001600020600083815260200190815260200160002054905092915050565b606481565b6110866127a6565b73ffffffffffffffffffffffffffffffffffffffff166110a4611c36565b73ffffffffffffffffffffffffffffffffffffffff16146110fa576040517f08c379a00000000000000000000000000000000000000000000000000000000081526004016110f190614ae6565b60405180910390fd5b6001600a60146101000a81548160ff021916908315150217905550565b60008166038d7ea4c6800061112c9190614d6d565b9050348114611170576040517f08c379a0000000000000000000000000000000000000000000000000000000008152600401611167906149a6565b60405180910390fd5b60648261117b610de0565b6111859190614ce6565b106111c5576040517f08c379a00000000000000000000000000000000000000000000000000000000081526004016111bc9061482d565b60405180910390fd5b60005b828110156111f4576111e1846111dc610de0565b612bac565b80806111ec90614f70565b9150506111c8565b50505050565b6000600e80549050905090565b61122283838360405180602001604052806000815250611e5d565b505050565b600080600090506000309050600061123d611d08565b90506000600c548373ffffffffffffffffffffffffffffffffffffffff166318160ddd6040518163ffffffff1660e01b815260040160206040518083038186803b15801561128a57600080fd5b505afa15801561129e573d6000803e3d6000fd5b505050506040513d601f19601f820116820180604052508101906112c29190613ec0565b6112cc9190614d6d565b9050600b548110156112e5576000945050505050611456565b6000600b54826112f59190614dc7565b90506000479050818110156113135760009650505050505050611456565b60008085111561133e57600e805490506103e8866113319190614d6d565b61133b9190614d3c565b90505b60008673ffffffffffffffffffffffffffffffffffffffff166318160ddd6040518163ffffffff1660e01b815260040160206040518083038186803b15801561138657600080fd5b505afa15801561139a573d6000803e3d6000fd5b505050506040513d601f19601f820116820180604052508101906113be9190613ec0565b846113c99190614d3c565b905060005b8a5181101561144957600d600082815260200190815260200160002060009054906101000a900460ff16611436576000836103e861140c9190614dc7565b90506103e8818461141d9190614d6d565b6114279190614d3c565b8a6114329190614ce6565b9950505b808061144190614f70565b9150506113ce565b5087985050505050505050505b919050565b6000611465610de0565b82106114a6576040517f08c379a000000000000000000000000000000000000000000000000000000000815260040161149d90614ba6565b60405180910390fd5b600882815481106114e0577f4e487b7100000000000000000000000000000000000000000000000000000000600052603260045260246000fd5b90600052602060002001549050919050565b60006114fc610de0565b6002606461150a9190614d3c565b10905090565b6000806002600084815260200190815260200160002060009054906101000a900473ffffffffffffffffffffffffffffffffffffffff169050600073ffffffffffffffffffffffffffffffffffffffff168173ffffffffffffffffffffffffffffffffffffffff1614156115b9576040517f08c379a00000000000000000000000000000000000000000000000000000000081526004016115b090614a46565b60405180910390fd5b80915050919050565b6000601660009054906101000a900460ff16905090565b601380546115e690614f0d565b80601f016020809104026020016040519081016040528092919081815260200182805461161290614f0d565b801561165f5780601f106116345761010080835404028352916020019161165f565b820191906000526020600020905b81548152906001019060200180831161164257829003601f168201915b505050505081565b600f60019054906101000a900460ff1681565b60008073ffffffffffffffffffffffffffffffffffffffff168273ffffffffffffffffffffffffffffffffffffffff1614156116eb576040517f08c379a00000000000000000000000000000000000000000000000000000000081526004016116e290614a26565b60405180910390fd5b600360008373ffffffffffffffffffffffffffffffffffffffff1673ffffffffffffffffffffffffffffffffffffffff168152602001908152602001600020549050919050565b61173a6127a6565b73ffffffffffffffffffffffffffffffffffffffff16611758611c36565b73ffffffffffffffffffffffffffffffffffffffff16146117ae576040517f08c379a00000000000000000000000000000000000000000000000000000000081526004016117a590614ae6565b60405180910390fd5b6117b86000612bca565b565b600e81815481106117ca57600080fd5b90600052602060002090600302016000915090508060000154908060010180546117f390614f0d565b80601f016020809104026020016040519081016040528092919081815260200182805461181f90614f0d565b801561186c5780601f106118415761010080835404028352916020019161186c565b820191906000526020600020905b81548152906001019060200180831161184f57829003601f168201915b5050505050908060020160009054906101000a900460ff16905083565b6118916127a6565b73ffffffffffffffffffffffffffffffffffffffff166118af611c36565b73ffffffffffffffffffffffffffffffffffffffff1614611905576040517f08c379a00000000000000000000000000000000000000000000000000000000081526004016118fc90614ae6565b60405180910390fd5b6001601660006101000a81548160ff02191690831515021790555050565b6000600e828154811061195f577f4e487b7100000000000000000000000000000000000000000000000000000000600052603260045260246000fd5b90600052602060002090600302016040518060600160405290816000820154815260200160018201805461199290614f0d565b80601f01602080910402602001604051908101604052809291908181526020018280546119be90614f0d565b8015611a0b5780601f106119e057610100808354040283529160200191611a0b565b820191906000526020600020905b8154815290600101906020018083116119ee57829003601f168201915b505050505081526020016002820160009054906101000a900460ff1615151515815250509050806040015115611a76576040517f08c379a0000000000000000000000000000000000000000000000000000000008152600401611a6d906148c6565b60405180910390fd5b6000803073ffffffffffffffffffffffffffffffffffffffff168360000151604051602001611aa5919061459f565b604051602081830303815290604052604051611ac191906145ba565b6000604051808303816000865af19150503d8060008114611afe576040519150601f19603f3d011682016040523d82523d6000602084013e611b03565b606091505b509150915060008151602083015191505082611b54576040517f08c379a0000000000000000000000000000000000000000000000000000000008152600401611b4b90614bc6565b60405180910390fd5b80611b94576040517f08c379a0000000000000000000000000000000000000000000000000000000008152600401611b8b9061480d565b60405180910390fd5b6001600e8681548110611bd0577f4e487b7100000000000000000000000000000000000000000000000000000000600052603260045260246000fd5b906000526020600020906003020160020160006101000a81548160ff0219169083151502179055507f7d716790d01a64421d121f2b247366a43719c87528485b9900995183b635fe8a85604051611c279190614be6565b60405180910390a15050505050565b6000600a60009054906101000a900473ffffffffffffffffffffffffffffffffffffffff16905090565b606060018054611c6f90614f0d565b80601f0160208091040260200160405190810160405280929190818152602001828054611c9b90614f0d565b8015611ce85780601f10611cbd57610100808354040283529160200191611ce8565b820191906000526020600020905b815481529060010190602001808311611ccb57829003601f168201915b5050505050905090565b611d04611cfd6127a6565b8383612c90565b5050565b600080600090505b600e80549050811015611e59576000600e8281548110611d59577f4e487b7100000000000000000000000000000000000000000000000000000000600052603260045260246000fd5b906000526020600020906003020160405180606001604052908160008201548152602001600182018054611d8c90614f0d565b80601f0160208091040260200160405190810160405280929190818152602001828054611db890614f0d565b8015611e055780601f10611dda57610100808354040283529160200191611e05565b820191906000526020600020905b815481529060010190602001808311611de857829003601f168201915b505050505081526020016002820160009054906101000a900460ff1615151515815250509050806040015115611e4557600183611e429190614ce6565b92505b508080611e5190614f70565b915050611d10565b5090565b611e6e611e686127a6565b83612867565b611ead576040517f08c379a0000000000000000000000000000000000000000000000000000000008152600401611ea490614b66565b60405180910390fd5b611eb984848484612dfd565b50505050565b600a60149054906101000a900460ff1681565b6000601660019054906101000a900460ff16905090565b66038d7ea4c6800081565b6060611eff8261273a565b611f3e576040517f08c379a0000000000000000000000000000000000000000000000000000000008152600401611f3590614b06565b60405180910390fd5b6000611f48612e59565b90506000815111611f685760405180602001604052806000815250611f93565b80611f7284612e70565b604051602001611f839291906145e8565b6040516020818303038152906040525b915050919050565b611fa36127a6565b73ffffffffffffffffffffffffffffffffffffffff16611fc1611c36565b73ffffffffffffffffffffffffffffffffffffffff1614612017576040517f08c379a000000000000000000000000000000000000000000000000000000000815260040161200e90614ae6565b60405180910390fd5b6001601660016101000a81548160ff021916908315150217905550565b600061203e61268d565b9050600073bf7a7169562078c96f0ec1a8afd6ae50f12e5a9990508173ffffffffffffffffffffffffffffffffffffffff166311df92f1601454601554601385670de0b6b3a76400006040518663ffffffff1660e01b81526004016120a7959493929190614703565b602060405180830381600087803b1580156120c157600080fd5b505af11580156120d5573d6000803e3d6000fd5b505050506040513d601f19601f820116820180604052508101906120f99190613ec0565b508173ffffffffffffffffffffffffffffffffffffffff1663473c45fe601454601554601360786040518563ffffffff1660e01b815260040161213f949392919061475d565b600060405180830381600087803b15801561215957600080fd5b505af115801561216d573d6000803e3d6000fd5b505050505050565b6000600560008473ffffffffffffffffffffffffffffffffffffffff1673ffffffffffffffffffffffffffffffffffffffff16815260200190815260200160002060008373ffffffffffffffffffffffffffffffffffffffff1673ffffffffffffffffffffffffffffffffffffffff16815260200190815260200160002060009054906101000a900460ff16905092915050565b600f60009054906101000a900460ff1681565b6122246127a6565b73ffffffffffffffffffffffffffffffffffffffff16612242611c36565b73ffffffffffffffffffffffffffffffffffffffff1614612298576040517f08c379a000000000000000000000000000000000000000000000000000000000815260040161228f90614ae6565b60405180910390fd5b600073ffffffffffffffffffffffffffffffffffffffff168173ffffffffffffffffffffffffffffffffffffffff161415612308576040517f08c379a00000000000000000000000000000000000000000000000000000000081526004016122ff906148e6565b60405180910390fd5b61231181612bca565b50565b600a60149054906101000a900460ff16612363576040517f08c379a000000000000000000000000000000000000000000000000000000000815260040161235a906148a6565b60405180910390fd5b600030905060005b82518110156125b9573373ffffffffffffffffffffffffffffffffffffffff168273ffffffffffffffffffffffffffffffffffffffff16636352211e836040518263ffffffff1660e01b81526004016123c49190614be6565b60206040518083038186803b1580156123dc57600080fd5b505afa1580156123f0573d6000803e3d6000fd5b505050506040513d601f19601f820116820180604052508101906124149190613be2565b73ffffffffffffffffffffffffffffffffffffffff161461246a576040517f08c379a000000000000000000000000000000000000000000000000000000000815260040161246190614946565b60405180910390fd5b600d600082815260200190815260200160002060009054906101000a900460ff16156124cb576040517f08c379a00000000000000000000000000000000000000000000000000000000081526004016124c2906149e6565b60405180910390fd5b6001600d600083815260200190815260200160002060006101000a81548160ff0219169083151502179055508173ffffffffffffffffffffffffffffffffffffffff166323b872dd333086858151811061254e577f4e487b7100000000000000000000000000000000000000000000000000000000600052603260045260246000fd5b60200260200101516040518463ffffffff1660e01b815260040161257493929190614627565b600060405180830381600087803b15801561258e57600080fd5b505af11580156125a2573d6000803e3d6000fd5b5050505080806125b190614f70565b91505061236b565b5060006125c583611227565b90503373ffffffffffffffffffffffffffffffffffffffff166108fc829081150290604051600060405180830381858888f1935050505015801561260d573d6000803e3d6000fd5b50505050565b60007f780e9d63000000000000000000000000000000000000000000000000000000007bffffffffffffffffffffffffffffffffffffffffffffffffffffffff1916827bffffffffffffffffffffffffffffffffffffffffffffffffffffffff1916148061268657506126858261301d565b5b9050919050565b60008073ed0169a88d267063184b0853baaaae66c3c154b2905060008190508073ffffffffffffffffffffffffffffffffffffffff1663aafd5e406040518163ffffffff1660e01b81526004016126e39061484d565b60206040518083038186803b1580156126fb57600080fd5b505afa15801561270f573d6000803e3d6000fd5b505050506040513d601f19601f820116820180604052508101906127339190613be2565b9250505090565b60008073ffffffffffffffffffffffffffffffffffffffff166002600084815260200190815260200160002060009054906101000a900473ffffffffffffffffffffffffffffffffffffffff1673ffffffffffffffffffffffffffffffffffffffff1614159050919050565b600033905090565b816004600083815260200190815260200160002060006101000a81548173ffffffffffffffffffffffffffffffffffffffff021916908373ffffffffffffffffffffffffffffffffffffffff160217905550808273ffffffffffffffffffffffffffffffffffffffff1661282183611510565b73ffffffffffffffffffffffffffffffffffffffff167f8c5be1e5ebec7d5bd14f71427d1e84f3dd0314c0f7b2291e5b200ac8c7c3b92560405160405180910390a45050565b60006128728261273a565b6128b1576040517f08c379a00000000000000000000000000000000000000000000000000000000081526004016128a8906149c6565b60405180910390fd5b60006128bc83611510565b90508073ffffffffffffffffffffffffffffffffffffffff168473ffffffffffffffffffffffffffffffffffffffff1614806128fe57506128fd8185612175565b5b8061293c57508373ffffffffffffffffffffffffffffffffffffffff1661292484610c21565b73ffffffffffffffffffffffffffffffffffffffff16145b91505092915050565b8273ffffffffffffffffffffffffffffffffffffffff1661296582611510565b73ffffffffffffffffffffffffffffffffffffffff16146129bb576040517f08c379a00000000000000000000000000000000000000000000000000000000081526004016129b290614906565b60405180910390fd5b600073ffffffffffffffffffffffffffffffffffffffff168273ffffffffffffffffffffffffffffffffffffffff161415612a2b576040517f08c379a0000000000000000000000000000000000000000000000000000000008152600401612a2290614966565b60405180910390fd5b612a368383836130ff565b612a416000826127ae565b6001600360008573ffffffffffffffffffffffffffffffffffffffff1673ffffffffffffffffffffffffffffffffffffffff1681526020019081526020016000206000828254612a919190614dc7565b925050819055506001600360008473ffffffffffffffffffffffffffffffffffffffff1673ffffffffffffffffffffffffffffffffffffffff1681526020019081526020016000206000828254612ae89190614ce6565b92505081905550816002600083815260200190815260200160002060006101000a81548173ffffffffffffffffffffffffffffffffffffffff021916908373ffffffffffffffffffffffffffffffffffffffff160217905550808273ffffffffffffffffffffffffffffffffffffffff168473ffffffffffffffffffffffffffffffffffffffff167fddf252ad1be2c89b69c2b068fc378daa952ba7f163c4a11628f55a4df523b3ef60405160405180910390a4612ba783838361310f565b505050565b612bc6828260405180602001604052806000815250613114565b5050565b6000600a60009054906101000a900473ffffffffffffffffffffffffffffffffffffffff16905081600a60006101000a81548173ffffffffffffffffffffffffffffffffffffffff021916908373ffffffffffffffffffffffffffffffffffffffff1602179055508173ffffffffffffffffffffffffffffffffffffffff168173ffffffffffffffffffffffffffffffffffffffff167f8be0079c531659141344cd1fd0a4f28419497f9722a3daafe3b4186f6b6457e060405160405180910390a35050565b8173ffffffffffffffffffffffffffffffffffffffff168373ffffffffffffffffffffffffffffffffffffffff161415612cff576040517f08c379a0000000000000000000000000000000000000000000000000000000008152600401612cf690614986565b60405180910390fd5b80600560008573ffffffffffffffffffffffffffffffffffffffff1673ffffffffffffffffffffffffffffffffffffffff16815260200190815260200160002060008473ffffffffffffffffffffffffffffffffffffffff1673ffffffffffffffffffffffffffffffffffffffff16815260200190815260200160002060006101000a81548160ff0219169083151502179055508173ffffffffffffffffffffffffffffffffffffffff168373ffffffffffffffffffffffffffffffffffffffff167f17307eab39ab6107e8899845ad3d59bd9653f200f220920489ca2b5937696c3183604051612df091906146aa565b60405180910390a3505050565b612e08848484612945565b612e148484848461316f565b612e53576040517f08c379a0000000000000000000000000000000000000000000000000000000008152600401612e4a90614886565b60405180910390fd5b50505050565b606060405180602001604052806000815250905090565b60606000821415612eb8576040518060400160405280600181526020017f30000000000000000000000000000000000000000000000000000000000000008152509050613018565b600082905060005b60008214612eea578080612ed390614f70565b915050600a82612ee39190614d3c565b9150612ec0565b60008167ffffffffffffffff811115612f2c577f4e487b7100000000000000000000000000000000000000000000000000000000600052604160045260246000fd5b6040519080825280601f01601f191660200182016040528015612f5e5781602001600182028036833780820191505090505b5090505b6000851461301157600182612f779190614dc7565b9150600a85612f869190614fc3565b6030612f929190614ce6565b60f81b818381518110612fce577f4e487b7100000000000000000000000000000000000000000000000000000000600052603260045260246000fd5b60200101907effffffffffffffffffffffffffffffffffffffffffffffffffffffffffffff1916908160001a905350600a8561300a9190614d3c565b9450612f62565b8093505050505b919050565b60007f80ac58cd000000000000000000000000000000000000000000000000000000007bffffffffffffffffffffffffffffffffffffffffffffffffffffffff1916827bffffffffffffffffffffffffffffffffffffffffffffffffffffffff191614806130e857507f5b5e139f000000000000000000000000000000000000000000000000000000007bffffffffffffffffffffffffffffffffffffffffffffffffffffffff1916827bffffffffffffffffffffffffffffffffffffffffffffffffffffffff1916145b806130f857506130f782613306565b5b9050919050565b61310a838383613370565b505050565b505050565b61311e8383613484565b61312b600084848461316f565b61316a576040517f08c379a000000000000000000000000000000000000000000000000000000000815260040161316190614886565b60405180910390fd5b505050565b60006131908473ffffffffffffffffffffffffffffffffffffffff1661365e565b156132f9578373ffffffffffffffffffffffffffffffffffffffff1663150b7a026131b96127a6565b8786866040518563ffffffff1660e01b81526004016131db949392919061465e565b602060405180830381600087803b1580156131f557600080fd5b505af192505050801561322657506040513d601f19601f820116820180604052508101906132239190613e6e565b60015b6132a9573d8060008114613256576040519150601f19603f3d011682016040523d82523d6000602084013e61325b565b606091505b506000815114156132a1576040517f08c379a000000000000000000000000000000000000000000000000000000000815260040161329890614886565b60405180910390fd5b805181602001fd5b63150b7a0260e01b7bffffffffffffffffffffffffffffffffffffffffffffffffffffffff1916817bffffffffffffffffffffffffffffffffffffffffffffffffffffffff1916149150506132fe565b600190505b949350505050565b60007f01ffc9a7000000000000000000000000000000000000000000000000000000007bffffffffffffffffffffffffffffffffffffffffffffffffffffffff1916827bffffffffffffffffffffffffffffffffffffffffffffffffffffffff1916149050919050565b61337b838383613681565b600073ffffffffffffffffffffffffffffffffffffffff168373ffffffffffffffffffffffffffffffffffffffff1614156133be576133b981613686565b6133fd565b8173ffffffffffffffffffffffffffffffffffffffff168373ffffffffffffffffffffffffffffffffffffffff16146133fc576133fb83826136cf565b5b5b600073ffffffffffffffffffffffffffffffffffffffff168273ffffffffffffffffffffffffffffffffffffffff1614156134405761343b8161383c565b61347f565b8273ffffffffffffffffffffffffffffffffffffffff168273ffffffffffffffffffffffffffffffffffffffff161461347e5761347d828261397f565b5b5b505050565b600073ffffffffffffffffffffffffffffffffffffffff168273ffffffffffffffffffffffffffffffffffffffff1614156134f4576040517f08c379a00000000000000000000000000000000000000000000000000000000081526004016134eb90614a66565b60405180910390fd5b6134fd8161273a565b1561353d576040517f08c379a000000000000000000000000000000000000000000000000000000000815260040161353490614926565b60405180910390fd5b613549600083836130ff565b6001600360008473ffffffffffffffffffffffffffffffffffffffff1673ffffffffffffffffffffffffffffffffffffffff16815260200190815260200160002060008282546135999190614ce6565b92505081905550816002600083815260200190815260200160002060006101000a81548173ffffffffffffffffffffffffffffffffffffffff021916908373ffffffffffffffffffffffffffffffffffffffff160217905550808273ffffffffffffffffffffffffffffffffffffffff16600073ffffffffffffffffffffffffffffffffffffffff167fddf252ad1be2c89b69c2b068fc378daa952ba7f163c4a11628f55a4df523b3ef60405160405180910390a461365a6000838361310f565b5050565b6000808273ffffffffffffffffffffffffffffffffffffffff163b119050919050565b505050565b6008805490506009600083815260200190815260200160002081905550600881908060018154018082558091505060019003906000526020600020016000909190919091505550565b600060016136dc8461167a565b6136e69190614dc7565b90506000600760008481526020019081526020016000205490508181146137cb576000600660008673ffffffffffffffffffffffffffffffffffffffff1673ffffffffffffffffffffffffffffffffffffffff168152602001908152602001600020600084815260200190815260200160002054905080600660008773ffffffffffffffffffffffffffffffffffffffff1673ffffffffffffffffffffffffffffffffffffffff168152602001908152602001600020600084815260200190815260200160002081905550816007600083815260200190815260200160002081905550505b6007600084815260200190815260200160002060009055600660008573ffffffffffffffffffffffffffffffffffffffff1673ffffffffffffffffffffffffffffffffffffffff16815260200190815260200160002060008381526020019081526020016000206000905550505050565b600060016008805490506138509190614dc7565b90506000600960008481526020019081526020016000205490506000600883815481106138a6577f4e487b7100000000000000000000000000000000000000000000000000000000600052603260045260246000fd5b9060005260206000200154905080600883815481106138ee577f4e487b7100000000000000000000000000000000000000000000000000000000600052603260045260246000fd5b906000526020600020018190555081600960008381526020019081526020016000208190555060096000858152602001908152602001600020600090556008805480613963577f4e487b7100000000000000000000000000000000000000000000000000000000600052603160045260246000fd5b6001900381819060005260206000200160009055905550505050565b600061398a8361167a565b905081600660008573ffffffffffffffffffffffffffffffffffffffff1673ffffffffffffffffffffffffffffffffffffffff168152602001908152602001600020600083815260200190815260200160002081905550806007600084815260200190815260200160002081905550505050565b6000613a11613a0c84614c26565b614c01565b90508083825260208201905082856020860282011115613a3057600080fd5b60005b85811015613a605781613a468882613b8f565b845260208401935060208301925050600181019050613a33565b5050509392505050565b6000613a7d613a7884614c52565b614c01565b905082815260208101848484011115613a9557600080fd5b613aa0848285614ecb565b509392505050565b600081359050613ab7816157cc565b92915050565b600081519050613acc816157cc565b92915050565b600082601f830112613ae357600080fd5b8135613af38482602086016139fe565b91505092915050565b600081359050613b0b816157e3565b92915050565b600081359050613b20816157fa565b92915050565b600081359050613b3581615811565b92915050565b600081519050613b4a81615811565b92915050565b600082601f830112613b6157600080fd5b8135613b71848260208601613a6a565b91505092915050565b600081359050613b8981615828565b92915050565b600081359050613b9e8161583f565b92915050565b600081519050613bb38161583f565b92915050565b600060208284031215613bcb57600080fd5b6000613bd984828501613aa8565b91505092915050565b600060208284031215613bf457600080fd5b6000613c0284828501613abd565b91505092915050565b60008060408385031215613c1e57600080fd5b6000613c2c85828601613aa8565b9250506020613c3d85828601613aa8565b9150509250929050565b600080600060608486031215613c5c57600080fd5b6000613c6a86828701613aa8565b9350506020613c7b86828701613aa8565b9250506040613c8c86828701613b8f565b9150509250925092565b60008060008060808587031215613cac57600080fd5b6000613cba87828801613aa8565b9450506020613ccb87828801613aa8565b9350506040613cdc87828801613b8f565b925050606085013567ffffffffffffffff811115613cf957600080fd5b613d0587828801613b50565b91505092959194509250565b60008060408385031215613d2457600080fd5b6000613d3285828601613aa8565b9250506020613d4385828601613afc565b9150509250929050565b60008060408385031215613d6057600080fd5b6000613d6e85828601613aa8565b9250506020613d7f85828601613b8f565b9150509250929050565b600060208284031215613d9b57600080fd5b600082013567ffffffffffffffff811115613db557600080fd5b613dc184828501613ad2565b91505092915050565b60008060008060808587031215613de057600080fd5b6000613dee87828801613b11565b9450506020613dff87828801613b8f565b935050604085013567ffffffffffffffff811115613e1c57600080fd5b613e2887828801613b50565b9250506060613e3987828801613b7a565b91505092959194509250565b600060208284031215613e5757600080fd5b6000613e6584828501613b26565b91505092915050565b600060208284031215613e8057600080fd5b6000613e8e84828501613b3b565b91505092915050565b600060208284031215613ea957600080fd5b6000613eb784828501613b8f565b91505092915050565b600060208284031215613ed257600080fd5b6000613ee084828501613ba4565b91505092915050565b613ef281614dfb565b82525050565b613f0181614e0d565b82525050565b613f1081614e19565b82525050565b613f27613f2282614e19565b614fb9565b82525050565b6000613f3882614c98565b613f428185614cae565b9350613f52818560208601614eda565b613f5b816150b0565b840191505092915050565b6000613f7182614c98565b613f7b8185614cbf565b9350613f8b818560208601614eda565b80840191505092915050565b60008154613fa481614f0d565b613fae8186614cae565b94506001821660008114613fc95760018114613fdb5761400e565b60ff198316865260208601935061400e565b613fe485614c83565b60005b8381101561400657815481890152600182019150602081019050613fe7565b808801955050505b50505092915050565b6000815461402481614f0d565b61402e8186614cbf565b94506001821660008114614049576001811461405a5761408d565b60ff1983168652818601935061408d565b61406385614c83565b60005b8381101561408557815481890152600182019150602081019050614066565b838801955050505b50505092915050565b61409f81614e83565b82525050565b6140ae81614ea7565b82525050565b6140bd81614eb9565b82525050565b60006140ce82614ca3565b6140d88185614cca565b93506140e8818560208601614eda565b6140f1816150b0565b840191505092915050565b600061410782614ca3565b6141118185614cdb565b9350614121818560208601614eda565b80840191505092915050565b600061413a601483614cca565b9150614145826150c1565b602082019050919050565b600061415d601583614cca565b9150614168826150ea565b602082019050919050565b6000614180601183614cca565b915061418b82615113565b602082019050919050565b7f4f7074696d69737469634f7261636c6500000000000000000000000000000000815250565b60006141c9602b83614cca565b91506141d48261513c565b604082019050919050565b60006141ec603283614cca565b91506141f78261518b565b604082019050919050565b600061420f601383614cca565b915061421a826151da565b602082019050919050565b6000614232601183614cca565b915061423d82615203565b602082019050919050565b6000614255602683614cca565b91506142608261522c565b604082019050919050565b6000614278602583614cca565b91506142838261527b565b604082019050919050565b600061429b601c83614cca565b91506142a6826152ca565b602082019050919050565b60006142be600b83614cca565b91506142c9826152f3565b602082019050919050565b60006142e1602483614cca565b91506142ec8261531c565b604082019050919050565b6000614304601983614cca565b915061430f8261536b565b602082019050919050565b6000614327601783614cca565b915061433282615394565b602082019050919050565b600061434a602c83614cca565b9150614355826153bd565b604082019050919050565b600061436d601983614cca565b91506143788261540c565b602082019050919050565b6000614390603883614cca565b915061439b82615435565b604082019050919050565b60006143b3602a83614cca565b91506143be82615484565b604082019050919050565b60006143d6602983614cca565b91506143e1826154d3565b604082019050919050565b60006143f9602083614cca565b915061440482615522565b602082019050919050565b600061441c600e83614cca565b91506144278261554b565b602082019050919050565b600061443f602c83614cca565b915061444a82615574565b604082019050919050565b6000614462600d83614cca565b915061446d826155c3565b602082019050919050565b6000614485602083614cca565b9150614490826155ec565b602082019050919050565b60006144a8602f83614cca565b91506144b382615615565b604082019050919050565b60006144cb602183614cca565b91506144d682615664565b604082019050919050565b60006144ee601383614cca565b91506144f9826156b3565b602082019050919050565b6000614511603183614cca565b915061451c826156dc565b604082019050919050565b6000614534600f83614cca565b915061453f8261572b565b602082019050919050565b6000614557602c83614cca565b915061456282615754565b604082019050919050565b600061457a601383614cca565b9150614585826157a3565b602082019050919050565b61459981614e79565b82525050565b60006145ab8284613f16565b60208201915081905092915050565b60006145c68284613f66565b915081905092915050565b60006145dd8284614017565b915081905092915050565b60006145f482856140fc565b915061460082846140fc565b91508190509392505050565b60006020820190506146216000830184613ee9565b92915050565b600060608201905061463c6000830186613ee9565b6146496020830185613ee9565b6146566040830184614590565b949350505050565b60006080820190506146736000830187613ee9565b6146806020830186613ee9565b61468d6040830185614590565b818103606083015261469f8184613f2d565b905095945050505050565b60006020820190506146bf6000830184613ef8565b92915050565b60006060820190506146da6000830186613f07565b81810360208301526146ec81856140c3565b90506146fb6040830184613ef8565b949350505050565b600060a0820190506147186000830188613f07565b6147256020830187614590565b81810360408301526147378186613f97565b90506147466060830185614096565b61475360808301846140a5565b9695505050505050565b60006080820190506147726000830187613f07565b61477f6020830186614590565b81810360408301526147918185613f97565b90506147a060608301846140b4565b95945050505050565b600060208201905081810360008301526147c38184613f2d565b905092915050565b600060208201905081810360008301526147e581846140c3565b905092915050565b600060208201905081810360008301526148068161412d565b9050919050565b6000602082019050818103600083015261482681614150565b9050919050565b6000602082019050818103600083015261484681614173565b9050919050565b600060208201905061486160008301614196565b919050565b6000602082019050818103600083015261487f816141bc565b9050919050565b6000602082019050818103600083015261489f816141df565b9050919050565b600060208201905081810360008301526148bf81614202565b9050919050565b600060208201905081810360008301526148df81614225565b9050919050565b600060208201905081810360008301526148ff81614248565b9050919050565b6000602082019050818103600083015261491f8161426b565b9050919050565b6000602082019050818103600083015261493f8161428e565b9050919050565b6000602082019050818103600083015261495f816142b1565b9050919050565b6000602082019050818103600083015261497f816142d4565b9050919050565b6000602082019050818103600083015261499f816142f7565b9050919050565b600060208201905081810360008301526149bf8161431a565b9050919050565b600060208201905081810360008301526149df8161433d565b9050919050565b600060208201905081810360008301526149ff81614360565b9050919050565b60006020820190508181036000830152614a1f81614383565b9050919050565b60006020820190508181036000830152614a3f816143a6565b9050919050565b60006020820190508181036000830152614a5f816143c9565b9050919050565b60006020820190508181036000830152614a7f816143ec565b9050919050565b60006020820190508181036000830152614a9f8161440f565b9050919050565b60006020820190508181036000830152614abf81614432565b9050919050565b60006020820190508181036000830152614adf81614455565b9050919050565b60006020820190508181036000830152614aff81614478565b9050919050565b60006020820190508181036000830152614b1f8161449b565b9050919050565b60006020820190508181036000830152614b3f816144be565b9050919050565b60006020820190508181036000830152614b5f816144e1565b9050919050565b60006020820190508181036000830152614b7f81614504565b9050919050565b60006020820190508181036000830152614b9f81614527565b9050919050565b60006020820190508181036000830152614bbf8161454a565b9050919050565b60006020820190508181036000830152614bdf8161456d565b9050919050565b6000602082019050614bfb6000830184614590565b92915050565b6000614c0b614c1c565b9050614c178282614f3f565b919050565b6000604051905090565b600067ffffffffffffffff821115614c4157614c40615081565b5b602082029050602081019050919050565b600067ffffffffffffffff821115614c6d57614c6c615081565b5b614c76826150b0565b9050602081019050919050565b60008190508160005260206000209050919050565b600081519050919050565b600081519050919050565b600082825260208201905092915050565b600081905092915050565b600082825260208201905092915050565b600081905092915050565b6000614cf182614e79565b9150614cfc83614e79565b9250827fffffffffffffffffffffffffffffffffffffffffffffffffffffffffffffffff03821115614d3157614d30614ff4565b5b828201905092915050565b6000614d4782614e79565b9150614d5283614e79565b925082614d6257614d61615023565b5b828204905092915050565b6000614d7882614e79565b9150614d8383614e79565b9250817fffffffffffffffffffffffffffffffffffffffffffffffffffffffffffffffff0483118215151615614dbc57614dbb614ff4565b5b828202905092915050565b6000614dd282614e79565b9150614ddd83614e79565b925082821015614df057614def614ff4565b5b828203905092915050565b6000614e0682614e59565b9050919050565b60008115159050919050565b6000819050919050565b60007fffffffff0000000000000000000000000000000000000000000000000000000082169050919050565b6000819050919050565b600073ffffffffffffffffffffffffffffffffffffffff82169050919050565b6000819050919050565b6000614e8e82614e95565b9050919050565b6000614ea082614e59565b9050919050565b6000614eb282614e79565b9050919050565b6000614ec482614e79565b9050919050565b82818337600083830152505050565b60005b83811015614ef8578082015181840152602081019050614edd565b83811115614f07576000848401525b50505050565b60006002820490506001821680614f2557607f821691505b60208210811415614f3957614f38615052565b5b50919050565b614f48826150b0565b810181811067ffffffffffffffff82111715614f6757614f66615081565b5b80604052505050565b6000614f7b82614e79565b91507fffffffffffffffffffffffffffffffffffffffffffffffffffffffffffffffff821415614fae57614fad614ff4565b5b600182019050919050565b6000819050919050565b6000614fce82614e79565b9150614fd983614e79565b925082614fe957614fe8615023565b5b828206905092915050565b7f4e487b7100000000000000000000000000000000000000000000000000000000600052601160045260246000fd5b7f4e487b7100000000000000000000000000000000000000000000000000000000600052601260045260246000fd5b7f4e487b7100000000000000000000000000000000000000000000000000000000600052602260045260246000fd5b7f4e487b7100000000000000000000000000000000000000000000000000000000600052604160045260246000fd5b6000601f19601f8301169050919050565b7f646966666572656e742074696d657374616d7073000000000000000000000000600082015250565b7f726573756c74206e6f74207375636365737366756c0000000000000000000000600082015250565b7f4e6f7420656e6f75676820737570706c79000000000000000000000000000000600082015250565b7f455243373231456e756d657261626c653a206f776e657220696e646578206f7560008201527f74206f6620626f756e6473000000000000000000000000000000000000000000602082015250565b7f4552433732313a207472616e7366657220746f206e6f6e20455243373231526560008201527f63656976657220696d706c656d656e7465720000000000000000000000000000602082015250565b7f5265766572746564206e6f742061637469766500000000000000000000000000600082015250565b7f616c726561647920636f6d706c65746564000000000000000000000000000000600082015250565b7f4f776e61626c653a206e6577206f776e657220697320746865207a65726f206160008201527f6464726573730000000000000000000000000000000000000000000000000000602082015250565b7f4552433732313a207472616e736665722066726f6d20696e636f72726563742060008201527f6f776e6572000000000000000000000000000000000000000000000000000000602082015250565b7f4552433732313a20746f6b656e20616c7265616479206d696e74656400000000600082015250565b7f57726f6e67206f776e6572000000000000000000000000000000000000000000600082015250565b7f4552433732313a207472616e7366657220746f20746865207a65726f2061646460008201527f7265737300000000000000000000000000000000000000000000000000000000602082015250565b7f4552433732313a20617070726f766520746f2063616c6c657200000000000000600082015250565b7f56616c75652069732077726f6e6720666f72206d696e74000000000000000000600082015250565b7f4552433732313a206f70657261746f7220717565727920666f72206e6f6e657860008201527f697374656e7420746f6b656e0000000000000000000000000000000000000000602082015250565b7f416c726561647920636c61696d656420666f7220746f6b656e00000000000000600082015250565b7f4552433732313a20617070726f76652063616c6c6572206973206e6f74206f7760008201527f6e6572206e6f7220617070726f76656420666f7220616c6c0000000000000000602082015250565b7f4552433732313a2062616c616e636520717565727920666f7220746865207a6560008201527f726f206164647265737300000000000000000000000000000000000000000000602082015250565b7f4552433732313a206f776e657220717565727920666f72206e6f6e657869737460008201527f656e7420746f6b656e0000000000000000000000000000000000000000000000602082015250565b7f4552433732313a206d696e7420746f20746865207a65726f2061646472657373600082015250565b7f6e6f7420617574686f72697a6564000000000000000000000000000000000000600082015250565b7f4552433732313a20617070726f76656420717565727920666f72206e6f6e657860008201527f697374656e7420746f6b656e0000000000000000000000000000000000000000602082015250565b7f4e6f7420636f6d706c6574656400000000000000000000000000000000000000600082015250565b7f4f776e61626c653a2063616c6c6572206973206e6f7420746865206f776e6572600082015250565b7f4552433732314d657461646174613a2055524920717565727920666f72206e6f60008201527f6e6578697374656e7420746f6b656e0000000000000000000000000000000000602082015250565b7f4552433732313a20617070726f76616c20746f2063757272656e74206f776e6560008201527f7200000000000000000000000000000000000000000000000000000000000000602082015250565b7f73616d6520616e63696c6c617279206461746100000000000000000000000000600082015250565b7f4552433732313a207472616e736665722063616c6c6572206973206e6f74206f60008201527f776e6572206e6f7220617070726f766564000000000000000000000000000000602082015250565b7f73616d65206964656e7469666965720000000000000000000000000000000000600082015250565b7f455243373231456e756d657261626c653a20676c6f62616c20696e646578206f60008201527f7574206f6620626f756e64730000000000000000000000000000000000000000602082015250565b7f63616c6c206e6f74207375636365737366756c00000000000000000000000000600082015250565b6157d581614dfb565b81146157e057600080fd5b50565b6157ec81614e0d565b81146157f757600080fd5b50565b61580381614e19565b811461580e57600080fd5b50565b61581a81614e23565b811461582557600080fd5b50565b61583181614e4f565b811461583c57600080fd5b50565b61584881614e79565b811461585357600080fd5b5056fea264697066735822122064f047577dfc441fc6386dbd71c290f5e9e282023f65b601b44f331e3ffcd9fa64736f6c63430008040033713a7469746c653a20486176652074686520736e617073686f7420766f746520636f6e7461696e696e67205b524f41444d41505f4143435045435445445d20636f6d706c657465642077697468206d6f7265207468616e2035302070657263656e7461676530783731336137343639373436633635336132303438363137363635323037343638363532303733366536313730373336383666373432303736366637343635323036333666366537343631363936653639366536373230356235323466343134343464343135303566343134333433353034353433353434353434356432303633366636643730366336353734363536343230373736393734363832303664366637323635323037343638363136653230333533303230373036353732363336353665373436313637363568747470733a2f2f64656d6f2e736e617073686f742e6f72672f232f6465766465766465762e657468",
  "devdoc": {
    "kind": "dev",
    "methods": {
      "approve(address,uint256)": {
        "details": "See {IERC721-approve}."
      },
      "balanceOf(address)": {
        "details": "See {IERC721-balanceOf}."
      },
      "getApproved(uint256)": {
        "details": "See {IERC721-getApproved}."
      },
      "isApprovedForAll(address,address)": {
        "details": "See {IERC721-isApprovedForAll}."
      },
      "name()": {
        "details": "See {IERC721Metadata-name}."
      },
      "owner()": {
        "details": "Returns the address of the current owner."
      },
      "ownerOf(uint256)": {
        "details": "See {IERC721-ownerOf}."
      },
      "renounceOwnership()": {
        "details": "Leaves the contract without owner. It will not be possible to call `onlyOwner` functions anymore. Can only be called by the current owner. NOTE: Renouncing ownership will leave the contract without an owner, thereby removing any functionality that is only available to the owner."
      },
      "safeTransferFrom(address,address,uint256)": {
        "details": "See {IERC721-safeTransferFrom}."
      },
      "safeTransferFrom(address,address,uint256,bytes)": {
        "details": "See {IERC721-safeTransferFrom}."
      },
      "setApprovalForAll(address,bool)": {
        "details": "See {IERC721-setApprovalForAll}."
      },
      "symbol()": {
        "details": "See {IERC721Metadata-symbol}."
      },
      "tokenByIndex(uint256)": {
        "details": "See {IERC721Enumerable-tokenByIndex}."
      },
      "tokenOfOwnerByIndex(address,uint256)": {
        "details": "See {IERC721Enumerable-tokenOfOwnerByIndex}."
      },
      "tokenURI(uint256)": {
        "details": "See {IERC721Metadata-tokenURI}."
      },
      "totalSupply()": {
        "details": "See {IERC721Enumerable-totalSupply}."
      },
      "transferFrom(address,address,uint256)": {
        "details": "See {IERC721-transferFrom}."
      },
      "transferOwnership(address)": {
        "details": "Transfers ownership of the contract to a new account (`newOwner`). Can only be called by the current owner."
      }
    },
    "version": 1
  },
  "userdoc": {
    "kind": "user",
    "methods": {},
    "version": 1
  },
  "storageLayout": {
    "storage": [
      {
        "astId": 208,
        "contract": "contracts/MyNFT.sol:MyNFT",
        "label": "_name",
        "offset": 0,
        "slot": "0",
        "type": "t_string_storage"
      },
      {
        "astId": 210,
        "contract": "contracts/MyNFT.sol:MyNFT",
        "label": "_symbol",
        "offset": 0,
        "slot": "1",
        "type": "t_string_storage"
      },
      {
        "astId": 214,
        "contract": "contracts/MyNFT.sol:MyNFT",
        "label": "_owners",
        "offset": 0,
        "slot": "2",
        "type": "t_mapping(t_uint256,t_address)"
      },
      {
        "astId": 218,
        "contract": "contracts/MyNFT.sol:MyNFT",
        "label": "_balances",
        "offset": 0,
        "slot": "3",
        "type": "t_mapping(t_address,t_uint256)"
      },
      {
        "astId": 222,
        "contract": "contracts/MyNFT.sol:MyNFT",
        "label": "_tokenApprovals",
        "offset": 0,
        "slot": "4",
        "type": "t_mapping(t_uint256,t_address)"
      },
      {
        "astId": 228,
        "contract": "contracts/MyNFT.sol:MyNFT",
        "label": "_operatorApprovals",
        "offset": 0,
        "slot": "5",
        "type": "t_mapping(t_address,t_mapping(t_address,t_bool))"
      },
      {
        "astId": 1197,
        "contract": "contracts/MyNFT.sol:MyNFT",
        "label": "_ownedTokens",
        "offset": 0,
        "slot": "6",
        "type": "t_mapping(t_address,t_mapping(t_uint256,t_uint256))"
      },
      {
        "astId": 1201,
        "contract": "contracts/MyNFT.sol:MyNFT",
        "label": "_ownedTokensIndex",
        "offset": 0,
        "slot": "7",
        "type": "t_mapping(t_uint256,t_uint256)"
      },
      {
        "astId": 1204,
        "contract": "contracts/MyNFT.sol:MyNFT",
        "label": "_allTokens",
        "offset": 0,
        "slot": "8",
        "type": "t_array(t_uint256)dyn_storage"
      },
      {
        "astId": 1208,
        "contract": "contracts/MyNFT.sol:MyNFT",
        "label": "_allTokensIndex",
        "offset": 0,
        "slot": "9",
        "type": "t_mapping(t_uint256,t_uint256)"
      },
      {
        "astId": 7,
        "contract": "contracts/MyNFT.sol:MyNFT",
        "label": "_owner",
        "offset": 0,
        "slot": "10",
        "type": "t_address"
      },
      {
        "astId": 2863,
        "contract": "contracts/MyNFT.sol:MyNFT",
        "label": "reverted",
        "offset": 20,
        "slot": "10",
        "type": "t_bool"
      },
      {
        "astId": 2865,
        "contract": "contracts/MyNFT.sol:MyNFT",
        "label": "reservedAmount",
        "offset": 0,
        "slot": "11",
        "type": "t_uint256"
      },
      {
        "astId": 2867,
        "contract": "contracts/MyNFT.sol:MyNFT",
        "label": "mintPrice",
        "offset": 0,
        "slot": "12",
        "type": "t_uint256"
      },
      {
        "astId": 2871,
        "contract": "contracts/MyNFT.sol:MyNFT",
        "label": "claimed",
        "offset": 0,
        "slot": "13",
        "type": "t_mapping(t_uint256,t_bool)"
      },
      {
        "astId": 2892,
        "contract": "contracts/MyNFT.sol:MyNFT",
        "label": "steps",
        "offset": 0,
        "slot": "14",
        "type": "t_array(t_struct(Step)2878_storage)dyn_storage"
      },
      {
        "astId": 2488,
        "contract": "contracts/MyNFT.sol:MyNFT",
        "label": "governanceApproved",
        "offset": 0,
        "slot": "15",
        "type": "t_bool"
      },
      {
        "astId": 2491,
        "contract": "contracts/MyNFT.sol:MyNFT",
        "label": "callbackError",
        "offset": 1,
        "slot": "15",
        "type": "t_bool"
      },
      {
        "astId": 2494,
        "contract": "contracts/MyNFT.sol:MyNFT",
        "label": "snapshot",
        "offset": 0,
        "slot": "16",
        "type": "t_string_storage"
      },
      {
        "astId": 2497,
        "contract": "contracts/MyNFT.sol:MyNFT",
        "label": "s1",
        "offset": 0,
        "slot": "17",
        "type": "t_string_storage"
      },
      {
        "astId": 2500,
        "contract": "contracts/MyNFT.sol:MyNFT",
        "label": "s2",
        "offset": 0,
        "slot": "18",
        "type": "t_string_storage"
      },
      {
        "astId": 2503,
        "contract": "contracts/MyNFT.sol:MyNFT",
        "label": "ancillaryData",
        "offset": 0,
        "slot": "19",
        "type": "t_bytes_storage"
      },
      {
        "astId": 2506,
        "contract": "contracts/MyNFT.sol:MyNFT",
        "label": "priceIdentifier",
        "offset": 0,
        "slot": "20",
        "type": "t_bytes32"
      },
      {
        "astId": 2510,
        "contract": "contracts/MyNFT.sol:MyNFT",
        "label": "creationTimestamp",
        "offset": 0,
        "slot": "21",
        "type": "t_uint256"
      },
      {
        "astId": 2670,
        "contract": "contracts/MyNFT.sol:MyNFT",
        "label": "apeSent",
        "offset": 0,
        "slot": "22",
        "type": "t_bool"
      },
      {
        "astId": 2673,
        "contract": "contracts/MyNFT.sol:MyNFT",
        "label": "charitySent",
        "offset": 1,
        "slot": "22",
        "type": "t_bool"
      }
    ],
    "types": {
      "t_address": {
        "encoding": "inplace",
        "label": "address",
        "numberOfBytes": "20"
      },
      "t_array(t_struct(Step)2878_storage)dyn_storage": {
        "base": "t_struct(Step)2878_storage",
        "encoding": "dynamic_array",
        "label": "struct SafeLaunch.Step[]",
        "numberOfBytes": "32"
      },
      "t_array(t_uint256)dyn_storage": {
        "base": "t_uint256",
        "encoding": "dynamic_array",
        "label": "uint256[]",
        "numberOfBytes": "32"
      },
      "t_bool": {
        "encoding": "inplace",
        "label": "bool",
        "numberOfBytes": "1"
      },
      "t_bytes32": {
        "encoding": "inplace",
        "label": "bytes32",
        "numberOfBytes": "32"
      },
      "t_bytes_storage": {
        "encoding": "bytes",
        "label": "bytes",
        "numberOfBytes": "32"
      },
      "t_mapping(t_address,t_bool)": {
        "encoding": "mapping",
        "key": "t_address",
        "label": "mapping(address => bool)",
        "numberOfBytes": "32",
        "value": "t_bool"
      },
      "t_mapping(t_address,t_mapping(t_address,t_bool))": {
        "encoding": "mapping",
        "key": "t_address",
        "label": "mapping(address => mapping(address => bool))",
        "numberOfBytes": "32",
        "value": "t_mapping(t_address,t_bool)"
      },
      "t_mapping(t_address,t_mapping(t_uint256,t_uint256))": {
        "encoding": "mapping",
        "key": "t_address",
        "label": "mapping(address => mapping(uint256 => uint256))",
        "numberOfBytes": "32",
        "value": "t_mapping(t_uint256,t_uint256)"
      },
      "t_mapping(t_address,t_uint256)": {
        "encoding": "mapping",
        "key": "t_address",
        "label": "mapping(address => uint256)",
        "numberOfBytes": "32",
        "value": "t_uint256"
      },
      "t_mapping(t_uint256,t_address)": {
        "encoding": "mapping",
        "key": "t_uint256",
        "label": "mapping(uint256 => address)",
        "numberOfBytes": "32",
        "value": "t_address"
      },
      "t_mapping(t_uint256,t_bool)": {
        "encoding": "mapping",
        "key": "t_uint256",
        "label": "mapping(uint256 => bool)",
        "numberOfBytes": "32",
        "value": "t_bool"
      },
      "t_mapping(t_uint256,t_uint256)": {
        "encoding": "mapping",
        "key": "t_uint256",
        "label": "mapping(uint256 => uint256)",
        "numberOfBytes": "32",
        "value": "t_uint256"
      },
      "t_string_storage": {
        "encoding": "bytes",
        "label": "string",
        "numberOfBytes": "32"
      },
      "t_struct(Step)2878_storage": {
        "encoding": "inplace",
        "label": "struct SafeLaunch.Step",
        "members": [
          {
            "astId": 2873,
            "contract": "contracts/MyNFT.sol:MyNFT",
            "label": "data",
            "offset": 0,
            "slot": "0",
            "type": "t_bytes32"
          },
          {
            "astId": 2875,
            "contract": "contracts/MyNFT.sol:MyNFT",
            "label": "message",
            "offset": 0,
            "slot": "1",
            "type": "t_string_storage"
          },
          {
            "astId": 2877,
            "contract": "contracts/MyNFT.sol:MyNFT",
            "label": "completed",
            "offset": 0,
            "slot": "2",
            "type": "t_bool"
          }
        ],
        "numberOfBytes": "96"
      },
      "t_uint256": {
        "encoding": "inplace",
        "label": "uint256",
        "numberOfBytes": "32"
      }
    }
  }
}