{
  "address": "0xA608A4eF48E7E4a700FF7cdf3ce09AB554bBeB24",
  "abi": [
    {
      "inputs": [],
      "stateMutability": "nonpayable",
      "type": "constructor"
    },
    {
      "anonymous": false,
      "inputs": [
        {
          "indexed": true,
          "internalType": "address",
          "name": "owner",
          "type": "address"
        },
        {
          "indexed": true,
          "internalType": "address",
          "name": "approved",
          "type": "address"
        },
        {
          "indexed": true,
          "internalType": "uint256",
          "name": "tokenId",
          "type": "uint256"
        }
      ],
      "name": "Approval",
      "type": "event"
    },
    {
      "anonymous": false,
      "inputs": [
        {
          "indexed": true,
          "internalType": "address",
          "name": "owner",
          "type": "address"
        },
        {
          "indexed": true,
          "internalType": "address",
          "name": "operator",
          "type": "address"
        },
        {
          "indexed": false,
          "internalType": "bool",
          "name": "approved",
          "type": "bool"
        }
      ],
      "name": "ApprovalForAll",
      "type": "event"
    },
    {
      "anonymous": false,
      "inputs": [
        {
          "indexed": true,
          "internalType": "address",
          "name": "previousOwner",
          "type": "address"
        },
        {
          "indexed": true,
          "internalType": "address",
          "name": "newOwner",
          "type": "address"
        }
      ],
      "name": "OwnershipTransferred",
      "type": "event"
    },
    {
      "anonymous": false,
      "inputs": [
        {
          "indexed": false,
          "internalType": "bytes32",
          "name": "data",
          "type": "bytes32"
        },
        {
          "indexed": false,
          "internalType": "string",
          "name": "message",
          "type": "string"
        }
      ],
      "name": "StepCreated",
      "type": "event"
    },
    {
      "anonymous": false,
      "inputs": [
        {
          "indexed": false,
          "internalType": "uint256",
          "name": "stepId",
          "type": "uint256"
        }
      ],
      "name": "StepExecuted",
      "type": "event"
    },
    {
      "anonymous": false,
      "inputs": [
        {
          "indexed": true,
          "internalType": "address",
          "name": "from",
          "type": "address"
        },
        {
          "indexed": true,
          "internalType": "address",
          "name": "to",
          "type": "address"
        },
        {
          "indexed": true,
          "internalType": "uint256",
          "name": "tokenId",
          "type": "uint256"
        }
      ],
      "name": "Transfer",
      "type": "event"
    },
    {
      "inputs": [],
      "name": "MINT_PRICE",
      "outputs": [
        {
          "internalType": "uint256",
          "name": "",
          "type": "uint256"
        }
      ],
      "stateMutability": "view",
      "type": "function"
    },
    {
      "inputs": [],
      "name": "abort",
      "outputs": [],
      "stateMutability": "nonpayable",
      "type": "function"
    },
    {
      "inputs": [],
      "name": "apeIsSent",
      "outputs": [
        {
          "internalType": "bool",
          "name": "",
          "type": "bool"
        }
      ],
      "stateMutability": "view",
      "type": "function"
    },
    {
      "inputs": [
        {
          "internalType": "address",
          "name": "to",
          "type": "address"
        },
        {
          "internalType": "uint256",
          "name": "tokenId",
          "type": "uint256"
        }
      ],
      "name": "approve",
      "outputs": [],
      "stateMutability": "nonpayable",
      "type": "function"
    },
    {
      "inputs": [
        {
          "internalType": "address",
          "name": "owner",
          "type": "address"
        }
      ],
      "name": "balanceOf",
      "outputs": [
        {
          "internalType": "uint256",
          "name": "",
          "type": "uint256"
        }
      ],
      "stateMutability": "view",
      "type": "function"
    },
    {
      "inputs": [],
      "name": "callbackError",
      "outputs": [
        {
          "internalType": "bool",
          "name": "",
          "type": "bool"
        }
      ],
      "stateMutability": "view",
      "type": "function"
    },
    {
      "inputs": [],
      "name": "charityIsSent",
      "outputs": [
        {
          "internalType": "bool",
          "name": "",
          "type": "bool"
        }
      ],
      "stateMutability": "view",
      "type": "function"
    },
    {
      "inputs": [
        {
          "internalType": "uint256[]",
          "name": "tokenIds",
          "type": "uint256[]"
        }
      ],
      "name": "claimRefund",
      "outputs": [],
      "stateMutability": "nonpayable",
      "type": "function"
    },
    {
      "inputs": [
        {
          "internalType": "uint256[]",
          "name": "tokenIds",
          "type": "uint256[]"
        }
      ],
      "name": "claimableAmount",
      "outputs": [
        {
          "internalType": "uint256",
          "name": "",
          "type": "uint256"
        }
      ],
      "stateMutability": "view",
      "type": "function"
    },
    {
      "inputs": [
        {
          "internalType": "uint256",
          "name": "stepId",
          "type": "uint256"
        }
      ],
      "name": "executeStep",
      "outputs": [],
      "stateMutability": "nonpayable",
      "type": "function"
    },
    {
      "inputs": [
        {
          "internalType": "uint256",
          "name": "tokenId",
          "type": "uint256"
        }
      ],
      "name": "getApproved",
      "outputs": [
        {
          "internalType": "address",
          "name": "",
          "type": "address"
        }
      ],
      "stateMutability": "view",
      "type": "function"
    },
    {
      "inputs": [],
      "name": "governanceIsApproved",
      "outputs": [
        {
          "internalType": "bool",
          "name": "",
          "type": "bool"
        }
      ],
      "stateMutability": "view",
      "type": "function"
    },
    {
      "inputs": [
        {
          "internalType": "address",
          "name": "owner",
          "type": "address"
        },
        {
          "internalType": "address",
          "name": "operator",
          "type": "address"
        }
      ],
      "name": "isApprovedForAll",
      "outputs": [
        {
          "internalType": "bool",
          "name": "",
          "type": "bool"
        }
      ],
      "stateMutability": "view",
      "type": "function"
    },
    {
      "inputs": [
        {
          "internalType": "address",
          "name": "to",
          "type": "address"
        },
        {
          "internalType": "uint256",
          "name": "quantity",
          "type": "uint256"
        }
      ],
      "name": "mint",
      "outputs": [],
      "stateMutability": "payable",
      "type": "function"
    },
    {
      "inputs": [],
      "name": "mintProgress",
      "outputs": [
        {
          "internalType": "bool",
          "name": "",
          "type": "bool"
        }
      ],
      "stateMutability": "view",
      "type": "function"
    },
    {
      "inputs": [],
      "name": "name",
      "outputs": [
        {
          "internalType": "string",
          "name": "",
          "type": "string"
        }
      ],
      "stateMutability": "view",
      "type": "function"
    },
    {
      "inputs": [],
      "name": "owner",
      "outputs": [
        {
          "internalType": "address",
          "name": "",
          "type": "address"
        }
      ],
      "stateMutability": "view",
      "type": "function"
    },
    {
      "inputs": [
        {
          "internalType": "uint256",
          "name": "tokenId",
          "type": "uint256"
        }
      ],
      "name": "ownerOf",
      "outputs": [
        {
          "internalType": "address",
          "name": "",
          "type": "address"
        }
      ],
      "stateMutability": "view",
      "type": "function"
    },
    {
      "inputs": [
        {
          "internalType": "bytes32",
          "name": "identifier",
          "type": "bytes32"
        },
        {
          "internalType": "uint256",
          "name": "timestamp",
          "type": "uint256"
        },
        {
          "internalType": "bytes",
          "name": "_ancillaryData",
          "type": "bytes"
        },
        {
          "internalType": "int256",
          "name": "price",
          "type": "int256"
        }
      ],
      "name": "priceSettled",
      "outputs": [],
      "stateMutability": "nonpayable",
      "type": "function"
    },
    {
      "inputs": [],
      "name": "renounceOwnership",
      "outputs": [],
      "stateMutability": "nonpayable",
      "type": "function"
    },
    {
      "inputs": [],
      "name": "requestGovernanceCheck",
      "outputs": [],
      "stateMutability": "nonpayable",
      "type": "function"
    },
    {
      "inputs": [],
      "name": "reverted",
      "outputs": [
        {
          "internalType": "bool",
          "name": "",
          "type": "bool"
        }
      ],
      "stateMutability": "view",
      "type": "function"
    },
    {
      "inputs": [
        {
          "internalType": "address",
          "name": "from",
          "type": "address"
        },
        {
          "internalType": "address",
          "name": "to",
          "type": "address"
        },
        {
          "internalType": "uint256",
          "name": "tokenId",
          "type": "uint256"
        }
      ],
      "name": "safeTransferFrom",
      "outputs": [],
      "stateMutability": "nonpayable",
      "type": "function"
    },
    {
      "inputs": [
        {
          "internalType": "address",
          "name": "from",
          "type": "address"
        },
        {
          "internalType": "address",
          "name": "to",
          "type": "address"
        },
        {
          "internalType": "uint256",
          "name": "tokenId",
          "type": "uint256"
        },
        {
          "internalType": "bytes",
          "name": "_data",
          "type": "bytes"
        }
      ],
      "name": "safeTransferFrom",
      "outputs": [],
      "stateMutability": "nonpayable",
      "type": "function"
    },
    {
      "inputs": [
        {
          "internalType": "address",
          "name": "newOwner",
          "type": "address"
        }
      ],
      "name": "sendApe",
      "outputs": [],
      "stateMutability": "nonpayable",
      "type": "function"
    },
    {
      "inputs": [],
      "name": "sendToCharity",
      "outputs": [],
      "stateMutability": "nonpayable",
      "type": "function"
    },
    {
      "inputs": [
        {
          "internalType": "address",
          "name": "operator",
          "type": "address"
        },
        {
          "internalType": "bool",
          "name": "approved",
          "type": "bool"
        }
      ],
      "name": "setApprovalForAll",
      "outputs": [],
      "stateMutability": "nonpayable",
      "type": "function"
    },
    {
      "inputs": [],
      "name": "stepCount",
      "outputs": [
        {
          "internalType": "uint256",
          "name": "",
          "type": "uint256"
        }
      ],
      "stateMutability": "view",
      "type": "function"
    },
    {
      "inputs": [
        {
          "internalType": "uint256",
          "name": "",
          "type": "uint256"
        }
      ],
      "name": "steps",
      "outputs": [
        {
          "internalType": "bytes32",
          "name": "data",
          "type": "bytes32"
        },
        {
          "internalType": "string",
          "name": "message",
          "type": "string"
        },
        {
          "internalType": "bool",
          "name": "completed",
          "type": "bool"
        }
      ],
      "stateMutability": "view",
      "type": "function"
    },
    {
      "inputs": [],
      "name": "stepsCompleted",
      "outputs": [
        {
          "internalType": "uint256",
          "name": "completed",
          "type": "uint256"
        }
      ],
      "stateMutability": "view",
      "type": "function"
    },
    {
      "inputs": [
        {
          "internalType": "bytes4",
          "name": "interfaceId",
          "type": "bytes4"
        }
      ],
      "name": "supportsInterface",
      "outputs": [
        {
          "internalType": "bool",
          "name": "",
          "type": "bool"
        }
      ],
      "stateMutability": "view",
      "type": "function"
    },
    {
      "inputs": [],
      "name": "symbol",
      "outputs": [
        {
          "internalType": "string",
          "name": "",
          "type": "string"
        }
      ],
      "stateMutability": "view",
      "type": "function"
    },
    {
      "inputs": [
        {
          "internalType": "uint256",
          "name": "index",
          "type": "uint256"
        }
      ],
      "name": "tokenByIndex",
      "outputs": [
        {
          "internalType": "uint256",
          "name": "",
          "type": "uint256"
        }
      ],
      "stateMutability": "view",
      "type": "function"
    },
    {
      "inputs": [
        {
          "internalType": "address",
          "name": "owner",
          "type": "address"
        },
        {
          "internalType": "uint256",
          "name": "index",
          "type": "uint256"
        }
      ],
      "name": "tokenOfOwnerByIndex",
      "outputs": [
        {
          "internalType": "uint256",
          "name": "",
          "type": "uint256"
        }
      ],
      "stateMutability": "view",
      "type": "function"
    },
    {
      "inputs": [
        {
          "internalType": "uint256",
          "name": "tokenId",
          "type": "uint256"
        }
      ],
      "name": "tokenURI",
      "outputs": [
        {
          "internalType": "string",
          "name": "",
          "type": "string"
        }
      ],
      "stateMutability": "view",
      "type": "function"
    },
    {
      "inputs": [],
      "name": "totalSupply",
      "outputs": [
        {
          "internalType": "uint256",
          "name": "",
          "type": "uint256"
        }
      ],
      "stateMutability": "view",
      "type": "function"
    },
    {
      "inputs": [
        {
          "internalType": "address",
          "name": "from",
          "type": "address"
        },
        {
          "internalType": "address",
          "name": "to",
          "type": "address"
        },
        {
          "internalType": "uint256",
          "name": "tokenId",
          "type": "uint256"
        }
      ],
      "name": "transferFrom",
      "outputs": [],
      "stateMutability": "nonpayable",
      "type": "function"
    },
    {
      "inputs": [
        {
          "internalType": "address",
          "name": "newOwner",
          "type": "address"
        }
      ],
      "name": "transferOwnership",
      "outputs": [],
      "stateMutability": "nonpayable",
      "type": "function"
    },
    {
      "inputs": [],
      "name": "withdrawFunds",
      "outputs": [],
      "stateMutability": "nonpayable",
      "type": "function"
    }
  ],
  "transactionHash": "0xde911ba48dca5b0f07f724ebbda147edb46b81810a85df2dc6d6b8d68a65db2a",
  "args": [],
  "numDeployments": 9,
  "solcInputHash": "43748a0cdd43862688ccb5c9a06e7c73",
  "bytecode": "0x60806040526000600a60146101000a81548160ff0219169083151502179055506000600f60006101000a81548160ff0219169083151502179055506000600f60016101000a81548160ff0219169083151502179055506000600f60026101000a81548160ff0219169083151502179055506000600f60036101000a81548160ff02191690831515021790555060405180610160016040528061013e81526020016200663361013e913960109080519060200190620000bf9291906200077b565b507f5945535f4f525f4e4f5f5155455259000000000000000000000000000000000060115573bf7a7169562078c96f0ec1a8afd6ae50f12e5a99601260006101000a81548173ffffffffffffffffffffffffffffffffffffffff021916908373ffffffffffffffffffffffffffffffffffffffff1602179055503480156200014657600080fd5b506729a2241af62c000066038d7ea4c680006040518060400160405280600781526020017f4d79546f6b656e000000000000000000000000000000000000000000000000008152506040518060400160405280600381526020017f4d544b00000000000000000000000000000000000000000000000000000000008152508160009080519060200190620001dc9291906200080c565b508060019080519060200190620001f59291906200080c565b505050620002186200020c620004f960201b60201c565b6200050160201b60201c565b81600b8190555080600c819055505050620002a46040518060400160405280601681526020017f676f7665726e616e63654973417070726f7665642829000000000000000000008152506040518060400160405280601381526020017f476f7665726e616e636520617070726f76616c00000000000000000000000000815250620005c760201b60201c565b620003206040518060400160405280600e81526020017f6d696e7450726f677265737328290000000000000000000000000000000000008152506040518060400160405280600b81526020017f48616c66206d696e746564000000000000000000000000000000000000000000815250620005c760201b60201c565b6200039c6040518060400160405280600b81526020017f617065497353656e7428290000000000000000000000000000000000000000008152506040518060400160405280601181526020017f424159432073656e7420746f2075736572000000000000000000000000000000815250620005c760201b60201c565b620004186040518060400160405280600f81526020017f63686172697479497353656e74282900000000000000000000000000000000008152506040518060400160405280600c81526020017f436861726974792073656e740000000000000000000000000000000000000000815250620005c760201b60201c565b60006200042a620006c860201b60201c565b9050601260009054906101000a900473ffffffffffffffffffffffffffffffffffffffff1673ffffffffffffffffffffffffffffffffffffffff1663095ea7b382680ad78ebc5ac62000006040518363ffffffff1660e01b81526004016200049492919062000a2c565b602060405180830381600087803b158015620004af57600080fd5b505af1158015620004c4573d6000803e3d6000fd5b505050506040513d601f19601f82011682018060405250810190620004ea919062000916565b50426013819055505062000c17565b600033905090565b6000600a60009054906101000a900473ffffffffffffffffffffffffffffffffffffffff16905081600a60006101000a81548173ffffffffffffffffffffffffffffffffffffffff021916908373ffffffffffffffffffffffffffffffffffffffff1602179055508173ffffffffffffffffffffffffffffffffffffffff168173ffffffffffffffffffffffffffffffffffffffff167f8be0079c531659141344cd1fd0a4f28419497f9722a3daafe3b4186f6b6457e060405160405180910390a35050565b600082604051602001620005dc919062000a13565b604051602081830303815290604052805190602001209050600e6040518060600160405280838152602001848152602001600015158152509080600181540180825580915050600190039060005260206000209060030201600090919091909150600082015181600001556020820151816001019080519060200190620006659291906200080c565b5060408201518160020160006101000a81548160ff02191690831515021790555050507fca729272cde0dd3fe1a318c7526cdb798b16b524780aacd4fe24b04c87954fd48183604051620006bb92919062000a59565b60405180910390a1505050565b60008073ed0169a88d267063184b0853baaaae66c3c154b2905060008190508073ffffffffffffffffffffffffffffffffffffffff1663aafd5e406040518163ffffffff1660e01b8152600401620007209062000a8d565b60206040518083038186803b1580156200073957600080fd5b505afa1580156200074e573d6000803e3d6000fd5b505050506040513d601f19601f82011682018060405250810190620007749190620008ea565b9250505090565b828054620007899062000b6d565b90600052602060002090601f016020900481019282620007ad5760008555620007f9565b82601f10620007c857805160ff1916838001178555620007f9565b82800160010185558215620007f9579182015b82811115620007f8578251825591602001919060010190620007db565b5b5090506200080891906200089d565b5090565b8280546200081a9062000b6d565b90600052602060002090601f0160209004810192826200083e57600085556200088a565b82601f106200085957805160ff19168380011785556200088a565b828001600101855582156200088a579182015b82811115620008895782518255916020019190600101906200086c565b5b5090506200089991906200089d565b5090565b5b80821115620008b85760008160009055506001016200089e565b5090565b600081519050620008cd8162000be3565b92915050565b600081519050620008e48162000bfd565b92915050565b600060208284031215620008fd57600080fd5b60006200090d84828501620008bc565b91505092915050565b6000602082840312156200092957600080fd5b60006200093984828501620008d3565b91505092915050565b6200094d8162000acf565b82525050565b6200095e8162000aef565b82525050565b6200096f8162000b23565b82525050565b6000620009828262000aa8565b6200098e818562000ab3565b9350620009a081856020860162000b37565b620009ab8162000bd2565b840191505092915050565b6000620009c38262000aa8565b620009cf818562000ac4565b9350620009e181856020860162000b37565b80840191505092915050565b7f4f7074696d69737469634f7261636c6500000000000000000000000000000000815250565b600062000a218284620009b6565b915081905092915050565b600060408201905062000a43600083018562000942565b62000a52602083018462000964565b9392505050565b600060408201905062000a70600083018562000953565b818103602083015262000a84818462000975565b90509392505050565b600060208201905062000aa360008301620009ed565b919050565b600081519050919050565b600082825260208201905092915050565b600081905092915050565b600062000adc8262000af9565b9050919050565b60008115159050919050565b6000819050919050565b600073ffffffffffffffffffffffffffffffffffffffff82169050919050565b6000819050919050565b600062000b308262000b19565b9050919050565b60005b8381101562000b5757808201518184015260208101905062000b3a565b8381111562000b67576000848401525b50505050565b6000600282049050600182168062000b8657607f821691505b6020821081141562000b9d5762000b9c62000ba3565b5b50919050565b7f4e487b7100000000000000000000000000000000000000000000000000000000600052602260045260246000fd5b6000601f19601f8301169050919050565b62000bee8162000acf565b811462000bfa57600080fd5b50565b62000c088162000ae3565b811462000c1457600080fd5b50565b615a0c8062000c276000396000f3fe6080604052600436106102305760003560e01c8063661a4f531161012e578063b88d4fde116100ab578063d7e5d8ac1161006f578063d7e5d8ac14610834578063e3389f091461084b578063e985e9c514610862578063f2fde38b1461089f578063f54a6f83146108c857610230565b8063b88d4fde1461074d578063bc0af82a14610776578063bf5febca146107a1578063c002d23d146107cc578063c87b56dd146107f757610230565b8063867fc17a116100f2578063867fc17a1461067a5780638da5cb5b146106a357806395d89b41146106ce578063a22cb465146106f9578063b64c7a731461072257610230565b8063661a4f531461059357806370a08231146105be578063715018a6146105fb5780637217e0b91461061257806378ebce481461065157610230565b80632f745c59116101bc5780634bdfc736116101805780634bdfc736146104865780634f6ccce7146104c357806356b16953146105005780636352211e1461052b578063637eb40b1461056857610230565b80632f745c59146103c257806335a063b4146103ff57806340c10f1914610416578063415deffa1461043257806342842e0e1461045d57610230565b8063095ea7b311610203578063095ea7b31461030357806316e3c7491461032c57806318160ddd1461035757806323b872dd1461038257806324600fc3146103ab57610230565b806301ffc9a71461023557806304cc1fd51461027257806306fdde031461029b578063081812fc146102c6575b600080fd5b34801561024157600080fd5b5061025c60048036038101906102579190613fb7565b6108f1565b604051610269919061481c565b60405180910390f35b34801561027e57600080fd5b5061029960048036038101906102949190613f3c565b610903565b005b3480156102a757600080fd5b506102b0610ab0565b6040516102bd919061491b565b60405180910390f35b3480156102d257600080fd5b506102ed60048036038101906102e89190614009565b610b42565b6040516102fa919061477e565b60405180910390f35b34801561030f57600080fd5b5061032a60048036038101906103259190613ebf565b610bc7565b005b34801561033857600080fd5b50610341610cdf565b60405161034e919061481c565b60405180910390f35b34801561036357600080fd5b5061036c610cf6565b6040516103799190614d66565b60405180910390f35b34801561038e57600080fd5b506103a960048036038101906103a49190613db9565b610d03565b005b3480156103b757600080fd5b506103c0610d63565b005b3480156103ce57600080fd5b506103e960048036038101906103e49190613ebf565b610eea565b6040516103f69190614d66565b60405180910390f35b34801561040b57600080fd5b50610414610f8f565b005b610430600480360381019061042b9190613ebf565b611028565b005b34801561043e57600080fd5b5061044761111d565b6040516104549190614d66565b60405180910390f35b34801561046957600080fd5b50610484600480360381019061047f9190613db9565b61112a565b005b34801561049257600080fd5b506104ad60048036038101906104a89190613efb565b61114a565b6040516104ba9190614d66565b60405180910390f35b3480156104cf57600080fd5b506104ea60048036038101906104e59190614009565b6114a0565b6040516104f79190614d66565b60405180910390f35b34801561050c57600080fd5b50610515611537565b604051610522919061481c565b60405180910390f35b34801561053757600080fd5b50610552600480360381019061054d9190614009565b611555565b60405161055f919061477e565b60405180910390f35b34801561057457600080fd5b5061057d611607565b60405161058a919061481c565b60405180910390f35b34801561059f57600080fd5b506105a861161e565b6040516105b5919061481c565b60405180910390f35b3480156105ca57600080fd5b506105e560048036038101906105e09190613d2b565b611631565b6040516105f29190614d66565b60405180910390f35b34801561060757600080fd5b506106106116e9565b005b34801561061e57600080fd5b5061063960048036038101906106349190614009565b611771565b60405161064893929190614837565b60405180910390f35b34801561065d57600080fd5b5061067860048036038101906106739190613d2b565b611840565b005b34801561068657600080fd5b506106a1600480360381019061069c9190614009565b6118da565b005b3480156106af57600080fd5b506106b8611bed565b6040516106c5919061477e565b60405180910390f35b3480156106da57600080fd5b506106e3611c17565b6040516106f0919061491b565b60405180910390f35b34801561070557600080fd5b50610720600480360381019061071b9190613e83565b611ca9565b005b34801561072e57600080fd5b50610737611cbf565b6040516107449190614d66565b60405180910390f35b34801561075957600080fd5b50610774600480360381019061076f9190613e08565b611e14565b005b34801561078257600080fd5b5061078b611e76565b604051610798919061481c565b60405180910390f35b3480156107ad57600080fd5b506107b6611e89565b6040516107c3919061481c565b60405180910390f35b3480156107d857600080fd5b506107e1611ea0565b6040516107ee9190614d66565b60405180910390f35b34801561080357600080fd5b5061081e60048036038101906108199190614009565b611eab565b60405161082b919061491b565b60405180910390f35b34801561084057600080fd5b50610849611f52565b005b34801561085757600080fd5b50610860612054565b005b34801561086e57600080fd5b5061088960048036038101906108849190613d7d565b612195565b604051610896919061481c565b60405180910390f35b3480156108ab57600080fd5b506108c660048036038101906108c19190613d2b565b612229565b005b3480156108d457600080fd5b506108ef60048036038101906108ea9190613efb565b612321565b005b60006108fc826125f4565b9050919050565b600061090d61266e565b90508073ffffffffffffffffffffffffffffffffffffffff163373ffffffffffffffffffffffffffffffffffffffff161461097d576040517f08c379a000000000000000000000000000000000000000000000000000000000815260040161097490614c06565b60405180910390fd5b60135484146109c1576040517f08c379a00000000000000000000000000000000000000000000000000000000081526004016109b89061496d565b60405180910390fd5b6011548514610a05576040517f08c379a00000000000000000000000000000000000000000000000000000000081526004016109fc90614d06565b60405180910390fd5b82805190602001206010604051610a1c9190614743565b604051809103902014610a64576040517f08c379a0000000000000000000000000000000000000000000000000000000008152600401610a5b90614cc6565b60405180910390fd5b6001821415610a8d576001600f60026101000a81548160ff021916908315150217905550610aa9565b6001600f60036101000a81548160ff0219169083151502179055505b5050505050565b606060008054610abf9061508d565b80601f0160208091040260200160405190810160405280929190818152602001828054610aeb9061508d565b8015610b385780601f10610b0d57610100808354040283529160200191610b38565b820191906000526020600020905b815481529060010190602001808311610b1b57829003601f168201915b5050505050905090565b6000610b4d8261267d565b610b8c576040517f08c379a0000000000000000000000000000000000000000000000000000000008152600401610b8390614c26565b60405180910390fd5b6004600083815260200190815260200160002060009054906101000a900473ffffffffffffffffffffffffffffffffffffffff169050919050565b6000610bd282611555565b90508073ffffffffffffffffffffffffffffffffffffffff168373ffffffffffffffffffffffffffffffffffffffff161415610c43576040517f08c379a0000000000000000000000000000000000000000000000000000000008152600401610c3a90614ca6565b60405180910390fd5b8073ffffffffffffffffffffffffffffffffffffffff16610c626126e9565b73ffffffffffffffffffffffffffffffffffffffff161480610c915750610c9081610c8b6126e9565b612195565b5b610cd0576040517f08c379a0000000000000000000000000000000000000000000000000000000008152600401610cc790614b86565b60405180910390fd5b610cda83836126f1565b505050565b6000600f60029054906101000a900460ff16905090565b6000600880549050905090565b610d14610d0e6126e9565b826127aa565b610d53576040517f08c379a0000000000000000000000000000000000000000000000000000000008152600401610d4a90614ce6565b60405180910390fd5b610d5e838383612888565b505050565b610d6b6126e9565b73ffffffffffffffffffffffffffffffffffffffff16610d89611bed565b73ffffffffffffffffffffffffffffffffffffffff1614610ddf576040517f08c379a0000000000000000000000000000000000000000000000000000000008152600401610dd690614c66565b60405180910390fd5b60005b600e80549050811015610e9a57600e8181548110610e29577f4e487b7100000000000000000000000000000000000000000000000000000000600052603260045260246000fd5b906000526020600020906003020160020160009054906101000a900460ff16610e87576040517f08c379a0000000000000000000000000000000000000000000000000000000008152600401610e7e90614c46565b60405180910390fd5b8080610e92906150f0565b915050610de2565b5060004790503373ffffffffffffffffffffffffffffffffffffffff166108fc829081150290604051600060405180830381858888f19350505050158015610ee6573d6000803e3d6000fd5b5050565b6000610ef583611631565b8210610f36576040517f08c379a0000000000000000000000000000000000000000000000000000000008152600401610f2d906149e6565b60405180910390fd5b600660008473ffffffffffffffffffffffffffffffffffffffff1673ffffffffffffffffffffffffffffffffffffffff168152602001908152602001600020600083815260200190815260200160002054905092915050565b610f976126e9565b73ffffffffffffffffffffffffffffffffffffffff16610fb5611bed565b73ffffffffffffffffffffffffffffffffffffffff161461100b576040517f08c379a000000000000000000000000000000000000000000000000000000000815260040161100290614c66565b60405180910390fd5b6001600a60146101000a81548160ff021916908315150217905550565b60008166038d7ea4c6800061103d9190614eed565b9050348114611081576040517f08c379a000000000000000000000000000000000000000000000000000000000815260040161107890614b26565b60405180910390fd5b60648261108c610cf6565b6110969190614e66565b106110d6576040517f08c379a00000000000000000000000000000000000000000000000000000000081526004016110cd906149ad565b60405180910390fd5b60005b828110156111175760006110ed6014612aef565b90506110f96014612afd565b6111038582612b13565b50808061110f906150f0565b9150506110d9565b50505050565b6000600e80549050905090565b61114583838360405180602001604052806000815250611e14565b505050565b6000806000905060003090506000611160611cbf565b90506000600c548373ffffffffffffffffffffffffffffffffffffffff166318160ddd6040518163ffffffff1660e01b815260040160206040518083038186803b1580156111ad57600080fd5b505afa1580156111c1573d6000803e3d6000fd5b505050506040513d601f19601f820116820180604052508101906111e59190614032565b6111ef9190614eed565b9050600b54811015611246576112396040518060400160405280600881526020017f72657475726e2031000000000000000000000000000000000000000000000000815250612b31565b600094505050505061149b565b6000600b54826112569190614f47565b90506000479050818110156112b2576112a36040518060400160405280600881526020017f72657475726e2032000000000000000000000000000000000000000000000000815250612b31565b6000965050505050505061149b565b6112f66040518060400160405280600c81526020017f7374657073206c656e6774680000000000000000000000000000000000000000815250600e80549050612bca565b6113356040518060400160405280601081526020017f636f6d706c65746564206c656e6774680000000000000000000000000000000081525085612bca565b6000846103e8600e8054905061134b9190614eed565b6113559190614ebc565b90506113966040518060400160405280601381526020017f636f6d706c6574656450657263656e746167650000000000000000000000000081525082612bca565b60008673ffffffffffffffffffffffffffffffffffffffff166318160ddd6040518163ffffffff1660e01b815260040160206040518083038186803b1580156113de57600080fd5b505afa1580156113f2573d6000803e3d6000fd5b505050506040513d601f19601f820116820180604052508101906114169190614032565b846114219190614ebc565b905060005b8a5181101561148e57600d600082815260200190815260200160002060009054906101000a900460ff1661147b576103e883836114639190614eed565b61146d9190614ebc565b896114789190614e66565b98505b8080611486906150f0565b915050611426565b5087985050505050505050505b919050565b60006114aa610cf6565b82106114eb576040517f08c379a00000000000000000000000000000000000000000000000000000000081526004016114e290614d26565b60405180910390fd5b60088281548110611525577f4e487b7100000000000000000000000000000000000000000000000000000000600052603260045260246000fd5b90600052602060002001549050919050565b6000611541610cf6565b6002606461154f9190614ebc565b11905090565b6000806002600084815260200190815260200160002060009054906101000a900473ffffffffffffffffffffffffffffffffffffffff169050600073ffffffffffffffffffffffffffffffffffffffff168173ffffffffffffffffffffffffffffffffffffffff1614156115fe576040517f08c379a00000000000000000000000000000000000000000000000000000000081526004016115f590614bc6565b60405180910390fd5b80915050919050565b6000600f60009054906101000a900460ff16905090565b600f60039054906101000a900460ff1681565b60008073ffffffffffffffffffffffffffffffffffffffff168273ffffffffffffffffffffffffffffffffffffffff1614156116a2576040517f08c379a000000000000000000000000000000000000000000000000000000000815260040161169990614ba6565b60405180910390fd5b600360008373ffffffffffffffffffffffffffffffffffffffff1673ffffffffffffffffffffffffffffffffffffffff168152602001908152602001600020549050919050565b6116f16126e9565b73ffffffffffffffffffffffffffffffffffffffff1661170f611bed565b73ffffffffffffffffffffffffffffffffffffffff1614611765576040517f08c379a000000000000000000000000000000000000000000000000000000000815260040161175c90614c66565b60405180910390fd5b61176f6000612c66565b565b600e818154811061178157600080fd5b90600052602060002090600302016000915090508060000154908060010180546117aa9061508d565b80601f01602080910402602001604051908101604052809291908181526020018280546117d69061508d565b80156118235780601f106117f857610100808354040283529160200191611823565b820191906000526020600020905b81548152906001019060200180831161180657829003601f168201915b5050505050908060020160009054906101000a900460ff16905083565b6118486126e9565b73ffffffffffffffffffffffffffffffffffffffff16611866611bed565b73ffffffffffffffffffffffffffffffffffffffff16146118bc576040517f08c379a00000000000000000000000000000000000000000000000000000000081526004016118b390614c66565b60405180910390fd5b6001600f60006101000a81548160ff02191690831515021790555050565b6000600e8281548110611916577f4e487b7100000000000000000000000000000000000000000000000000000000600052603260045260246000fd5b9060005260206000209060030201604051806060016040529081600082015481526020016001820180546119499061508d565b80601f01602080910402602001604051908101604052809291908181526020018280546119759061508d565b80156119c25780601f10611997576101008083540402835291602001916119c2565b820191906000526020600020905b8154815290600101906020018083116119a557829003601f168201915b505050505081526020016002820160009054906101000a900460ff1615151515815250509050806040015115611a2d576040517f08c379a0000000000000000000000000000000000000000000000000000000008152600401611a2490614a46565b60405180910390fd5b6000803073ffffffffffffffffffffffffffffffffffffffff168360000151604051602001611a5c9190614711565b604051602081830303815290604052604051611a78919061472c565b6000604051808303816000865af19150503d8060008114611ab5576040519150601f19603f3d011682016040523d82523d6000602084013e611aba565b606091505b509150915060008151602083015191505082611b0b576040517f08c379a0000000000000000000000000000000000000000000000000000000008152600401611b0290614d46565b60405180910390fd5b80611b4b576040517f08c379a0000000000000000000000000000000000000000000000000000000008152600401611b429061498d565b60405180910390fd5b6001600e8681548110611b87577f4e487b7100000000000000000000000000000000000000000000000000000000600052603260045260246000fd5b906000526020600020906003020160020160006101000a81548160ff0219169083151502179055507f7d716790d01a64421d121f2b247366a43719c87528485b9900995183b635fe8a85604051611bde9190614d66565b60405180910390a15050505050565b6000600a60009054906101000a900473ffffffffffffffffffffffffffffffffffffffff16905090565b606060018054611c269061508d565b80601f0160208091040260200160405190810160405280929190818152602001828054611c529061508d565b8015611c9f5780601f10611c7457610100808354040283529160200191611c9f565b820191906000526020600020905b815481529060010190602001808311611c8257829003601f168201915b5050505050905090565b611cbb611cb46126e9565b8383612d2c565b5050565b600080600090505b600e80549050811015611e10576000600e8281548110611d10577f4e487b7100000000000000000000000000000000000000000000000000000000600052603260045260246000fd5b906000526020600020906003020160405180606001604052908160008201548152602001600182018054611d439061508d565b80601f0160208091040260200160405190810160405280929190818152602001828054611d6f9061508d565b8015611dbc5780601f10611d9157610100808354040283529160200191611dbc565b820191906000526020600020905b815481529060010190602001808311611d9f57829003601f168201915b505050505081526020016002820160009054906101000a900460ff1615151515815250509050806040015115611dfc57600183611df99190614e66565b92505b508080611e08906150f0565b915050611cc7565b5090565b611e25611e1f6126e9565b836127aa565b611e64576040517f08c379a0000000000000000000000000000000000000000000000000000000008152600401611e5b90614ce6565b60405180910390fd5b611e7084848484612e99565b50505050565b600a60149054906101000a900460ff1681565b6000600f60019054906101000a900460ff16905090565b66038d7ea4c6800081565b6060611eb68261267d565b611ef5576040517f08c379a0000000000000000000000000000000000000000000000000000000008152600401611eec90614c86565b60405180910390fd5b6000611eff612ef5565b90506000815111611f1f5760405180602001604052806000815250611f4a565b80611f2984612f0c565b604051602001611f3a92919061475a565b6040516020818303038152906040525b915050919050565b611f5a6126e9565b73ffffffffffffffffffffffffffffffffffffffff16611f78611bed565b73ffffffffffffffffffffffffffffffffffffffff1614611fce576040517f08c379a0000000000000000000000000000000000000000000000000000000008152600401611fc590614c66565b60405180910390fd5b6000739aa48bb538206d5d7329aafd17b63562e7c9845790508073ffffffffffffffffffffffffffffffffffffffff166108fc67016345785d8a00009081150290604051600060405180830381858888f19350505050158015612035573d6000803e3d6000fd5b506001600f60016101000a81548160ff02191690831515021790555050565b600061205e61266e565b9050600073bf7a7169562078c96f0ec1a8afd6ae50f12e5a9990508173ffffffffffffffffffffffffffffffffffffffff166311df92f1601154601354601085671bc16d674ec800006040518663ffffffff1660e01b81526004016120c7959493929190614875565b602060405180830381600087803b1580156120e157600080fd5b505af11580156120f5573d6000803e3d6000fd5b505050506040513d601f19601f820116820180604052508101906121199190614032565b508173ffffffffffffffffffffffffffffffffffffffff1663473c45fe601154601354601060b46040518563ffffffff1660e01b815260040161215f94939291906148cf565b600060405180830381600087803b15801561217957600080fd5b505af115801561218d573d6000803e3d6000fd5b505050505050565b6000600560008473ffffffffffffffffffffffffffffffffffffffff1673ffffffffffffffffffffffffffffffffffffffff16815260200190815260200160002060008373ffffffffffffffffffffffffffffffffffffffff1673ffffffffffffffffffffffffffffffffffffffff16815260200190815260200160002060009054906101000a900460ff16905092915050565b6122316126e9565b73ffffffffffffffffffffffffffffffffffffffff1661224f611bed565b73ffffffffffffffffffffffffffffffffffffffff16146122a5576040517f08c379a000000000000000000000000000000000000000000000000000000000815260040161229c90614c66565b60405180910390fd5b600073ffffffffffffffffffffffffffffffffffffffff168173ffffffffffffffffffffffffffffffffffffffff161415612315576040517f08c379a000000000000000000000000000000000000000000000000000000000815260040161230c90614a66565b60405180910390fd5b61231e81612c66565b50565b600a60149054906101000a900460ff16612370576040517f08c379a000000000000000000000000000000000000000000000000000000000815260040161236790614a26565b60405180910390fd5b600030905060005b825181101561259a573373ffffffffffffffffffffffffffffffffffffffff168273ffffffffffffffffffffffffffffffffffffffff16636352211e836040518263ffffffff1660e01b81526004016123d19190614d66565b60206040518083038186803b1580156123e957600080fd5b505afa1580156123fd573d6000803e3d6000fd5b505050506040513d601f19601f820116820180604052508101906124219190613d54565b73ffffffffffffffffffffffffffffffffffffffff1614612477576040517f08c379a000000000000000000000000000000000000000000000000000000000815260040161246e90614ac6565b60405180910390fd5b600d600082815260200190815260200160002060009054906101000a900460ff16156124d8576040517f08c379a00000000000000000000000000000000000000000000000000000000081526004016124cf90614b66565b60405180910390fd5b8173ffffffffffffffffffffffffffffffffffffffff166323b872dd333086858151811061252f577f4e487b7100000000000000000000000000000000000000000000000000000000600052603260045260246000fd5b60200260200101516040518463ffffffff1660e01b815260040161255593929190614799565b600060405180830381600087803b15801561256f57600080fd5b505af1158015612583573d6000803e3d6000fd5b505050508080612592906150f0565b915050612378565b5060006125a68361114a565b90503373ffffffffffffffffffffffffffffffffffffffff166108fc829081150290604051600060405180830381858888f193505050501580156125ee573d6000803e3d6000fd5b50505050565b60007f780e9d63000000000000000000000000000000000000000000000000000000007bffffffffffffffffffffffffffffffffffffffffffffffffffffffff1916827bffffffffffffffffffffffffffffffffffffffffffffffffffffffff191614806126675750612666826130b9565b5b9050919050565b600061267861319b565b905090565b60008073ffffffffffffffffffffffffffffffffffffffff166002600084815260200190815260200160002060009054906101000a900473ffffffffffffffffffffffffffffffffffffffff1673ffffffffffffffffffffffffffffffffffffffff1614159050919050565b600033905090565b816004600083815260200190815260200160002060006101000a81548173ffffffffffffffffffffffffffffffffffffffff021916908373ffffffffffffffffffffffffffffffffffffffff160217905550808273ffffffffffffffffffffffffffffffffffffffff1661276483611555565b73ffffffffffffffffffffffffffffffffffffffff167f8c5be1e5ebec7d5bd14f71427d1e84f3dd0314c0f7b2291e5b200ac8c7c3b92560405160405180910390a45050565b60006127b58261267d565b6127f4576040517f08c379a00000000000000000000000000000000000000000000000000000000081526004016127eb90614b46565b60405180910390fd5b60006127ff83611555565b90508073ffffffffffffffffffffffffffffffffffffffff168473ffffffffffffffffffffffffffffffffffffffff16148061286e57508373ffffffffffffffffffffffffffffffffffffffff1661285684610b42565b73ffffffffffffffffffffffffffffffffffffffff16145b8061287f575061287e8185612195565b5b91505092915050565b8273ffffffffffffffffffffffffffffffffffffffff166128a882611555565b73ffffffffffffffffffffffffffffffffffffffff16146128fe576040517f08c379a00000000000000000000000000000000000000000000000000000000081526004016128f590614a86565b60405180910390fd5b600073ffffffffffffffffffffffffffffffffffffffff168273ffffffffffffffffffffffffffffffffffffffff16141561296e576040517f08c379a000000000000000000000000000000000000000000000000000000000815260040161296590614ae6565b60405180910390fd5b612979838383613248565b6129846000826126f1565b6001600360008573ffffffffffffffffffffffffffffffffffffffff1673ffffffffffffffffffffffffffffffffffffffff16815260200190815260200160002060008282546129d49190614f47565b925050819055506001600360008473ffffffffffffffffffffffffffffffffffffffff1673ffffffffffffffffffffffffffffffffffffffff1681526020019081526020016000206000828254612a2b9190614e66565b92505081905550816002600083815260200190815260200160002060006101000a81548173ffffffffffffffffffffffffffffffffffffffff021916908373ffffffffffffffffffffffffffffffffffffffff160217905550808273ffffffffffffffffffffffffffffffffffffffff168473ffffffffffffffffffffffffffffffffffffffff167fddf252ad1be2c89b69c2b068fc378daa952ba7f163c4a11628f55a4df523b3ef60405160405180910390a4612aea838383613258565b505050565b600081600001549050919050565b6001816000016000828254019250508190555050565b612b2d82826040518060200160405280600081525061325d565b5050565b612bc781604051602401612b45919061491b565b6040516020818303038152906040527f41304fac000000000000000000000000000000000000000000000000000000007bffffffffffffffffffffffffffffffffffffffffffffffffffffffff19166020820180517bffffffffffffffffffffffffffffffffffffffffffffffffffffffff83818316178352505050506132b8565b50565b612c628282604051602401612be092919061493d565b6040516020818303038152906040527f9710a9d0000000000000000000000000000000000000000000000000000000007bffffffffffffffffffffffffffffffffffffffffffffffffffffffff19166020820180517bffffffffffffffffffffffffffffffffffffffffffffffffffffffff83818316178352505050506132b8565b5050565b6000600a60009054906101000a900473ffffffffffffffffffffffffffffffffffffffff16905081600a60006101000a81548173ffffffffffffffffffffffffffffffffffffffff021916908373ffffffffffffffffffffffffffffffffffffffff1602179055508173ffffffffffffffffffffffffffffffffffffffff168173ffffffffffffffffffffffffffffffffffffffff167f8be0079c531659141344cd1fd0a4f28419497f9722a3daafe3b4186f6b6457e060405160405180910390a35050565b8173ffffffffffffffffffffffffffffffffffffffff168373ffffffffffffffffffffffffffffffffffffffff161415612d9b576040517f08c379a0000000000000000000000000000000000000000000000000000000008152600401612d9290614b06565b60405180910390fd5b80600560008573ffffffffffffffffffffffffffffffffffffffff1673ffffffffffffffffffffffffffffffffffffffff16815260200190815260200160002060008473ffffffffffffffffffffffffffffffffffffffff1673ffffffffffffffffffffffffffffffffffffffff16815260200190815260200160002060006101000a81548160ff0219169083151502179055508173ffffffffffffffffffffffffffffffffffffffff168373ffffffffffffffffffffffffffffffffffffffff167f17307eab39ab6107e8899845ad3d59bd9653f200f220920489ca2b5937696c3183604051612e8c919061481c565b60405180910390a3505050565b612ea4848484612888565b612eb0848484846132e1565b612eef576040517f08c379a0000000000000000000000000000000000000000000000000000000008152600401612ee690614a06565b60405180910390fd5b50505050565b606060405180602001604052806000815250905090565b60606000821415612f54576040518060400160405280600181526020017f300000000000000000000000000000000000000000000000000000000000000081525090506130b4565b600082905060005b60008214612f86578080612f6f906150f0565b915050600a82612f7f9190614ebc565b9150612f5c565b60008167ffffffffffffffff811115612fc8577f4e487b7100000000000000000000000000000000000000000000000000000000600052604160045260246000fd5b6040519080825280601f01601f191660200182016040528015612ffa5781602001600182028036833780820191505090505b5090505b600085146130ad576001826130139190614f47565b9150600a856130229190615143565b603061302e9190614e66565b60f81b81838151811061306a577f4e487b7100000000000000000000000000000000000000000000000000000000600052603260045260246000fd5b60200101907effffffffffffffffffffffffffffffffffffffffffffffffffffffffffffff1916908160001a905350600a856130a69190614ebc565b9450612ffe565b8093505050505b919050565b60007f80ac58cd000000000000000000000000000000000000000000000000000000007bffffffffffffffffffffffffffffffffffffffffffffffffffffffff1916827bffffffffffffffffffffffffffffffffffffffffffffffffffffffff1916148061318457507f5b5e139f000000000000000000000000000000000000000000000000000000007bffffffffffffffffffffffffffffffffffffffffffffffffffffffff1916827bffffffffffffffffffffffffffffffffffffffffffffffffffffffff1916145b80613194575061319382613478565b5b9050919050565b60008073ed0169a88d267063184b0853baaaae66c3c154b2905060008190508073ffffffffffffffffffffffffffffffffffffffff1663aafd5e406040518163ffffffff1660e01b81526004016131f1906149cd565b60206040518083038186803b15801561320957600080fd5b505afa15801561321d573d6000803e3d6000fd5b505050506040513d601f19601f820116820180604052508101906132419190613d54565b9250505090565b6132538383836134e2565b505050565b505050565b61326783836135f6565b61327460008484846132e1565b6132b3576040517f08c379a00000000000000000000000000000000000000000000000000000000081526004016132aa90614a06565b60405180910390fd5b505050565b60008151905060006a636f6e736f6c652e6c6f679050602083016000808483855afa5050505050565b60006133028473ffffffffffffffffffffffffffffffffffffffff166137d0565b1561346b578373ffffffffffffffffffffffffffffffffffffffff1663150b7a0261332b6126e9565b8786866040518563ffffffff1660e01b815260040161334d94939291906147d0565b602060405180830381600087803b15801561336757600080fd5b505af192505050801561339857506040513d601f19601f820116820180604052508101906133959190613fe0565b60015b61341b573d80600081146133c8576040519150601f19603f3d011682016040523d82523d6000602084013e6133cd565b606091505b50600081511415613413576040517f08c379a000000000000000000000000000000000000000000000000000000000815260040161340a90614a06565b60405180910390fd5b805181602001fd5b63150b7a0260e01b7bffffffffffffffffffffffffffffffffffffffffffffffffffffffff1916817bffffffffffffffffffffffffffffffffffffffffffffffffffffffff191614915050613470565b600190505b949350505050565b60007f01ffc9a7000000000000000000000000000000000000000000000000000000007bffffffffffffffffffffffffffffffffffffffffffffffffffffffff1916827bffffffffffffffffffffffffffffffffffffffffffffffffffffffff1916149050919050565b6134ed8383836137f3565b600073ffffffffffffffffffffffffffffffffffffffff168373ffffffffffffffffffffffffffffffffffffffff1614156135305761352b816137f8565b61356f565b8173ffffffffffffffffffffffffffffffffffffffff168373ffffffffffffffffffffffffffffffffffffffff161461356e5761356d8382613841565b5b5b600073ffffffffffffffffffffffffffffffffffffffff168273ffffffffffffffffffffffffffffffffffffffff1614156135b2576135ad816139ae565b6135f1565b8273ffffffffffffffffffffffffffffffffffffffff168273ffffffffffffffffffffffffffffffffffffffff16146135f0576135ef8282613af1565b5b5b505050565b600073ffffffffffffffffffffffffffffffffffffffff168273ffffffffffffffffffffffffffffffffffffffff161415613666576040517f08c379a000000000000000000000000000000000000000000000000000000000815260040161365d90614be6565b60405180910390fd5b61366f8161267d565b156136af576040517f08c379a00000000000000000000000000000000000000000000000000000000081526004016136a690614aa6565b60405180910390fd5b6136bb60008383613248565b6001600360008473ffffffffffffffffffffffffffffffffffffffff1673ffffffffffffffffffffffffffffffffffffffff168152602001908152602001600020600082825461370b9190614e66565b92505081905550816002600083815260200190815260200160002060006101000a81548173ffffffffffffffffffffffffffffffffffffffff021916908373ffffffffffffffffffffffffffffffffffffffff160217905550808273ffffffffffffffffffffffffffffffffffffffff16600073ffffffffffffffffffffffffffffffffffffffff167fddf252ad1be2c89b69c2b068fc378daa952ba7f163c4a11628f55a4df523b3ef60405160405180910390a46137cc60008383613258565b5050565b6000808273ffffffffffffffffffffffffffffffffffffffff163b119050919050565b505050565b6008805490506009600083815260200190815260200160002081905550600881908060018154018082558091505060019003906000526020600020016000909190919091505550565b6000600161384e84611631565b6138589190614f47565b905060006007600084815260200190815260200160002054905081811461393d576000600660008673ffffffffffffffffffffffffffffffffffffffff1673ffffffffffffffffffffffffffffffffffffffff168152602001908152602001600020600084815260200190815260200160002054905080600660008773ffffffffffffffffffffffffffffffffffffffff1673ffffffffffffffffffffffffffffffffffffffff168152602001908152602001600020600084815260200190815260200160002081905550816007600083815260200190815260200160002081905550505b6007600084815260200190815260200160002060009055600660008573ffffffffffffffffffffffffffffffffffffffff1673ffffffffffffffffffffffffffffffffffffffff16815260200190815260200160002060008381526020019081526020016000206000905550505050565b600060016008805490506139c29190614f47565b9050600060096000848152602001908152602001600020549050600060088381548110613a18577f4e487b7100000000000000000000000000000000000000000000000000000000600052603260045260246000fd5b906000526020600020015490508060088381548110613a60577f4e487b7100000000000000000000000000000000000000000000000000000000600052603260045260246000fd5b906000526020600020018190555081600960008381526020019081526020016000208190555060096000858152602001908152602001600020600090556008805480613ad5577f4e487b7100000000000000000000000000000000000000000000000000000000600052603160045260246000fd5b6001900381819060005260206000200160009055905550505050565b6000613afc83611631565b905081600660008573ffffffffffffffffffffffffffffffffffffffff1673ffffffffffffffffffffffffffffffffffffffff168152602001908152602001600020600083815260200190815260200160002081905550806007600084815260200190815260200160002081905550505050565b6000613b83613b7e84614da6565b614d81565b90508083825260208201905082856020860282011115613ba257600080fd5b60005b85811015613bd25781613bb88882613d01565b845260208401935060208301925050600181019050613ba5565b5050509392505050565b6000613bef613bea84614dd2565b614d81565b905082815260208101848484011115613c0757600080fd5b613c1284828561504b565b509392505050565b600081359050613c298161594c565b92915050565b600081519050613c3e8161594c565b92915050565b600082601f830112613c5557600080fd5b8135613c65848260208601613b70565b91505092915050565b600081359050613c7d81615963565b92915050565b600081359050613c928161597a565b92915050565b600081359050613ca781615991565b92915050565b600081519050613cbc81615991565b92915050565b600082601f830112613cd357600080fd5b8135613ce3848260208601613bdc565b91505092915050565b600081359050613cfb816159a8565b92915050565b600081359050613d10816159bf565b92915050565b600081519050613d25816159bf565b92915050565b600060208284031215613d3d57600080fd5b6000613d4b84828501613c1a565b91505092915050565b600060208284031215613d6657600080fd5b6000613d7484828501613c2f565b91505092915050565b60008060408385031215613d9057600080fd5b6000613d9e85828601613c1a565b9250506020613daf85828601613c1a565b9150509250929050565b600080600060608486031215613dce57600080fd5b6000613ddc86828701613c1a565b9350506020613ded86828701613c1a565b9250506040613dfe86828701613d01565b9150509250925092565b60008060008060808587031215613e1e57600080fd5b6000613e2c87828801613c1a565b9450506020613e3d87828801613c1a565b9350506040613e4e87828801613d01565b925050606085013567ffffffffffffffff811115613e6b57600080fd5b613e7787828801613cc2565b91505092959194509250565b60008060408385031215613e9657600080fd5b6000613ea485828601613c1a565b9250506020613eb585828601613c6e565b9150509250929050565b60008060408385031215613ed257600080fd5b6000613ee085828601613c1a565b9250506020613ef185828601613d01565b9150509250929050565b600060208284031215613f0d57600080fd5b600082013567ffffffffffffffff811115613f2757600080fd5b613f3384828501613c44565b91505092915050565b60008060008060808587031215613f5257600080fd5b6000613f6087828801613c83565b9450506020613f7187828801613d01565b935050604085013567ffffffffffffffff811115613f8e57600080fd5b613f9a87828801613cc2565b9250506060613fab87828801613cec565b91505092959194509250565b600060208284031215613fc957600080fd5b6000613fd784828501613c98565b91505092915050565b600060208284031215613ff257600080fd5b600061400084828501613cad565b91505092915050565b60006020828403121561401b57600080fd5b600061402984828501613d01565b91505092915050565b60006020828403121561404457600080fd5b600061405284828501613d16565b91505092915050565b61406481614f7b565b82525050565b61407381614f8d565b82525050565b61408281614f99565b82525050565b61409961409482614f99565b615139565b82525050565b60006140aa82614e18565b6140b48185614e2e565b93506140c481856020860161505a565b6140cd81615230565b840191505092915050565b60006140e382614e18565b6140ed8185614e3f565b93506140fd81856020860161505a565b80840191505092915050565b600081546141168161508d565b6141208186614e2e565b9450600182166000811461413b576001811461414d57614180565b60ff1983168652602086019350614180565b61415685614e03565b60005b8381101561417857815481890152600182019150602081019050614159565b808801955050505b50505092915050565b600081546141968161508d565b6141a08186614e3f565b945060018216600081146141bb57600181146141cc576141ff565b60ff198316865281860193506141ff565b6141d585614e03565b60005b838110156141f7578154818901526001820191506020810190506141d8565b838801955050505b50505092915050565b61421181615003565b82525050565b61422081615027565b82525050565b61422f81615039565b82525050565b600061424082614e23565b61424a8185614e4a565b935061425a81856020860161505a565b61426381615230565b840191505092915050565b600061427982614e23565b6142838185614e5b565b935061429381856020860161505a565b80840191505092915050565b60006142ac601483614e4a565b91506142b782615241565b602082019050919050565b60006142cf601583614e4a565b91506142da8261526a565b602082019050919050565b60006142f2601183614e4a565b91506142fd82615293565b602082019050919050565b7f4f7074696d69737469634f7261636c6500000000000000000000000000000000815250565b600061433b602b83614e4a565b9150614346826152bc565b604082019050919050565b600061435e603283614e4a565b91506143698261530b565b604082019050919050565b6000614381601383614e4a565b915061438c8261535a565b602082019050919050565b60006143a4601183614e4a565b91506143af82615383565b602082019050919050565b60006143c7602683614e4a565b91506143d2826153ac565b604082019050919050565b60006143ea602583614e4a565b91506143f5826153fb565b604082019050919050565b600061440d601c83614e4a565b91506144188261544a565b602082019050919050565b6000614430600b83614e4a565b915061443b82615473565b602082019050919050565b6000614453602483614e4a565b915061445e8261549c565b604082019050919050565b6000614476601983614e4a565b9150614481826154eb565b602082019050919050565b6000614499601783614e4a565b91506144a482615514565b602082019050919050565b60006144bc602c83614e4a565b91506144c78261553d565b604082019050919050565b60006144df601983614e4a565b91506144ea8261558c565b602082019050919050565b6000614502603883614e4a565b915061450d826155b5565b604082019050919050565b6000614525602a83614e4a565b915061453082615604565b604082019050919050565b6000614548602983614e4a565b915061455382615653565b604082019050919050565b600061456b602083614e4a565b9150614576826156a2565b602082019050919050565b600061458e600e83614e4a565b9150614599826156cb565b602082019050919050565b60006145b1602c83614e4a565b91506145bc826156f4565b604082019050919050565b60006145d4600d83614e4a565b91506145df82615743565b602082019050919050565b60006145f7602083614e4a565b91506146028261576c565b602082019050919050565b600061461a602f83614e4a565b915061462582615795565b604082019050919050565b600061463d602183614e4a565b9150614648826157e4565b604082019050919050565b6000614660601383614e4a565b915061466b82615833565b602082019050919050565b6000614683603183614e4a565b915061468e8261585c565b604082019050919050565b60006146a6600f83614e4a565b91506146b1826158ab565b602082019050919050565b60006146c9602c83614e4a565b91506146d4826158d4565b604082019050919050565b60006146ec601383614e4a565b91506146f782615923565b602082019050919050565b61470b81614ff9565b82525050565b600061471d8284614088565b60208201915081905092915050565b600061473882846140d8565b915081905092915050565b600061474f8284614189565b915081905092915050565b6000614766828561426e565b9150614772828461426e565b91508190509392505050565b6000602082019050614793600083018461405b565b92915050565b60006060820190506147ae600083018661405b565b6147bb602083018561405b565b6147c86040830184614702565b949350505050565b60006080820190506147e5600083018761405b565b6147f2602083018661405b565b6147ff6040830185614702565b8181036060830152614811818461409f565b905095945050505050565b6000602082019050614831600083018461406a565b92915050565b600060608201905061484c6000830186614079565b818103602083015261485e8185614235565b905061486d604083018461406a565b949350505050565b600060a08201905061488a6000830188614079565b6148976020830187614702565b81810360408301526148a98186614109565b90506148b86060830185614208565b6148c56080830184614226565b9695505050505050565b60006080820190506148e46000830187614079565b6148f16020830186614702565b81810360408301526149038185614109565b90506149126060830184614217565b95945050505050565b600060208201905081810360008301526149358184614235565b905092915050565b600060408201905081810360008301526149578185614235565b90506149666020830184614702565b9392505050565b600060208201905081810360008301526149868161429f565b9050919050565b600060208201905081810360008301526149a6816142c2565b9050919050565b600060208201905081810360008301526149c6816142e5565b9050919050565b60006020820190506149e160008301614308565b919050565b600060208201905081810360008301526149ff8161432e565b9050919050565b60006020820190508181036000830152614a1f81614351565b9050919050565b60006020820190508181036000830152614a3f81614374565b9050919050565b60006020820190508181036000830152614a5f81614397565b9050919050565b60006020820190508181036000830152614a7f816143ba565b9050919050565b60006020820190508181036000830152614a9f816143dd565b9050919050565b60006020820190508181036000830152614abf81614400565b9050919050565b60006020820190508181036000830152614adf81614423565b9050919050565b60006020820190508181036000830152614aff81614446565b9050919050565b60006020820190508181036000830152614b1f81614469565b9050919050565b60006020820190508181036000830152614b3f8161448c565b9050919050565b60006020820190508181036000830152614b5f816144af565b9050919050565b60006020820190508181036000830152614b7f816144d2565b9050919050565b60006020820190508181036000830152614b9f816144f5565b9050919050565b60006020820190508181036000830152614bbf81614518565b9050919050565b60006020820190508181036000830152614bdf8161453b565b9050919050565b60006020820190508181036000830152614bff8161455e565b9050919050565b60006020820190508181036000830152614c1f81614581565b9050919050565b60006020820190508181036000830152614c3f816145a4565b9050919050565b60006020820190508181036000830152614c5f816145c7565b9050919050565b60006020820190508181036000830152614c7f816145ea565b9050919050565b60006020820190508181036000830152614c9f8161460d565b9050919050565b60006020820190508181036000830152614cbf81614630565b9050919050565b60006020820190508181036000830152614cdf81614653565b9050919050565b60006020820190508181036000830152614cff81614676565b9050919050565b60006020820190508181036000830152614d1f81614699565b9050919050565b60006020820190508181036000830152614d3f816146bc565b9050919050565b60006020820190508181036000830152614d5f816146df565b9050919050565b6000602082019050614d7b6000830184614702565b92915050565b6000614d8b614d9c565b9050614d9782826150bf565b919050565b6000604051905090565b600067ffffffffffffffff821115614dc157614dc0615201565b5b602082029050602081019050919050565b600067ffffffffffffffff821115614ded57614dec615201565b5b614df682615230565b9050602081019050919050565b60008190508160005260206000209050919050565b600081519050919050565b600081519050919050565b600082825260208201905092915050565b600081905092915050565b600082825260208201905092915050565b600081905092915050565b6000614e7182614ff9565b9150614e7c83614ff9565b9250827fffffffffffffffffffffffffffffffffffffffffffffffffffffffffffffffff03821115614eb157614eb0615174565b5b828201905092915050565b6000614ec782614ff9565b9150614ed283614ff9565b925082614ee257614ee16151a3565b5b828204905092915050565b6000614ef882614ff9565b9150614f0383614ff9565b9250817fffffffffffffffffffffffffffffffffffffffffffffffffffffffffffffffff0483118215151615614f3c57614f3b615174565b5b828202905092915050565b6000614f5282614ff9565b9150614f5d83614ff9565b925082821015614f7057614f6f615174565b5b828203905092915050565b6000614f8682614fd9565b9050919050565b60008115159050919050565b6000819050919050565b60007fffffffff0000000000000000000000000000000000000000000000000000000082169050919050565b6000819050919050565b600073ffffffffffffffffffffffffffffffffffffffff82169050919050565b6000819050919050565b600061500e82615015565b9050919050565b600061502082614fd9565b9050919050565b600061503282614ff9565b9050919050565b600061504482614ff9565b9050919050565b82818337600083830152505050565b60005b8381101561507857808201518184015260208101905061505d565b83811115615087576000848401525b50505050565b600060028204905060018216806150a557607f821691505b602082108114156150b9576150b86151d2565b5b50919050565b6150c882615230565b810181811067ffffffffffffffff821117156150e7576150e6615201565b5b80604052505050565b60006150fb82614ff9565b91507fffffffffffffffffffffffffffffffffffffffffffffffffffffffffffffffff82141561512e5761512d615174565b5b600182019050919050565b6000819050919050565b600061514e82614ff9565b915061515983614ff9565b925082615169576151686151a3565b5b828206905092915050565b7f4e487b7100000000000000000000000000000000000000000000000000000000600052601160045260246000fd5b7f4e487b7100000000000000000000000000000000000000000000000000000000600052601260045260246000fd5b7f4e487b7100000000000000000000000000000000000000000000000000000000600052602260045260246000fd5b7f4e487b7100000000000000000000000000000000000000000000000000000000600052604160045260246000fd5b6000601f19601f8301169050919050565b7f646966666572656e742074696d657374616d7073000000000000000000000000600082015250565b7f726573756c74206e6f74207375636365737366756c0000000000000000000000600082015250565b7f4e6f7420656e6f75676820737570706c79000000000000000000000000000000600082015250565b7f455243373231456e756d657261626c653a206f776e657220696e646578206f7560008201527f74206f6620626f756e6473000000000000000000000000000000000000000000602082015250565b7f4552433732313a207472616e7366657220746f206e6f6e20455243373231526560008201527f63656976657220696d706c656d656e7465720000000000000000000000000000602082015250565b7f5265766572746564206e6f742061637469766500000000000000000000000000600082015250565b7f616c726561647920636f6d706c65746564000000000000000000000000000000600082015250565b7f4f776e61626c653a206e6577206f776e657220697320746865207a65726f206160008201527f6464726573730000000000000000000000000000000000000000000000000000602082015250565b7f4552433732313a207472616e736665722066726f6d20696e636f72726563742060008201527f6f776e6572000000000000000000000000000000000000000000000000000000602082015250565b7f4552433732313a20746f6b656e20616c7265616479206d696e74656400000000600082015250565b7f57726f6e67206f776e6572000000000000000000000000000000000000000000600082015250565b7f4552433732313a207472616e7366657220746f20746865207a65726f2061646460008201527f7265737300000000000000000000000000000000000000000000000000000000602082015250565b7f4552433732313a20617070726f766520746f2063616c6c657200000000000000600082015250565b7f56616c75652069732077726f6e6720666f72206d696e74000000000000000000600082015250565b7f4552433732313a206f70657261746f7220717565727920666f72206e6f6e657860008201527f697374656e7420746f6b656e0000000000000000000000000000000000000000602082015250565b7f416c726561647920636c61696d656420666f7220746f6b656e00000000000000600082015250565b7f4552433732313a20617070726f76652063616c6c6572206973206e6f74206f7760008201527f6e6572206e6f7220617070726f76656420666f7220616c6c0000000000000000602082015250565b7f4552433732313a2062616c616e636520717565727920666f7220746865207a6560008201527f726f206164647265737300000000000000000000000000000000000000000000602082015250565b7f4552433732313a206f776e657220717565727920666f72206e6f6e657869737460008201527f656e7420746f6b656e0000000000000000000000000000000000000000000000602082015250565b7f4552433732313a206d696e7420746f20746865207a65726f2061646472657373600082015250565b7f6e6f7420617574686f72697a6564000000000000000000000000000000000000600082015250565b7f4552433732313a20617070726f76656420717565727920666f72206e6f6e657860008201527f697374656e7420746f6b656e0000000000000000000000000000000000000000602082015250565b7f4e6f7420636f6d706c6574656400000000000000000000000000000000000000600082015250565b7f4f776e61626c653a2063616c6c6572206973206e6f7420746865206f776e6572600082015250565b7f4552433732314d657461646174613a2055524920717565727920666f72206e6f60008201527f6e6578697374656e7420746f6b656e0000000000000000000000000000000000602082015250565b7f4552433732313a20617070726f76616c20746f2063757272656e74206f776e6560008201527f7200000000000000000000000000000000000000000000000000000000000000602082015250565b7f73616d6520616e63696c6c617279206461746100000000000000000000000000600082015250565b7f4552433732313a207472616e736665722063616c6c6572206973206e6f74206f60008201527f776e6572206e6f7220617070726f766564000000000000000000000000000000602082015250565b7f73616d65206964656e7469666965720000000000000000000000000000000000600082015250565b7f455243373231456e756d657261626c653a20676c6f62616c20696e646578206f60008201527f7574206f6620626f756e64730000000000000000000000000000000000000000602082015250565b7f63616c6c206e6f74207375636365737366756c00000000000000000000000000600082015250565b61595581614f7b565b811461596057600080fd5b50565b61596c81614f8d565b811461597757600080fd5b50565b61598381614f99565b811461598e57600080fd5b50565b61599a81614fa3565b81146159a557600080fd5b50565b6159b181614fcf565b81146159bc57600080fd5b50565b6159c881614ff9565b81146159d357600080fd5b5056fea26469706673582212205c54623cdb76e26ec7f56a1f6b7503964d0ab76c387db960f2ab815f4cc4b08764736f6c63430008040033307837313361343836313736363532303734363836353230373336653631373037333638366637343230373636663734363532303633366636653734363136393665363936653637323035623532346634313434346434313530356634313433343335303435343335343435343435643230363336663664373036633635373436353634323037373639373436383230366436663732363532303734363836353665323033353330323037303635373236333635366537343631363736353230366636363230373436383635323037363666373436353733323036313732363532303539343535333366326336383734373437303733336132663266363436353664366632653733366536313730373336383666373432653666373236373266323332663634363537363634363537363634363537363265363537343638",
  "devdoc": {
    "kind": "dev",
    "methods": {
      "approve(address,uint256)": {
        "details": "See {IERC721-approve}."
      },
      "balanceOf(address)": {
        "details": "See {IERC721-balanceOf}."
      },
      "getApproved(uint256)": {
        "details": "See {IERC721-getApproved}."
      },
      "isApprovedForAll(address,address)": {
        "details": "See {IERC721-isApprovedForAll}."
      },
      "name()": {
        "details": "See {IERC721Metadata-name}."
      },
      "owner()": {
        "details": "Returns the address of the current owner."
      },
      "ownerOf(uint256)": {
        "details": "See {IERC721-ownerOf}."
      },
      "renounceOwnership()": {
        "details": "Leaves the contract without owner. It will not be possible to call `onlyOwner` functions anymore. Can only be called by the current owner. NOTE: Renouncing ownership will leave the contract without an owner, thereby removing any functionality that is only available to the owner."
      },
      "safeTransferFrom(address,address,uint256)": {
        "details": "See {IERC721-safeTransferFrom}."
      },
      "safeTransferFrom(address,address,uint256,bytes)": {
        "details": "See {IERC721-safeTransferFrom}."
      },
      "setApprovalForAll(address,bool)": {
        "details": "See {IERC721-setApprovalForAll}."
      },
      "symbol()": {
        "details": "See {IERC721Metadata-symbol}."
      },
      "tokenByIndex(uint256)": {
        "details": "See {IERC721Enumerable-tokenByIndex}."
      },
      "tokenOfOwnerByIndex(address,uint256)": {
        "details": "See {IERC721Enumerable-tokenOfOwnerByIndex}."
      },
      "tokenURI(uint256)": {
        "details": "See {IERC721Metadata-tokenURI}."
      },
      "totalSupply()": {
        "details": "See {IERC721Enumerable-totalSupply}."
      },
      "transferFrom(address,address,uint256)": {
        "details": "See {IERC721-transferFrom}."
      },
      "transferOwnership(address)": {
        "details": "Transfers ownership of the contract to a new account (`newOwner`). Can only be called by the current owner."
      }
    },
    "version": 1
  },
  "userdoc": {
    "kind": "user",
    "methods": {},
    "version": 1
  },
  "storageLayout": {
    "storage": [
      {
        "astId": 208,
        "contract": "contracts/MyNFT.sol:MyNFT",
        "label": "_name",
        "offset": 0,
        "slot": "0",
        "type": "t_string_storage"
      },
      {
        "astId": 210,
        "contract": "contracts/MyNFT.sol:MyNFT",
        "label": "_symbol",
        "offset": 0,
        "slot": "1",
        "type": "t_string_storage"
      },
      {
        "astId": 214,
        "contract": "contracts/MyNFT.sol:MyNFT",
        "label": "_owners",
        "offset": 0,
        "slot": "2",
        "type": "t_mapping(t_uint256,t_address)"
      },
      {
        "astId": 218,
        "contract": "contracts/MyNFT.sol:MyNFT",
        "label": "_balances",
        "offset": 0,
        "slot": "3",
        "type": "t_mapping(t_address,t_uint256)"
      },
      {
        "astId": 222,
        "contract": "contracts/MyNFT.sol:MyNFT",
        "label": "_tokenApprovals",
        "offset": 0,
        "slot": "4",
        "type": "t_mapping(t_uint256,t_address)"
      },
      {
        "astId": 228,
        "contract": "contracts/MyNFT.sol:MyNFT",
        "label": "_operatorApprovals",
        "offset": 0,
        "slot": "5",
        "type": "t_mapping(t_address,t_mapping(t_address,t_bool))"
      },
      {
        "astId": 1197,
        "contract": "contracts/MyNFT.sol:MyNFT",
        "label": "_ownedTokens",
        "offset": 0,
        "slot": "6",
        "type": "t_mapping(t_address,t_mapping(t_uint256,t_uint256))"
      },
      {
        "astId": 1201,
        "contract": "contracts/MyNFT.sol:MyNFT",
        "label": "_ownedTokensIndex",
        "offset": 0,
        "slot": "7",
        "type": "t_mapping(t_uint256,t_uint256)"
      },
      {
        "astId": 1204,
        "contract": "contracts/MyNFT.sol:MyNFT",
        "label": "_allTokens",
        "offset": 0,
        "slot": "8",
        "type": "t_array(t_uint256)dyn_storage"
      },
      {
        "astId": 1208,
        "contract": "contracts/MyNFT.sol:MyNFT",
        "label": "_allTokensIndex",
        "offset": 0,
        "slot": "9",
        "type": "t_mapping(t_uint256,t_uint256)"
      },
      {
        "astId": 7,
        "contract": "contracts/MyNFT.sol:MyNFT",
        "label": "_owner",
        "offset": 0,
        "slot": "10",
        "type": "t_address"
      },
      {
        "astId": 2981,
        "contract": "contracts/MyNFT.sol:MyNFT",
        "label": "reverted",
        "offset": 20,
        "slot": "10",
        "type": "t_bool"
      },
      {
        "astId": 2983,
        "contract": "contracts/MyNFT.sol:MyNFT",
        "label": "reservedAmount",
        "offset": 0,
        "slot": "11",
        "type": "t_uint256"
      },
      {
        "astId": 2985,
        "contract": "contracts/MyNFT.sol:MyNFT",
        "label": "mintPrice",
        "offset": 0,
        "slot": "12",
        "type": "t_uint256"
      },
      {
        "astId": 2989,
        "contract": "contracts/MyNFT.sol:MyNFT",
        "label": "claimed",
        "offset": 0,
        "slot": "13",
        "type": "t_mapping(t_uint256,t_bool)"
      },
      {
        "astId": 3010,
        "contract": "contracts/MyNFT.sol:MyNFT",
        "label": "steps",
        "offset": 0,
        "slot": "14",
        "type": "t_array(t_struct(Step)2996_storage)dyn_storage"
      },
      {
        "astId": 2589,
        "contract": "contracts/MyNFT.sol:MyNFT",
        "label": "apeSent",
        "offset": 0,
        "slot": "15",
        "type": "t_bool"
      },
      {
        "astId": 2592,
        "contract": "contracts/MyNFT.sol:MyNFT",
        "label": "charitySent",
        "offset": 1,
        "slot": "15",
        "type": "t_bool"
      },
      {
        "astId": 2595,
        "contract": "contracts/MyNFT.sol:MyNFT",
        "label": "governanceApproved",
        "offset": 2,
        "slot": "15",
        "type": "t_bool"
      },
      {
        "astId": 2598,
        "contract": "contracts/MyNFT.sol:MyNFT",
        "label": "callbackError",
        "offset": 3,
        "slot": "15",
        "type": "t_bool"
      },
      {
        "astId": 2601,
        "contract": "contracts/MyNFT.sol:MyNFT",
        "label": "ancillaryData",
        "offset": 0,
        "slot": "16",
        "type": "t_bytes_storage"
      },
      {
        "astId": 2604,
        "contract": "contracts/MyNFT.sol:MyNFT",
        "label": "priceIdentifier",
        "offset": 0,
        "slot": "17",
        "type": "t_bytes32"
      },
      {
        "astId": 2607,
        "contract": "contracts/MyNFT.sol:MyNFT",
        "label": "DAI",
        "offset": 0,
        "slot": "18",
        "type": "t_address"
      },
      {
        "astId": 2609,
        "contract": "contracts/MyNFT.sol:MyNFT",
        "label": "creationTimestamp",
        "offset": 0,
        "slot": "19",
        "type": "t_uint256"
      },
      {
        "astId": 2612,
        "contract": "contracts/MyNFT.sol:MyNFT",
        "label": "_tokenIdCounter",
        "offset": 0,
        "slot": "20",
        "type": "t_struct(Counter)1901_storage"
      }
    ],
    "types": {
      "t_address": {
        "encoding": "inplace",
        "label": "address",
        "numberOfBytes": "20"
      },
      "t_array(t_struct(Step)2996_storage)dyn_storage": {
        "base": "t_struct(Step)2996_storage",
        "encoding": "dynamic_array",
        "label": "struct Roadmap.Step[]",
        "numberOfBytes": "32"
      },
      "t_array(t_uint256)dyn_storage": {
        "base": "t_uint256",
        "encoding": "dynamic_array",
        "label": "uint256[]",
        "numberOfBytes": "32"
      },
      "t_bool": {
        "encoding": "inplace",
        "label": "bool",
        "numberOfBytes": "1"
      },
      "t_bytes32": {
        "encoding": "inplace",
        "label": "bytes32",
        "numberOfBytes": "32"
      },
      "t_bytes_storage": {
        "encoding": "bytes",
        "label": "bytes",
        "numberOfBytes": "32"
      },
      "t_mapping(t_address,t_bool)": {
        "encoding": "mapping",
        "key": "t_address",
        "label": "mapping(address => bool)",
        "numberOfBytes": "32",
        "value": "t_bool"
      },
      "t_mapping(t_address,t_mapping(t_address,t_bool))": {
        "encoding": "mapping",
        "key": "t_address",
        "label": "mapping(address => mapping(address => bool))",
        "numberOfBytes": "32",
        "value": "t_mapping(t_address,t_bool)"
      },
      "t_mapping(t_address,t_mapping(t_uint256,t_uint256))": {
        "encoding": "mapping",
        "key": "t_address",
        "label": "mapping(address => mapping(uint256 => uint256))",
        "numberOfBytes": "32",
        "value": "t_mapping(t_uint256,t_uint256)"
      },
      "t_mapping(t_address,t_uint256)": {
        "encoding": "mapping",
        "key": "t_address",
        "label": "mapping(address => uint256)",
        "numberOfBytes": "32",
        "value": "t_uint256"
      },
      "t_mapping(t_uint256,t_address)": {
        "encoding": "mapping",
        "key": "t_uint256",
        "label": "mapping(uint256 => address)",
        "numberOfBytes": "32",
        "value": "t_address"
      },
      "t_mapping(t_uint256,t_bool)": {
        "encoding": "mapping",
        "key": "t_uint256",
        "label": "mapping(uint256 => bool)",
        "numberOfBytes": "32",
        "value": "t_bool"
      },
      "t_mapping(t_uint256,t_uint256)": {
        "encoding": "mapping",
        "key": "t_uint256",
        "label": "mapping(uint256 => uint256)",
        "numberOfBytes": "32",
        "value": "t_uint256"
      },
      "t_string_storage": {
        "encoding": "bytes",
        "label": "string",
        "numberOfBytes": "32"
      },
      "t_struct(Counter)1901_storage": {
        "encoding": "inplace",
        "label": "struct Counters.Counter",
        "members": [
          {
            "astId": 1900,
            "contract": "contracts/MyNFT.sol:MyNFT",
            "label": "_value",
            "offset": 0,
            "slot": "0",
            "type": "t_uint256"
          }
        ],
        "numberOfBytes": "32"
      },
      "t_struct(Step)2996_storage": {
        "encoding": "inplace",
        "label": "struct Roadmap.Step",
        "members": [
          {
            "astId": 2991,
            "contract": "contracts/MyNFT.sol:MyNFT",
            "label": "data",
            "offset": 0,
            "slot": "0",
            "type": "t_bytes32"
          },
          {
            "astId": 2993,
            "contract": "contracts/MyNFT.sol:MyNFT",
            "label": "message",
            "offset": 0,
            "slot": "1",
            "type": "t_string_storage"
          },
          {
            "astId": 2995,
            "contract": "contracts/MyNFT.sol:MyNFT",
            "label": "completed",
            "offset": 0,
            "slot": "2",
            "type": "t_bool"
          }
        ],
        "numberOfBytes": "96"
      },
      "t_uint256": {
        "encoding": "inplace",
        "label": "uint256",
        "numberOfBytes": "32"
      }
    }
  }
}