{
  "address": "0x8AC802f5c87c5a43e8C8C8e59bC8319e8c360164",
  "abi": [
    {
      "inputs": [],
      "stateMutability": "nonpayable",
      "type": "constructor"
    },
    {
      "anonymous": false,
      "inputs": [
        {
          "indexed": true,
          "internalType": "address",
          "name": "owner",
          "type": "address"
        },
        {
          "indexed": true,
          "internalType": "address",
          "name": "approved",
          "type": "address"
        },
        {
          "indexed": true,
          "internalType": "uint256",
          "name": "tokenId",
          "type": "uint256"
        }
      ],
      "name": "Approval",
      "type": "event"
    },
    {
      "anonymous": false,
      "inputs": [
        {
          "indexed": true,
          "internalType": "address",
          "name": "owner",
          "type": "address"
        },
        {
          "indexed": true,
          "internalType": "address",
          "name": "operator",
          "type": "address"
        },
        {
          "indexed": false,
          "internalType": "bool",
          "name": "approved",
          "type": "bool"
        }
      ],
      "name": "ApprovalForAll",
      "type": "event"
    },
    {
      "anonymous": false,
      "inputs": [
        {
          "indexed": true,
          "internalType": "address",
          "name": "previousOwner",
          "type": "address"
        },
        {
          "indexed": true,
          "internalType": "address",
          "name": "newOwner",
          "type": "address"
        }
      ],
      "name": "OwnershipTransferred",
      "type": "event"
    },
    {
      "anonymous": false,
      "inputs": [
        {
          "indexed": false,
          "internalType": "bytes32",
          "name": "data",
          "type": "bytes32"
        },
        {
          "indexed": false,
          "internalType": "string",
          "name": "message",
          "type": "string"
        }
      ],
      "name": "StepCreated",
      "type": "event"
    },
    {
      "anonymous": false,
      "inputs": [
        {
          "indexed": false,
          "internalType": "uint256",
          "name": "stepId",
          "type": "uint256"
        }
      ],
      "name": "StepExecuted",
      "type": "event"
    },
    {
      "anonymous": false,
      "inputs": [
        {
          "indexed": true,
          "internalType": "address",
          "name": "from",
          "type": "address"
        },
        {
          "indexed": true,
          "internalType": "address",
          "name": "to",
          "type": "address"
        },
        {
          "indexed": true,
          "internalType": "uint256",
          "name": "tokenId",
          "type": "uint256"
        }
      ],
      "name": "Transfer",
      "type": "event"
    },
    {
      "inputs": [],
      "name": "MAX_SUPPLY",
      "outputs": [
        {
          "internalType": "uint256",
          "name": "",
          "type": "uint256"
        }
      ],
      "stateMutability": "view",
      "type": "function"
    },
    {
      "inputs": [],
      "name": "MINT_PRICE",
      "outputs": [
        {
          "internalType": "uint256",
          "name": "",
          "type": "uint256"
        }
      ],
      "stateMutability": "view",
      "type": "function"
    },
    {
      "inputs": [],
      "name": "RESERVED_TREASURY_AMOUNT",
      "outputs": [
        {
          "internalType": "uint256",
          "name": "",
          "type": "uint256"
        }
      ],
      "stateMutability": "view",
      "type": "function"
    },
    {
      "inputs": [],
      "name": "abort",
      "outputs": [],
      "stateMutability": "nonpayable",
      "type": "function"
    },
    {
      "inputs": [],
      "name": "ancillaryData",
      "outputs": [
        {
          "internalType": "bytes",
          "name": "",
          "type": "bytes"
        }
      ],
      "stateMutability": "view",
      "type": "function"
    },
    {
      "inputs": [],
      "name": "apeIsSent",
      "outputs": [
        {
          "internalType": "bool",
          "name": "",
          "type": "bool"
        }
      ],
      "stateMutability": "view",
      "type": "function"
    },
    {
      "inputs": [
        {
          "internalType": "address",
          "name": "to",
          "type": "address"
        },
        {
          "internalType": "uint256",
          "name": "tokenId",
          "type": "uint256"
        }
      ],
      "name": "approve",
      "outputs": [],
      "stateMutability": "nonpayable",
      "type": "function"
    },
    {
      "inputs": [
        {
          "internalType": "address",
          "name": "owner",
          "type": "address"
        }
      ],
      "name": "balanceOf",
      "outputs": [
        {
          "internalType": "uint256",
          "name": "",
          "type": "uint256"
        }
      ],
      "stateMutability": "view",
      "type": "function"
    },
    {
      "inputs": [],
      "name": "callbackError",
      "outputs": [
        {
          "internalType": "bool",
          "name": "",
          "type": "bool"
        }
      ],
      "stateMutability": "view",
      "type": "function"
    },
    {
      "inputs": [],
      "name": "charityIsSent",
      "outputs": [
        {
          "internalType": "bool",
          "name": "",
          "type": "bool"
        }
      ],
      "stateMutability": "view",
      "type": "function"
    },
    {
      "inputs": [
        {
          "internalType": "uint256[]",
          "name": "tokenIds",
          "type": "uint256[]"
        }
      ],
      "name": "claimRefund",
      "outputs": [],
      "stateMutability": "nonpayable",
      "type": "function"
    },
    {
      "inputs": [
        {
          "internalType": "uint256[]",
          "name": "tokenIds",
          "type": "uint256[]"
        }
      ],
      "name": "claimableAmount",
      "outputs": [
        {
          "internalType": "uint256",
          "name": "",
          "type": "uint256"
        }
      ],
      "stateMutability": "view",
      "type": "function"
    },
    {
      "inputs": [
        {
          "internalType": "uint256",
          "name": "stepId",
          "type": "uint256"
        }
      ],
      "name": "executeStep",
      "outputs": [],
      "stateMutability": "nonpayable",
      "type": "function"
    },
    {
      "inputs": [
        {
          "internalType": "uint256",
          "name": "tokenId",
          "type": "uint256"
        }
      ],
      "name": "getApproved",
      "outputs": [
        {
          "internalType": "address",
          "name": "",
          "type": "address"
        }
      ],
      "stateMutability": "view",
      "type": "function"
    },
    {
      "inputs": [],
      "name": "governanceApproved",
      "outputs": [
        {
          "internalType": "bool",
          "name": "",
          "type": "bool"
        }
      ],
      "stateMutability": "view",
      "type": "function"
    },
    {
      "inputs": [],
      "name": "governanceIsApproved",
      "outputs": [
        {
          "internalType": "bool",
          "name": "",
          "type": "bool"
        }
      ],
      "stateMutability": "view",
      "type": "function"
    },
    {
      "inputs": [
        {
          "internalType": "address",
          "name": "owner",
          "type": "address"
        },
        {
          "internalType": "address",
          "name": "operator",
          "type": "address"
        }
      ],
      "name": "isApprovedForAll",
      "outputs": [
        {
          "internalType": "bool",
          "name": "",
          "type": "bool"
        }
      ],
      "stateMutability": "view",
      "type": "function"
    },
    {
      "inputs": [
        {
          "internalType": "address",
          "name": "to",
          "type": "address"
        },
        {
          "internalType": "uint256",
          "name": "quantity",
          "type": "uint256"
        }
      ],
      "name": "mint",
      "outputs": [],
      "stateMutability": "payable",
      "type": "function"
    },
    {
      "inputs": [],
      "name": "mintProgress",
      "outputs": [
        {
          "internalType": "bool",
          "name": "",
          "type": "bool"
        }
      ],
      "stateMutability": "view",
      "type": "function"
    },
    {
      "inputs": [],
      "name": "name",
      "outputs": [
        {
          "internalType": "string",
          "name": "",
          "type": "string"
        }
      ],
      "stateMutability": "view",
      "type": "function"
    },
    {
      "inputs": [],
      "name": "owner",
      "outputs": [
        {
          "internalType": "address",
          "name": "",
          "type": "address"
        }
      ],
      "stateMutability": "view",
      "type": "function"
    },
    {
      "inputs": [
        {
          "internalType": "uint256",
          "name": "tokenId",
          "type": "uint256"
        }
      ],
      "name": "ownerOf",
      "outputs": [
        {
          "internalType": "address",
          "name": "",
          "type": "address"
        }
      ],
      "stateMutability": "view",
      "type": "function"
    },
    {
      "inputs": [
        {
          "internalType": "bytes32",
          "name": "identifier",
          "type": "bytes32"
        },
        {
          "internalType": "uint256",
          "name": "timestamp",
          "type": "uint256"
        },
        {
          "internalType": "bytes",
          "name": "_ancillaryData",
          "type": "bytes"
        },
        {
          "internalType": "int256",
          "name": "price",
          "type": "int256"
        }
      ],
      "name": "priceSettled",
      "outputs": [],
      "stateMutability": "nonpayable",
      "type": "function"
    },
    {
      "inputs": [],
      "name": "renounceOwnership",
      "outputs": [],
      "stateMutability": "nonpayable",
      "type": "function"
    },
    {
      "inputs": [],
      "name": "requestGovernanceCheck",
      "outputs": [],
      "stateMutability": "nonpayable",
      "type": "function"
    },
    {
      "inputs": [],
      "name": "reverted",
      "outputs": [
        {
          "internalType": "bool",
          "name": "",
          "type": "bool"
        }
      ],
      "stateMutability": "view",
      "type": "function"
    },
    {
      "inputs": [
        {
          "internalType": "address",
          "name": "from",
          "type": "address"
        },
        {
          "internalType": "address",
          "name": "to",
          "type": "address"
        },
        {
          "internalType": "uint256",
          "name": "tokenId",
          "type": "uint256"
        }
      ],
      "name": "safeTransferFrom",
      "outputs": [],
      "stateMutability": "nonpayable",
      "type": "function"
    },
    {
      "inputs": [
        {
          "internalType": "address",
          "name": "from",
          "type": "address"
        },
        {
          "internalType": "address",
          "name": "to",
          "type": "address"
        },
        {
          "internalType": "uint256",
          "name": "tokenId",
          "type": "uint256"
        },
        {
          "internalType": "bytes",
          "name": "_data",
          "type": "bytes"
        }
      ],
      "name": "safeTransferFrom",
      "outputs": [],
      "stateMutability": "nonpayable",
      "type": "function"
    },
    {
      "inputs": [
        {
          "internalType": "address",
          "name": "newOwner",
          "type": "address"
        }
      ],
      "name": "sendApe",
      "outputs": [],
      "stateMutability": "nonpayable",
      "type": "function"
    },
    {
      "inputs": [],
      "name": "sendToCharity",
      "outputs": [],
      "stateMutability": "nonpayable",
      "type": "function"
    },
    {
      "inputs": [
        {
          "internalType": "address",
          "name": "operator",
          "type": "address"
        },
        {
          "internalType": "bool",
          "name": "approved",
          "type": "bool"
        }
      ],
      "name": "setApprovalForAll",
      "outputs": [],
      "stateMutability": "nonpayable",
      "type": "function"
    },
    {
      "inputs": [],
      "name": "stepCount",
      "outputs": [
        {
          "internalType": "uint256",
          "name": "",
          "type": "uint256"
        }
      ],
      "stateMutability": "view",
      "type": "function"
    },
    {
      "inputs": [
        {
          "internalType": "uint256",
          "name": "",
          "type": "uint256"
        }
      ],
      "name": "steps",
      "outputs": [
        {
          "internalType": "bytes32",
          "name": "data",
          "type": "bytes32"
        },
        {
          "internalType": "string",
          "name": "message",
          "type": "string"
        },
        {
          "internalType": "bool",
          "name": "completed",
          "type": "bool"
        }
      ],
      "stateMutability": "view",
      "type": "function"
    },
    {
      "inputs": [],
      "name": "stepsCompleted",
      "outputs": [
        {
          "internalType": "uint256",
          "name": "completed",
          "type": "uint256"
        }
      ],
      "stateMutability": "view",
      "type": "function"
    },
    {
      "inputs": [
        {
          "internalType": "bytes4",
          "name": "interfaceId",
          "type": "bytes4"
        }
      ],
      "name": "supportsInterface",
      "outputs": [
        {
          "internalType": "bool",
          "name": "",
          "type": "bool"
        }
      ],
      "stateMutability": "view",
      "type": "function"
    },
    {
      "inputs": [],
      "name": "symbol",
      "outputs": [
        {
          "internalType": "string",
          "name": "",
          "type": "string"
        }
      ],
      "stateMutability": "view",
      "type": "function"
    },
    {
      "inputs": [
        {
          "internalType": "uint256",
          "name": "index",
          "type": "uint256"
        }
      ],
      "name": "tokenByIndex",
      "outputs": [
        {
          "internalType": "uint256",
          "name": "",
          "type": "uint256"
        }
      ],
      "stateMutability": "view",
      "type": "function"
    },
    {
      "inputs": [
        {
          "internalType": "address",
          "name": "owner",
          "type": "address"
        },
        {
          "internalType": "uint256",
          "name": "index",
          "type": "uint256"
        }
      ],
      "name": "tokenOfOwnerByIndex",
      "outputs": [
        {
          "internalType": "uint256",
          "name": "",
          "type": "uint256"
        }
      ],
      "stateMutability": "view",
      "type": "function"
    },
    {
      "inputs": [
        {
          "internalType": "uint256",
          "name": "tokenId",
          "type": "uint256"
        }
      ],
      "name": "tokenURI",
      "outputs": [
        {
          "internalType": "string",
          "name": "",
          "type": "string"
        }
      ],
      "stateMutability": "view",
      "type": "function"
    },
    {
      "inputs": [],
      "name": "totalSupply",
      "outputs": [
        {
          "internalType": "uint256",
          "name": "",
          "type": "uint256"
        }
      ],
      "stateMutability": "view",
      "type": "function"
    },
    {
      "inputs": [
        {
          "internalType": "address",
          "name": "from",
          "type": "address"
        },
        {
          "internalType": "address",
          "name": "to",
          "type": "address"
        },
        {
          "internalType": "uint256",
          "name": "tokenId",
          "type": "uint256"
        }
      ],
      "name": "transferFrom",
      "outputs": [],
      "stateMutability": "nonpayable",
      "type": "function"
    },
    {
      "inputs": [
        {
          "internalType": "address",
          "name": "newOwner",
          "type": "address"
        }
      ],
      "name": "transferOwnership",
      "outputs": [],
      "stateMutability": "nonpayable",
      "type": "function"
    },
    {
      "inputs": [],
      "name": "withdrawFunds",
      "outputs": [],
      "stateMutability": "nonpayable",
      "type": "function"
    }
  ],
  "transactionHash": "0xaa72ddc4de7c80b4b0ac3cab9d0018665516fdf5adbd6b735b21f72dbe0069e2",
  "args": [],
  "numDeployments": 15,
  "solcInputHash": "b3de5aea04dc5d2e6d8827cdd02851be",
  "bytecode": "0x60806040526000600a60146101000a81548160ff0219169083151502179055506000600f60006101000a81548160ff0219169083151502179055506000600f60016101000a81548160ff0219169083151502179055506040518060600160405280602981526020016200656d60299139601090805190602001906200008692919062000870565b506040518060a0016040528060658152602001620065086065913960119080519060200190620000b892919062000870565b506040518060400160405280601781526020017f206f662074686520766f74657320617265205945533f2c000000000000000000815250601290805190602001906200010692919062000870565b5060405180610160016040528061013e81526020016200659661013e9139601390805190602001906200013b92919062000901565b507f5945535f4f525f4e4f5f515545525900000000000000000000000000000000006014554260155573bf7a7169562078c96f0ec1a8afd6ae50f12e5a99601660006101000a81548173ffffffffffffffffffffffffffffffffffffffff021916908373ffffffffffffffffffffffffffffffffffffffff1602179055506000601760146101000a81548160ff0219169083151502179055506000601760156101000a81548160ff021916908315150217905550348015620001fc57600080fd5b50662386f26fc1000066038d7ea4c680006040518060400160405280600781526020017f4d79546f6b656e000000000000000000000000000000000000000000000000008152506040518060400160405280600381526020017f4d544b000000000000000000000000000000000000000000000000000000000081525081600090805190602001906200029192919062000870565b508060019080519060200190620002aa92919062000870565b505050620002cd620002c1620006a160201b60201c565b620006a960201b60201c565b81600b8190555080600c819055505050600073ed0169a88d267063184b0853baaaae66c3c154b2905060008190508073ffffffffffffffffffffffffffffffffffffffff1663aafd5e406040518163ffffffff1660e01b8152600401620003349062000b82565b60206040518083038186803b1580156200034d57600080fd5b505afa15801562000362573d6000803e3d6000fd5b505050506040513d601f19601f82011682018060405250810190620003889190620009df565b601760006101000a81548173ffffffffffffffffffffffffffffffffffffffff021916908373ffffffffffffffffffffffffffffffffffffffff160217905550601660009054906101000a900473ffffffffffffffffffffffffffffffffffffffff1673ffffffffffffffffffffffffffffffffffffffff1663095ea7b3601760009054906101000a900473ffffffffffffffffffffffffffffffffffffffff16680ad78ebc5ac62000006040518363ffffffff1660e01b81526004016200045292919062000b21565b602060405180830381600087803b1580156200046d57600080fd5b505af115801562000482573d6000803e3d6000fd5b505050506040513d601f19601f82011682018060405250810190620004a8919062000a0b565b505050620005276040518060400160405280601681526020017f676f7665726e616e63654973417070726f7665642829000000000000000000008152506040518060400160405280601381526020017f476f7665726e616e636520617070726f76616c000000000000000000000000008152506200076f60201b60201c565b620005a36040518060400160405280600e81526020017f6d696e7450726f677265737328290000000000000000000000000000000000008152506040518060400160405280600b81526020017f48616c66206d696e7465640000000000000000000000000000000000000000008152506200076f60201b60201c565b6200061f6040518060400160405280600b81526020017f617065497353656e7428290000000000000000000000000000000000000000008152506040518060400160405280601181526020017f424159432073656e7420746f20757365720000000000000000000000000000008152506200076f60201b60201c565b6200069b6040518060400160405280600f81526020017f63686172697479497353656e74282900000000000000000000000000000000008152506040518060400160405280600c81526020017f436861726974792073656e7400000000000000000000000000000000000000008152506200076f60201b60201c565b62000d0c565b600033905090565b6000600a60009054906101000a900473ffffffffffffffffffffffffffffffffffffffff16905081600a60006101000a81548173ffffffffffffffffffffffffffffffffffffffff021916908373ffffffffffffffffffffffffffffffffffffffff1602179055508173ffffffffffffffffffffffffffffffffffffffff168173ffffffffffffffffffffffffffffffffffffffff167f8be0079c531659141344cd1fd0a4f28419497f9722a3daafe3b4186f6b6457e060405160405180910390a35050565b60008260405160200162000784919062000b08565b604051602081830303815290604052805190602001209050600e60405180606001604052808381526020018481526020016000151581525090806001815401808255809150506001900390600052602060002090600302016000909190919091506000820151816000015560208201518160010190805190602001906200080d92919062000870565b5060408201518160020160006101000a81548160ff02191690831515021790555050507fca729272cde0dd3fe1a318c7526cdb798b16b524780aacd4fe24b04c87954fd481836040516200086392919062000b4e565b60405180910390a1505050565b8280546200087e9062000c62565b90600052602060002090601f016020900481019282620008a25760008555620008ee565b82601f10620008bd57805160ff1916838001178555620008ee565b82800160010185558215620008ee579182015b82811115620008ed578251825591602001919060010190620008d0565b5b509050620008fd919062000992565b5090565b8280546200090f9062000c62565b90600052602060002090601f0160209004810192826200093357600085556200097f565b82601f106200094e57805160ff19168380011785556200097f565b828001600101855582156200097f579182015b828111156200097e57825182559160200191906001019062000961565b5b5090506200098e919062000992565b5090565b5b80821115620009ad57600081600090555060010162000993565b5090565b600081519050620009c28162000cd8565b92915050565b600081519050620009d98162000cf2565b92915050565b600060208284031215620009f257600080fd5b600062000a0284828501620009b1565b91505092915050565b60006020828403121562000a1e57600080fd5b600062000a2e84828501620009c8565b91505092915050565b62000a428162000bc4565b82525050565b62000a538162000be4565b82525050565b62000a648162000c18565b82525050565b600062000a778262000b9d565b62000a83818562000ba8565b935062000a9581856020860162000c2c565b62000aa08162000cc7565b840191505092915050565b600062000ab88262000b9d565b62000ac4818562000bb9565b935062000ad681856020860162000c2c565b80840191505092915050565b7f4f7074696d69737469634f7261636c6500000000000000000000000000000000815250565b600062000b16828462000aab565b915081905092915050565b600060408201905062000b38600083018562000a37565b62000b47602083018462000a59565b9392505050565b600060408201905062000b65600083018562000a48565b818103602083015262000b79818462000a6a565b90509392505050565b600060208201905062000b986000830162000ae2565b919050565b600081519050919050565b600082825260208201905092915050565b600081905092915050565b600062000bd18262000bee565b9050919050565b60008115159050919050565b6000819050919050565b600073ffffffffffffffffffffffffffffffffffffffff82169050919050565b6000819050919050565b600062000c258262000c0e565b9050919050565b60005b8381101562000c4c57808201518184015260208101905062000c2f565b8381111562000c5c576000848401525b50505050565b6000600282049050600182168062000c7b57607f821691505b6020821081141562000c925762000c9162000c98565b5b50919050565b7f4e487b7100000000000000000000000000000000000000000000000000000000600052602260045260246000fd5b6000601f19601f8301169050919050565b62000ce38162000bc4565b811462000cef57600080fd5b50565b62000cfd8162000bd8565b811462000d0957600080fd5b50565b6157ec8062000d1c6000396000f3fe60806040526004361061025c5760003560e01c80636559905711610144578063b88d4fde116100b6578063d7e5d8ac1161007a578063d7e5d8ac146108e1578063e3389f09146108f8578063e985e9c51461090f578063f2f1f22f1461094c578063f2fde38b14610977578063f54a6f83146109a05761025c565b8063b88d4fde146107fa578063bc0af82a14610823578063bf5febca1461084e578063c002d23d14610879578063c87b56dd146108a45761025c565b806378ebce481161010857806378ebce48146106fe578063867fc17a146107275780638da5cb5b1461075057806395d89b411461077b578063a22cb465146107a6578063b64c7a73146107cf5761025c565b80636559905714610615578063661a4f531461064057806370a082311461066b578063715018a6146106a85780637217e0b9146106bf5761025c565b80632f745c59116101dd57806342842e0e116101a157806342842e0e146104df5780634bdfc736146105085780634f6ccce71461054557806356b16953146105825780636352211e146105ad578063637eb40b146105ea5761025c565b80632f745c591461041957806332cb6b0c1461045657806335a063b41461048157806340c10f1914610498578063415deffa146104b45761025c565b8063095ea7b311610224578063095ea7b31461035a57806316e3c7491461038357806318160ddd146103ae57806323b872dd146103d957806324600fc3146104025761025c565b806301ffc9a71461026157806304cc1fd51461029e57806306fdde03146102c7578063081812fc146102f25780630914c0151461032f575b600080fd5b34801561026d57600080fd5b5061028860048036038101906102839190613de4565b6109c9565b6040516102959190614623565b60405180910390f35b3480156102aa57600080fd5b506102c560048036038101906102c09190613d69565b6109db565b005b3480156102d357600080fd5b506102dc610ba4565b6040516102e99190614744565b60405180910390f35b3480156102fe57600080fd5b5061031960048036038101906103149190613e36565b610c36565b6040516103269190614585565b60405180910390f35b34801561033b57600080fd5b50610344610cbb565b6040516103519190614b46565b60405180910390f35b34801561036657600080fd5b50610381600480360381019061037c9190613cec565b610cc6565b005b34801561038f57600080fd5b50610398610dde565b6040516103a59190614623565b60405180910390f35b3480156103ba57600080fd5b506103c3610df5565b6040516103d09190614b46565b60405180910390f35b3480156103e557600080fd5b5061040060048036038101906103fb9190613be6565b610e02565b005b34801561040e57600080fd5b50610417610e62565b005b34801561042557600080fd5b50610440600480360381019061043b9190613cec565b610fe9565b60405161044d9190614b46565b60405180910390f35b34801561046257600080fd5b5061046b61108e565b6040516104789190614b46565b60405180910390f35b34801561048d57600080fd5b50610496611093565b005b6104b260048036038101906104ad9190613cec565b61112c565b005b3480156104c057600080fd5b506104c961120f565b6040516104d69190614b46565b60405180910390f35b3480156104eb57600080fd5b5061050660048036038101906105019190613be6565b61121c565b005b34801561051457600080fd5b5061052f600480360381019061052a9190613d28565b61123c565b60405161053c9190614b46565b60405180910390f35b34801561055157600080fd5b5061056c60048036038101906105679190613e36565b611470565b6040516105799190614b46565b60405180910390f35b34801561058e57600080fd5b50610597611507565b6040516105a49190614623565b60405180910390f35b3480156105b957600080fd5b506105d460048036038101906105cf9190613e36565b611525565b6040516105e19190614585565b60405180910390f35b3480156105f657600080fd5b506105ff6115d7565b60405161060c9190614623565b60405180910390f35b34801561062157600080fd5b5061062a6115ee565b6040516106379190614722565b60405180910390f35b34801561064c57600080fd5b5061065561167c565b6040516106629190614623565b60405180910390f35b34801561067757600080fd5b50610692600480360381019061068d9190613b58565b61168f565b60405161069f9190614b46565b60405180910390f35b3480156106b457600080fd5b506106bd611747565b005b3480156106cb57600080fd5b506106e660048036038101906106e19190613e36565b6117cf565b6040516106f59392919061463e565b60405180910390f35b34801561070a57600080fd5b5061072560048036038101906107209190613b58565b61189e565b005b34801561073357600080fd5b5061074e60048036038101906107499190613e36565b611938565b005b34801561075c57600080fd5b50610765611c4b565b6040516107729190614585565b60405180910390f35b34801561078757600080fd5b50610790611c75565b60405161079d9190614744565b60405180910390f35b3480156107b257600080fd5b506107cd60048036038101906107c89190613cb0565b611d07565b005b3480156107db57600080fd5b506107e4611d1d565b6040516107f19190614b46565b60405180910390f35b34801561080657600080fd5b50610821600480360381019061081c9190613c35565b611e72565b005b34801561082f57600080fd5b50610838611ed4565b6040516108459190614623565b60405180910390f35b34801561085a57600080fd5b50610863611ee7565b6040516108709190614623565b60405180910390f35b34801561088557600080fd5b5061088e611efe565b60405161089b9190614b46565b60405180910390f35b3480156108b057600080fd5b506108cb60048036038101906108c69190613e36565b611f09565b6040516108d89190614744565b60405180910390f35b3480156108ed57600080fd5b506108f6611fb0565b005b34801561090457600080fd5b5061090d612049565b005b34801561091b57600080fd5b5061093660048036038101906109319190613baa565b6121c1565b6040516109439190614623565b60405180910390f35b34801561095857600080fd5b50610961612255565b60405161096e9190614623565b60405180910390f35b34801561098357600080fd5b5061099e60048036038101906109999190613b58565b612268565b005b3480156109ac57600080fd5b506109c760048036038101906109c29190613d28565b612360565b005b60006109d48261265f565b9050919050565b601760009054906101000a900473ffffffffffffffffffffffffffffffffffffffff1673ffffffffffffffffffffffffffffffffffffffff163373ffffffffffffffffffffffffffffffffffffffff1614610a6b576040517f08c379a0000000000000000000000000000000000000000000000000000000008152600401610a62906149e6565b60405180910390fd5b6015548314610aaf576040517f08c379a0000000000000000000000000000000000000000000000000000000008152600401610aa690614766565b60405180910390fd5b6014548414610af3576040517f08c379a0000000000000000000000000000000000000000000000000000000008152600401610aea90614ae6565b60405180910390fd5b81805190602001206013604051610b0a919061454a565b604051809103902014610b52576040517f08c379a0000000000000000000000000000000000000000000000000000000008152600401610b4990614aa6565b60405180910390fd5b670de0b6b3a7640000811415610b82576001600f60006101000a81548160ff021916908315150217905550610b9e565b6001600f60016101000a81548160ff0219169083151502179055505b50505050565b606060008054610bb390614e6d565b80601f0160208091040260200160405190810160405280929190818152602001828054610bdf90614e6d565b8015610c2c5780601f10610c0157610100808354040283529160200191610c2c565b820191906000526020600020905b815481529060010190602001808311610c0f57829003601f168201915b5050505050905090565b6000610c41826126d9565b610c80576040517f08c379a0000000000000000000000000000000000000000000000000000000008152600401610c7790614a06565b60405180910390fd5b6004600083815260200190815260200160002060009054906101000a900473ffffffffffffffffffffffffffffffffffffffff169050919050565b662386f26fc1000081565b6000610cd182611525565b90508073ffffffffffffffffffffffffffffffffffffffff168373ffffffffffffffffffffffffffffffffffffffff161415610d42576040517f08c379a0000000000000000000000000000000000000000000000000000000008152600401610d3990614a86565b60405180910390fd5b8073ffffffffffffffffffffffffffffffffffffffff16610d61612745565b73ffffffffffffffffffffffffffffffffffffffff161480610d905750610d8f81610d8a612745565b6121c1565b5b610dcf576040517f08c379a0000000000000000000000000000000000000000000000000000000008152600401610dc690614966565b60405180910390fd5b610dd9838361274d565b505050565b6000600f60009054906101000a900460ff16905090565b6000600880549050905090565b610e13610e0d612745565b82612806565b610e52576040517f08c379a0000000000000000000000000000000000000000000000000000000008152600401610e4990614ac6565b60405180910390fd5b610e5d8383836128e4565b505050565b610e6a612745565b73ffffffffffffffffffffffffffffffffffffffff16610e88611c4b565b73ffffffffffffffffffffffffffffffffffffffff1614610ede576040517f08c379a0000000000000000000000000000000000000000000000000000000008152600401610ed590614a46565b60405180910390fd5b60005b600e80549050811015610f9957600e8181548110610f28577f4e487b7100000000000000000000000000000000000000000000000000000000600052603260045260246000fd5b906000526020600020906003020160020160009054906101000a900460ff16610f86576040517f08c379a0000000000000000000000000000000000000000000000000000000008152600401610f7d90614a26565b60405180910390fd5b8080610f9190614ed0565b915050610ee1565b5060004790503373ffffffffffffffffffffffffffffffffffffffff166108fc829081150290604051600060405180830381858888f19350505050158015610fe5573d6000803e3d6000fd5b5050565b6000610ff48361168f565b8210611035576040517f08c379a000000000000000000000000000000000000000000000000000000000815260040161102c906147c6565b60405180910390fd5b600660008473ffffffffffffffffffffffffffffffffffffffff1673ffffffffffffffffffffffffffffffffffffffff168152602001908152602001600020600083815260200190815260200160002054905092915050565b606481565b61109b612745565b73ffffffffffffffffffffffffffffffffffffffff166110b9611c4b565b73ffffffffffffffffffffffffffffffffffffffff161461110f576040517f08c379a000000000000000000000000000000000000000000000000000000000815260040161110690614a46565b60405180910390fd5b6001600a60146101000a81548160ff021916908315150217905550565b60008166038d7ea4c680006111419190614ccd565b9050348114611185576040517f08c379a000000000000000000000000000000000000000000000000000000000815260040161117c90614906565b60405180910390fd5b606482611190610df5565b61119a9190614c46565b106111da576040517f08c379a00000000000000000000000000000000000000000000000000000000081526004016111d1906147a6565b60405180910390fd5b60005b82811015611209576111f6846111f1610df5565b612b4b565b808061120190614ed0565b9150506111dd565b50505050565b6000600e80549050905090565b61123783838360405180602001604052806000815250611e72565b505050565b6000806000905060003090506000611252611d1d565b90506000600c548373ffffffffffffffffffffffffffffffffffffffff166318160ddd6040518163ffffffff1660e01b815260040160206040518083038186803b15801561129f57600080fd5b505afa1580156112b3573d6000803e3d6000fd5b505050506040513d601f19601f820116820180604052508101906112d79190613e5f565b6112e19190614ccd565b9050600b548110156112fa57600094505050505061146b565b6000600b548261130a9190614d27565b9050600047905081811015611328576000965050505050505061146b565b60008085111561135357600e805490506103e8866113469190614ccd565b6113509190614c9c565b90505b60008673ffffffffffffffffffffffffffffffffffffffff166318160ddd6040518163ffffffff1660e01b815260040160206040518083038186803b15801561139b57600080fd5b505afa1580156113af573d6000803e3d6000fd5b505050506040513d601f19601f820116820180604052508101906113d39190613e5f565b846113de9190614c9c565b905060005b8a5181101561145e57600d600082815260200190815260200160002060009054906101000a900460ff1661144b576000836103e86114219190614d27565b90506103e881846114329190614ccd565b61143c9190614c9c565b8a6114479190614c46565b9950505b808061145690614ed0565b9150506113e3565b5087985050505050505050505b919050565b600061147a610df5565b82106114bb576040517f08c379a00000000000000000000000000000000000000000000000000000000081526004016114b290614b06565b60405180910390fd5b600882815481106114f5577f4e487b7100000000000000000000000000000000000000000000000000000000600052603260045260246000fd5b90600052602060002001549050919050565b6000611511610df5565b6002606461151f9190614c9c565b10905090565b6000806002600084815260200190815260200160002060009054906101000a900473ffffffffffffffffffffffffffffffffffffffff169050600073ffffffffffffffffffffffffffffffffffffffff168173ffffffffffffffffffffffffffffffffffffffff1614156115ce576040517f08c379a00000000000000000000000000000000000000000000000000000000081526004016115c5906149a6565b60405180910390fd5b80915050919050565b6000601760149054906101000a900460ff16905090565b601380546115fb90614e6d565b80601f016020809104026020016040519081016040528092919081815260200182805461162790614e6d565b80156116745780601f1061164957610100808354040283529160200191611674565b820191906000526020600020905b81548152906001019060200180831161165757829003601f168201915b505050505081565b600f60019054906101000a900460ff1681565b60008073ffffffffffffffffffffffffffffffffffffffff168273ffffffffffffffffffffffffffffffffffffffff161415611700576040517f08c379a00000000000000000000000000000000000000000000000000000000081526004016116f790614986565b60405180910390fd5b600360008373ffffffffffffffffffffffffffffffffffffffff1673ffffffffffffffffffffffffffffffffffffffff168152602001908152602001600020549050919050565b61174f612745565b73ffffffffffffffffffffffffffffffffffffffff1661176d611c4b565b73ffffffffffffffffffffffffffffffffffffffff16146117c3576040517f08c379a00000000000000000000000000000000000000000000000000000000081526004016117ba90614a46565b60405180910390fd5b6117cd6000612b69565b565b600e81815481106117df57600080fd5b906000526020600020906003020160009150905080600001549080600101805461180890614e6d565b80601f016020809104026020016040519081016040528092919081815260200182805461183490614e6d565b80156118815780601f1061185657610100808354040283529160200191611881565b820191906000526020600020905b81548152906001019060200180831161186457829003601f168201915b5050505050908060020160009054906101000a900460ff16905083565b6118a6612745565b73ffffffffffffffffffffffffffffffffffffffff166118c4611c4b565b73ffffffffffffffffffffffffffffffffffffffff161461191a576040517f08c379a000000000000000000000000000000000000000000000000000000000815260040161191190614a46565b60405180910390fd5b6001601760146101000a81548160ff02191690831515021790555050565b6000600e8281548110611974577f4e487b7100000000000000000000000000000000000000000000000000000000600052603260045260246000fd5b9060005260206000209060030201604051806060016040529081600082015481526020016001820180546119a790614e6d565b80601f01602080910402602001604051908101604052809291908181526020018280546119d390614e6d565b8015611a205780601f106119f557610100808354040283529160200191611a20565b820191906000526020600020905b815481529060010190602001808311611a0357829003601f168201915b505050505081526020016002820160009054906101000a900460ff1615151515815250509050806040015115611a8b576040517f08c379a0000000000000000000000000000000000000000000000000000000008152600401611a8290614826565b60405180910390fd5b6000803073ffffffffffffffffffffffffffffffffffffffff168360000151604051602001611aba9190614518565b604051602081830303815290604052604051611ad69190614533565b6000604051808303816000865af19150503d8060008114611b13576040519150601f19603f3d011682016040523d82523d6000602084013e611b18565b606091505b509150915060008151602083015191505082611b69576040517f08c379a0000000000000000000000000000000000000000000000000000000008152600401611b6090614b26565b60405180910390fd5b80611ba9576040517f08c379a0000000000000000000000000000000000000000000000000000000008152600401611ba090614786565b60405180910390fd5b6001600e8681548110611be5577f4e487b7100000000000000000000000000000000000000000000000000000000600052603260045260246000fd5b906000526020600020906003020160020160006101000a81548160ff0219169083151502179055507f7d716790d01a64421d121f2b247366a43719c87528485b9900995183b635fe8a85604051611c3c9190614b46565b60405180910390a15050505050565b6000600a60009054906101000a900473ffffffffffffffffffffffffffffffffffffffff16905090565b606060018054611c8490614e6d565b80601f0160208091040260200160405190810160405280929190818152602001828054611cb090614e6d565b8015611cfd5780601f10611cd257610100808354040283529160200191611cfd565b820191906000526020600020905b815481529060010190602001808311611ce057829003601f168201915b5050505050905090565b611d19611d12612745565b8383612c2f565b5050565b600080600090505b600e80549050811015611e6e576000600e8281548110611d6e577f4e487b7100000000000000000000000000000000000000000000000000000000600052603260045260246000fd5b906000526020600020906003020160405180606001604052908160008201548152602001600182018054611da190614e6d565b80601f0160208091040260200160405190810160405280929190818152602001828054611dcd90614e6d565b8015611e1a5780601f10611def57610100808354040283529160200191611e1a565b820191906000526020600020905b815481529060010190602001808311611dfd57829003601f168201915b505050505081526020016002820160009054906101000a900460ff1615151515815250509050806040015115611e5a57600183611e579190614c46565b92505b508080611e6690614ed0565b915050611d25565b5090565b611e83611e7d612745565b83612806565b611ec2576040517f08c379a0000000000000000000000000000000000000000000000000000000008152600401611eb990614ac6565b60405180910390fd5b611ece84848484612d9c565b50505050565b600a60149054906101000a900460ff1681565b6000601760159054906101000a900460ff16905090565b66038d7ea4c6800081565b6060611f14826126d9565b611f53576040517f08c379a0000000000000000000000000000000000000000000000000000000008152600401611f4a90614a66565b60405180910390fd5b6000611f5d612df8565b90506000815111611f7d5760405180602001604052806000815250611fa8565b80611f8784612e0f565b604051602001611f98929190614561565b6040516020818303038152906040525b915050919050565b611fb8612745565b73ffffffffffffffffffffffffffffffffffffffff16611fd6611c4b565b73ffffffffffffffffffffffffffffffffffffffff161461202c576040517f08c379a000000000000000000000000000000000000000000000000000000000815260040161202390614a46565b60405180910390fd5b6001601760156101000a81548160ff021916908315150217905550565b600073bf7a7169562078c96f0ec1a8afd6ae50f12e5a999050601760009054906101000a900473ffffffffffffffffffffffffffffffffffffffff1673ffffffffffffffffffffffffffffffffffffffff166311df92f1601454601554601385670de0b6b3a76400006040518663ffffffff1660e01b81526004016120d295949392919061467c565b602060405180830381600087803b1580156120ec57600080fd5b505af1158015612100573d6000803e3d6000fd5b505050506040513d601f19601f820116820180604052508101906121249190613e5f565b50601760009054906101000a900473ffffffffffffffffffffffffffffffffffffffff1673ffffffffffffffffffffffffffffffffffffffff1663473c45fe601454601554601360786040518563ffffffff1660e01b815260040161218c94939291906146d6565b600060405180830381600087803b1580156121a657600080fd5b505af11580156121ba573d6000803e3d6000fd5b5050505050565b6000600560008473ffffffffffffffffffffffffffffffffffffffff1673ffffffffffffffffffffffffffffffffffffffff16815260200190815260200160002060008373ffffffffffffffffffffffffffffffffffffffff1673ffffffffffffffffffffffffffffffffffffffff16815260200190815260200160002060009054906101000a900460ff16905092915050565b600f60009054906101000a900460ff1681565b612270612745565b73ffffffffffffffffffffffffffffffffffffffff1661228e611c4b565b73ffffffffffffffffffffffffffffffffffffffff16146122e4576040517f08c379a00000000000000000000000000000000000000000000000000000000081526004016122db90614a46565b60405180910390fd5b600073ffffffffffffffffffffffffffffffffffffffff168173ffffffffffffffffffffffffffffffffffffffff161415612354576040517f08c379a000000000000000000000000000000000000000000000000000000000815260040161234b90614846565b60405180910390fd5b61235d81612b69565b50565b600a60149054906101000a900460ff166123af576040517f08c379a00000000000000000000000000000000000000000000000000000000081526004016123a690614806565b60405180910390fd5b600030905060005b8251811015612605573373ffffffffffffffffffffffffffffffffffffffff168273ffffffffffffffffffffffffffffffffffffffff16636352211e836040518263ffffffff1660e01b81526004016124109190614b46565b60206040518083038186803b15801561242857600080fd5b505afa15801561243c573d6000803e3d6000fd5b505050506040513d601f19601f820116820180604052508101906124609190613b81565b73ffffffffffffffffffffffffffffffffffffffff16146124b6576040517f08c379a00000000000000000000000000000000000000000000000000000000081526004016124ad906148a6565b60405180910390fd5b600d600082815260200190815260200160002060009054906101000a900460ff1615612517576040517f08c379a000000000000000000000000000000000000000000000000000000000815260040161250e90614946565b60405180910390fd5b6001600d600083815260200190815260200160002060006101000a81548160ff0219169083151502179055508173ffffffffffffffffffffffffffffffffffffffff166323b872dd333086858151811061259a577f4e487b7100000000000000000000000000000000000000000000000000000000600052603260045260246000fd5b60200260200101516040518463ffffffff1660e01b81526004016125c0939291906145a0565b600060405180830381600087803b1580156125da57600080fd5b505af11580156125ee573d6000803e3d6000fd5b5050505080806125fd90614ed0565b9150506123b7565b5060006126118361123c565b90503373ffffffffffffffffffffffffffffffffffffffff166108fc829081150290604051600060405180830381858888f19350505050158015612659573d6000803e3d6000fd5b50505050565b60007f780e9d63000000000000000000000000000000000000000000000000000000007bffffffffffffffffffffffffffffffffffffffffffffffffffffffff1916827bffffffffffffffffffffffffffffffffffffffffffffffffffffffff191614806126d257506126d182612fbc565b5b9050919050565b60008073ffffffffffffffffffffffffffffffffffffffff166002600084815260200190815260200160002060009054906101000a900473ffffffffffffffffffffffffffffffffffffffff1673ffffffffffffffffffffffffffffffffffffffff1614159050919050565b600033905090565b816004600083815260200190815260200160002060006101000a81548173ffffffffffffffffffffffffffffffffffffffff021916908373ffffffffffffffffffffffffffffffffffffffff160217905550808273ffffffffffffffffffffffffffffffffffffffff166127c083611525565b73ffffffffffffffffffffffffffffffffffffffff167f8c5be1e5ebec7d5bd14f71427d1e84f3dd0314c0f7b2291e5b200ac8c7c3b92560405160405180910390a45050565b6000612811826126d9565b612850576040517f08c379a000000000000000000000000000000000000000000000000000000000815260040161284790614926565b60405180910390fd5b600061285b83611525565b90508073ffffffffffffffffffffffffffffffffffffffff168473ffffffffffffffffffffffffffffffffffffffff16148061289d575061289c81856121c1565b5b806128db57508373ffffffffffffffffffffffffffffffffffffffff166128c384610c36565b73ffffffffffffffffffffffffffffffffffffffff16145b91505092915050565b8273ffffffffffffffffffffffffffffffffffffffff1661290482611525565b73ffffffffffffffffffffffffffffffffffffffff161461295a576040517f08c379a000000000000000000000000000000000000000000000000000000000815260040161295190614866565b60405180910390fd5b600073ffffffffffffffffffffffffffffffffffffffff168273ffffffffffffffffffffffffffffffffffffffff1614156129ca576040517f08c379a00000000000000000000000000000000000000000000000000000000081526004016129c1906148c6565b60405180910390fd5b6129d583838361309e565b6129e060008261274d565b6001600360008573ffffffffffffffffffffffffffffffffffffffff1673ffffffffffffffffffffffffffffffffffffffff1681526020019081526020016000206000828254612a309190614d27565b925050819055506001600360008473ffffffffffffffffffffffffffffffffffffffff1673ffffffffffffffffffffffffffffffffffffffff1681526020019081526020016000206000828254612a879190614c46565b92505081905550816002600083815260200190815260200160002060006101000a81548173ffffffffffffffffffffffffffffffffffffffff021916908373ffffffffffffffffffffffffffffffffffffffff160217905550808273ffffffffffffffffffffffffffffffffffffffff168473ffffffffffffffffffffffffffffffffffffffff167fddf252ad1be2c89b69c2b068fc378daa952ba7f163c4a11628f55a4df523b3ef60405160405180910390a4612b468383836130ae565b505050565b612b658282604051806020016040528060008152506130b3565b5050565b6000600a60009054906101000a900473ffffffffffffffffffffffffffffffffffffffff16905081600a60006101000a81548173ffffffffffffffffffffffffffffffffffffffff021916908373ffffffffffffffffffffffffffffffffffffffff1602179055508173ffffffffffffffffffffffffffffffffffffffff168173ffffffffffffffffffffffffffffffffffffffff167f8be0079c531659141344cd1fd0a4f28419497f9722a3daafe3b4186f6b6457e060405160405180910390a35050565b8173ffffffffffffffffffffffffffffffffffffffff168373ffffffffffffffffffffffffffffffffffffffff161415612c9e576040517f08c379a0000000000000000000000000000000000000000000000000000000008152600401612c95906148e6565b60405180910390fd5b80600560008573ffffffffffffffffffffffffffffffffffffffff1673ffffffffffffffffffffffffffffffffffffffff16815260200190815260200160002060008473ffffffffffffffffffffffffffffffffffffffff1673ffffffffffffffffffffffffffffffffffffffff16815260200190815260200160002060006101000a81548160ff0219169083151502179055508173ffffffffffffffffffffffffffffffffffffffff168373ffffffffffffffffffffffffffffffffffffffff167f17307eab39ab6107e8899845ad3d59bd9653f200f220920489ca2b5937696c3183604051612d8f9190614623565b60405180910390a3505050565b612da78484846128e4565b612db38484848461310e565b612df2576040517f08c379a0000000000000000000000000000000000000000000000000000000008152600401612de9906147e6565b60405180910390fd5b50505050565b606060405180602001604052806000815250905090565b60606000821415612e57576040518060400160405280600181526020017f30000000000000000000000000000000000000000000000000000000000000008152509050612fb7565b600082905060005b60008214612e89578080612e7290614ed0565b915050600a82612e829190614c9c565b9150612e5f565b60008167ffffffffffffffff811115612ecb577f4e487b7100000000000000000000000000000000000000000000000000000000600052604160045260246000fd5b6040519080825280601f01601f191660200182016040528015612efd5781602001600182028036833780820191505090505b5090505b60008514612fb057600182612f169190614d27565b9150600a85612f259190614f23565b6030612f319190614c46565b60f81b818381518110612f6d577f4e487b7100000000000000000000000000000000000000000000000000000000600052603260045260246000fd5b60200101907effffffffffffffffffffffffffffffffffffffffffffffffffffffffffffff1916908160001a905350600a85612fa99190614c9c565b9450612f01565b8093505050505b919050565b60007f80ac58cd000000000000000000000000000000000000000000000000000000007bffffffffffffffffffffffffffffffffffffffffffffffffffffffff1916827bffffffffffffffffffffffffffffffffffffffffffffffffffffffff1916148061308757507f5b5e139f000000000000000000000000000000000000000000000000000000007bffffffffffffffffffffffffffffffffffffffffffffffffffffffff1916827bffffffffffffffffffffffffffffffffffffffffffffffffffffffff1916145b806130975750613096826132a5565b5b9050919050565b6130a983838361330f565b505050565b505050565b6130bd8383613423565b6130ca600084848461310e565b613109576040517f08c379a0000000000000000000000000000000000000000000000000000000008152600401613100906147e6565b60405180910390fd5b505050565b600061312f8473ffffffffffffffffffffffffffffffffffffffff166135fd565b15613298578373ffffffffffffffffffffffffffffffffffffffff1663150b7a02613158612745565b8786866040518563ffffffff1660e01b815260040161317a94939291906145d7565b602060405180830381600087803b15801561319457600080fd5b505af19250505080156131c557506040513d601f19601f820116820180604052508101906131c29190613e0d565b60015b613248573d80600081146131f5576040519150601f19603f3d011682016040523d82523d6000602084013e6131fa565b606091505b50600081511415613240576040517f08c379a0000000000000000000000000000000000000000000000000000000008152600401613237906147e6565b60405180910390fd5b805181602001fd5b63150b7a0260e01b7bffffffffffffffffffffffffffffffffffffffffffffffffffffffff1916817bffffffffffffffffffffffffffffffffffffffffffffffffffffffff19161491505061329d565b600190505b949350505050565b60007f01ffc9a7000000000000000000000000000000000000000000000000000000007bffffffffffffffffffffffffffffffffffffffffffffffffffffffff1916827bffffffffffffffffffffffffffffffffffffffffffffffffffffffff1916149050919050565b61331a838383613620565b600073ffffffffffffffffffffffffffffffffffffffff168373ffffffffffffffffffffffffffffffffffffffff16141561335d5761335881613625565b61339c565b8173ffffffffffffffffffffffffffffffffffffffff168373ffffffffffffffffffffffffffffffffffffffff161461339b5761339a838261366e565b5b5b600073ffffffffffffffffffffffffffffffffffffffff168273ffffffffffffffffffffffffffffffffffffffff1614156133df576133da816137db565b61341e565b8273ffffffffffffffffffffffffffffffffffffffff168273ffffffffffffffffffffffffffffffffffffffff161461341d5761341c828261391e565b5b5b505050565b600073ffffffffffffffffffffffffffffffffffffffff168273ffffffffffffffffffffffffffffffffffffffff161415613493576040517f08c379a000000000000000000000000000000000000000000000000000000000815260040161348a906149c6565b60405180910390fd5b61349c816126d9565b156134dc576040517f08c379a00000000000000000000000000000000000000000000000000000000081526004016134d390614886565b60405180910390fd5b6134e86000838361309e565b6001600360008473ffffffffffffffffffffffffffffffffffffffff1673ffffffffffffffffffffffffffffffffffffffff16815260200190815260200160002060008282546135389190614c46565b92505081905550816002600083815260200190815260200160002060006101000a81548173ffffffffffffffffffffffffffffffffffffffff021916908373ffffffffffffffffffffffffffffffffffffffff160217905550808273ffffffffffffffffffffffffffffffffffffffff16600073ffffffffffffffffffffffffffffffffffffffff167fddf252ad1be2c89b69c2b068fc378daa952ba7f163c4a11628f55a4df523b3ef60405160405180910390a46135f9600083836130ae565b5050565b6000808273ffffffffffffffffffffffffffffffffffffffff163b119050919050565b505050565b6008805490506009600083815260200190815260200160002081905550600881908060018154018082558091505060019003906000526020600020016000909190919091505550565b6000600161367b8461168f565b6136859190614d27565b905060006007600084815260200190815260200160002054905081811461376a576000600660008673ffffffffffffffffffffffffffffffffffffffff1673ffffffffffffffffffffffffffffffffffffffff168152602001908152602001600020600084815260200190815260200160002054905080600660008773ffffffffffffffffffffffffffffffffffffffff1673ffffffffffffffffffffffffffffffffffffffff168152602001908152602001600020600084815260200190815260200160002081905550816007600083815260200190815260200160002081905550505b6007600084815260200190815260200160002060009055600660008573ffffffffffffffffffffffffffffffffffffffff1673ffffffffffffffffffffffffffffffffffffffff16815260200190815260200160002060008381526020019081526020016000206000905550505050565b600060016008805490506137ef9190614d27565b9050600060096000848152602001908152602001600020549050600060088381548110613845577f4e487b7100000000000000000000000000000000000000000000000000000000600052603260045260246000fd5b90600052602060002001549050806008838154811061388d577f4e487b7100000000000000000000000000000000000000000000000000000000600052603260045260246000fd5b906000526020600020018190555081600960008381526020019081526020016000208190555060096000858152602001908152602001600020600090556008805480613902577f4e487b7100000000000000000000000000000000000000000000000000000000600052603160045260246000fd5b6001900381819060005260206000200160009055905550505050565b60006139298361168f565b905081600660008573ffffffffffffffffffffffffffffffffffffffff1673ffffffffffffffffffffffffffffffffffffffff168152602001908152602001600020600083815260200190815260200160002081905550806007600084815260200190815260200160002081905550505050565b60006139b06139ab84614b86565b614b61565b905080838252602082019050828560208602820111156139cf57600080fd5b60005b858110156139ff57816139e58882613b2e565b8452602084019350602083019250506001810190506139d2565b5050509392505050565b6000613a1c613a1784614bb2565b614b61565b905082815260208101848484011115613a3457600080fd5b613a3f848285614e2b565b509392505050565b600081359050613a568161572c565b92915050565b600081519050613a6b8161572c565b92915050565b600082601f830112613a8257600080fd5b8135613a9284826020860161399d565b91505092915050565b600081359050613aaa81615743565b92915050565b600081359050613abf8161575a565b92915050565b600081359050613ad481615771565b92915050565b600081519050613ae981615771565b92915050565b600082601f830112613b0057600080fd5b8135613b10848260208601613a09565b91505092915050565b600081359050613b2881615788565b92915050565b600081359050613b3d8161579f565b92915050565b600081519050613b528161579f565b92915050565b600060208284031215613b6a57600080fd5b6000613b7884828501613a47565b91505092915050565b600060208284031215613b9357600080fd5b6000613ba184828501613a5c565b91505092915050565b60008060408385031215613bbd57600080fd5b6000613bcb85828601613a47565b9250506020613bdc85828601613a47565b9150509250929050565b600080600060608486031215613bfb57600080fd5b6000613c0986828701613a47565b9350506020613c1a86828701613a47565b9250506040613c2b86828701613b2e565b9150509250925092565b60008060008060808587031215613c4b57600080fd5b6000613c5987828801613a47565b9450506020613c6a87828801613a47565b9350506040613c7b87828801613b2e565b925050606085013567ffffffffffffffff811115613c9857600080fd5b613ca487828801613aef565b91505092959194509250565b60008060408385031215613cc357600080fd5b6000613cd185828601613a47565b9250506020613ce285828601613a9b565b9150509250929050565b60008060408385031215613cff57600080fd5b6000613d0d85828601613a47565b9250506020613d1e85828601613b2e565b9150509250929050565b600060208284031215613d3a57600080fd5b600082013567ffffffffffffffff811115613d5457600080fd5b613d6084828501613a71565b91505092915050565b60008060008060808587031215613d7f57600080fd5b6000613d8d87828801613ab0565b9450506020613d9e87828801613b2e565b935050604085013567ffffffffffffffff811115613dbb57600080fd5b613dc787828801613aef565b9250506060613dd887828801613b19565b91505092959194509250565b600060208284031215613df657600080fd5b6000613e0484828501613ac5565b91505092915050565b600060208284031215613e1f57600080fd5b6000613e2d84828501613ada565b91505092915050565b600060208284031215613e4857600080fd5b6000613e5684828501613b2e565b91505092915050565b600060208284031215613e7157600080fd5b6000613e7f84828501613b43565b91505092915050565b613e9181614d5b565b82525050565b613ea081614d6d565b82525050565b613eaf81614d79565b82525050565b613ec6613ec182614d79565b614f19565b82525050565b6000613ed782614bf8565b613ee18185614c0e565b9350613ef1818560208601614e3a565b613efa81615010565b840191505092915050565b6000613f1082614bf8565b613f1a8185614c1f565b9350613f2a818560208601614e3a565b80840191505092915050565b60008154613f4381614e6d565b613f4d8186614c0e565b94506001821660008114613f685760018114613f7a57613fad565b60ff1983168652602086019350613fad565b613f8385614be3565b60005b83811015613fa557815481890152600182019150602081019050613f86565b808801955050505b50505092915050565b60008154613fc381614e6d565b613fcd8186614c1f565b94506001821660008114613fe85760018114613ff95761402c565b60ff1983168652818601935061402c565b61400285614be3565b60005b8381101561402457815481890152600182019150602081019050614005565b838801955050505b50505092915050565b61403e81614de3565b82525050565b61404d81614e07565b82525050565b61405c81614e19565b82525050565b600061406d82614c03565b6140778185614c2a565b9350614087818560208601614e3a565b61409081615010565b840191505092915050565b60006140a682614c03565b6140b08185614c3b565b93506140c0818560208601614e3a565b80840191505092915050565b60006140d9601483614c2a565b91506140e482615021565b602082019050919050565b60006140fc601583614c2a565b91506141078261504a565b602082019050919050565b600061411f601183614c2a565b915061412a82615073565b602082019050919050565b6000614142602b83614c2a565b915061414d8261509c565b604082019050919050565b6000614165603283614c2a565b9150614170826150eb565b604082019050919050565b6000614188601383614c2a565b91506141938261513a565b602082019050919050565b60006141ab601183614c2a565b91506141b682615163565b602082019050919050565b60006141ce602683614c2a565b91506141d98261518c565b604082019050919050565b60006141f1602583614c2a565b91506141fc826151db565b604082019050919050565b6000614214601c83614c2a565b915061421f8261522a565b602082019050919050565b6000614237600b83614c2a565b915061424282615253565b602082019050919050565b600061425a602483614c2a565b91506142658261527c565b604082019050919050565b600061427d601983614c2a565b9150614288826152cb565b602082019050919050565b60006142a0601783614c2a565b91506142ab826152f4565b602082019050919050565b60006142c3602c83614c2a565b91506142ce8261531d565b604082019050919050565b60006142e6601983614c2a565b91506142f18261536c565b602082019050919050565b6000614309603883614c2a565b915061431482615395565b604082019050919050565b600061432c602a83614c2a565b9150614337826153e4565b604082019050919050565b600061434f602983614c2a565b915061435a82615433565b604082019050919050565b6000614372602083614c2a565b915061437d82615482565b602082019050919050565b6000614395600e83614c2a565b91506143a0826154ab565b602082019050919050565b60006143b8602c83614c2a565b91506143c3826154d4565b604082019050919050565b60006143db600d83614c2a565b91506143e682615523565b602082019050919050565b60006143fe602083614c2a565b91506144098261554c565b602082019050919050565b6000614421602f83614c2a565b915061442c82615575565b604082019050919050565b6000614444602183614c2a565b915061444f826155c4565b604082019050919050565b6000614467601383614c2a565b915061447282615613565b602082019050919050565b600061448a603183614c2a565b91506144958261563c565b604082019050919050565b60006144ad600f83614c2a565b91506144b88261568b565b602082019050919050565b60006144d0602c83614c2a565b91506144db826156b4565b604082019050919050565b60006144f3601383614c2a565b91506144fe82615703565b602082019050919050565b61451281614dd9565b82525050565b60006145248284613eb5565b60208201915081905092915050565b600061453f8284613f05565b915081905092915050565b60006145568284613fb6565b915081905092915050565b600061456d828561409b565b9150614579828461409b565b91508190509392505050565b600060208201905061459a6000830184613e88565b92915050565b60006060820190506145b56000830186613e88565b6145c26020830185613e88565b6145cf6040830184614509565b949350505050565b60006080820190506145ec6000830187613e88565b6145f96020830186613e88565b6146066040830185614509565b81810360608301526146188184613ecc565b905095945050505050565b60006020820190506146386000830184613e97565b92915050565b60006060820190506146536000830186613ea6565b81810360208301526146658185614062565b90506146746040830184613e97565b949350505050565b600060a0820190506146916000830188613ea6565b61469e6020830187614509565b81810360408301526146b08186613f36565b90506146bf6060830185614035565b6146cc6080830184614044565b9695505050505050565b60006080820190506146eb6000830187613ea6565b6146f86020830186614509565b818103604083015261470a8185613f36565b90506147196060830184614053565b95945050505050565b6000602082019050818103600083015261473c8184613ecc565b905092915050565b6000602082019050818103600083015261475e8184614062565b905092915050565b6000602082019050818103600083015261477f816140cc565b9050919050565b6000602082019050818103600083015261479f816140ef565b9050919050565b600060208201905081810360008301526147bf81614112565b9050919050565b600060208201905081810360008301526147df81614135565b9050919050565b600060208201905081810360008301526147ff81614158565b9050919050565b6000602082019050818103600083015261481f8161417b565b9050919050565b6000602082019050818103600083015261483f8161419e565b9050919050565b6000602082019050818103600083015261485f816141c1565b9050919050565b6000602082019050818103600083015261487f816141e4565b9050919050565b6000602082019050818103600083015261489f81614207565b9050919050565b600060208201905081810360008301526148bf8161422a565b9050919050565b600060208201905081810360008301526148df8161424d565b9050919050565b600060208201905081810360008301526148ff81614270565b9050919050565b6000602082019050818103600083015261491f81614293565b9050919050565b6000602082019050818103600083015261493f816142b6565b9050919050565b6000602082019050818103600083015261495f816142d9565b9050919050565b6000602082019050818103600083015261497f816142fc565b9050919050565b6000602082019050818103600083015261499f8161431f565b9050919050565b600060208201905081810360008301526149bf81614342565b9050919050565b600060208201905081810360008301526149df81614365565b9050919050565b600060208201905081810360008301526149ff81614388565b9050919050565b60006020820190508181036000830152614a1f816143ab565b9050919050565b60006020820190508181036000830152614a3f816143ce565b9050919050565b60006020820190508181036000830152614a5f816143f1565b9050919050565b60006020820190508181036000830152614a7f81614414565b9050919050565b60006020820190508181036000830152614a9f81614437565b9050919050565b60006020820190508181036000830152614abf8161445a565b9050919050565b60006020820190508181036000830152614adf8161447d565b9050919050565b60006020820190508181036000830152614aff816144a0565b9050919050565b60006020820190508181036000830152614b1f816144c3565b9050919050565b60006020820190508181036000830152614b3f816144e6565b9050919050565b6000602082019050614b5b6000830184614509565b92915050565b6000614b6b614b7c565b9050614b778282614e9f565b919050565b6000604051905090565b600067ffffffffffffffff821115614ba157614ba0614fe1565b5b602082029050602081019050919050565b600067ffffffffffffffff821115614bcd57614bcc614fe1565b5b614bd682615010565b9050602081019050919050565b60008190508160005260206000209050919050565b600081519050919050565b600081519050919050565b600082825260208201905092915050565b600081905092915050565b600082825260208201905092915050565b600081905092915050565b6000614c5182614dd9565b9150614c5c83614dd9565b9250827fffffffffffffffffffffffffffffffffffffffffffffffffffffffffffffffff03821115614c9157614c90614f54565b5b828201905092915050565b6000614ca782614dd9565b9150614cb283614dd9565b925082614cc257614cc1614f83565b5b828204905092915050565b6000614cd882614dd9565b9150614ce383614dd9565b9250817fffffffffffffffffffffffffffffffffffffffffffffffffffffffffffffffff0483118215151615614d1c57614d1b614f54565b5b828202905092915050565b6000614d3282614dd9565b9150614d3d83614dd9565b925082821015614d5057614d4f614f54565b5b828203905092915050565b6000614d6682614db9565b9050919050565b60008115159050919050565b6000819050919050565b60007fffffffff0000000000000000000000000000000000000000000000000000000082169050919050565b6000819050919050565b600073ffffffffffffffffffffffffffffffffffffffff82169050919050565b6000819050919050565b6000614dee82614df5565b9050919050565b6000614e0082614db9565b9050919050565b6000614e1282614dd9565b9050919050565b6000614e2482614dd9565b9050919050565b82818337600083830152505050565b60005b83811015614e58578082015181840152602081019050614e3d565b83811115614e67576000848401525b50505050565b60006002820490506001821680614e8557607f821691505b60208210811415614e9957614e98614fb2565b5b50919050565b614ea882615010565b810181811067ffffffffffffffff82111715614ec757614ec6614fe1565b5b80604052505050565b6000614edb82614dd9565b91507fffffffffffffffffffffffffffffffffffffffffffffffffffffffffffffffff821415614f0e57614f0d614f54565b5b600182019050919050565b6000819050919050565b6000614f2e82614dd9565b9150614f3983614dd9565b925082614f4957614f48614f83565b5b828206905092915050565b7f4e487b7100000000000000000000000000000000000000000000000000000000600052601160045260246000fd5b7f4e487b7100000000000000000000000000000000000000000000000000000000600052601260045260246000fd5b7f4e487b7100000000000000000000000000000000000000000000000000000000600052602260045260246000fd5b7f4e487b7100000000000000000000000000000000000000000000000000000000600052604160045260246000fd5b6000601f19601f8301169050919050565b7f646966666572656e742074696d657374616d7073000000000000000000000000600082015250565b7f726573756c74206e6f74207375636365737366756c0000000000000000000000600082015250565b7f4e6f7420656e6f75676820737570706c79000000000000000000000000000000600082015250565b7f455243373231456e756d657261626c653a206f776e657220696e646578206f7560008201527f74206f6620626f756e6473000000000000000000000000000000000000000000602082015250565b7f4552433732313a207472616e7366657220746f206e6f6e20455243373231526560008201527f63656976657220696d706c656d656e7465720000000000000000000000000000602082015250565b7f5265766572746564206e6f742061637469766500000000000000000000000000600082015250565b7f616c726561647920636f6d706c65746564000000000000000000000000000000600082015250565b7f4f776e61626c653a206e6577206f776e657220697320746865207a65726f206160008201527f6464726573730000000000000000000000000000000000000000000000000000602082015250565b7f4552433732313a207472616e736665722066726f6d20696e636f72726563742060008201527f6f776e6572000000000000000000000000000000000000000000000000000000602082015250565b7f4552433732313a20746f6b656e20616c7265616479206d696e74656400000000600082015250565b7f57726f6e67206f776e6572000000000000000000000000000000000000000000600082015250565b7f4552433732313a207472616e7366657220746f20746865207a65726f2061646460008201527f7265737300000000000000000000000000000000000000000000000000000000602082015250565b7f4552433732313a20617070726f766520746f2063616c6c657200000000000000600082015250565b7f56616c75652069732077726f6e6720666f72206d696e74000000000000000000600082015250565b7f4552433732313a206f70657261746f7220717565727920666f72206e6f6e657860008201527f697374656e7420746f6b656e0000000000000000000000000000000000000000602082015250565b7f416c726561647920636c61696d656420666f7220746f6b656e00000000000000600082015250565b7f4552433732313a20617070726f76652063616c6c6572206973206e6f74206f7760008201527f6e6572206e6f7220617070726f76656420666f7220616c6c0000000000000000602082015250565b7f4552433732313a2062616c616e636520717565727920666f7220746865207a6560008201527f726f206164647265737300000000000000000000000000000000000000000000602082015250565b7f4552433732313a206f776e657220717565727920666f72206e6f6e657869737460008201527f656e7420746f6b656e0000000000000000000000000000000000000000000000602082015250565b7f4552433732313a206d696e7420746f20746865207a65726f2061646472657373600082015250565b7f6e6f7420617574686f72697a6564000000000000000000000000000000000000600082015250565b7f4552433732313a20617070726f76656420717565727920666f72206e6f6e657860008201527f697374656e7420746f6b656e0000000000000000000000000000000000000000602082015250565b7f4e6f7420636f6d706c6574656400000000000000000000000000000000000000600082015250565b7f4f776e61626c653a2063616c6c6572206973206e6f7420746865206f776e6572600082015250565b7f4552433732314d657461646174613a2055524920717565727920666f72206e6f60008201527f6e6578697374656e7420746f6b656e0000000000000000000000000000000000602082015250565b7f4552433732313a20617070726f76616c20746f2063757272656e74206f776e6560008201527f7200000000000000000000000000000000000000000000000000000000000000602082015250565b7f73616d6520616e63696c6c617279206461746100000000000000000000000000600082015250565b7f4552433732313a207472616e736665722063616c6c6572206973206e6f74206f60008201527f776e6572206e6f7220617070726f766564000000000000000000000000000000602082015250565b7f73616d65206964656e7469666965720000000000000000000000000000000000600082015250565b7f455243373231456e756d657261626c653a20676c6f62616c20696e646578206f60008201527f7574206f6620626f756e64730000000000000000000000000000000000000000602082015250565b7f63616c6c206e6f74207375636365737366756c00000000000000000000000000600082015250565b61573581614d5b565b811461574057600080fd5b50565b61574c81614d6d565b811461575757600080fd5b50565b61576381614d79565b811461576e57600080fd5b50565b61577a81614d83565b811461578557600080fd5b50565b61579181614daf565b811461579c57600080fd5b50565b6157a881614dd9565b81146157b357600080fd5b5056fea264697066735822122075613a3ded9060c73ff4e104d23c310b11617de78a73ed621fbd7435048fa5d164736f6c63430008040033713a7469746c653a20486176652074686520736e617073686f7420766f746520636f6e7461696e696e67205b524f41444d41505f4143435045435445445d20636f6d706c657465642077697468206d6f7265207468616e2035302070657263656e7461676568747470733a2f2f64656d6f2e736e617073686f742e6f72672f232f6465766465766465762e657468307837313361343836313736363532303734363836353230373336653631373037333638366637343230373636663734363532303633366636653734363136393665363936653637323035623532346634313434346434313530356634313433343335303435343335343435343435643230363336663664373036633635373436353634323037373639373436383230366436663732363532303734363836353665323033353330323037303635373236333635366537343631363736353230366636363230373436383635323037363666373436353733323036313732363532303539343535333366326336383734373437303733336132663266363436353664366632653733366536313730373336383666373432653666373236373266323332663634363537363634363537363634363537363265363537343638",
  "devdoc": {
    "kind": "dev",
    "methods": {
      "approve(address,uint256)": {
        "details": "See {IERC721-approve}."
      },
      "balanceOf(address)": {
        "details": "See {IERC721-balanceOf}."
      },
      "getApproved(uint256)": {
        "details": "See {IERC721-getApproved}."
      },
      "isApprovedForAll(address,address)": {
        "details": "See {IERC721-isApprovedForAll}."
      },
      "name()": {
        "details": "See {IERC721Metadata-name}."
      },
      "owner()": {
        "details": "Returns the address of the current owner."
      },
      "ownerOf(uint256)": {
        "details": "See {IERC721-ownerOf}."
      },
      "renounceOwnership()": {
        "details": "Leaves the contract without owner. It will not be possible to call `onlyOwner` functions anymore. Can only be called by the current owner. NOTE: Renouncing ownership will leave the contract without an owner, thereby removing any functionality that is only available to the owner."
      },
      "safeTransferFrom(address,address,uint256)": {
        "details": "See {IERC721-safeTransferFrom}."
      },
      "safeTransferFrom(address,address,uint256,bytes)": {
        "details": "See {IERC721-safeTransferFrom}."
      },
      "setApprovalForAll(address,bool)": {
        "details": "See {IERC721-setApprovalForAll}."
      },
      "symbol()": {
        "details": "See {IERC721Metadata-symbol}."
      },
      "tokenByIndex(uint256)": {
        "details": "See {IERC721Enumerable-tokenByIndex}."
      },
      "tokenOfOwnerByIndex(address,uint256)": {
        "details": "See {IERC721Enumerable-tokenOfOwnerByIndex}."
      },
      "tokenURI(uint256)": {
        "details": "See {IERC721Metadata-tokenURI}."
      },
      "totalSupply()": {
        "details": "See {IERC721Enumerable-totalSupply}."
      },
      "transferFrom(address,address,uint256)": {
        "details": "See {IERC721-transferFrom}."
      },
      "transferOwnership(address)": {
        "details": "Transfers ownership of the contract to a new account (`newOwner`). Can only be called by the current owner."
      }
    },
    "version": 1
  },
  "userdoc": {
    "kind": "user",
    "methods": {},
    "version": 1
  },
  "storageLayout": {
    "storage": [
      {
        "astId": 208,
        "contract": "contracts/MyNFT.sol:MyNFT",
        "label": "_name",
        "offset": 0,
        "slot": "0",
        "type": "t_string_storage"
      },
      {
        "astId": 210,
        "contract": "contracts/MyNFT.sol:MyNFT",
        "label": "_symbol",
        "offset": 0,
        "slot": "1",
        "type": "t_string_storage"
      },
      {
        "astId": 214,
        "contract": "contracts/MyNFT.sol:MyNFT",
        "label": "_owners",
        "offset": 0,
        "slot": "2",
        "type": "t_mapping(t_uint256,t_address)"
      },
      {
        "astId": 218,
        "contract": "contracts/MyNFT.sol:MyNFT",
        "label": "_balances",
        "offset": 0,
        "slot": "3",
        "type": "t_mapping(t_address,t_uint256)"
      },
      {
        "astId": 222,
        "contract": "contracts/MyNFT.sol:MyNFT",
        "label": "_tokenApprovals",
        "offset": 0,
        "slot": "4",
        "type": "t_mapping(t_uint256,t_address)"
      },
      {
        "astId": 228,
        "contract": "contracts/MyNFT.sol:MyNFT",
        "label": "_operatorApprovals",
        "offset": 0,
        "slot": "5",
        "type": "t_mapping(t_address,t_mapping(t_address,t_bool))"
      },
      {
        "astId": 1197,
        "contract": "contracts/MyNFT.sol:MyNFT",
        "label": "_ownedTokens",
        "offset": 0,
        "slot": "6",
        "type": "t_mapping(t_address,t_mapping(t_uint256,t_uint256))"
      },
      {
        "astId": 1201,
        "contract": "contracts/MyNFT.sol:MyNFT",
        "label": "_ownedTokensIndex",
        "offset": 0,
        "slot": "7",
        "type": "t_mapping(t_uint256,t_uint256)"
      },
      {
        "astId": 1204,
        "contract": "contracts/MyNFT.sol:MyNFT",
        "label": "_allTokens",
        "offset": 0,
        "slot": "8",
        "type": "t_array(t_uint256)dyn_storage"
      },
      {
        "astId": 1208,
        "contract": "contracts/MyNFT.sol:MyNFT",
        "label": "_allTokensIndex",
        "offset": 0,
        "slot": "9",
        "type": "t_mapping(t_uint256,t_uint256)"
      },
      {
        "astId": 7,
        "contract": "contracts/MyNFT.sol:MyNFT",
        "label": "_owner",
        "offset": 0,
        "slot": "10",
        "type": "t_address"
      },
      {
        "astId": 2867,
        "contract": "contracts/MyNFT.sol:MyNFT",
        "label": "reverted",
        "offset": 20,
        "slot": "10",
        "type": "t_bool"
      },
      {
        "astId": 2869,
        "contract": "contracts/MyNFT.sol:MyNFT",
        "label": "reservedAmount",
        "offset": 0,
        "slot": "11",
        "type": "t_uint256"
      },
      {
        "astId": 2871,
        "contract": "contracts/MyNFT.sol:MyNFT",
        "label": "mintPrice",
        "offset": 0,
        "slot": "12",
        "type": "t_uint256"
      },
      {
        "astId": 2875,
        "contract": "contracts/MyNFT.sol:MyNFT",
        "label": "claimed",
        "offset": 0,
        "slot": "13",
        "type": "t_mapping(t_uint256,t_bool)"
      },
      {
        "astId": 2896,
        "contract": "contracts/MyNFT.sol:MyNFT",
        "label": "steps",
        "offset": 0,
        "slot": "14",
        "type": "t_array(t_struct(Step)2882_storage)dyn_storage"
      },
      {
        "astId": 2488,
        "contract": "contracts/MyNFT.sol:MyNFT",
        "label": "governanceApproved",
        "offset": 0,
        "slot": "15",
        "type": "t_bool"
      },
      {
        "astId": 2491,
        "contract": "contracts/MyNFT.sol:MyNFT",
        "label": "callbackError",
        "offset": 1,
        "slot": "15",
        "type": "t_bool"
      },
      {
        "astId": 2494,
        "contract": "contracts/MyNFT.sol:MyNFT",
        "label": "snapshot",
        "offset": 0,
        "slot": "16",
        "type": "t_string_storage"
      },
      {
        "astId": 2497,
        "contract": "contracts/MyNFT.sol:MyNFT",
        "label": "s1",
        "offset": 0,
        "slot": "17",
        "type": "t_string_storage"
      },
      {
        "astId": 2500,
        "contract": "contracts/MyNFT.sol:MyNFT",
        "label": "s2",
        "offset": 0,
        "slot": "18",
        "type": "t_string_storage"
      },
      {
        "astId": 2503,
        "contract": "contracts/MyNFT.sol:MyNFT",
        "label": "ancillaryData",
        "offset": 0,
        "slot": "19",
        "type": "t_bytes_storage"
      },
      {
        "astId": 2506,
        "contract": "contracts/MyNFT.sol:MyNFT",
        "label": "priceIdentifier",
        "offset": 0,
        "slot": "20",
        "type": "t_bytes32"
      },
      {
        "astId": 2510,
        "contract": "contracts/MyNFT.sol:MyNFT",
        "label": "creationTimestamp",
        "offset": 0,
        "slot": "21",
        "type": "t_uint256"
      },
      {
        "astId": 2513,
        "contract": "contracts/MyNFT.sol:MyNFT",
        "label": "DAI",
        "offset": 0,
        "slot": "22",
        "type": "t_address"
      },
      {
        "astId": 2516,
        "contract": "contracts/MyNFT.sol:MyNFT",
        "label": "optimisticOracle",
        "offset": 0,
        "slot": "23",
        "type": "t_contract(OptimisticOracleInterface)2482"
      },
      {
        "astId": 2674,
        "contract": "contracts/MyNFT.sol:MyNFT",
        "label": "apeSent",
        "offset": 20,
        "slot": "23",
        "type": "t_bool"
      },
      {
        "astId": 2677,
        "contract": "contracts/MyNFT.sol:MyNFT",
        "label": "charitySent",
        "offset": 21,
        "slot": "23",
        "type": "t_bool"
      }
    ],
    "types": {
      "t_address": {
        "encoding": "inplace",
        "label": "address",
        "numberOfBytes": "20"
      },
      "t_array(t_struct(Step)2882_storage)dyn_storage": {
        "base": "t_struct(Step)2882_storage",
        "encoding": "dynamic_array",
        "label": "struct SafeLaunch.Step[]",
        "numberOfBytes": "32"
      },
      "t_array(t_uint256)dyn_storage": {
        "base": "t_uint256",
        "encoding": "dynamic_array",
        "label": "uint256[]",
        "numberOfBytes": "32"
      },
      "t_bool": {
        "encoding": "inplace",
        "label": "bool",
        "numberOfBytes": "1"
      },
      "t_bytes32": {
        "encoding": "inplace",
        "label": "bytes32",
        "numberOfBytes": "32"
      },
      "t_bytes_storage": {
        "encoding": "bytes",
        "label": "bytes",
        "numberOfBytes": "32"
      },
      "t_contract(OptimisticOracleInterface)2482": {
        "encoding": "inplace",
        "label": "contract OptimisticOracleInterface",
        "numberOfBytes": "20"
      },
      "t_mapping(t_address,t_bool)": {
        "encoding": "mapping",
        "key": "t_address",
        "label": "mapping(address => bool)",
        "numberOfBytes": "32",
        "value": "t_bool"
      },
      "t_mapping(t_address,t_mapping(t_address,t_bool))": {
        "encoding": "mapping",
        "key": "t_address",
        "label": "mapping(address => mapping(address => bool))",
        "numberOfBytes": "32",
        "value": "t_mapping(t_address,t_bool)"
      },
      "t_mapping(t_address,t_mapping(t_uint256,t_uint256))": {
        "encoding": "mapping",
        "key": "t_address",
        "label": "mapping(address => mapping(uint256 => uint256))",
        "numberOfBytes": "32",
        "value": "t_mapping(t_uint256,t_uint256)"
      },
      "t_mapping(t_address,t_uint256)": {
        "encoding": "mapping",
        "key": "t_address",
        "label": "mapping(address => uint256)",
        "numberOfBytes": "32",
        "value": "t_uint256"
      },
      "t_mapping(t_uint256,t_address)": {
        "encoding": "mapping",
        "key": "t_uint256",
        "label": "mapping(uint256 => address)",
        "numberOfBytes": "32",
        "value": "t_address"
      },
      "t_mapping(t_uint256,t_bool)": {
        "encoding": "mapping",
        "key": "t_uint256",
        "label": "mapping(uint256 => bool)",
        "numberOfBytes": "32",
        "value": "t_bool"
      },
      "t_mapping(t_uint256,t_uint256)": {
        "encoding": "mapping",
        "key": "t_uint256",
        "label": "mapping(uint256 => uint256)",
        "numberOfBytes": "32",
        "value": "t_uint256"
      },
      "t_string_storage": {
        "encoding": "bytes",
        "label": "string",
        "numberOfBytes": "32"
      },
      "t_struct(Step)2882_storage": {
        "encoding": "inplace",
        "label": "struct SafeLaunch.Step",
        "members": [
          {
            "astId": 2877,
            "contract": "contracts/MyNFT.sol:MyNFT",
            "label": "data",
            "offset": 0,
            "slot": "0",
            "type": "t_bytes32"
          },
          {
            "astId": 2879,
            "contract": "contracts/MyNFT.sol:MyNFT",
            "label": "message",
            "offset": 0,
            "slot": "1",
            "type": "t_string_storage"
          },
          {
            "astId": 2881,
            "contract": "contracts/MyNFT.sol:MyNFT",
            "label": "completed",
            "offset": 0,
            "slot": "2",
            "type": "t_bool"
          }
        ],
        "numberOfBytes": "96"
      },
      "t_uint256": {
        "encoding": "inplace",
        "label": "uint256",
        "numberOfBytes": "32"
      }
    }
  }
}