{
  "address": "0xfc180464E0F2cDFF158971f0B7A2f5ab5e486284",
  "abi": [
    {
      "inputs": [],
      "stateMutability": "nonpayable",
      "type": "constructor"
    },
    {
      "anonymous": false,
      "inputs": [
        {
          "indexed": true,
          "internalType": "address",
          "name": "owner",
          "type": "address"
        },
        {
          "indexed": true,
          "internalType": "address",
          "name": "approved",
          "type": "address"
        },
        {
          "indexed": true,
          "internalType": "uint256",
          "name": "tokenId",
          "type": "uint256"
        }
      ],
      "name": "Approval",
      "type": "event"
    },
    {
      "anonymous": false,
      "inputs": [
        {
          "indexed": true,
          "internalType": "address",
          "name": "owner",
          "type": "address"
        },
        {
          "indexed": true,
          "internalType": "address",
          "name": "operator",
          "type": "address"
        },
        {
          "indexed": false,
          "internalType": "bool",
          "name": "approved",
          "type": "bool"
        }
      ],
      "name": "ApprovalForAll",
      "type": "event"
    },
    {
      "anonymous": false,
      "inputs": [
        {
          "indexed": true,
          "internalType": "address",
          "name": "previousOwner",
          "type": "address"
        },
        {
          "indexed": true,
          "internalType": "address",
          "name": "newOwner",
          "type": "address"
        }
      ],
      "name": "OwnershipTransferred",
      "type": "event"
    },
    {
      "anonymous": false,
      "inputs": [
        {
          "indexed": false,
          "internalType": "bytes32",
          "name": "data",
          "type": "bytes32"
        },
        {
          "indexed": false,
          "internalType": "string",
          "name": "message",
          "type": "string"
        }
      ],
      "name": "StepCreated",
      "type": "event"
    },
    {
      "anonymous": false,
      "inputs": [
        {
          "indexed": false,
          "internalType": "uint256",
          "name": "stepId",
          "type": "uint256"
        }
      ],
      "name": "StepExecuted",
      "type": "event"
    },
    {
      "anonymous": false,
      "inputs": [
        {
          "indexed": true,
          "internalType": "address",
          "name": "from",
          "type": "address"
        },
        {
          "indexed": true,
          "internalType": "address",
          "name": "to",
          "type": "address"
        },
        {
          "indexed": true,
          "internalType": "uint256",
          "name": "tokenId",
          "type": "uint256"
        }
      ],
      "name": "Transfer",
      "type": "event"
    },
    {
      "inputs": [],
      "name": "MINT_PRICE",
      "outputs": [
        {
          "internalType": "uint256",
          "name": "",
          "type": "uint256"
        }
      ],
      "stateMutability": "view",
      "type": "function"
    },
    {
      "inputs": [],
      "name": "abort",
      "outputs": [],
      "stateMutability": "nonpayable",
      "type": "function"
    },
    {
      "inputs": [],
      "name": "apeIsSent",
      "outputs": [
        {
          "internalType": "bool",
          "name": "",
          "type": "bool"
        }
      ],
      "stateMutability": "view",
      "type": "function"
    },
    {
      "inputs": [
        {
          "internalType": "address",
          "name": "to",
          "type": "address"
        },
        {
          "internalType": "uint256",
          "name": "tokenId",
          "type": "uint256"
        }
      ],
      "name": "approve",
      "outputs": [],
      "stateMutability": "nonpayable",
      "type": "function"
    },
    {
      "inputs": [
        {
          "internalType": "address",
          "name": "owner",
          "type": "address"
        }
      ],
      "name": "balanceOf",
      "outputs": [
        {
          "internalType": "uint256",
          "name": "",
          "type": "uint256"
        }
      ],
      "stateMutability": "view",
      "type": "function"
    },
    {
      "inputs": [],
      "name": "charityIsSent",
      "outputs": [
        {
          "internalType": "bool",
          "name": "",
          "type": "bool"
        }
      ],
      "stateMutability": "view",
      "type": "function"
    },
    {
      "inputs": [
        {
          "internalType": "uint256[]",
          "name": "tokenIds",
          "type": "uint256[]"
        }
      ],
      "name": "claimRefund",
      "outputs": [],
      "stateMutability": "nonpayable",
      "type": "function"
    },
    {
      "inputs": [
        {
          "internalType": "uint256[]",
          "name": "tokenIds",
          "type": "uint256[]"
        }
      ],
      "name": "claimableAmount",
      "outputs": [
        {
          "internalType": "uint256",
          "name": "",
          "type": "uint256"
        }
      ],
      "stateMutability": "view",
      "type": "function"
    },
    {
      "inputs": [
        {
          "internalType": "uint256",
          "name": "stepId",
          "type": "uint256"
        }
      ],
      "name": "executeStep",
      "outputs": [],
      "stateMutability": "nonpayable",
      "type": "function"
    },
    {
      "inputs": [
        {
          "internalType": "uint256",
          "name": "tokenId",
          "type": "uint256"
        }
      ],
      "name": "getApproved",
      "outputs": [
        {
          "internalType": "address",
          "name": "",
          "type": "address"
        }
      ],
      "stateMutability": "view",
      "type": "function"
    },
    {
      "inputs": [],
      "name": "governanceIsApproved",
      "outputs": [
        {
          "internalType": "bool",
          "name": "",
          "type": "bool"
        }
      ],
      "stateMutability": "view",
      "type": "function"
    },
    {
      "inputs": [
        {
          "internalType": "address",
          "name": "owner",
          "type": "address"
        },
        {
          "internalType": "address",
          "name": "operator",
          "type": "address"
        }
      ],
      "name": "isApprovedForAll",
      "outputs": [
        {
          "internalType": "bool",
          "name": "",
          "type": "bool"
        }
      ],
      "stateMutability": "view",
      "type": "function"
    },
    {
      "inputs": [
        {
          "internalType": "address",
          "name": "to",
          "type": "address"
        },
        {
          "internalType": "uint256",
          "name": "quantity",
          "type": "uint256"
        }
      ],
      "name": "mint",
      "outputs": [],
      "stateMutability": "payable",
      "type": "function"
    },
    {
      "inputs": [],
      "name": "mintProgress",
      "outputs": [
        {
          "internalType": "bool",
          "name": "",
          "type": "bool"
        }
      ],
      "stateMutability": "view",
      "type": "function"
    },
    {
      "inputs": [],
      "name": "name",
      "outputs": [
        {
          "internalType": "string",
          "name": "",
          "type": "string"
        }
      ],
      "stateMutability": "view",
      "type": "function"
    },
    {
      "inputs": [],
      "name": "owner",
      "outputs": [
        {
          "internalType": "address",
          "name": "",
          "type": "address"
        }
      ],
      "stateMutability": "view",
      "type": "function"
    },
    {
      "inputs": [
        {
          "internalType": "uint256",
          "name": "tokenId",
          "type": "uint256"
        }
      ],
      "name": "ownerOf",
      "outputs": [
        {
          "internalType": "address",
          "name": "",
          "type": "address"
        }
      ],
      "stateMutability": "view",
      "type": "function"
    },
    {
      "inputs": [],
      "name": "renounceOwnership",
      "outputs": [],
      "stateMutability": "nonpayable",
      "type": "function"
    },
    {
      "inputs": [],
      "name": "reverted",
      "outputs": [
        {
          "internalType": "bool",
          "name": "",
          "type": "bool"
        }
      ],
      "stateMutability": "view",
      "type": "function"
    },
    {
      "inputs": [
        {
          "internalType": "address",
          "name": "from",
          "type": "address"
        },
        {
          "internalType": "address",
          "name": "to",
          "type": "address"
        },
        {
          "internalType": "uint256",
          "name": "tokenId",
          "type": "uint256"
        }
      ],
      "name": "safeTransferFrom",
      "outputs": [],
      "stateMutability": "nonpayable",
      "type": "function"
    },
    {
      "inputs": [
        {
          "internalType": "address",
          "name": "from",
          "type": "address"
        },
        {
          "internalType": "address",
          "name": "to",
          "type": "address"
        },
        {
          "internalType": "uint256",
          "name": "tokenId",
          "type": "uint256"
        },
        {
          "internalType": "bytes",
          "name": "_data",
          "type": "bytes"
        }
      ],
      "name": "safeTransferFrom",
      "outputs": [],
      "stateMutability": "nonpayable",
      "type": "function"
    },
    {
      "inputs": [
        {
          "internalType": "address",
          "name": "newOwner",
          "type": "address"
        }
      ],
      "name": "sendApe",
      "outputs": [],
      "stateMutability": "nonpayable",
      "type": "function"
    },
    {
      "inputs": [],
      "name": "sendToCharity",
      "outputs": [],
      "stateMutability": "nonpayable",
      "type": "function"
    },
    {
      "inputs": [
        {
          "internalType": "address",
          "name": "operator",
          "type": "address"
        },
        {
          "internalType": "bool",
          "name": "approved",
          "type": "bool"
        }
      ],
      "name": "setApprovalForAll",
      "outputs": [],
      "stateMutability": "nonpayable",
      "type": "function"
    },
    {
      "inputs": [],
      "name": "setGovernanceApproved",
      "outputs": [],
      "stateMutability": "nonpayable",
      "type": "function"
    },
    {
      "inputs": [
        {
          "internalType": "uint256",
          "name": "",
          "type": "uint256"
        }
      ],
      "name": "steps",
      "outputs": [
        {
          "internalType": "bytes32",
          "name": "data",
          "type": "bytes32"
        },
        {
          "internalType": "string",
          "name": "message",
          "type": "string"
        },
        {
          "internalType": "bool",
          "name": "completed",
          "type": "bool"
        }
      ],
      "stateMutability": "view",
      "type": "function"
    },
    {
      "inputs": [],
      "name": "stepsCompleted",
      "outputs": [
        {
          "internalType": "uint256",
          "name": "completed",
          "type": "uint256"
        }
      ],
      "stateMutability": "view",
      "type": "function"
    },
    {
      "inputs": [
        {
          "internalType": "bytes4",
          "name": "interfaceId",
          "type": "bytes4"
        }
      ],
      "name": "supportsInterface",
      "outputs": [
        {
          "internalType": "bool",
          "name": "",
          "type": "bool"
        }
      ],
      "stateMutability": "view",
      "type": "function"
    },
    {
      "inputs": [],
      "name": "symbol",
      "outputs": [
        {
          "internalType": "string",
          "name": "",
          "type": "string"
        }
      ],
      "stateMutability": "view",
      "type": "function"
    },
    {
      "inputs": [
        {
          "internalType": "uint256",
          "name": "index",
          "type": "uint256"
        }
      ],
      "name": "tokenByIndex",
      "outputs": [
        {
          "internalType": "uint256",
          "name": "",
          "type": "uint256"
        }
      ],
      "stateMutability": "view",
      "type": "function"
    },
    {
      "inputs": [
        {
          "internalType": "address",
          "name": "owner",
          "type": "address"
        },
        {
          "internalType": "uint256",
          "name": "index",
          "type": "uint256"
        }
      ],
      "name": "tokenOfOwnerByIndex",
      "outputs": [
        {
          "internalType": "uint256",
          "name": "",
          "type": "uint256"
        }
      ],
      "stateMutability": "view",
      "type": "function"
    },
    {
      "inputs": [
        {
          "internalType": "uint256",
          "name": "tokenId",
          "type": "uint256"
        }
      ],
      "name": "tokenURI",
      "outputs": [
        {
          "internalType": "string",
          "name": "",
          "type": "string"
        }
      ],
      "stateMutability": "view",
      "type": "function"
    },
    {
      "inputs": [],
      "name": "totalSupply",
      "outputs": [
        {
          "internalType": "uint256",
          "name": "",
          "type": "uint256"
        }
      ],
      "stateMutability": "view",
      "type": "function"
    },
    {
      "inputs": [
        {
          "internalType": "address",
          "name": "from",
          "type": "address"
        },
        {
          "internalType": "address",
          "name": "to",
          "type": "address"
        },
        {
          "internalType": "uint256",
          "name": "tokenId",
          "type": "uint256"
        }
      ],
      "name": "transferFrom",
      "outputs": [],
      "stateMutability": "nonpayable",
      "type": "function"
    },
    {
      "inputs": [
        {
          "internalType": "address",
          "name": "newOwner",
          "type": "address"
        }
      ],
      "name": "transferOwnership",
      "outputs": [],
      "stateMutability": "nonpayable",
      "type": "function"
    },
    {
      "inputs": [],
      "name": "withdrawFunds",
      "outputs": [],
      "stateMutability": "nonpayable",
      "type": "function"
    }
  ],
  "transactionHash": "0x4937855f1eb8b59f5e45eca12eacde747a5b0a3c1c262082a17b628ce85f7c06",
  "args": [],
  "numDeployments": 3,
  "solcInputHash": "be1a6b9b33c9baaf6087c63b6104ca00",
  "bytecode": "0x60806040526000600a60146101000a81548160ff0219169083151502179055506000600f60006101000a81548160ff0219169083151502179055506000600f60016101000a81548160ff0219169083151502179055506000600f60026101000a81548160ff0219169083151502179055503480156200007d57600080fd5b506729a2241af62c000067016345785d8a00006040518060400160405280600781526020017f4d79546f6b656e000000000000000000000000000000000000000000000000008152506040518060400160405280600381526020017f4d544b000000000000000000000000000000000000000000000000000000000081525081600090805190602001906200011492919062000525565b5080600190805190602001906200012d92919062000525565b50505062000150620001446200035660201b60201c565b6200035e60201b60201c565b81600b8190555080600c819055505050620001dc6040518060400160405280601681526020017f676f7665726e616e63654973417070726f7665642829000000000000000000008152506040518060400160405280601381526020017f476f7665726e616e636520617070726f76616c000000000000000000000000008152506200042460201b60201c565b620002586040518060400160405280600e81526020017f6d696e7450726f677265737328290000000000000000000000000000000000008152506040518060400160405280600b81526020017f48616c66206d696e7465640000000000000000000000000000000000000000008152506200042460201b60201c565b620002d46040518060400160405280600b81526020017f617065497353656e7428290000000000000000000000000000000000000000008152506040518060400160405280601181526020017f424159432073656e7420746f20757365720000000000000000000000000000008152506200042460201b60201c565b620003506040518060400160405280600f81526020017f63686172697479497353656e74282900000000000000000000000000000000008152506040518060400160405280600c81526020017f436861726974792073656e7400000000000000000000000000000000000000008152506200042460201b60201c565b62000788565b600033905090565b6000600a60009054906101000a900473ffffffffffffffffffffffffffffffffffffffff16905081600a60006101000a81548173ffffffffffffffffffffffffffffffffffffffff021916908373ffffffffffffffffffffffffffffffffffffffff1602179055508173ffffffffffffffffffffffffffffffffffffffff168173ffffffffffffffffffffffffffffffffffffffff167f8be0079c531659141344cd1fd0a4f28419497f9722a3daafe3b4186f6b6457e060405160405180910390a35050565b6000826040516020016200043991906200065e565b604051602081830303815290604052805190602001209050600e6040518060600160405280838152602001848152602001600015158152509080600181540180825580915050600190039060005260206000209060030201600090919091909150600082015181600001556020820151816001019080519060200190620004c292919062000525565b5060408201518160020160006101000a81548160ff02191690831515021790555050507fca729272cde0dd3fe1a318c7526cdb798b16b524780aacd4fe24b04c87954fd481836040516200051892919062000677565b60405180910390a1505050565b828054620005339062000712565b90600052602060002090601f016020900481019282620005575760008555620005a3565b82601f106200057257805160ff1916838001178555620005a3565b82800160010185558215620005a3579182015b82811115620005a257825182559160200191906001019062000585565b5b509050620005b29190620005b6565b5090565b5b80821115620005d1576000816000905550600101620005b7565b5090565b620005e081620006d2565b82525050565b6000620005f382620006ab565b620005ff8185620006b6565b935062000611818560208601620006dc565b6200061c8162000777565b840191505092915050565b60006200063482620006ab565b620006408185620006c7565b935062000652818560208601620006dc565b80840191505092915050565b60006200066c828462000627565b915081905092915050565b60006040820190506200068e6000830185620005d5565b8181036020830152620006a28184620005e6565b90509392505050565b600081519050919050565b600082825260208201905092915050565b600081905092915050565b6000819050919050565b60005b83811015620006fc578082015181840152602081019050620006df565b838111156200070c576000848401525b50505050565b600060028204905060018216806200072b57607f821691505b6020821081141562000742576200074162000748565b5b50919050565b7f4e487b7100000000000000000000000000000000000000000000000000000000600052602260045260246000fd5b6000601f19601f8301169050919050565b614e4180620007986000396000f3fe60806040526004361061020f5760003560e01c806370a0823111610118578063b88d4fde116100a0578063c87b56dd1161006f578063c87b56dd1461076e578063d7e5d8ac146107ab578063e985e9c5146107c2578063f2fde38b146107ff578063f54a6f83146108285761020f565b8063b88d4fde146106c4578063bc0af82a146106ed578063bf5febca14610718578063c002d23d146107435761020f565b8063867fc17a116100e7578063867fc17a146105f15780638da5cb5b1461061a57806395d89b4114610645578063a22cb46514610670578063b64c7a73146106995761020f565b806370a0823114610535578063715018a6146105725780637217e0b91461058957806378ebce48146105c85761020f565b80632f745c591161019b5780634bdfc7361161016a5780634bdfc736146104285780634f6ccce71461046557806356b16953146104a25780636352211e146104cd578063637eb40b1461050a5761020f565b80632f745c591461038f57806335a063b4146103cc57806340c10f19146103e357806342842e0e146103ff5761020f565b806316e3c749116101e257806316e3c749146102e257806318160ddd1461030d5780631920f7121461033857806323b872dd1461034f57806324600fc3146103785761020f565b806301ffc9a71461021457806306fdde0314610251578063081812fc1461027c578063095ea7b3146102b9575b600080fd5b34801561022057600080fd5b5061023b6004803603810190610236919061381d565b610851565b6040516102489190613eb0565b60405180910390f35b34801561025d57600080fd5b50610266610863565b6040516102739190613f09565b60405180910390f35b34801561028857600080fd5b506102a3600480360381019061029e919061386f565b6108f5565b6040516102b09190613e12565b60405180910390f35b3480156102c557600080fd5b506102e060048036038101906102db91906137a0565b61097a565b005b3480156102ee57600080fd5b506102f7610a92565b6040516103049190613eb0565b60405180910390f35b34801561031957600080fd5b50610322610aa9565b60405161032f91906142ab565b60405180910390f35b34801561034457600080fd5b5061034d610ab6565b005b34801561035b57600080fd5b506103766004803603810190610371919061369a565b610ad3565b005b34801561038457600080fd5b5061038d610b33565b005b34801561039b57600080fd5b506103b660048036038101906103b191906137a0565b610cba565b6040516103c391906142ab565b60405180910390f35b3480156103d857600080fd5b506103e1610d5f565b005b6103fd60048036038101906103f891906137a0565b610df8565b005b34801561040b57600080fd5b506104266004803603810190610421919061369a565b610eef565b005b34801561043457600080fd5b5061044f600480360381019061044a91906137dc565b610f0f565b60405161045c91906142ab565b60405180910390f35b34801561047157600080fd5b5061048c6004803603810190610487919061386f565b611117565b60405161049991906142ab565b60405180910390f35b3480156104ae57600080fd5b506104b76111ae565b6040516104c49190613eb0565b60405180910390f35b3480156104d957600080fd5b506104f460048036038101906104ef919061386f565b6111cd565b6040516105019190613e12565b60405180910390f35b34801561051657600080fd5b5061051f61127f565b60405161052c9190613eb0565b60405180910390f35b34801561054157600080fd5b5061055c6004803603810190610557919061360c565b611296565b60405161056991906142ab565b60405180910390f35b34801561057e57600080fd5b5061058761134e565b005b34801561059557600080fd5b506105b060048036038101906105ab919061386f565b6113d6565b6040516105bf93929190613ecb565b60405180910390f35b3480156105d457600080fd5b506105ef60048036038101906105ea919061360c565b6114a5565b005b3480156105fd57600080fd5b506106186004803603810190610613919061386f565b61153f565b005b34801561062657600080fd5b5061062f611852565b60405161063c9190613e12565b60405180910390f35b34801561065157600080fd5b5061065a61187c565b6040516106679190613f09565b60405180910390f35b34801561067c57600080fd5b5061069760048036038101906106929190613764565b61190e565b005b3480156106a557600080fd5b506106ae611924565b6040516106bb91906142ab565b60405180910390f35b3480156106d057600080fd5b506106eb60048036038101906106e691906136e9565b611a79565b005b3480156106f957600080fd5b50610702611adb565b60405161070f9190613eb0565b60405180910390f35b34801561072457600080fd5b5061072d611aee565b60405161073a9190613eb0565b60405180910390f35b34801561074f57600080fd5b50610758611b05565b60405161076591906142ab565b60405180910390f35b34801561077a57600080fd5b506107956004803603810190610790919061386f565b611b11565b6040516107a29190613f09565b60405180910390f35b3480156107b757600080fd5b506107c0611bb8565b005b3480156107ce57600080fd5b506107e960048036038101906107e4919061365e565b611cba565b6040516107f69190613eb0565b60405180910390f35b34801561080b57600080fd5b506108266004803603810190610821919061360c565b611d4e565b005b34801561083457600080fd5b5061084f600480360381019061084a91906137dc565b611e46565b005b600061085c82612119565b9050919050565b6060600080546108729061456b565b80601f016020809104026020016040519081016040528092919081815260200182805461089e9061456b565b80156108eb5780601f106108c0576101008083540402835291602001916108eb565b820191906000526020600020905b8154815290600101906020018083116108ce57829003601f168201915b5050505050905090565b600061090082612193565b61093f576040517f08c379a0000000000000000000000000000000000000000000000000000000008152600401610936906141ab565b60405180910390fd5b6004600083815260200190815260200160002060009054906101000a900473ffffffffffffffffffffffffffffffffffffffff169050919050565b6000610985826111cd565b90508073ffffffffffffffffffffffffffffffffffffffff168373ffffffffffffffffffffffffffffffffffffffff1614156109f6576040517f08c379a00000000000000000000000000000000000000000000000000000000081526004016109ed9061422b565b60405180910390fd5b8073ffffffffffffffffffffffffffffffffffffffff16610a156121ff565b73ffffffffffffffffffffffffffffffffffffffff161480610a445750610a4381610a3e6121ff565b611cba565b5b610a83576040517f08c379a0000000000000000000000000000000000000000000000000000000008152600401610a7a9061412b565b60405180910390fd5b610a8d8383612207565b505050565b6000600f60029054906101000a900460ff16905090565b6000600880549050905090565b6001600f60026101000a81548160ff021916908315150217905550565b610ae4610ade6121ff565b826122c0565b610b23576040517f08c379a0000000000000000000000000000000000000000000000000000000008152600401610b1a9061424b565b60405180910390fd5b610b2e83838361239e565b505050565b610b3b6121ff565b73ffffffffffffffffffffffffffffffffffffffff16610b59611852565b73ffffffffffffffffffffffffffffffffffffffff1614610baf576040517f08c379a0000000000000000000000000000000000000000000000000000000008152600401610ba6906141eb565b60405180910390fd5b60005b600e80549050811015610c6a57600e8181548110610bf9577f4e487b7100000000000000000000000000000000000000000000000000000000600052603260045260246000fd5b906000526020600020906003020160020160009054906101000a900460ff16610c57576040517f08c379a0000000000000000000000000000000000000000000000000000000008152600401610c4e906141cb565b60405180910390fd5b8080610c62906145ce565b915050610bb2565b5060004790503373ffffffffffffffffffffffffffffffffffffffff166108fc829081150290604051600060405180830381858888f19350505050158015610cb6573d6000803e3d6000fd5b5050565b6000610cc583611296565b8210610d06576040517f08c379a0000000000000000000000000000000000000000000000000000000008152600401610cfd90613f6b565b60405180910390fd5b600660008473ffffffffffffffffffffffffffffffffffffffff1673ffffffffffffffffffffffffffffffffffffffff168152602001908152602001600020600083815260200190815260200160002054905092915050565b610d676121ff565b73ffffffffffffffffffffffffffffffffffffffff16610d85611852565b73ffffffffffffffffffffffffffffffffffffffff1614610ddb576040517f08c379a0000000000000000000000000000000000000000000000000000000008152600401610dd2906141eb565b60405180910390fd5b6001600a60146101000a81548160ff021916908315150217905550565b60008167016345785d8a0000610e0e919061441d565b9050348114610e52576040517f08c379a0000000000000000000000000000000000000000000000000000000008152600401610e49906140cb565b60405180910390fd5b6103e882610e5e610aa9565b610e689190614396565b10610ea8576040517f08c379a0000000000000000000000000000000000000000000000000000000008152600401610e9f90613f4b565b60405180910390fd5b60005b82811015610ee9576000610ebf6010612605565b9050610ecb6010612613565b610ed58582612629565b508080610ee1906145ce565b915050610eab565b50505050565b610f0a83838360405180602001604052806000815250611a79565b505050565b6000806000905060003090506000610f25611924565b90506000600c548373ffffffffffffffffffffffffffffffffffffffff166318160ddd6040518163ffffffff1660e01b815260040160206040518083038186803b158015610f7257600080fd5b505afa158015610f86573d6000803e3d6000fd5b505050506040513d601f19601f82011682018060405250810190610faa9190613898565b610fb4919061441d565b9050600b54811015610fcd576000945050505050611112565b6000600b5482610fdd9190614477565b90506000479050818111611026576040517f08c379a000000000000000000000000000000000000000000000000000000000815260040161101d9061404b565b60405180910390fd5b60008573ffffffffffffffffffffffffffffffffffffffff166318160ddd6040518163ffffffff1660e01b815260040160206040518083038186803b15801561106e57600080fd5b505afa158015611082573d6000803e3d6000fd5b505050506040513d601f19601f820116820180604052508101906110a69190613898565b836110b191906143ec565b905060005b895181101561110657600d600082815260200190815260200160002060009054906101000a900460ff166110f35781886110f09190614396565b97505b80806110fe906145ce565b9150506110b6565b50869750505050505050505b919050565b6000611121610aa9565b8210611162576040517f08c379a00000000000000000000000000000000000000000000000000000000081526004016111599061426b565b60405180910390fd5b6008828154811061119c577f4e487b7100000000000000000000000000000000000000000000000000000000600052603260045260246000fd5b90600052602060002001549050919050565b60006111b8610aa9565b60026103e86111c791906143ec565b11905090565b6000806002600084815260200190815260200160002060009054906101000a900473ffffffffffffffffffffffffffffffffffffffff169050600073ffffffffffffffffffffffffffffffffffffffff168173ffffffffffffffffffffffffffffffffffffffff161415611276576040517f08c379a000000000000000000000000000000000000000000000000000000000815260040161126d9061416b565b60405180910390fd5b80915050919050565b6000600f60009054906101000a900460ff16905090565b60008073ffffffffffffffffffffffffffffffffffffffff168273ffffffffffffffffffffffffffffffffffffffff161415611307576040517f08c379a00000000000000000000000000000000000000000000000000000000081526004016112fe9061414b565b60405180910390fd5b600360008373ffffffffffffffffffffffffffffffffffffffff1673ffffffffffffffffffffffffffffffffffffffff168152602001908152602001600020549050919050565b6113566121ff565b73ffffffffffffffffffffffffffffffffffffffff16611374611852565b73ffffffffffffffffffffffffffffffffffffffff16146113ca576040517f08c379a00000000000000000000000000000000000000000000000000000000081526004016113c1906141eb565b60405180910390fd5b6113d46000612647565b565b600e81815481106113e657600080fd5b906000526020600020906003020160009150905080600001549080600101805461140f9061456b565b80601f016020809104026020016040519081016040528092919081815260200182805461143b9061456b565b80156114885780601f1061145d57610100808354040283529160200191611488565b820191906000526020600020905b81548152906001019060200180831161146b57829003601f168201915b5050505050908060020160009054906101000a900460ff16905083565b6114ad6121ff565b73ffffffffffffffffffffffffffffffffffffffff166114cb611852565b73ffffffffffffffffffffffffffffffffffffffff1614611521576040517f08c379a0000000000000000000000000000000000000000000000000000000008152600401611518906141eb565b60405180910390fd5b6001600f60006101000a81548160ff02191690831515021790555050565b6000600e828154811061157b577f4e487b7100000000000000000000000000000000000000000000000000000000600052603260045260246000fd5b9060005260206000209060030201604051806060016040529081600082015481526020016001820180546115ae9061456b565b80601f01602080910402602001604051908101604052809291908181526020018280546115da9061456b565b80156116275780601f106115fc57610100808354040283529160200191611627565b820191906000526020600020905b81548152906001019060200180831161160a57829003601f168201915b505050505081526020016002820160009054906101000a900460ff1615151515815250509050806040015115611692576040517f08c379a000000000000000000000000000000000000000000000000000000000815260040161168990613fcb565b60405180910390fd5b6000803073ffffffffffffffffffffffffffffffffffffffff1683600001516040516020016116c19190613dbc565b6040516020818303038152906040526040516116dd9190613dd7565b6000604051808303816000865af19150503d806000811461171a576040519150601f19603f3d011682016040523d82523d6000602084013e61171f565b606091505b509150915060008151602083015191505082611770576040517f08c379a00000000000000000000000000000000000000000000000000000000081526004016117679061428b565b60405180910390fd5b806117b0576040517f08c379a00000000000000000000000000000000000000000000000000000000081526004016117a790613f2b565b60405180910390fd5b6001600e86815481106117ec577f4e487b7100000000000000000000000000000000000000000000000000000000600052603260045260246000fd5b906000526020600020906003020160020160006101000a81548160ff0219169083151502179055507f7d716790d01a64421d121f2b247366a43719c87528485b9900995183b635fe8a8560405161184391906142ab565b60405180910390a15050505050565b6000600a60009054906101000a900473ffffffffffffffffffffffffffffffffffffffff16905090565b60606001805461188b9061456b565b80601f01602080910402602001604051908101604052809291908181526020018280546118b79061456b565b80156119045780601f106118d957610100808354040283529160200191611904565b820191906000526020600020905b8154815290600101906020018083116118e757829003601f168201915b5050505050905090565b6119206119196121ff565b838361270d565b5050565b600080600090505b600e80549050811015611a75576000600e8281548110611975577f4e487b7100000000000000000000000000000000000000000000000000000000600052603260045260246000fd5b9060005260206000209060030201604051806060016040529081600082015481526020016001820180546119a89061456b565b80601f01602080910402602001604051908101604052809291908181526020018280546119d49061456b565b8015611a215780601f106119f657610100808354040283529160200191611a21565b820191906000526020600020905b815481529060010190602001808311611a0457829003601f168201915b505050505081526020016002820160009054906101000a900460ff1615151515815250509050806040015115611a6157600183611a5e9190614396565b92505b508080611a6d906145ce565b91505061192c565b5090565b611a8a611a846121ff565b836122c0565b611ac9576040517f08c379a0000000000000000000000000000000000000000000000000000000008152600401611ac09061424b565b60405180910390fd5b611ad58484848461287a565b50505050565b600a60149054906101000a900460ff1681565b6000600f60019054906101000a900460ff16905090565b67016345785d8a000081565b6060611b1c82612193565b611b5b576040517f08c379a0000000000000000000000000000000000000000000000000000000008152600401611b529061420b565b60405180910390fd5b6000611b656128d6565b90506000815111611b855760405180602001604052806000815250611bb0565b80611b8f846128ed565b604051602001611ba0929190613dee565b6040516020818303038152906040525b915050919050565b611bc06121ff565b73ffffffffffffffffffffffffffffffffffffffff16611bde611852565b73ffffffffffffffffffffffffffffffffffffffff1614611c34576040517f08c379a0000000000000000000000000000000000000000000000000000000008152600401611c2b906141eb565b60405180910390fd5b6000739aa48bb538206d5d7329aafd17b63562e7c9845790508073ffffffffffffffffffffffffffffffffffffffff166108fc67016345785d8a00009081150290604051600060405180830381858888f19350505050158015611c9b573d6000803e3d6000fd5b506001600f60016101000a81548160ff02191690831515021790555050565b6000600560008473ffffffffffffffffffffffffffffffffffffffff1673ffffffffffffffffffffffffffffffffffffffff16815260200190815260200160002060008373ffffffffffffffffffffffffffffffffffffffff1673ffffffffffffffffffffffffffffffffffffffff16815260200190815260200160002060009054906101000a900460ff16905092915050565b611d566121ff565b73ffffffffffffffffffffffffffffffffffffffff16611d74611852565b73ffffffffffffffffffffffffffffffffffffffff1614611dca576040517f08c379a0000000000000000000000000000000000000000000000000000000008152600401611dc1906141eb565b60405180910390fd5b600073ffffffffffffffffffffffffffffffffffffffff168173ffffffffffffffffffffffffffffffffffffffff161415611e3a576040517f08c379a0000000000000000000000000000000000000000000000000000000008152600401611e3190613feb565b60405180910390fd5b611e4381612647565b50565b600a60149054906101000a900460ff16611e95576040517f08c379a0000000000000000000000000000000000000000000000000000000008152600401611e8c90613fab565b60405180910390fd5b600030905060005b82518110156120bf573373ffffffffffffffffffffffffffffffffffffffff168273ffffffffffffffffffffffffffffffffffffffff16636352211e836040518263ffffffff1660e01b8152600401611ef691906142ab565b60206040518083038186803b158015611f0e57600080fd5b505afa158015611f22573d6000803e3d6000fd5b505050506040513d601f19601f82011682018060405250810190611f469190613635565b73ffffffffffffffffffffffffffffffffffffffff1614611f9c576040517f08c379a0000000000000000000000000000000000000000000000000000000008152600401611f939061406b565b60405180910390fd5b600d600082815260200190815260200160002060009054906101000a900460ff1615611ffd576040517f08c379a0000000000000000000000000000000000000000000000000000000008152600401611ff49061410b565b60405180910390fd5b8173ffffffffffffffffffffffffffffffffffffffff166323b872dd3330868581518110612054577f4e487b7100000000000000000000000000000000000000000000000000000000600052603260045260246000fd5b60200260200101516040518463ffffffff1660e01b815260040161207a93929190613e2d565b600060405180830381600087803b15801561209457600080fd5b505af11580156120a8573d6000803e3d6000fd5b5050505080806120b7906145ce565b915050611e9d565b5060006120cb83610f0f565b90503373ffffffffffffffffffffffffffffffffffffffff166108fc829081150290604051600060405180830381858888f19350505050158015612113573d6000803e3d6000fd5b50505050565b60007f780e9d63000000000000000000000000000000000000000000000000000000007bffffffffffffffffffffffffffffffffffffffffffffffffffffffff1916827bffffffffffffffffffffffffffffffffffffffffffffffffffffffff1916148061218c575061218b82612a9a565b5b9050919050565b60008073ffffffffffffffffffffffffffffffffffffffff166002600084815260200190815260200160002060009054906101000a900473ffffffffffffffffffffffffffffffffffffffff1673ffffffffffffffffffffffffffffffffffffffff1614159050919050565b600033905090565b816004600083815260200190815260200160002060006101000a81548173ffffffffffffffffffffffffffffffffffffffff021916908373ffffffffffffffffffffffffffffffffffffffff160217905550808273ffffffffffffffffffffffffffffffffffffffff1661227a836111cd565b73ffffffffffffffffffffffffffffffffffffffff167f8c5be1e5ebec7d5bd14f71427d1e84f3dd0314c0f7b2291e5b200ac8c7c3b92560405160405180910390a45050565b60006122cb82612193565b61230a576040517f08c379a0000000000000000000000000000000000000000000000000000000008152600401612301906140eb565b60405180910390fd5b6000612315836111cd565b90508073ffffffffffffffffffffffffffffffffffffffff168473ffffffffffffffffffffffffffffffffffffffff16148061238457508373ffffffffffffffffffffffffffffffffffffffff1661236c846108f5565b73ffffffffffffffffffffffffffffffffffffffff16145b8061239557506123948185611cba565b5b91505092915050565b8273ffffffffffffffffffffffffffffffffffffffff166123be826111cd565b73ffffffffffffffffffffffffffffffffffffffff1614612414576040517f08c379a000000000000000000000000000000000000000000000000000000000815260040161240b9061400b565b60405180910390fd5b600073ffffffffffffffffffffffffffffffffffffffff168273ffffffffffffffffffffffffffffffffffffffff161415612484576040517f08c379a000000000000000000000000000000000000000000000000000000000815260040161247b9061408b565b60405180910390fd5b61248f838383612b7c565b61249a600082612207565b6001600360008573ffffffffffffffffffffffffffffffffffffffff1673ffffffffffffffffffffffffffffffffffffffff16815260200190815260200160002060008282546124ea9190614477565b925050819055506001600360008473ffffffffffffffffffffffffffffffffffffffff1673ffffffffffffffffffffffffffffffffffffffff16815260200190815260200160002060008282546125419190614396565b92505081905550816002600083815260200190815260200160002060006101000a81548173ffffffffffffffffffffffffffffffffffffffff021916908373ffffffffffffffffffffffffffffffffffffffff160217905550808273ffffffffffffffffffffffffffffffffffffffff168473ffffffffffffffffffffffffffffffffffffffff167fddf252ad1be2c89b69c2b068fc378daa952ba7f163c4a11628f55a4df523b3ef60405160405180910390a4612600838383612b8c565b505050565b600081600001549050919050565b6001816000016000828254019250508190555050565b612643828260405180602001604052806000815250612b91565b5050565b6000600a60009054906101000a900473ffffffffffffffffffffffffffffffffffffffff16905081600a60006101000a81548173ffffffffffffffffffffffffffffffffffffffff021916908373ffffffffffffffffffffffffffffffffffffffff1602179055508173ffffffffffffffffffffffffffffffffffffffff168173ffffffffffffffffffffffffffffffffffffffff167f8be0079c531659141344cd1fd0a4f28419497f9722a3daafe3b4186f6b6457e060405160405180910390a35050565b8173ffffffffffffffffffffffffffffffffffffffff168373ffffffffffffffffffffffffffffffffffffffff16141561277c576040517f08c379a0000000000000000000000000000000000000000000000000000000008152600401612773906140ab565b60405180910390fd5b80600560008573ffffffffffffffffffffffffffffffffffffffff1673ffffffffffffffffffffffffffffffffffffffff16815260200190815260200160002060008473ffffffffffffffffffffffffffffffffffffffff1673ffffffffffffffffffffffffffffffffffffffff16815260200190815260200160002060006101000a81548160ff0219169083151502179055508173ffffffffffffffffffffffffffffffffffffffff168373ffffffffffffffffffffffffffffffffffffffff167f17307eab39ab6107e8899845ad3d59bd9653f200f220920489ca2b5937696c318360405161286d9190613eb0565b60405180910390a3505050565b61288584848461239e565b61289184848484612bec565b6128d0576040517f08c379a00000000000000000000000000000000000000000000000000000000081526004016128c790613f8b565b60405180910390fd5b50505050565b606060405180602001604052806000815250905090565b60606000821415612935576040518060400160405280600181526020017f30000000000000000000000000000000000000000000000000000000000000008152509050612a95565b600082905060005b60008214612967578080612950906145ce565b915050600a8261296091906143ec565b915061293d565b60008167ffffffffffffffff8111156129a9577f4e487b7100000000000000000000000000000000000000000000000000000000600052604160045260246000fd5b6040519080825280601f01601f1916602001820160405280156129db5781602001600182028036833780820191505090505b5090505b60008514612a8e576001826129f49190614477565b9150600a85612a039190614621565b6030612a0f9190614396565b60f81b818381518110612a4b577f4e487b7100000000000000000000000000000000000000000000000000000000600052603260045260246000fd5b60200101907effffffffffffffffffffffffffffffffffffffffffffffffffffffffffffff1916908160001a905350600a85612a8791906143ec565b94506129df565b8093505050505b919050565b60007f80ac58cd000000000000000000000000000000000000000000000000000000007bffffffffffffffffffffffffffffffffffffffffffffffffffffffff1916827bffffffffffffffffffffffffffffffffffffffffffffffffffffffff19161480612b6557507f5b5e139f000000000000000000000000000000000000000000000000000000007bffffffffffffffffffffffffffffffffffffffffffffffffffffffff1916827bffffffffffffffffffffffffffffffffffffffffffffffffffffffff1916145b80612b755750612b7482612d83565b5b9050919050565b612b87838383612ded565b505050565b505050565b612b9b8383612f01565b612ba86000848484612bec565b612be7576040517f08c379a0000000000000000000000000000000000000000000000000000000008152600401612bde90613f8b565b60405180910390fd5b505050565b6000612c0d8473ffffffffffffffffffffffffffffffffffffffff166130db565b15612d76578373ffffffffffffffffffffffffffffffffffffffff1663150b7a02612c366121ff565b8786866040518563ffffffff1660e01b8152600401612c589493929190613e64565b602060405180830381600087803b158015612c7257600080fd5b505af1925050508015612ca357506040513d601f19601f82011682018060405250810190612ca09190613846565b60015b612d26573d8060008114612cd3576040519150601f19603f3d011682016040523d82523d6000602084013e612cd8565b606091505b50600081511415612d1e576040517f08c379a0000000000000000000000000000000000000000000000000000000008152600401612d1590613f8b565b60405180910390fd5b805181602001fd5b63150b7a0260e01b7bffffffffffffffffffffffffffffffffffffffffffffffffffffffff1916817bffffffffffffffffffffffffffffffffffffffffffffffffffffffff191614915050612d7b565b600190505b949350505050565b60007f01ffc9a7000000000000000000000000000000000000000000000000000000007bffffffffffffffffffffffffffffffffffffffffffffffffffffffff1916827bffffffffffffffffffffffffffffffffffffffffffffffffffffffff1916149050919050565b612df88383836130fe565b600073ffffffffffffffffffffffffffffffffffffffff168373ffffffffffffffffffffffffffffffffffffffff161415612e3b57612e3681613103565b612e7a565b8173ffffffffffffffffffffffffffffffffffffffff168373ffffffffffffffffffffffffffffffffffffffff1614612e7957612e78838261314c565b5b5b600073ffffffffffffffffffffffffffffffffffffffff168273ffffffffffffffffffffffffffffffffffffffff161415612ebd57612eb8816132b9565b612efc565b8273ffffffffffffffffffffffffffffffffffffffff168273ffffffffffffffffffffffffffffffffffffffff1614612efb57612efa82826133fc565b5b5b505050565b600073ffffffffffffffffffffffffffffffffffffffff168273ffffffffffffffffffffffffffffffffffffffff161415612f71576040517f08c379a0000000000000000000000000000000000000000000000000000000008152600401612f689061418b565b60405180910390fd5b612f7a81612193565b15612fba576040517f08c379a0000000000000000000000000000000000000000000000000000000008152600401612fb19061402b565b60405180910390fd5b612fc660008383612b7c565b6001600360008473ffffffffffffffffffffffffffffffffffffffff1673ffffffffffffffffffffffffffffffffffffffff16815260200190815260200160002060008282546130169190614396565b92505081905550816002600083815260200190815260200160002060006101000a81548173ffffffffffffffffffffffffffffffffffffffff021916908373ffffffffffffffffffffffffffffffffffffffff160217905550808273ffffffffffffffffffffffffffffffffffffffff16600073ffffffffffffffffffffffffffffffffffffffff167fddf252ad1be2c89b69c2b068fc378daa952ba7f163c4a11628f55a4df523b3ef60405160405180910390a46130d760008383612b8c565b5050565b6000808273ffffffffffffffffffffffffffffffffffffffff163b119050919050565b505050565b6008805490506009600083815260200190815260200160002081905550600881908060018154018082558091505060019003906000526020600020016000909190919091505550565b6000600161315984611296565b6131639190614477565b9050600060076000848152602001908152602001600020549050818114613248576000600660008673ffffffffffffffffffffffffffffffffffffffff1673ffffffffffffffffffffffffffffffffffffffff168152602001908152602001600020600084815260200190815260200160002054905080600660008773ffffffffffffffffffffffffffffffffffffffff1673ffffffffffffffffffffffffffffffffffffffff168152602001908152602001600020600084815260200190815260200160002081905550816007600083815260200190815260200160002081905550505b6007600084815260200190815260200160002060009055600660008573ffffffffffffffffffffffffffffffffffffffff1673ffffffffffffffffffffffffffffffffffffffff16815260200190815260200160002060008381526020019081526020016000206000905550505050565b600060016008805490506132cd9190614477565b9050600060096000848152602001908152602001600020549050600060088381548110613323577f4e487b7100000000000000000000000000000000000000000000000000000000600052603260045260246000fd5b90600052602060002001549050806008838154811061336b577f4e487b7100000000000000000000000000000000000000000000000000000000600052603260045260246000fd5b9060005260206000200181905550816009600083815260200190815260200160002081905550600960008581526020019081526020016000206000905560088054806133e0577f4e487b7100000000000000000000000000000000000000000000000000000000600052603160045260246000fd5b6001900381819060005260206000200160009055905550505050565b600061340783611296565b905081600660008573ffffffffffffffffffffffffffffffffffffffff1673ffffffffffffffffffffffffffffffffffffffff168152602001908152602001600020600083815260200190815260200160002081905550806007600084815260200190815260200160002081905550505050565b600061348e613489846142eb565b6142c6565b905080838252602082019050828560208602820111156134ad57600080fd5b60005b858110156134dd57816134c388826135e2565b8452602084019350602083019250506001810190506134b0565b5050509392505050565b60006134fa6134f584614317565b6142c6565b90508281526020810184848401111561351257600080fd5b61351d848285614529565b509392505050565b60008135905061353481614daf565b92915050565b60008151905061354981614daf565b92915050565b600082601f83011261356057600080fd5b813561357084826020860161347b565b91505092915050565b60008135905061358881614dc6565b92915050565b60008135905061359d81614ddd565b92915050565b6000815190506135b281614ddd565b92915050565b600082601f8301126135c957600080fd5b81356135d98482602086016134e7565b91505092915050565b6000813590506135f181614df4565b92915050565b60008151905061360681614df4565b92915050565b60006020828403121561361e57600080fd5b600061362c84828501613525565b91505092915050565b60006020828403121561364757600080fd5b60006136558482850161353a565b91505092915050565b6000806040838503121561367157600080fd5b600061367f85828601613525565b925050602061369085828601613525565b9150509250929050565b6000806000606084860312156136af57600080fd5b60006136bd86828701613525565b93505060206136ce86828701613525565b92505060406136df868287016135e2565b9150509250925092565b600080600080608085870312156136ff57600080fd5b600061370d87828801613525565b945050602061371e87828801613525565b935050604061372f878288016135e2565b925050606085013567ffffffffffffffff81111561374c57600080fd5b613758878288016135b8565b91505092959194509250565b6000806040838503121561377757600080fd5b600061378585828601613525565b925050602061379685828601613579565b9150509250929050565b600080604083850312156137b357600080fd5b60006137c185828601613525565b92505060206137d2858286016135e2565b9150509250929050565b6000602082840312156137ee57600080fd5b600082013567ffffffffffffffff81111561380857600080fd5b6138148482850161354f565b91505092915050565b60006020828403121561382f57600080fd5b600061383d8482850161358e565b91505092915050565b60006020828403121561385857600080fd5b6000613866848285016135a3565b91505092915050565b60006020828403121561388157600080fd5b600061388f848285016135e2565b91505092915050565b6000602082840312156138aa57600080fd5b60006138b8848285016135f7565b91505092915050565b6138ca816144ab565b82525050565b6138d9816144bd565b82525050565b6138e8816144c9565b82525050565b6138ff6138fa826144c9565b614617565b82525050565b600061391082614348565b61391a818561435e565b935061392a818560208601614538565b6139338161470e565b840191505092915050565b600061394982614348565b613953818561436f565b9350613963818560208601614538565b80840191505092915050565b600061397a82614353565b613984818561437a565b9350613994818560208601614538565b61399d8161470e565b840191505092915050565b60006139b382614353565b6139bd818561438b565b93506139cd818560208601614538565b80840191505092915050565b60006139e660158361437a565b91506139f18261471f565b602082019050919050565b6000613a0960118361437a565b9150613a1482614748565b602082019050919050565b6000613a2c602b8361437a565b9150613a3782614771565b604082019050919050565b6000613a4f60328361437a565b9150613a5a826147c0565b604082019050919050565b6000613a7260138361437a565b9150613a7d8261480f565b602082019050919050565b6000613a9560118361437a565b9150613aa082614838565b602082019050919050565b6000613ab860268361437a565b9150613ac382614861565b604082019050919050565b6000613adb60258361437a565b9150613ae6826148b0565b604082019050919050565b6000613afe601c8361437a565b9150613b09826148ff565b602082019050919050565b6000613b21601e8361437a565b9150613b2c82614928565b602082019050919050565b6000613b44600b8361437a565b9150613b4f82614951565b602082019050919050565b6000613b6760248361437a565b9150613b728261497a565b604082019050919050565b6000613b8a60198361437a565b9150613b95826149c9565b602082019050919050565b6000613bad60178361437a565b9150613bb8826149f2565b602082019050919050565b6000613bd0602c8361437a565b9150613bdb82614a1b565b604082019050919050565b6000613bf360198361437a565b9150613bfe82614a6a565b602082019050919050565b6000613c1660388361437a565b9150613c2182614a93565b604082019050919050565b6000613c39602a8361437a565b9150613c4482614ae2565b604082019050919050565b6000613c5c60298361437a565b9150613c6782614b31565b604082019050919050565b6000613c7f60208361437a565b9150613c8a82614b80565b602082019050919050565b6000613ca2602c8361437a565b9150613cad82614ba9565b604082019050919050565b6000613cc5600d8361437a565b9150613cd082614bf8565b602082019050919050565b6000613ce860208361437a565b9150613cf382614c21565b602082019050919050565b6000613d0b602f8361437a565b9150613d1682614c4a565b604082019050919050565b6000613d2e60218361437a565b9150613d3982614c99565b604082019050919050565b6000613d5160318361437a565b9150613d5c82614ce8565b604082019050919050565b6000613d74602c8361437a565b9150613d7f82614d37565b604082019050919050565b6000613d9760138361437a565b9150613da282614d86565b602082019050919050565b613db68161451f565b82525050565b6000613dc882846138ee565b60208201915081905092915050565b6000613de3828461393e565b915081905092915050565b6000613dfa82856139a8565b9150613e0682846139a8565b91508190509392505050565b6000602082019050613e2760008301846138c1565b92915050565b6000606082019050613e4260008301866138c1565b613e4f60208301856138c1565b613e5c6040830184613dad565b949350505050565b6000608082019050613e7960008301876138c1565b613e8660208301866138c1565b613e936040830185613dad565b8181036060830152613ea58184613905565b905095945050505050565b6000602082019050613ec560008301846138d0565b92915050565b6000606082019050613ee060008301866138df565b8181036020830152613ef2818561396f565b9050613f0160408301846138d0565b949350505050565b60006020820190508181036000830152613f23818461396f565b905092915050565b60006020820190508181036000830152613f44816139d9565b9050919050565b60006020820190508181036000830152613f64816139fc565b9050919050565b60006020820190508181036000830152613f8481613a1f565b9050919050565b60006020820190508181036000830152613fa481613a42565b9050919050565b60006020820190508181036000830152613fc481613a65565b9050919050565b60006020820190508181036000830152613fe481613a88565b9050919050565b6000602082019050818103600083015261400481613aab565b9050919050565b6000602082019050818103600083015261402481613ace565b9050919050565b6000602082019050818103600083015261404481613af1565b9050919050565b6000602082019050818103600083015261406481613b14565b9050919050565b6000602082019050818103600083015261408481613b37565b9050919050565b600060208201905081810360008301526140a481613b5a565b9050919050565b600060208201905081810360008301526140c481613b7d565b9050919050565b600060208201905081810360008301526140e481613ba0565b9050919050565b6000602082019050818103600083015261410481613bc3565b9050919050565b6000602082019050818103600083015261412481613be6565b9050919050565b6000602082019050818103600083015261414481613c09565b9050919050565b6000602082019050818103600083015261416481613c2c565b9050919050565b6000602082019050818103600083015261418481613c4f565b9050919050565b600060208201905081810360008301526141a481613c72565b9050919050565b600060208201905081810360008301526141c481613c95565b9050919050565b600060208201905081810360008301526141e481613cb8565b9050919050565b6000602082019050818103600083015261420481613cdb565b9050919050565b6000602082019050818103600083015261422481613cfe565b9050919050565b6000602082019050818103600083015261424481613d21565b9050919050565b6000602082019050818103600083015261426481613d44565b9050919050565b6000602082019050818103600083015261428481613d67565b9050919050565b600060208201905081810360008301526142a481613d8a565b9050919050565b60006020820190506142c06000830184613dad565b92915050565b60006142d06142e1565b90506142dc828261459d565b919050565b6000604051905090565b600067ffffffffffffffff821115614306576143056146df565b5b602082029050602081019050919050565b600067ffffffffffffffff821115614332576143316146df565b5b61433b8261470e565b9050602081019050919050565b600081519050919050565b600081519050919050565b600082825260208201905092915050565b600081905092915050565b600082825260208201905092915050565b600081905092915050565b60006143a18261451f565b91506143ac8361451f565b9250827fffffffffffffffffffffffffffffffffffffffffffffffffffffffffffffffff038211156143e1576143e0614652565b5b828201905092915050565b60006143f78261451f565b91506144028361451f565b92508261441257614411614681565b5b828204905092915050565b60006144288261451f565b91506144338361451f565b9250817fffffffffffffffffffffffffffffffffffffffffffffffffffffffffffffffff048311821515161561446c5761446b614652565b5b828202905092915050565b60006144828261451f565b915061448d8361451f565b9250828210156144a05761449f614652565b5b828203905092915050565b60006144b6826144ff565b9050919050565b60008115159050919050565b6000819050919050565b60007fffffffff0000000000000000000000000000000000000000000000000000000082169050919050565b600073ffffffffffffffffffffffffffffffffffffffff82169050919050565b6000819050919050565b82818337600083830152505050565b60005b8381101561455657808201518184015260208101905061453b565b83811115614565576000848401525b50505050565b6000600282049050600182168061458357607f821691505b60208210811415614597576145966146b0565b5b50919050565b6145a68261470e565b810181811067ffffffffffffffff821117156145c5576145c46146df565b5b80604052505050565b60006145d98261451f565b91507fffffffffffffffffffffffffffffffffffffffffffffffffffffffffffffffff82141561460c5761460b614652565b5b600182019050919050565b6000819050919050565b600061462c8261451f565b91506146378361451f565b92508261464757614646614681565b5b828206905092915050565b7f4e487b7100000000000000000000000000000000000000000000000000000000600052601160045260246000fd5b7f4e487b7100000000000000000000000000000000000000000000000000000000600052601260045260246000fd5b7f4e487b7100000000000000000000000000000000000000000000000000000000600052602260045260246000fd5b7f4e487b7100000000000000000000000000000000000000000000000000000000600052604160045260246000fd5b6000601f19601f8301169050919050565b7f726573756c74206e6f74207375636365737366756c0000000000000000000000600082015250565b7f4e6f7420656e6f75676820737570706c79000000000000000000000000000000600082015250565b7f455243373231456e756d657261626c653a206f776e657220696e646578206f7560008201527f74206f6620626f756e6473000000000000000000000000000000000000000000602082015250565b7f4552433732313a207472616e7366657220746f206e6f6e20455243373231526560008201527f63656976657220696d706c656d656e7465720000000000000000000000000000602082015250565b7f5265766572746564206e6f742061637469766500000000000000000000000000600082015250565b7f616c726561647920636f6d706c65746564000000000000000000000000000000600082015250565b7f4f776e61626c653a206e6577206f776e657220697320746865207a65726f206160008201527f6464726573730000000000000000000000000000000000000000000000000000602082015250565b7f4552433732313a207472616e736665722066726f6d20696e636f72726563742060008201527f6f776e6572000000000000000000000000000000000000000000000000000000602082015250565b7f4552433732313a20746f6b656e20616c7265616479206d696e74656400000000600082015250565b7f4e6f7420656e6f7567682062616c616e636520746f2077697468647261770000600082015250565b7f57726f6e67206f776e6572000000000000000000000000000000000000000000600082015250565b7f4552433732313a207472616e7366657220746f20746865207a65726f2061646460008201527f7265737300000000000000000000000000000000000000000000000000000000602082015250565b7f4552433732313a20617070726f766520746f2063616c6c657200000000000000600082015250565b7f56616c75652069732077726f6e6720666f72206d696e74000000000000000000600082015250565b7f4552433732313a206f70657261746f7220717565727920666f72206e6f6e657860008201527f697374656e7420746f6b656e0000000000000000000000000000000000000000602082015250565b7f416c726561647920636c61696d656420666f7220746f6b656e00000000000000600082015250565b7f4552433732313a20617070726f76652063616c6c6572206973206e6f74206f7760008201527f6e6572206e6f7220617070726f76656420666f7220616c6c0000000000000000602082015250565b7f4552433732313a2062616c616e636520717565727920666f7220746865207a6560008201527f726f206164647265737300000000000000000000000000000000000000000000602082015250565b7f4552433732313a206f776e657220717565727920666f72206e6f6e657869737460008201527f656e7420746f6b656e0000000000000000000000000000000000000000000000602082015250565b7f4552433732313a206d696e7420746f20746865207a65726f2061646472657373600082015250565b7f4552433732313a20617070726f76656420717565727920666f72206e6f6e657860008201527f697374656e7420746f6b656e0000000000000000000000000000000000000000602082015250565b7f4e6f7420636f6d706c6574656400000000000000000000000000000000000000600082015250565b7f4f776e61626c653a2063616c6c6572206973206e6f7420746865206f776e6572600082015250565b7f4552433732314d657461646174613a2055524920717565727920666f72206e6f60008201527f6e6578697374656e7420746f6b656e0000000000000000000000000000000000602082015250565b7f4552433732313a20617070726f76616c20746f2063757272656e74206f776e6560008201527f7200000000000000000000000000000000000000000000000000000000000000602082015250565b7f4552433732313a207472616e736665722063616c6c6572206973206e6f74206f60008201527f776e6572206e6f7220617070726f766564000000000000000000000000000000602082015250565b7f455243373231456e756d657261626c653a20676c6f62616c20696e646578206f60008201527f7574206f6620626f756e64730000000000000000000000000000000000000000602082015250565b7f63616c6c206e6f74207375636365737366756c00000000000000000000000000600082015250565b614db8816144ab565b8114614dc357600080fd5b50565b614dcf816144bd565b8114614dda57600080fd5b50565b614de6816144d3565b8114614df157600080fd5b50565b614dfd8161451f565b8114614e0857600080fd5b5056fea26469706673582212205a97c97b485aac96995f4a57728bc70abc7d1537ff5200053cfc585e938f908a64736f6c63430008040033",
  "devdoc": {
    "kind": "dev",
    "methods": {
      "approve(address,uint256)": {
        "details": "See {IERC721-approve}."
      },
      "balanceOf(address)": {
        "details": "See {IERC721-balanceOf}."
      },
      "getApproved(uint256)": {
        "details": "See {IERC721-getApproved}."
      },
      "isApprovedForAll(address,address)": {
        "details": "See {IERC721-isApprovedForAll}."
      },
      "name()": {
        "details": "See {IERC721Metadata-name}."
      },
      "owner()": {
        "details": "Returns the address of the current owner."
      },
      "ownerOf(uint256)": {
        "details": "See {IERC721-ownerOf}."
      },
      "renounceOwnership()": {
        "details": "Leaves the contract without owner. It will not be possible to call `onlyOwner` functions anymore. Can only be called by the current owner. NOTE: Renouncing ownership will leave the contract without an owner, thereby removing any functionality that is only available to the owner."
      },
      "safeTransferFrom(address,address,uint256)": {
        "details": "See {IERC721-safeTransferFrom}."
      },
      "safeTransferFrom(address,address,uint256,bytes)": {
        "details": "See {IERC721-safeTransferFrom}."
      },
      "setApprovalForAll(address,bool)": {
        "details": "See {IERC721-setApprovalForAll}."
      },
      "symbol()": {
        "details": "See {IERC721Metadata-symbol}."
      },
      "tokenByIndex(uint256)": {
        "details": "See {IERC721Enumerable-tokenByIndex}."
      },
      "tokenOfOwnerByIndex(address,uint256)": {
        "details": "See {IERC721Enumerable-tokenOfOwnerByIndex}."
      },
      "tokenURI(uint256)": {
        "details": "See {IERC721Metadata-tokenURI}."
      },
      "totalSupply()": {
        "details": "See {IERC721Enumerable-totalSupply}."
      },
      "transferFrom(address,address,uint256)": {
        "details": "See {IERC721-transferFrom}."
      },
      "transferOwnership(address)": {
        "details": "Transfers ownership of the contract to a new account (`newOwner`). Can only be called by the current owner."
      }
    },
    "version": 1
  },
  "userdoc": {
    "kind": "user",
    "methods": {},
    "version": 1
  },
  "storageLayout": {
    "storage": [
      {
        "astId": 130,
        "contract": "contracts/MyNFT.sol:MyNFT",
        "label": "_name",
        "offset": 0,
        "slot": "0",
        "type": "t_string_storage"
      },
      {
        "astId": 132,
        "contract": "contracts/MyNFT.sol:MyNFT",
        "label": "_symbol",
        "offset": 0,
        "slot": "1",
        "type": "t_string_storage"
      },
      {
        "astId": 136,
        "contract": "contracts/MyNFT.sol:MyNFT",
        "label": "_owners",
        "offset": 0,
        "slot": "2",
        "type": "t_mapping(t_uint256,t_address)"
      },
      {
        "astId": 140,
        "contract": "contracts/MyNFT.sol:MyNFT",
        "label": "_balances",
        "offset": 0,
        "slot": "3",
        "type": "t_mapping(t_address,t_uint256)"
      },
      {
        "astId": 144,
        "contract": "contracts/MyNFT.sol:MyNFT",
        "label": "_tokenApprovals",
        "offset": 0,
        "slot": "4",
        "type": "t_mapping(t_uint256,t_address)"
      },
      {
        "astId": 150,
        "contract": "contracts/MyNFT.sol:MyNFT",
        "label": "_operatorApprovals",
        "offset": 0,
        "slot": "5",
        "type": "t_mapping(t_address,t_mapping(t_address,t_bool))"
      },
      {
        "astId": 1119,
        "contract": "contracts/MyNFT.sol:MyNFT",
        "label": "_ownedTokens",
        "offset": 0,
        "slot": "6",
        "type": "t_mapping(t_address,t_mapping(t_uint256,t_uint256))"
      },
      {
        "astId": 1123,
        "contract": "contracts/MyNFT.sol:MyNFT",
        "label": "_ownedTokensIndex",
        "offset": 0,
        "slot": "7",
        "type": "t_mapping(t_uint256,t_uint256)"
      },
      {
        "astId": 1126,
        "contract": "contracts/MyNFT.sol:MyNFT",
        "label": "_allTokens",
        "offset": 0,
        "slot": "8",
        "type": "t_array(t_uint256)dyn_storage"
      },
      {
        "astId": 1130,
        "contract": "contracts/MyNFT.sol:MyNFT",
        "label": "_allTokensIndex",
        "offset": 0,
        "slot": "9",
        "type": "t_mapping(t_uint256,t_uint256)"
      },
      {
        "astId": 7,
        "contract": "contracts/MyNFT.sol:MyNFT",
        "label": "_owner",
        "offset": 0,
        "slot": "10",
        "type": "t_address"
      },
      {
        "astId": 2390,
        "contract": "contracts/MyNFT.sol:MyNFT",
        "label": "reverted",
        "offset": 20,
        "slot": "10",
        "type": "t_bool"
      },
      {
        "astId": 2392,
        "contract": "contracts/MyNFT.sol:MyNFT",
        "label": "reservedAmount",
        "offset": 0,
        "slot": "11",
        "type": "t_uint256"
      },
      {
        "astId": 2394,
        "contract": "contracts/MyNFT.sol:MyNFT",
        "label": "mintPrice",
        "offset": 0,
        "slot": "12",
        "type": "t_uint256"
      },
      {
        "astId": 2398,
        "contract": "contracts/MyNFT.sol:MyNFT",
        "label": "claimed",
        "offset": 0,
        "slot": "13",
        "type": "t_mapping(t_uint256,t_bool)"
      },
      {
        "astId": 2419,
        "contract": "contracts/MyNFT.sol:MyNFT",
        "label": "steps",
        "offset": 0,
        "slot": "14",
        "type": "t_array(t_struct(Step)2405_storage)dyn_storage"
      },
      {
        "astId": 2161,
        "contract": "contracts/MyNFT.sol:MyNFT",
        "label": "apeSent",
        "offset": 0,
        "slot": "15",
        "type": "t_bool"
      },
      {
        "astId": 2164,
        "contract": "contracts/MyNFT.sol:MyNFT",
        "label": "charitySent",
        "offset": 1,
        "slot": "15",
        "type": "t_bool"
      },
      {
        "astId": 2167,
        "contract": "contracts/MyNFT.sol:MyNFT",
        "label": "governanceApproved",
        "offset": 2,
        "slot": "15",
        "type": "t_bool"
      },
      {
        "astId": 2170,
        "contract": "contracts/MyNFT.sol:MyNFT",
        "label": "_tokenIdCounter",
        "offset": 0,
        "slot": "16",
        "type": "t_struct(Counter)1823_storage"
      }
    ],
    "types": {
      "t_address": {
        "encoding": "inplace",
        "label": "address",
        "numberOfBytes": "20"
      },
      "t_array(t_struct(Step)2405_storage)dyn_storage": {
        "base": "t_struct(Step)2405_storage",
        "encoding": "dynamic_array",
        "label": "struct Roadmap.Step[]",
        "numberOfBytes": "32"
      },
      "t_array(t_uint256)dyn_storage": {
        "base": "t_uint256",
        "encoding": "dynamic_array",
        "label": "uint256[]",
        "numberOfBytes": "32"
      },
      "t_bool": {
        "encoding": "inplace",
        "label": "bool",
        "numberOfBytes": "1"
      },
      "t_bytes32": {
        "encoding": "inplace",
        "label": "bytes32",
        "numberOfBytes": "32"
      },
      "t_mapping(t_address,t_bool)": {
        "encoding": "mapping",
        "key": "t_address",
        "label": "mapping(address => bool)",
        "numberOfBytes": "32",
        "value": "t_bool"
      },
      "t_mapping(t_address,t_mapping(t_address,t_bool))": {
        "encoding": "mapping",
        "key": "t_address",
        "label": "mapping(address => mapping(address => bool))",
        "numberOfBytes": "32",
        "value": "t_mapping(t_address,t_bool)"
      },
      "t_mapping(t_address,t_mapping(t_uint256,t_uint256))": {
        "encoding": "mapping",
        "key": "t_address",
        "label": "mapping(address => mapping(uint256 => uint256))",
        "numberOfBytes": "32",
        "value": "t_mapping(t_uint256,t_uint256)"
      },
      "t_mapping(t_address,t_uint256)": {
        "encoding": "mapping",
        "key": "t_address",
        "label": "mapping(address => uint256)",
        "numberOfBytes": "32",
        "value": "t_uint256"
      },
      "t_mapping(t_uint256,t_address)": {
        "encoding": "mapping",
        "key": "t_uint256",
        "label": "mapping(uint256 => address)",
        "numberOfBytes": "32",
        "value": "t_address"
      },
      "t_mapping(t_uint256,t_bool)": {
        "encoding": "mapping",
        "key": "t_uint256",
        "label": "mapping(uint256 => bool)",
        "numberOfBytes": "32",
        "value": "t_bool"
      },
      "t_mapping(t_uint256,t_uint256)": {
        "encoding": "mapping",
        "key": "t_uint256",
        "label": "mapping(uint256 => uint256)",
        "numberOfBytes": "32",
        "value": "t_uint256"
      },
      "t_string_storage": {
        "encoding": "bytes",
        "label": "string",
        "numberOfBytes": "32"
      },
      "t_struct(Counter)1823_storage": {
        "encoding": "inplace",
        "label": "struct Counters.Counter",
        "members": [
          {
            "astId": 1822,
            "contract": "contracts/MyNFT.sol:MyNFT",
            "label": "_value",
            "offset": 0,
            "slot": "0",
            "type": "t_uint256"
          }
        ],
        "numberOfBytes": "32"
      },
      "t_struct(Step)2405_storage": {
        "encoding": "inplace",
        "label": "struct Roadmap.Step",
        "members": [
          {
            "astId": 2400,
            "contract": "contracts/MyNFT.sol:MyNFT",
            "label": "data",
            "offset": 0,
            "slot": "0",
            "type": "t_bytes32"
          },
          {
            "astId": 2402,
            "contract": "contracts/MyNFT.sol:MyNFT",
            "label": "message",
            "offset": 0,
            "slot": "1",
            "type": "t_string_storage"
          },
          {
            "astId": 2404,
            "contract": "contracts/MyNFT.sol:MyNFT",
            "label": "completed",
            "offset": 0,
            "slot": "2",
            "type": "t_bool"
          }
        ],
        "numberOfBytes": "96"
      },
      "t_uint256": {
        "encoding": "inplace",
        "label": "uint256",
        "numberOfBytes": "32"
      }
    }
  }
}