{
  "address": "0xdaf9928ffA65b9b94EbDb7D4F161541827515a10",
  "abi": [
    {
      "inputs": [],
      "stateMutability": "nonpayable",
      "type": "constructor"
    },
    {
      "anonymous": false,
      "inputs": [
        {
          "indexed": true,
          "internalType": "address",
          "name": "owner",
          "type": "address"
        },
        {
          "indexed": true,
          "internalType": "address",
          "name": "approved",
          "type": "address"
        },
        {
          "indexed": true,
          "internalType": "uint256",
          "name": "tokenId",
          "type": "uint256"
        }
      ],
      "name": "Approval",
      "type": "event"
    },
    {
      "anonymous": false,
      "inputs": [
        {
          "indexed": true,
          "internalType": "address",
          "name": "owner",
          "type": "address"
        },
        {
          "indexed": true,
          "internalType": "address",
          "name": "operator",
          "type": "address"
        },
        {
          "indexed": false,
          "internalType": "bool",
          "name": "approved",
          "type": "bool"
        }
      ],
      "name": "ApprovalForAll",
      "type": "event"
    },
    {
      "anonymous": false,
      "inputs": [
        {
          "indexed": true,
          "internalType": "address",
          "name": "previousOwner",
          "type": "address"
        },
        {
          "indexed": true,
          "internalType": "address",
          "name": "newOwner",
          "type": "address"
        }
      ],
      "name": "OwnershipTransferred",
      "type": "event"
    },
    {
      "anonymous": false,
      "inputs": [
        {
          "indexed": false,
          "internalType": "bytes32",
          "name": "data",
          "type": "bytes32"
        },
        {
          "indexed": false,
          "internalType": "string",
          "name": "message",
          "type": "string"
        }
      ],
      "name": "StepCreated",
      "type": "event"
    },
    {
      "anonymous": false,
      "inputs": [
        {
          "indexed": false,
          "internalType": "uint256",
          "name": "stepId",
          "type": "uint256"
        }
      ],
      "name": "StepExecuted",
      "type": "event"
    },
    {
      "anonymous": false,
      "inputs": [
        {
          "indexed": true,
          "internalType": "address",
          "name": "from",
          "type": "address"
        },
        {
          "indexed": true,
          "internalType": "address",
          "name": "to",
          "type": "address"
        },
        {
          "indexed": true,
          "internalType": "uint256",
          "name": "tokenId",
          "type": "uint256"
        }
      ],
      "name": "Transfer",
      "type": "event"
    },
    {
      "inputs": [],
      "name": "MINT_PRICE",
      "outputs": [
        {
          "internalType": "uint256",
          "name": "",
          "type": "uint256"
        }
      ],
      "stateMutability": "view",
      "type": "function"
    },
    {
      "inputs": [],
      "name": "abort",
      "outputs": [],
      "stateMutability": "nonpayable",
      "type": "function"
    },
    {
      "inputs": [],
      "name": "apeIsSent",
      "outputs": [
        {
          "internalType": "bool",
          "name": "",
          "type": "bool"
        }
      ],
      "stateMutability": "view",
      "type": "function"
    },
    {
      "inputs": [
        {
          "internalType": "address",
          "name": "to",
          "type": "address"
        },
        {
          "internalType": "uint256",
          "name": "tokenId",
          "type": "uint256"
        }
      ],
      "name": "approve",
      "outputs": [],
      "stateMutability": "nonpayable",
      "type": "function"
    },
    {
      "inputs": [
        {
          "internalType": "address",
          "name": "owner",
          "type": "address"
        }
      ],
      "name": "balanceOf",
      "outputs": [
        {
          "internalType": "uint256",
          "name": "",
          "type": "uint256"
        }
      ],
      "stateMutability": "view",
      "type": "function"
    },
    {
      "inputs": [],
      "name": "charityIsSent",
      "outputs": [
        {
          "internalType": "bool",
          "name": "",
          "type": "bool"
        }
      ],
      "stateMutability": "view",
      "type": "function"
    },
    {
      "inputs": [
        {
          "internalType": "uint256[]",
          "name": "tokenIds",
          "type": "uint256[]"
        }
      ],
      "name": "claimRefund",
      "outputs": [],
      "stateMutability": "nonpayable",
      "type": "function"
    },
    {
      "inputs": [
        {
          "internalType": "uint256[]",
          "name": "tokenIds",
          "type": "uint256[]"
        }
      ],
      "name": "claimableAmount",
      "outputs": [
        {
          "internalType": "uint256",
          "name": "",
          "type": "uint256"
        }
      ],
      "stateMutability": "view",
      "type": "function"
    },
    {
      "inputs": [
        {
          "internalType": "uint256",
          "name": "stepId",
          "type": "uint256"
        }
      ],
      "name": "executeStep",
      "outputs": [],
      "stateMutability": "nonpayable",
      "type": "function"
    },
    {
      "inputs": [
        {
          "internalType": "uint256",
          "name": "tokenId",
          "type": "uint256"
        }
      ],
      "name": "getApproved",
      "outputs": [
        {
          "internalType": "address",
          "name": "",
          "type": "address"
        }
      ],
      "stateMutability": "view",
      "type": "function"
    },
    {
      "inputs": [],
      "name": "governanceIsApproved",
      "outputs": [
        {
          "internalType": "bool",
          "name": "",
          "type": "bool"
        }
      ],
      "stateMutability": "view",
      "type": "function"
    },
    {
      "inputs": [
        {
          "internalType": "address",
          "name": "owner",
          "type": "address"
        },
        {
          "internalType": "address",
          "name": "operator",
          "type": "address"
        }
      ],
      "name": "isApprovedForAll",
      "outputs": [
        {
          "internalType": "bool",
          "name": "",
          "type": "bool"
        }
      ],
      "stateMutability": "view",
      "type": "function"
    },
    {
      "inputs": [
        {
          "internalType": "address",
          "name": "to",
          "type": "address"
        },
        {
          "internalType": "uint256",
          "name": "quantity",
          "type": "uint256"
        }
      ],
      "name": "mint",
      "outputs": [],
      "stateMutability": "payable",
      "type": "function"
    },
    {
      "inputs": [],
      "name": "mintProgress",
      "outputs": [
        {
          "internalType": "bool",
          "name": "",
          "type": "bool"
        }
      ],
      "stateMutability": "view",
      "type": "function"
    },
    {
      "inputs": [],
      "name": "name",
      "outputs": [
        {
          "internalType": "string",
          "name": "",
          "type": "string"
        }
      ],
      "stateMutability": "view",
      "type": "function"
    },
    {
      "inputs": [],
      "name": "owner",
      "outputs": [
        {
          "internalType": "address",
          "name": "",
          "type": "address"
        }
      ],
      "stateMutability": "view",
      "type": "function"
    },
    {
      "inputs": [
        {
          "internalType": "uint256",
          "name": "tokenId",
          "type": "uint256"
        }
      ],
      "name": "ownerOf",
      "outputs": [
        {
          "internalType": "address",
          "name": "",
          "type": "address"
        }
      ],
      "stateMutability": "view",
      "type": "function"
    },
    {
      "inputs": [
        {
          "internalType": "bytes32",
          "name": "identifier",
          "type": "bytes32"
        },
        {
          "internalType": "uint256",
          "name": "timestamp",
          "type": "uint256"
        },
        {
          "internalType": "bytes",
          "name": "ancillaryData",
          "type": "bytes"
        },
        {
          "internalType": "int256",
          "name": "price",
          "type": "int256"
        }
      ],
      "name": "priceSettled",
      "outputs": [],
      "stateMutability": "nonpayable",
      "type": "function"
    },
    {
      "inputs": [],
      "name": "renounceOwnership",
      "outputs": [],
      "stateMutability": "nonpayable",
      "type": "function"
    },
    {
      "inputs": [],
      "name": "requestGovernanceCheck",
      "outputs": [],
      "stateMutability": "nonpayable",
      "type": "function"
    },
    {
      "inputs": [],
      "name": "reverted",
      "outputs": [
        {
          "internalType": "bool",
          "name": "",
          "type": "bool"
        }
      ],
      "stateMutability": "view",
      "type": "function"
    },
    {
      "inputs": [
        {
          "internalType": "address",
          "name": "from",
          "type": "address"
        },
        {
          "internalType": "address",
          "name": "to",
          "type": "address"
        },
        {
          "internalType": "uint256",
          "name": "tokenId",
          "type": "uint256"
        }
      ],
      "name": "safeTransferFrom",
      "outputs": [],
      "stateMutability": "nonpayable",
      "type": "function"
    },
    {
      "inputs": [
        {
          "internalType": "address",
          "name": "from",
          "type": "address"
        },
        {
          "internalType": "address",
          "name": "to",
          "type": "address"
        },
        {
          "internalType": "uint256",
          "name": "tokenId",
          "type": "uint256"
        },
        {
          "internalType": "bytes",
          "name": "_data",
          "type": "bytes"
        }
      ],
      "name": "safeTransferFrom",
      "outputs": [],
      "stateMutability": "nonpayable",
      "type": "function"
    },
    {
      "inputs": [
        {
          "internalType": "address",
          "name": "newOwner",
          "type": "address"
        }
      ],
      "name": "sendApe",
      "outputs": [],
      "stateMutability": "nonpayable",
      "type": "function"
    },
    {
      "inputs": [],
      "name": "sendToCharity",
      "outputs": [],
      "stateMutability": "nonpayable",
      "type": "function"
    },
    {
      "inputs": [
        {
          "internalType": "address",
          "name": "operator",
          "type": "address"
        },
        {
          "internalType": "bool",
          "name": "approved",
          "type": "bool"
        }
      ],
      "name": "setApprovalForAll",
      "outputs": [],
      "stateMutability": "nonpayable",
      "type": "function"
    },
    {
      "inputs": [
        {
          "internalType": "uint256",
          "name": "",
          "type": "uint256"
        }
      ],
      "name": "steps",
      "outputs": [
        {
          "internalType": "bytes32",
          "name": "data",
          "type": "bytes32"
        },
        {
          "internalType": "string",
          "name": "message",
          "type": "string"
        },
        {
          "internalType": "bool",
          "name": "completed",
          "type": "bool"
        }
      ],
      "stateMutability": "view",
      "type": "function"
    },
    {
      "inputs": [],
      "name": "stepsCompleted",
      "outputs": [
        {
          "internalType": "uint256",
          "name": "completed",
          "type": "uint256"
        }
      ],
      "stateMutability": "view",
      "type": "function"
    },
    {
      "inputs": [
        {
          "internalType": "bytes4",
          "name": "interfaceId",
          "type": "bytes4"
        }
      ],
      "name": "supportsInterface",
      "outputs": [
        {
          "internalType": "bool",
          "name": "",
          "type": "bool"
        }
      ],
      "stateMutability": "view",
      "type": "function"
    },
    {
      "inputs": [],
      "name": "symbol",
      "outputs": [
        {
          "internalType": "string",
          "name": "",
          "type": "string"
        }
      ],
      "stateMutability": "view",
      "type": "function"
    },
    {
      "inputs": [
        {
          "internalType": "uint256",
          "name": "index",
          "type": "uint256"
        }
      ],
      "name": "tokenByIndex",
      "outputs": [
        {
          "internalType": "uint256",
          "name": "",
          "type": "uint256"
        }
      ],
      "stateMutability": "view",
      "type": "function"
    },
    {
      "inputs": [
        {
          "internalType": "address",
          "name": "owner",
          "type": "address"
        },
        {
          "internalType": "uint256",
          "name": "index",
          "type": "uint256"
        }
      ],
      "name": "tokenOfOwnerByIndex",
      "outputs": [
        {
          "internalType": "uint256",
          "name": "",
          "type": "uint256"
        }
      ],
      "stateMutability": "view",
      "type": "function"
    },
    {
      "inputs": [
        {
          "internalType": "uint256",
          "name": "tokenId",
          "type": "uint256"
        }
      ],
      "name": "tokenURI",
      "outputs": [
        {
          "internalType": "string",
          "name": "",
          "type": "string"
        }
      ],
      "stateMutability": "view",
      "type": "function"
    },
    {
      "inputs": [],
      "name": "totalSupply",
      "outputs": [
        {
          "internalType": "uint256",
          "name": "",
          "type": "uint256"
        }
      ],
      "stateMutability": "view",
      "type": "function"
    },
    {
      "inputs": [
        {
          "internalType": "address",
          "name": "from",
          "type": "address"
        },
        {
          "internalType": "address",
          "name": "to",
          "type": "address"
        },
        {
          "internalType": "uint256",
          "name": "tokenId",
          "type": "uint256"
        }
      ],
      "name": "transferFrom",
      "outputs": [],
      "stateMutability": "nonpayable",
      "type": "function"
    },
    {
      "inputs": [
        {
          "internalType": "address",
          "name": "newOwner",
          "type": "address"
        }
      ],
      "name": "transferOwnership",
      "outputs": [],
      "stateMutability": "nonpayable",
      "type": "function"
    },
    {
      "inputs": [],
      "name": "withdrawFunds",
      "outputs": [],
      "stateMutability": "nonpayable",
      "type": "function"
    }
  ],
  "transactionHash": "0x4fb155376e32f6d6a812cfc4c19b459387d509d00b866a2347340c938d17a5b6",
  "args": [],
  "numDeployments": 4,
  "solcInputHash": "5dea8324396ef54438b9090751145215",
  "bytecode": "0x60806040526000600a60146101000a81548160ff0219169083151502179055506000600f60006101000a81548160ff0219169083151502179055506000600f60016101000a81548160ff0219169083151502179055506000600f60026101000a81548160ff0219169083151502179055506040518060800160405280605e8152602001620060f9605e913960109080519060200190620000a1929190620005eb565b50604051806060016040528060408152602001620060b96040913960119080519060200190620000d3929190620005eb565b5060106011604051602001620000eb92919062000859565b60405160208183030381529060405260129080519060200190620001119291906200067c565b507f5945535f4f525f4e4f5f515545525900000000000000000000000000000000006013553480156200014357600080fd5b506729a2241af62c000067016345785d8a00006040518060400160405280600781526020017f4d79546f6b656e000000000000000000000000000000000000000000000000008152506040518060400160405280600381526020017f4d544b00000000000000000000000000000000000000000000000000000000008152508160009080519060200190620001da929190620005eb565b508060019080519060200190620001f3929190620005eb565b505050620002166200020a6200041c60201b60201c565b6200042460201b60201c565b81600b8190555080600c819055505050620002a26040518060400160405280601681526020017f676f7665726e616e63654973417070726f7665642829000000000000000000008152506040518060400160405280601381526020017f476f7665726e616e636520617070726f76616c00000000000000000000000000815250620004ea60201b60201c565b6200031e6040518060400160405280600e81526020017f6d696e7450726f677265737328290000000000000000000000000000000000008152506040518060400160405280600b81526020017f48616c66206d696e746564000000000000000000000000000000000000000000815250620004ea60201b60201c565b6200039a6040518060400160405280600b81526020017f617065497353656e7428290000000000000000000000000000000000000000008152506040518060400160405280601181526020017f424159432073656e7420746f2075736572000000000000000000000000000000815250620004ea60201b60201c565b620004166040518060400160405280600f81526020017f63686172697479497353656e74282900000000000000000000000000000000008152506040518060400160405280600c81526020017f436861726974792073656e740000000000000000000000000000000000000000815250620004ea60201b60201c565b620009a7565b600033905090565b6000600a60009054906101000a900473ffffffffffffffffffffffffffffffffffffffff16905081600a60006101000a81548173ffffffffffffffffffffffffffffffffffffffff021916908373ffffffffffffffffffffffffffffffffffffffff1602179055508173ffffffffffffffffffffffffffffffffffffffff168173ffffffffffffffffffffffffffffffffffffffff167f8be0079c531659141344cd1fd0a4f28419497f9722a3daafe3b4186f6b6457e060405160405180910390a35050565b600082604051602001620004ff919062000840565b604051602081830303815290604052805190602001209050600e604051806060016040528083815260200184815260200160001515815250908060018154018082558091505060019003906000526020600020906003020160009091909190915060008201518160000155602082015181600101908051906020019062000588929190620005eb565b5060408201518160020160006101000a81548160ff02191690831515021790555050507fca729272cde0dd3fe1a318c7526cdb798b16b524780aacd4fe24b04c87954fd48183604051620005de92919062000881565b60405180910390a1505050565b828054620005f99062000931565b90600052602060002090601f0160209004810192826200061d576000855562000669565b82601f106200063857805160ff191683800117855562000669565b8280016001018555821562000669579182015b82811115620006685782518255916020019190600101906200064b565b5b5090506200067891906200070d565b5090565b8280546200068a9062000931565b90600052602060002090601f016020900481019282620006ae5760008555620006fa565b82601f10620006c957805160ff1916838001178555620006fa565b82800160010185558215620006fa579182015b82811115620006f9578251825591602001919060010190620006dc565b5b5090506200070991906200070d565b5090565b5b80821115620007285760008160009055506001016200070e565b5090565b6200073781620008f1565b82525050565b60006200074a82620008ca565b620007568185620008d5565b935062000768818560208601620008fb565b620007738162000996565b840191505092915050565b60006200078b82620008ca565b620007978185620008e6565b9350620007a9818560208601620008fb565b80840191505092915050565b60008154620007c48162000931565b620007d08186620008e6565b94506001821660008114620007ee5760018114620008005762000837565b60ff1983168652818601935062000837565b6200080b85620008b5565b60005b838110156200082f578154818901526001820191506020810190506200080e565b838801955050505b50505092915050565b60006200084e82846200077e565b915081905092915050565b6000620008678285620007b5565b9150620008758284620007b5565b91508190509392505050565b60006040820190506200089860008301856200072c565b8181036020830152620008ac81846200073d565b90509392505050565b60008190508160005260206000209050919050565b600081519050919050565b600082825260208201905092915050565b600081905092915050565b6000819050919050565b60005b838110156200091b578082015181840152602081019050620008fe565b838111156200092b576000848401525b50505050565b600060028204905060018216806200094a57607f821691505b6020821081141562000961576200096062000967565b5b50919050565b7f4e487b7100000000000000000000000000000000000000000000000000000000600052602260045260246000fd5b6000601f19601f8301169050919050565b61570280620009b76000396000f3fe60806040526004361061021a5760003560e01c806370a0823111610123578063b88d4fde116100ab578063d7e5d8ac1161006f578063d7e5d8ac146107c8578063e3389f09146107df578063e985e9c5146107f6578063f2fde38b14610833578063f54a6f831461085c5761021a565b8063b88d4fde146106e1578063bc0af82a1461070a578063bf5febca14610735578063c002d23d14610760578063c87b56dd1461078b5761021a565b8063867fc17a116100f2578063867fc17a1461060e5780638da5cb5b1461063757806395d89b4114610662578063a22cb4651461068d578063b64c7a73146106b65761021a565b806370a0823114610552578063715018a61461058f5780637217e0b9146105a657806378ebce48146105e55761021a565b80632f745c59116101a65780634bdfc736116101755780634bdfc736146104455780634f6ccce71461048257806356b16953146104bf5780636352211e146104ea578063637eb40b146105275761021a565b80632f745c59146103ac57806335a063b4146103e957806340c10f191461040057806342842e0e1461041c5761021a565b8063095ea7b3116101ed578063095ea7b3146102ed57806316e3c7491461031657806318160ddd1461034157806323b872dd1461036c57806324600fc3146103955761021a565b806301ffc9a71461021f57806304cc1fd51461025c57806306fdde0314610285578063081812fc146102b0575b600080fd5b34801561022b57600080fd5b5061024660048036038101906102419190613cad565b610885565b604051610253919061449f565b60405180910390f35b34801561026857600080fd5b50610283600480360381019061027e9190613c32565b610897565b005b34801561029157600080fd5b5061029a610a19565b6040516102a791906145f8565b60405180910390f35b3480156102bc57600080fd5b506102d760048036038101906102d29190613cff565b610aab565b6040516102e49190614401565b60405180910390f35b3480156102f957600080fd5b50610314600480360381019061030f9190613bb5565b610b30565b005b34801561032257600080fd5b5061032b610c48565b604051610338919061449f565b60405180910390f35b34801561034d57600080fd5b50610356610c4d565b6040516103639190614a33565b60405180910390f35b34801561037857600080fd5b50610393600480360381019061038e9190613aaf565b610c5a565b005b3480156103a157600080fd5b506103aa610cba565b005b3480156103b857600080fd5b506103d360048036038101906103ce9190613bb5565b610e41565b6040516103e09190614a33565b60405180910390f35b3480156103f557600080fd5b506103fe610ee6565b005b61041a60048036038101906104159190613bb5565b610f7f565b005b34801561042857600080fd5b50610443600480360381019061043e9190613aaf565b611076565b005b34801561045157600080fd5b5061046c60048036038101906104679190613bf1565b611096565b6040516104799190614a33565b60405180910390f35b34801561048e57600080fd5b506104a960048036038101906104a49190613cff565b61129e565b6040516104b69190614a33565b60405180910390f35b3480156104cb57600080fd5b506104d4611335565b6040516104e1919061449f565b60405180910390f35b3480156104f657600080fd5b50610511600480360381019061050c9190613cff565b611354565b60405161051e9190614401565b60405180910390f35b34801561053357600080fd5b5061053c611406565b604051610549919061449f565b60405180910390f35b34801561055e57600080fd5b5061057960048036038101906105749190613a21565b61141d565b6040516105869190614a33565b60405180910390f35b34801561059b57600080fd5b506105a46114d5565b005b3480156105b257600080fd5b506105cd60048036038101906105c89190613cff565b61155d565b6040516105dc939291906145ba565b60405180910390f35b3480156105f157600080fd5b5061060c60048036038101906106079190613a21565b61162c565b005b34801561061a57600080fd5b5061063560048036038101906106309190613cff565b6116c6565b005b34801561064357600080fd5b5061064c6119d9565b6040516106599190614401565b60405180910390f35b34801561066e57600080fd5b50610677611a03565b60405161068491906145f8565b60405180910390f35b34801561069957600080fd5b506106b460048036038101906106af9190613b79565b611a95565b005b3480156106c257600080fd5b506106cb611aab565b6040516106d89190614a33565b60405180910390f35b3480156106ed57600080fd5b5061070860048036038101906107039190613afe565b611c00565b005b34801561071657600080fd5b5061071f611c62565b60405161072c919061449f565b60405180910390f35b34801561074157600080fd5b5061074a611c75565b604051610757919061449f565b60405180910390f35b34801561076c57600080fd5b50610775611c8c565b6040516107829190614a33565b60405180910390f35b34801561079757600080fd5b506107b260048036038101906107ad9190613cff565b611c98565b6040516107bf91906145f8565b60405180910390f35b3480156107d457600080fd5b506107dd611d3f565b005b3480156107eb57600080fd5b506107f4611e41565b005b34801561080257600080fd5b5061081d60048036038101906108189190613a73565b611ff8565b60405161082a919061449f565b60405180910390f35b34801561083f57600080fd5b5061085a60048036038101906108559190613a21565b61208c565b005b34801561086857600080fd5b50610883600480360381019061087e9190613bf1565b612184565b005b600061089082612457565b9050919050565b60006108a16124d1565b90508073ffffffffffffffffffffffffffffffffffffffff163373ffffffffffffffffffffffffffffffffffffffff1614610911576040517f08c379a0000000000000000000000000000000000000000000000000000000008152600401610908906148d3565b60405180910390fd5b607b8414610954576040517f08c379a000000000000000000000000000000000000000000000000000000000815260040161094b9061461a565b60405180910390fd5b6013548514610998576040517f08c379a000000000000000000000000000000000000000000000000000000000815260040161098f906149d3565b60405180910390fd5b82805190602001208380519060200120146109e8576040517f08c379a00000000000000000000000000000000000000000000000000000000081526004016109df90614993565b60405180910390fd5b6001821415610a11576001600f60026101000a81548160ff021916908315150217905550610a12565b5b5050505050565b606060008054610a2890614d5a565b80601f0160208091040260200160405190810160405280929190818152602001828054610a5490614d5a565b8015610aa15780601f10610a7657610100808354040283529160200191610aa1565b820191906000526020600020905b815481529060010190602001808311610a8457829003601f168201915b5050505050905090565b6000610ab68261257e565b610af5576040517f08c379a0000000000000000000000000000000000000000000000000000000008152600401610aec906148f3565b60405180910390fd5b6004600083815260200190815260200160002060009054906101000a900473ffffffffffffffffffffffffffffffffffffffff169050919050565b6000610b3b82611354565b90508073ffffffffffffffffffffffffffffffffffffffff168373ffffffffffffffffffffffffffffffffffffffff161415610bac576040517f08c379a0000000000000000000000000000000000000000000000000000000008152600401610ba390614973565b60405180910390fd5b8073ffffffffffffffffffffffffffffffffffffffff16610bcb6125ea565b73ffffffffffffffffffffffffffffffffffffffff161480610bfa5750610bf981610bf46125ea565b611ff8565b5b610c39576040517f08c379a0000000000000000000000000000000000000000000000000000000008152600401610c3090614853565b60405180910390fd5b610c4383836125f2565b505050565b600090565b6000600880549050905090565b610c6b610c656125ea565b826126ab565b610caa576040517f08c379a0000000000000000000000000000000000000000000000000000000008152600401610ca1906149b3565b60405180910390fd5b610cb5838383612789565b505050565b610cc26125ea565b73ffffffffffffffffffffffffffffffffffffffff16610ce06119d9565b73ffffffffffffffffffffffffffffffffffffffff1614610d36576040517f08c379a0000000000000000000000000000000000000000000000000000000008152600401610d2d90614933565b60405180910390fd5b60005b600e80549050811015610df157600e8181548110610d80577f4e487b7100000000000000000000000000000000000000000000000000000000600052603260045260246000fd5b906000526020600020906003020160020160009054906101000a900460ff16610dde576040517f08c379a0000000000000000000000000000000000000000000000000000000008152600401610dd590614913565b60405180910390fd5b8080610de990614dbd565b915050610d39565b5060004790503373ffffffffffffffffffffffffffffffffffffffff166108fc829081150290604051600060405180830381858888f19350505050158015610e3d573d6000803e3d6000fd5b5050565b6000610e4c8361141d565b8210610e8d576040517f08c379a0000000000000000000000000000000000000000000000000000000008152600401610e849061467a565b60405180910390fd5b600660008473ffffffffffffffffffffffffffffffffffffffff1673ffffffffffffffffffffffffffffffffffffffff168152602001908152602001600020600083815260200190815260200160002054905092915050565b610eee6125ea565b73ffffffffffffffffffffffffffffffffffffffff16610f0c6119d9565b73ffffffffffffffffffffffffffffffffffffffff1614610f62576040517f08c379a0000000000000000000000000000000000000000000000000000000008152600401610f5990614933565b60405180910390fd5b6001600a60146101000a81548160ff021916908315150217905550565b60008167016345785d8a0000610f959190614bba565b9050348114610fd9576040517f08c379a0000000000000000000000000000000000000000000000000000000008152600401610fd0906147da565b60405180910390fd5b6103e882610fe5610c4d565b610fef9190614b33565b1061102f576040517f08c379a00000000000000000000000000000000000000000000000000000000081526004016110269061465a565b60405180910390fd5b60005b8281101561107057600061104660146129f0565b905061105260146129fe565b61105c8582612a14565b50808061106890614dbd565b915050611032565b50505050565b61109183838360405180602001604052806000815250611c00565b505050565b60008060009050600030905060006110ac611aab565b90506000600c548373ffffffffffffffffffffffffffffffffffffffff166318160ddd6040518163ffffffff1660e01b815260040160206040518083038186803b1580156110f957600080fd5b505afa15801561110d573d6000803e3d6000fd5b505050506040513d601f19601f820116820180604052508101906111319190613d28565b61113b9190614bba565b9050600b54811015611154576000945050505050611299565b6000600b54826111649190614c14565b905060004790508181116111ad576040517f08c379a00000000000000000000000000000000000000000000000000000000081526004016111a49061475a565b60405180910390fd5b60008573ffffffffffffffffffffffffffffffffffffffff166318160ddd6040518163ffffffff1660e01b815260040160206040518083038186803b1580156111f557600080fd5b505afa158015611209573d6000803e3d6000fd5b505050506040513d601f19601f8201168201806040525081019061122d9190613d28565b836112389190614b89565b905060005b895181101561128d57600d600082815260200190815260200160002060009054906101000a900460ff1661127a5781886112779190614b33565b97505b808061128590614dbd565b91505061123d565b50869750505050505050505b919050565b60006112a8610c4d565b82106112e9576040517f08c379a00000000000000000000000000000000000000000000000000000000081526004016112e0906149f3565b60405180910390fd5b60088281548110611323577f4e487b7100000000000000000000000000000000000000000000000000000000600052603260045260246000fd5b90600052602060002001549050919050565b600061133f610c4d565b60026103e861134e9190614b89565b11905090565b6000806002600084815260200190815260200160002060009054906101000a900473ffffffffffffffffffffffffffffffffffffffff169050600073ffffffffffffffffffffffffffffffffffffffff168173ffffffffffffffffffffffffffffffffffffffff1614156113fd576040517f08c379a00000000000000000000000000000000000000000000000000000000081526004016113f490614893565b60405180910390fd5b80915050919050565b6000600f60009054906101000a900460ff16905090565b60008073ffffffffffffffffffffffffffffffffffffffff168273ffffffffffffffffffffffffffffffffffffffff16141561148e576040517f08c379a000000000000000000000000000000000000000000000000000000000815260040161148590614873565b60405180910390fd5b600360008373ffffffffffffffffffffffffffffffffffffffff1673ffffffffffffffffffffffffffffffffffffffff168152602001908152602001600020549050919050565b6114dd6125ea565b73ffffffffffffffffffffffffffffffffffffffff166114fb6119d9565b73ffffffffffffffffffffffffffffffffffffffff1614611551576040517f08c379a000000000000000000000000000000000000000000000000000000000815260040161154890614933565b60405180910390fd5b61155b6000612a32565b565b600e818154811061156d57600080fd5b906000526020600020906003020160009150905080600001549080600101805461159690614d5a565b80601f01602080910402602001604051908101604052809291908181526020018280546115c290614d5a565b801561160f5780601f106115e45761010080835404028352916020019161160f565b820191906000526020600020905b8154815290600101906020018083116115f257829003601f168201915b5050505050908060020160009054906101000a900460ff16905083565b6116346125ea565b73ffffffffffffffffffffffffffffffffffffffff166116526119d9565b73ffffffffffffffffffffffffffffffffffffffff16146116a8576040517f08c379a000000000000000000000000000000000000000000000000000000000815260040161169f90614933565b60405180910390fd5b6001600f60006101000a81548160ff02191690831515021790555050565b6000600e8281548110611702577f4e487b7100000000000000000000000000000000000000000000000000000000600052603260045260246000fd5b90600052602060002090600302016040518060600160405290816000820154815260200160018201805461173590614d5a565b80601f016020809104026020016040519081016040528092919081815260200182805461176190614d5a565b80156117ae5780601f10611783576101008083540402835291602001916117ae565b820191906000526020600020905b81548152906001019060200180831161179157829003601f168201915b505050505081526020016002820160009054906101000a900460ff1615151515815250509050806040015115611819576040517f08c379a0000000000000000000000000000000000000000000000000000000008152600401611810906146da565b60405180910390fd5b6000803073ffffffffffffffffffffffffffffffffffffffff16836000015160405160200161184891906143ab565b60405160208183030381529060405260405161186491906143c6565b6000604051808303816000865af19150503d80600081146118a1576040519150601f19603f3d011682016040523d82523d6000602084013e6118a6565b606091505b5091509150600081516020830151915050826118f7576040517f08c379a00000000000000000000000000000000000000000000000000000000081526004016118ee90614a13565b60405180910390fd5b80611937576040517f08c379a000000000000000000000000000000000000000000000000000000000815260040161192e9061463a565b60405180910390fd5b6001600e8681548110611973577f4e487b7100000000000000000000000000000000000000000000000000000000600052603260045260246000fd5b906000526020600020906003020160020160006101000a81548160ff0219169083151502179055507f7d716790d01a64421d121f2b247366a43719c87528485b9900995183b635fe8a856040516119ca9190614a33565b60405180910390a15050505050565b6000600a60009054906101000a900473ffffffffffffffffffffffffffffffffffffffff16905090565b606060018054611a1290614d5a565b80601f0160208091040260200160405190810160405280929190818152602001828054611a3e90614d5a565b8015611a8b5780601f10611a6057610100808354040283529160200191611a8b565b820191906000526020600020905b815481529060010190602001808311611a6e57829003601f168201915b5050505050905090565b611aa7611aa06125ea565b8383612af8565b5050565b600080600090505b600e80549050811015611bfc576000600e8281548110611afc577f4e487b7100000000000000000000000000000000000000000000000000000000600052603260045260246000fd5b906000526020600020906003020160405180606001604052908160008201548152602001600182018054611b2f90614d5a565b80601f0160208091040260200160405190810160405280929190818152602001828054611b5b90614d5a565b8015611ba85780601f10611b7d57610100808354040283529160200191611ba8565b820191906000526020600020905b815481529060010190602001808311611b8b57829003601f168201915b505050505081526020016002820160009054906101000a900460ff1615151515815250509050806040015115611be857600183611be59190614b33565b92505b508080611bf490614dbd565b915050611ab3565b5090565b611c11611c0b6125ea565b836126ab565b611c50576040517f08c379a0000000000000000000000000000000000000000000000000000000008152600401611c47906149b3565b60405180910390fd5b611c5c84848484612c65565b50505050565b600a60149054906101000a900460ff1681565b6000600f60019054906101000a900460ff16905090565b67016345785d8a000081565b6060611ca38261257e565b611ce2576040517f08c379a0000000000000000000000000000000000000000000000000000000008152600401611cd990614953565b60405180910390fd5b6000611cec612cc1565b90506000815111611d0c5760405180602001604052806000815250611d37565b80611d1684612cd8565b604051602001611d279291906143dd565b6040516020818303038152906040525b915050919050565b611d476125ea565b73ffffffffffffffffffffffffffffffffffffffff16611d656119d9565b73ffffffffffffffffffffffffffffffffffffffff1614611dbb576040517f08c379a0000000000000000000000000000000000000000000000000000000008152600401611db290614933565b60405180910390fd5b6000739aa48bb538206d5d7329aafd17b63562e7c9845790508073ffffffffffffffffffffffffffffffffffffffff166108fc67016345785d8a00009081150290604051600060405180830381858888f19350505050158015611e22573d6000803e3d6000fd5b506001600f60016101000a81548160ff02191690831515021790555050565b6000611e4b6124d1565b9050600073eb8f08a975ab53e34d8a0330e0d34de942c9592690508173ffffffffffffffffffffffffffffffffffffffff166311df92f1601354607b601285671bc16d674ec800006040518663ffffffff1660e01b8152600401611eb3959493929190614560565b602060405180830381600087803b158015611ecd57600080fd5b505af1158015611ee1573d6000803e3d6000fd5b505050506040513d601f19601f82011682018060405250810190611f059190613d28565b508173ffffffffffffffffffffffffffffffffffffffff1663120698af601354607b60126040518463ffffffff1660e01b8152600401611f47939291906144ba565b600060405180830381600087803b158015611f6157600080fd5b505af1158015611f75573d6000803e3d6000fd5b505050508173ffffffffffffffffffffffffffffffffffffffff1663f327b075601354607b601260006001806040518763ffffffff1660e01b8152600401611fc2969594939291906144f8565b600060405180830381600087803b158015611fdc57600080fd5b505af1158015611ff0573d6000803e3d6000fd5b505050505050565b6000600560008473ffffffffffffffffffffffffffffffffffffffff1673ffffffffffffffffffffffffffffffffffffffff16815260200190815260200160002060008373ffffffffffffffffffffffffffffffffffffffff1673ffffffffffffffffffffffffffffffffffffffff16815260200190815260200160002060009054906101000a900460ff16905092915050565b6120946125ea565b73ffffffffffffffffffffffffffffffffffffffff166120b26119d9565b73ffffffffffffffffffffffffffffffffffffffff1614612108576040517f08c379a00000000000000000000000000000000000000000000000000000000081526004016120ff90614933565b60405180910390fd5b600073ffffffffffffffffffffffffffffffffffffffff168173ffffffffffffffffffffffffffffffffffffffff161415612178576040517f08c379a000000000000000000000000000000000000000000000000000000000815260040161216f906146fa565b60405180910390fd5b61218181612a32565b50565b600a60149054906101000a900460ff166121d3576040517f08c379a00000000000000000000000000000000000000000000000000000000081526004016121ca906146ba565b60405180910390fd5b600030905060005b82518110156123fd573373ffffffffffffffffffffffffffffffffffffffff168273ffffffffffffffffffffffffffffffffffffffff16636352211e836040518263ffffffff1660e01b81526004016122349190614a33565b60206040518083038186803b15801561224c57600080fd5b505afa158015612260573d6000803e3d6000fd5b505050506040513d601f19601f820116820180604052508101906122849190613a4a565b73ffffffffffffffffffffffffffffffffffffffff16146122da576040517f08c379a00000000000000000000000000000000000000000000000000000000081526004016122d19061477a565b60405180910390fd5b600d600082815260200190815260200160002060009054906101000a900460ff161561233b576040517f08c379a00000000000000000000000000000000000000000000000000000000081526004016123329061481a565b60405180910390fd5b8173ffffffffffffffffffffffffffffffffffffffff166323b872dd3330868581518110612392577f4e487b7100000000000000000000000000000000000000000000000000000000600052603260045260246000fd5b60200260200101516040518463ffffffff1660e01b81526004016123b89392919061441c565b600060405180830381600087803b1580156123d257600080fd5b505af11580156123e6573d6000803e3d6000fd5b5050505080806123f590614dbd565b9150506121db565b50600061240983611096565b90503373ffffffffffffffffffffffffffffffffffffffff166108fc829081150290604051600060405180830381858888f19350505050158015612451573d6000803e3d6000fd5b50505050565b60007f780e9d63000000000000000000000000000000000000000000000000000000007bffffffffffffffffffffffffffffffffffffffffffffffffffffffff1916827bffffffffffffffffffffffffffffffffffffffffffffffffffffffff191614806124ca57506124c982612e85565b5b9050919050565b60008073bb6206fb01faad31e8aafc3ad303cea89d8c8157905060008190508073ffffffffffffffffffffffffffffffffffffffff1663aafd5e406040518163ffffffff1660e01b81526004016125279061483a565b60206040518083038186803b15801561253f57600080fd5b505afa158015612553573d6000803e3d6000fd5b505050506040513d601f19601f820116820180604052508101906125779190613a4a565b9250505090565b60008073ffffffffffffffffffffffffffffffffffffffff166002600084815260200190815260200160002060009054906101000a900473ffffffffffffffffffffffffffffffffffffffff1673ffffffffffffffffffffffffffffffffffffffff1614159050919050565b600033905090565b816004600083815260200190815260200160002060006101000a81548173ffffffffffffffffffffffffffffffffffffffff021916908373ffffffffffffffffffffffffffffffffffffffff160217905550808273ffffffffffffffffffffffffffffffffffffffff1661266583611354565b73ffffffffffffffffffffffffffffffffffffffff167f8c5be1e5ebec7d5bd14f71427d1e84f3dd0314c0f7b2291e5b200ac8c7c3b92560405160405180910390a45050565b60006126b68261257e565b6126f5576040517f08c379a00000000000000000000000000000000000000000000000000000000081526004016126ec906147fa565b60405180910390fd5b600061270083611354565b90508073ffffffffffffffffffffffffffffffffffffffff168473ffffffffffffffffffffffffffffffffffffffff16148061276f57508373ffffffffffffffffffffffffffffffffffffffff1661275784610aab565b73ffffffffffffffffffffffffffffffffffffffff16145b80612780575061277f8185611ff8565b5b91505092915050565b8273ffffffffffffffffffffffffffffffffffffffff166127a982611354565b73ffffffffffffffffffffffffffffffffffffffff16146127ff576040517f08c379a00000000000000000000000000000000000000000000000000000000081526004016127f69061471a565b60405180910390fd5b600073ffffffffffffffffffffffffffffffffffffffff168273ffffffffffffffffffffffffffffffffffffffff16141561286f576040517f08c379a00000000000000000000000000000000000000000000000000000000081526004016128669061479a565b60405180910390fd5b61287a838383612f67565b6128856000826125f2565b6001600360008573ffffffffffffffffffffffffffffffffffffffff1673ffffffffffffffffffffffffffffffffffffffff16815260200190815260200160002060008282546128d59190614c14565b925050819055506001600360008473ffffffffffffffffffffffffffffffffffffffff1673ffffffffffffffffffffffffffffffffffffffff168152602001908152602001600020600082825461292c9190614b33565b92505081905550816002600083815260200190815260200160002060006101000a81548173ffffffffffffffffffffffffffffffffffffffff021916908373ffffffffffffffffffffffffffffffffffffffff160217905550808273ffffffffffffffffffffffffffffffffffffffff168473ffffffffffffffffffffffffffffffffffffffff167fddf252ad1be2c89b69c2b068fc378daa952ba7f163c4a11628f55a4df523b3ef60405160405180910390a46129eb838383612f77565b505050565b600081600001549050919050565b6001816000016000828254019250508190555050565b612a2e828260405180602001604052806000815250612f7c565b5050565b6000600a60009054906101000a900473ffffffffffffffffffffffffffffffffffffffff16905081600a60006101000a81548173ffffffffffffffffffffffffffffffffffffffff021916908373ffffffffffffffffffffffffffffffffffffffff1602179055508173ffffffffffffffffffffffffffffffffffffffff168173ffffffffffffffffffffffffffffffffffffffff167f8be0079c531659141344cd1fd0a4f28419497f9722a3daafe3b4186f6b6457e060405160405180910390a35050565b8173ffffffffffffffffffffffffffffffffffffffff168373ffffffffffffffffffffffffffffffffffffffff161415612b67576040517f08c379a0000000000000000000000000000000000000000000000000000000008152600401612b5e906147ba565b60405180910390fd5b80600560008573ffffffffffffffffffffffffffffffffffffffff1673ffffffffffffffffffffffffffffffffffffffff16815260200190815260200160002060008473ffffffffffffffffffffffffffffffffffffffff1673ffffffffffffffffffffffffffffffffffffffff16815260200190815260200160002060006101000a81548160ff0219169083151502179055508173ffffffffffffffffffffffffffffffffffffffff168373ffffffffffffffffffffffffffffffffffffffff167f17307eab39ab6107e8899845ad3d59bd9653f200f220920489ca2b5937696c3183604051612c58919061449f565b60405180910390a3505050565b612c70848484612789565b612c7c84848484612fd7565b612cbb576040517f08c379a0000000000000000000000000000000000000000000000000000000008152600401612cb29061469a565b60405180910390fd5b50505050565b606060405180602001604052806000815250905090565b60606000821415612d20576040518060400160405280600181526020017f30000000000000000000000000000000000000000000000000000000000000008152509050612e80565b600082905060005b60008214612d52578080612d3b90614dbd565b915050600a82612d4b9190614b89565b9150612d28565b60008167ffffffffffffffff811115612d94577f4e487b7100000000000000000000000000000000000000000000000000000000600052604160045260246000fd5b6040519080825280601f01601f191660200182016040528015612dc65781602001600182028036833780820191505090505b5090505b60008514612e7957600182612ddf9190614c14565b9150600a85612dee9190614e10565b6030612dfa9190614b33565b60f81b818381518110612e36577f4e487b7100000000000000000000000000000000000000000000000000000000600052603260045260246000fd5b60200101907effffffffffffffffffffffffffffffffffffffffffffffffffffffffffffff1916908160001a905350600a85612e729190614b89565b9450612dca565b8093505050505b919050565b60007f80ac58cd000000000000000000000000000000000000000000000000000000007bffffffffffffffffffffffffffffffffffffffffffffffffffffffff1916827bffffffffffffffffffffffffffffffffffffffffffffffffffffffff19161480612f5057507f5b5e139f000000000000000000000000000000000000000000000000000000007bffffffffffffffffffffffffffffffffffffffffffffffffffffffff1916827bffffffffffffffffffffffffffffffffffffffffffffffffffffffff1916145b80612f605750612f5f8261316e565b5b9050919050565b612f728383836131d8565b505050565b505050565b612f8683836132ec565b612f936000848484612fd7565b612fd2576040517f08c379a0000000000000000000000000000000000000000000000000000000008152600401612fc99061469a565b60405180910390fd5b505050565b6000612ff88473ffffffffffffffffffffffffffffffffffffffff166134c6565b15613161578373ffffffffffffffffffffffffffffffffffffffff1663150b7a026130216125ea565b8786866040518563ffffffff1660e01b81526004016130439493929190614453565b602060405180830381600087803b15801561305d57600080fd5b505af192505050801561308e57506040513d601f19601f8201168201806040525081019061308b9190613cd6565b60015b613111573d80600081146130be576040519150601f19603f3d011682016040523d82523d6000602084013e6130c3565b606091505b50600081511415613109576040517f08c379a00000000000000000000000000000000000000000000000000000000081526004016131009061469a565b60405180910390fd5b805181602001fd5b63150b7a0260e01b7bffffffffffffffffffffffffffffffffffffffffffffffffffffffff1916817bffffffffffffffffffffffffffffffffffffffffffffffffffffffff191614915050613166565b600190505b949350505050565b60007f01ffc9a7000000000000000000000000000000000000000000000000000000007bffffffffffffffffffffffffffffffffffffffffffffffffffffffff1916827bffffffffffffffffffffffffffffffffffffffffffffffffffffffff1916149050919050565b6131e38383836134e9565b600073ffffffffffffffffffffffffffffffffffffffff168373ffffffffffffffffffffffffffffffffffffffff16141561322657613221816134ee565b613265565b8173ffffffffffffffffffffffffffffffffffffffff168373ffffffffffffffffffffffffffffffffffffffff1614613264576132638382613537565b5b5b600073ffffffffffffffffffffffffffffffffffffffff168273ffffffffffffffffffffffffffffffffffffffff1614156132a8576132a3816136a4565b6132e7565b8273ffffffffffffffffffffffffffffffffffffffff168273ffffffffffffffffffffffffffffffffffffffff16146132e6576132e582826137e7565b5b5b505050565b600073ffffffffffffffffffffffffffffffffffffffff168273ffffffffffffffffffffffffffffffffffffffff16141561335c576040517f08c379a0000000000000000000000000000000000000000000000000000000008152600401613353906148b3565b60405180910390fd5b6133658161257e565b156133a5576040517f08c379a000000000000000000000000000000000000000000000000000000000815260040161339c9061473a565b60405180910390fd5b6133b160008383612f67565b6001600360008473ffffffffffffffffffffffffffffffffffffffff1673ffffffffffffffffffffffffffffffffffffffff16815260200190815260200160002060008282546134019190614b33565b92505081905550816002600083815260200190815260200160002060006101000a81548173ffffffffffffffffffffffffffffffffffffffff021916908373ffffffffffffffffffffffffffffffffffffffff160217905550808273ffffffffffffffffffffffffffffffffffffffff16600073ffffffffffffffffffffffffffffffffffffffff167fddf252ad1be2c89b69c2b068fc378daa952ba7f163c4a11628f55a4df523b3ef60405160405180910390a46134c260008383612f77565b5050565b6000808273ffffffffffffffffffffffffffffffffffffffff163b119050919050565b505050565b6008805490506009600083815260200190815260200160002081905550600881908060018154018082558091505060019003906000526020600020016000909190919091505550565b600060016135448461141d565b61354e9190614c14565b9050600060076000848152602001908152602001600020549050818114613633576000600660008673ffffffffffffffffffffffffffffffffffffffff1673ffffffffffffffffffffffffffffffffffffffff168152602001908152602001600020600084815260200190815260200160002054905080600660008773ffffffffffffffffffffffffffffffffffffffff1673ffffffffffffffffffffffffffffffffffffffff168152602001908152602001600020600084815260200190815260200160002081905550816007600083815260200190815260200160002081905550505b6007600084815260200190815260200160002060009055600660008573ffffffffffffffffffffffffffffffffffffffff1673ffffffffffffffffffffffffffffffffffffffff16815260200190815260200160002060008381526020019081526020016000206000905550505050565b600060016008805490506136b89190614c14565b905060006009600084815260200190815260200160002054905060006008838154811061370e577f4e487b7100000000000000000000000000000000000000000000000000000000600052603260045260246000fd5b906000526020600020015490508060088381548110613756577f4e487b7100000000000000000000000000000000000000000000000000000000600052603260045260246000fd5b9060005260206000200181905550816009600083815260200190815260200160002081905550600960008581526020019081526020016000206000905560088054806137cb577f4e487b7100000000000000000000000000000000000000000000000000000000600052603160045260246000fd5b6001900381819060005260206000200160009055905550505050565b60006137f28361141d565b905081600660008573ffffffffffffffffffffffffffffffffffffffff1673ffffffffffffffffffffffffffffffffffffffff168152602001908152602001600020600083815260200190815260200160002081905550806007600084815260200190815260200160002081905550505050565b600061387961387484614a73565b614a4e565b9050808382526020820190508285602086028201111561389857600080fd5b60005b858110156138c857816138ae88826139f7565b84526020840193506020830192505060018101905061389b565b5050509392505050565b60006138e56138e084614a9f565b614a4e565b9050828152602081018484840111156138fd57600080fd5b613908848285614d18565b509392505050565b60008135905061391f81615642565b92915050565b60008151905061393481615642565b92915050565b600082601f83011261394b57600080fd5b813561395b848260208601613866565b91505092915050565b60008135905061397381615659565b92915050565b60008135905061398881615670565b92915050565b60008135905061399d81615687565b92915050565b6000815190506139b281615687565b92915050565b600082601f8301126139c957600080fd5b81356139d98482602086016138d2565b91505092915050565b6000813590506139f18161569e565b92915050565b600081359050613a06816156b5565b92915050565b600081519050613a1b816156b5565b92915050565b600060208284031215613a3357600080fd5b6000613a4184828501613910565b91505092915050565b600060208284031215613a5c57600080fd5b6000613a6a84828501613925565b91505092915050565b60008060408385031215613a8657600080fd5b6000613a9485828601613910565b9250506020613aa585828601613910565b9150509250929050565b600080600060608486031215613ac457600080fd5b6000613ad286828701613910565b9350506020613ae386828701613910565b9250506040613af4868287016139f7565b9150509250925092565b60008060008060808587031215613b1457600080fd5b6000613b2287828801613910565b9450506020613b3387828801613910565b9350506040613b44878288016139f7565b925050606085013567ffffffffffffffff811115613b6157600080fd5b613b6d878288016139b8565b91505092959194509250565b60008060408385031215613b8c57600080fd5b6000613b9a85828601613910565b9250506020613bab85828601613964565b9150509250929050565b60008060408385031215613bc857600080fd5b6000613bd685828601613910565b9250506020613be7858286016139f7565b9150509250929050565b600060208284031215613c0357600080fd5b600082013567ffffffffffffffff811115613c1d57600080fd5b613c298482850161393a565b91505092915050565b60008060008060808587031215613c4857600080fd5b6000613c5687828801613979565b9450506020613c67878288016139f7565b935050604085013567ffffffffffffffff811115613c8457600080fd5b613c90878288016139b8565b9250506060613ca1878288016139e2565b91505092959194509250565b600060208284031215613cbf57600080fd5b6000613ccd8482850161398e565b91505092915050565b600060208284031215613ce857600080fd5b6000613cf6848285016139a3565b91505092915050565b600060208284031215613d1157600080fd5b6000613d1f848285016139f7565b91505092915050565b600060208284031215613d3a57600080fd5b6000613d4884828501613a0c565b91505092915050565b613d5a81614c48565b82525050565b613d6981614c5a565b82525050565b613d7881614c66565b82525050565b613d8f613d8a82614c66565b614e06565b82525050565b6000613da082614ae5565b613daa8185614afb565b9350613dba818560208601614d27565b613dc381614efd565b840191505092915050565b6000613dd982614ae5565b613de38185614b0c565b9350613df3818560208601614d27565b80840191505092915050565b60008154613e0c81614d5a565b613e168186614afb565b94506001821660008114613e315760018114613e4357613e76565b60ff1983168652602086019350613e76565b613e4c85614ad0565b60005b83811015613e6e57815481890152600182019150602081019050613e4f565b808801955050505b50505092915050565b613e8881614cd0565b82525050565b613e9781614cf4565b82525050565b613ea681614d06565b82525050565b6000613eb782614af0565b613ec18185614b17565b9350613ed1818560208601614d27565b613eda81614efd565b840191505092915050565b6000613ef082614af0565b613efa8185614b28565b9350613f0a818560208601614d27565b80840191505092915050565b6000613f23601483614b17565b9150613f2e82614f0e565b602082019050919050565b6000613f46601583614b17565b9150613f5182614f37565b602082019050919050565b6000613f69601183614b17565b9150613f7482614f60565b602082019050919050565b6000613f8c602b83614b17565b9150613f9782614f89565b604082019050919050565b6000613faf603283614b17565b9150613fba82614fd8565b604082019050919050565b6000613fd2601383614b17565b9150613fdd82615027565b602082019050919050565b6000613ff5601183614b17565b915061400082615050565b602082019050919050565b6000614018602683614b17565b915061402382615079565b604082019050919050565b600061403b602583614b17565b9150614046826150c8565b604082019050919050565b600061405e601c83614b17565b915061406982615117565b602082019050919050565b6000614081601e83614b17565b915061408c82615140565b602082019050919050565b60006140a4600b83614b17565b91506140af82615169565b602082019050919050565b60006140c7602483614b17565b91506140d282615192565b604082019050919050565b60006140ea601983614b17565b91506140f5826151e1565b602082019050919050565b600061410d601783614b17565b91506141188261520a565b602082019050919050565b6000614130602c83614b17565b915061413b82615233565b604082019050919050565b6000614153601983614b17565b915061415e82615282565b602082019050919050565b7f4f7074696d69737469634f7261636c6556320000000000000000000000000000815250565b600061419c603883614b17565b91506141a7826152ab565b604082019050919050565b60006141bf602a83614b17565b91506141ca826152fa565b604082019050919050565b60006141e2602983614b17565b91506141ed82615349565b604082019050919050565b6000614205602083614b17565b915061421082615398565b602082019050919050565b6000614228600e83614b17565b9150614233826153c1565b602082019050919050565b600061424b602c83614b17565b9150614256826153ea565b604082019050919050565b600061426e600d83614b17565b915061427982615439565b602082019050919050565b6000614291602083614b17565b915061429c82615462565b602082019050919050565b60006142b4602f83614b17565b91506142bf8261548b565b604082019050919050565b60006142d7602183614b17565b91506142e2826154da565b604082019050919050565b60006142fa601383614b17565b915061430582615529565b602082019050919050565b600061431d603183614b17565b915061432882615552565b604082019050919050565b6000614340600f83614b17565b915061434b826155a1565b602082019050919050565b6000614363602c83614b17565b915061436e826155ca565b604082019050919050565b6000614386601383614b17565b915061439182615619565b602082019050919050565b6143a581614cc6565b82525050565b60006143b78284613d7e565b60208201915081905092915050565b60006143d28284613dce565b915081905092915050565b60006143e98285613ee5565b91506143f58284613ee5565b91508190509392505050565b60006020820190506144166000830184613d51565b92915050565b60006060820190506144316000830186613d51565b61443e6020830185613d51565b61444b604083018461439c565b949350505050565b60006080820190506144686000830187613d51565b6144756020830186613d51565b614482604083018561439c565b81810360608301526144948184613d95565b905095945050505050565b60006020820190506144b46000830184613d60565b92915050565b60006060820190506144cf6000830186613d6f565b6144dc6020830185613e8e565b81810360408301526144ee8184613dff565b9050949350505050565b600060c08201905061450d6000830189613d6f565b61451a6020830188613e8e565b818103604083015261452c8187613dff565b905061453b6060830186613d60565b6145486080830185613d60565b61455560a0830184613d60565b979650505050505050565b600060a0820190506145756000830188613d6f565b6145826020830187613e8e565b81810360408301526145948186613dff565b90506145a36060830185613e7f565b6145b06080830184613e9d565b9695505050505050565b60006060820190506145cf6000830186613d6f565b81810360208301526145e18185613eac565b90506145f06040830184613d60565b949350505050565b600060208201905081810360008301526146128184613eac565b905092915050565b6000602082019050818103600083015261463381613f16565b9050919050565b6000602082019050818103600083015261465381613f39565b9050919050565b6000602082019050818103600083015261467381613f5c565b9050919050565b6000602082019050818103600083015261469381613f7f565b9050919050565b600060208201905081810360008301526146b381613fa2565b9050919050565b600060208201905081810360008301526146d381613fc5565b9050919050565b600060208201905081810360008301526146f381613fe8565b9050919050565b600060208201905081810360008301526147138161400b565b9050919050565b600060208201905081810360008301526147338161402e565b9050919050565b6000602082019050818103600083015261475381614051565b9050919050565b6000602082019050818103600083015261477381614074565b9050919050565b6000602082019050818103600083015261479381614097565b9050919050565b600060208201905081810360008301526147b3816140ba565b9050919050565b600060208201905081810360008301526147d3816140dd565b9050919050565b600060208201905081810360008301526147f381614100565b9050919050565b6000602082019050818103600083015261481381614123565b9050919050565b6000602082019050818103600083015261483381614146565b9050919050565b600060208201905061484e60008301614169565b919050565b6000602082019050818103600083015261486c8161418f565b9050919050565b6000602082019050818103600083015261488c816141b2565b9050919050565b600060208201905081810360008301526148ac816141d5565b9050919050565b600060208201905081810360008301526148cc816141f8565b9050919050565b600060208201905081810360008301526148ec8161421b565b9050919050565b6000602082019050818103600083015261490c8161423e565b9050919050565b6000602082019050818103600083015261492c81614261565b9050919050565b6000602082019050818103600083015261494c81614284565b9050919050565b6000602082019050818103600083015261496c816142a7565b9050919050565b6000602082019050818103600083015261498c816142ca565b9050919050565b600060208201905081810360008301526149ac816142ed565b9050919050565b600060208201905081810360008301526149cc81614310565b9050919050565b600060208201905081810360008301526149ec81614333565b9050919050565b60006020820190508181036000830152614a0c81614356565b9050919050565b60006020820190508181036000830152614a2c81614379565b9050919050565b6000602082019050614a48600083018461439c565b92915050565b6000614a58614a69565b9050614a648282614d8c565b919050565b6000604051905090565b600067ffffffffffffffff821115614a8e57614a8d614ece565b5b602082029050602081019050919050565b600067ffffffffffffffff821115614aba57614ab9614ece565b5b614ac382614efd565b9050602081019050919050565b60008190508160005260206000209050919050565b600081519050919050565b600081519050919050565b600082825260208201905092915050565b600081905092915050565b600082825260208201905092915050565b600081905092915050565b6000614b3e82614cc6565b9150614b4983614cc6565b9250827fffffffffffffffffffffffffffffffffffffffffffffffffffffffffffffffff03821115614b7e57614b7d614e41565b5b828201905092915050565b6000614b9482614cc6565b9150614b9f83614cc6565b925082614baf57614bae614e70565b5b828204905092915050565b6000614bc582614cc6565b9150614bd083614cc6565b9250817fffffffffffffffffffffffffffffffffffffffffffffffffffffffffffffffff0483118215151615614c0957614c08614e41565b5b828202905092915050565b6000614c1f82614cc6565b9150614c2a83614cc6565b925082821015614c3d57614c3c614e41565b5b828203905092915050565b6000614c5382614ca6565b9050919050565b60008115159050919050565b6000819050919050565b60007fffffffff0000000000000000000000000000000000000000000000000000000082169050919050565b6000819050919050565b600073ffffffffffffffffffffffffffffffffffffffff82169050919050565b6000819050919050565b6000614cdb82614ce2565b9050919050565b6000614ced82614ca6565b9050919050565b6000614cff82614cc6565b9050919050565b6000614d1182614cc6565b9050919050565b82818337600083830152505050565b60005b83811015614d45578082015181840152602081019050614d2a565b83811115614d54576000848401525b50505050565b60006002820490506001821680614d7257607f821691505b60208210811415614d8657614d85614e9f565b5b50919050565b614d9582614efd565b810181811067ffffffffffffffff82111715614db457614db3614ece565b5b80604052505050565b6000614dc882614cc6565b91507fffffffffffffffffffffffffffffffffffffffffffffffffffffffffffffffff821415614dfb57614dfa614e41565b5b600182019050919050565b6000819050919050565b6000614e1b82614cc6565b9150614e2683614cc6565b925082614e3657614e35614e70565b5b828206905092915050565b7f4e487b7100000000000000000000000000000000000000000000000000000000600052601160045260246000fd5b7f4e487b7100000000000000000000000000000000000000000000000000000000600052601260045260246000fd5b7f4e487b7100000000000000000000000000000000000000000000000000000000600052602260045260246000fd5b7f4e487b7100000000000000000000000000000000000000000000000000000000600052604160045260246000fd5b6000601f19601f8301169050919050565b7f646966666572656e742074696d657374616d7073000000000000000000000000600082015250565b7f726573756c74206e6f74207375636365737366756c0000000000000000000000600082015250565b7f4e6f7420656e6f75676820737570706c79000000000000000000000000000000600082015250565b7f455243373231456e756d657261626c653a206f776e657220696e646578206f7560008201527f74206f6620626f756e6473000000000000000000000000000000000000000000602082015250565b7f4552433732313a207472616e7366657220746f206e6f6e20455243373231526560008201527f63656976657220696d706c656d656e7465720000000000000000000000000000602082015250565b7f5265766572746564206e6f742061637469766500000000000000000000000000600082015250565b7f616c726561647920636f6d706c65746564000000000000000000000000000000600082015250565b7f4f776e61626c653a206e6577206f776e657220697320746865207a65726f206160008201527f6464726573730000000000000000000000000000000000000000000000000000602082015250565b7f4552433732313a207472616e736665722066726f6d20696e636f72726563742060008201527f6f776e6572000000000000000000000000000000000000000000000000000000602082015250565b7f4552433732313a20746f6b656e20616c7265616479206d696e74656400000000600082015250565b7f4e6f7420656e6f7567682062616c616e636520746f2077697468647261770000600082015250565b7f57726f6e67206f776e6572000000000000000000000000000000000000000000600082015250565b7f4552433732313a207472616e7366657220746f20746865207a65726f2061646460008201527f7265737300000000000000000000000000000000000000000000000000000000602082015250565b7f4552433732313a20617070726f766520746f2063616c6c657200000000000000600082015250565b7f56616c75652069732077726f6e6720666f72206d696e74000000000000000000600082015250565b7f4552433732313a206f70657261746f7220717565727920666f72206e6f6e657860008201527f697374656e7420746f6b656e0000000000000000000000000000000000000000602082015250565b7f416c726561647920636c61696d656420666f7220746f6b656e00000000000000600082015250565b7f4552433732313a20617070726f76652063616c6c6572206973206e6f74206f7760008201527f6e6572206e6f7220617070726f76656420666f7220616c6c0000000000000000602082015250565b7f4552433732313a2062616c616e636520717565727920666f7220746865207a6560008201527f726f206164647265737300000000000000000000000000000000000000000000602082015250565b7f4552433732313a206f776e657220717565727920666f72206e6f6e657869737460008201527f656e7420746f6b656e0000000000000000000000000000000000000000000000602082015250565b7f4552433732313a206d696e7420746f20746865207a65726f2061646472657373600082015250565b7f6e6f7420617574686f72697a6564000000000000000000000000000000000000600082015250565b7f4552433732313a20617070726f76656420717565727920666f72206e6f6e657860008201527f697374656e7420746f6b656e0000000000000000000000000000000000000000602082015250565b7f4e6f7420636f6d706c6574656400000000000000000000000000000000000000600082015250565b7f4f776e61626c653a2063616c6c6572206973206e6f7420746865206f776e6572600082015250565b7f4552433732314d657461646174613a2055524920717565727920666f72206e6f60008201527f6e6578697374656e7420746f6b656e0000000000000000000000000000000000602082015250565b7f4552433732313a20617070726f76616c20746f2063757272656e74206f776e6560008201527f7200000000000000000000000000000000000000000000000000000000000000602082015250565b7f73616d6520616e63696c6c617279206461746100000000000000000000000000600082015250565b7f4552433732313a207472616e736665722063616c6c6572206973206e6f74206f60008201527f776e6572206e6f7220617070726f766564000000000000000000000000000000602082015250565b7f73616d65206964656e7469666965720000000000000000000000000000000000600082015250565b7f455243373231456e756d657261626c653a20676c6f62616c20696e646578206f60008201527f7574206f6620626f756e64730000000000000000000000000000000000000000602082015250565b7f63616c6c206e6f74207375636365737366756c00000000000000000000000000600082015250565b61564b81614c48565b811461565657600080fd5b50565b61566281614c5a565b811461566d57600080fd5b50565b61567981614c66565b811461568457600080fd5b50565b61569081614c70565b811461569b57600080fd5b50565b6156a781614c9c565b81146156b257600080fd5b50565b6156be81614cc6565b81146156c957600080fd5b5056fea26469706673582212202f4403ffe7633a97ce87db0a3349c89c9884cdb1919df1302d42433db1e78f7e64736f6c63430008040033206f662074686520766f74657320617265205945533f2c68747470733a2f2f64656d6f2e736e617073686f742e6f72672f232f6465766465766465762e657468713a486176652074686520736e617073686f7420766f746520636f6e7461696e696e67205b524f41444d41505f4143435045435445445d20636f6d706c657465642077697468206d6f7265207468656e2035302070657263656e74616765",
  "devdoc": {
    "kind": "dev",
    "methods": {
      "approve(address,uint256)": {
        "details": "See {IERC721-approve}."
      },
      "balanceOf(address)": {
        "details": "See {IERC721-balanceOf}."
      },
      "getApproved(uint256)": {
        "details": "See {IERC721-getApproved}."
      },
      "isApprovedForAll(address,address)": {
        "details": "See {IERC721-isApprovedForAll}."
      },
      "name()": {
        "details": "See {IERC721Metadata-name}."
      },
      "owner()": {
        "details": "Returns the address of the current owner."
      },
      "ownerOf(uint256)": {
        "details": "See {IERC721-ownerOf}."
      },
      "renounceOwnership()": {
        "details": "Leaves the contract without owner. It will not be possible to call `onlyOwner` functions anymore. Can only be called by the current owner. NOTE: Renouncing ownership will leave the contract without an owner, thereby removing any functionality that is only available to the owner."
      },
      "safeTransferFrom(address,address,uint256)": {
        "details": "See {IERC721-safeTransferFrom}."
      },
      "safeTransferFrom(address,address,uint256,bytes)": {
        "details": "See {IERC721-safeTransferFrom}."
      },
      "setApprovalForAll(address,bool)": {
        "details": "See {IERC721-setApprovalForAll}."
      },
      "symbol()": {
        "details": "See {IERC721Metadata-symbol}."
      },
      "tokenByIndex(uint256)": {
        "details": "See {IERC721Enumerable-tokenByIndex}."
      },
      "tokenOfOwnerByIndex(address,uint256)": {
        "details": "See {IERC721Enumerable-tokenOfOwnerByIndex}."
      },
      "tokenURI(uint256)": {
        "details": "See {IERC721Metadata-tokenURI}."
      },
      "totalSupply()": {
        "details": "See {IERC721Enumerable-totalSupply}."
      },
      "transferFrom(address,address,uint256)": {
        "details": "See {IERC721-transferFrom}."
      },
      "transferOwnership(address)": {
        "details": "Transfers ownership of the contract to a new account (`newOwner`). Can only be called by the current owner."
      }
    },
    "version": 1
  },
  "userdoc": {
    "kind": "user",
    "methods": {},
    "version": 1
  },
  "storageLayout": {
    "storage": [
      {
        "astId": 208,
        "contract": "contracts/MyNFT.sol:MyNFT",
        "label": "_name",
        "offset": 0,
        "slot": "0",
        "type": "t_string_storage"
      },
      {
        "astId": 210,
        "contract": "contracts/MyNFT.sol:MyNFT",
        "label": "_symbol",
        "offset": 0,
        "slot": "1",
        "type": "t_string_storage"
      },
      {
        "astId": 214,
        "contract": "contracts/MyNFT.sol:MyNFT",
        "label": "_owners",
        "offset": 0,
        "slot": "2",
        "type": "t_mapping(t_uint256,t_address)"
      },
      {
        "astId": 218,
        "contract": "contracts/MyNFT.sol:MyNFT",
        "label": "_balances",
        "offset": 0,
        "slot": "3",
        "type": "t_mapping(t_address,t_uint256)"
      },
      {
        "astId": 222,
        "contract": "contracts/MyNFT.sol:MyNFT",
        "label": "_tokenApprovals",
        "offset": 0,
        "slot": "4",
        "type": "t_mapping(t_uint256,t_address)"
      },
      {
        "astId": 228,
        "contract": "contracts/MyNFT.sol:MyNFT",
        "label": "_operatorApprovals",
        "offset": 0,
        "slot": "5",
        "type": "t_mapping(t_address,t_mapping(t_address,t_bool))"
      },
      {
        "astId": 1197,
        "contract": "contracts/MyNFT.sol:MyNFT",
        "label": "_ownedTokens",
        "offset": 0,
        "slot": "6",
        "type": "t_mapping(t_address,t_mapping(t_uint256,t_uint256))"
      },
      {
        "astId": 1201,
        "contract": "contracts/MyNFT.sol:MyNFT",
        "label": "_ownedTokensIndex",
        "offset": 0,
        "slot": "7",
        "type": "t_mapping(t_uint256,t_uint256)"
      },
      {
        "astId": 1204,
        "contract": "contracts/MyNFT.sol:MyNFT",
        "label": "_allTokens",
        "offset": 0,
        "slot": "8",
        "type": "t_array(t_uint256)dyn_storage"
      },
      {
        "astId": 1208,
        "contract": "contracts/MyNFT.sol:MyNFT",
        "label": "_allTokensIndex",
        "offset": 0,
        "slot": "9",
        "type": "t_mapping(t_uint256,t_uint256)"
      },
      {
        "astId": 7,
        "contract": "contracts/MyNFT.sol:MyNFT",
        "label": "_owner",
        "offset": 0,
        "slot": "10",
        "type": "t_address"
      },
      {
        "astId": 3000,
        "contract": "contracts/MyNFT.sol:MyNFT",
        "label": "reverted",
        "offset": 20,
        "slot": "10",
        "type": "t_bool"
      },
      {
        "astId": 3002,
        "contract": "contracts/MyNFT.sol:MyNFT",
        "label": "reservedAmount",
        "offset": 0,
        "slot": "11",
        "type": "t_uint256"
      },
      {
        "astId": 3004,
        "contract": "contracts/MyNFT.sol:MyNFT",
        "label": "mintPrice",
        "offset": 0,
        "slot": "12",
        "type": "t_uint256"
      },
      {
        "astId": 3008,
        "contract": "contracts/MyNFT.sol:MyNFT",
        "label": "claimed",
        "offset": 0,
        "slot": "13",
        "type": "t_mapping(t_uint256,t_bool)"
      },
      {
        "astId": 3029,
        "contract": "contracts/MyNFT.sol:MyNFT",
        "label": "steps",
        "offset": 0,
        "slot": "14",
        "type": "t_array(t_struct(Step)3015_storage)dyn_storage"
      },
      {
        "astId": 2626,
        "contract": "contracts/MyNFT.sol:MyNFT",
        "label": "apeSent",
        "offset": 0,
        "slot": "15",
        "type": "t_bool"
      },
      {
        "astId": 2629,
        "contract": "contracts/MyNFT.sol:MyNFT",
        "label": "charitySent",
        "offset": 1,
        "slot": "15",
        "type": "t_bool"
      },
      {
        "astId": 2632,
        "contract": "contracts/MyNFT.sol:MyNFT",
        "label": "governanceApproved",
        "offset": 2,
        "slot": "15",
        "type": "t_bool"
      },
      {
        "astId": 2635,
        "contract": "contracts/MyNFT.sol:MyNFT",
        "label": "s1",
        "offset": 0,
        "slot": "16",
        "type": "t_string_storage"
      },
      {
        "astId": 2638,
        "contract": "contracts/MyNFT.sol:MyNFT",
        "label": "s2",
        "offset": 0,
        "slot": "17",
        "type": "t_string_storage"
      },
      {
        "astId": 2648,
        "contract": "contracts/MyNFT.sol:MyNFT",
        "label": "ancillaryData",
        "offset": 0,
        "slot": "18",
        "type": "t_bytes_storage"
      },
      {
        "astId": 2651,
        "contract": "contracts/MyNFT.sol:MyNFT",
        "label": "priceIdentifier",
        "offset": 0,
        "slot": "19",
        "type": "t_bytes32"
      },
      {
        "astId": 2654,
        "contract": "contracts/MyNFT.sol:MyNFT",
        "label": "_tokenIdCounter",
        "offset": 0,
        "slot": "20",
        "type": "t_struct(Counter)1901_storage"
      }
    ],
    "types": {
      "t_address": {
        "encoding": "inplace",
        "label": "address",
        "numberOfBytes": "20"
      },
      "t_array(t_struct(Step)3015_storage)dyn_storage": {
        "base": "t_struct(Step)3015_storage",
        "encoding": "dynamic_array",
        "label": "struct Roadmap.Step[]",
        "numberOfBytes": "32"
      },
      "t_array(t_uint256)dyn_storage": {
        "base": "t_uint256",
        "encoding": "dynamic_array",
        "label": "uint256[]",
        "numberOfBytes": "32"
      },
      "t_bool": {
        "encoding": "inplace",
        "label": "bool",
        "numberOfBytes": "1"
      },
      "t_bytes32": {
        "encoding": "inplace",
        "label": "bytes32",
        "numberOfBytes": "32"
      },
      "t_bytes_storage": {
        "encoding": "bytes",
        "label": "bytes",
        "numberOfBytes": "32"
      },
      "t_mapping(t_address,t_bool)": {
        "encoding": "mapping",
        "key": "t_address",
        "label": "mapping(address => bool)",
        "numberOfBytes": "32",
        "value": "t_bool"
      },
      "t_mapping(t_address,t_mapping(t_address,t_bool))": {
        "encoding": "mapping",
        "key": "t_address",
        "label": "mapping(address => mapping(address => bool))",
        "numberOfBytes": "32",
        "value": "t_mapping(t_address,t_bool)"
      },
      "t_mapping(t_address,t_mapping(t_uint256,t_uint256))": {
        "encoding": "mapping",
        "key": "t_address",
        "label": "mapping(address => mapping(uint256 => uint256))",
        "numberOfBytes": "32",
        "value": "t_mapping(t_uint256,t_uint256)"
      },
      "t_mapping(t_address,t_uint256)": {
        "encoding": "mapping",
        "key": "t_address",
        "label": "mapping(address => uint256)",
        "numberOfBytes": "32",
        "value": "t_uint256"
      },
      "t_mapping(t_uint256,t_address)": {
        "encoding": "mapping",
        "key": "t_uint256",
        "label": "mapping(uint256 => address)",
        "numberOfBytes": "32",
        "value": "t_address"
      },
      "t_mapping(t_uint256,t_bool)": {
        "encoding": "mapping",
        "key": "t_uint256",
        "label": "mapping(uint256 => bool)",
        "numberOfBytes": "32",
        "value": "t_bool"
      },
      "t_mapping(t_uint256,t_uint256)": {
        "encoding": "mapping",
        "key": "t_uint256",
        "label": "mapping(uint256 => uint256)",
        "numberOfBytes": "32",
        "value": "t_uint256"
      },
      "t_string_storage": {
        "encoding": "bytes",
        "label": "string",
        "numberOfBytes": "32"
      },
      "t_struct(Counter)1901_storage": {
        "encoding": "inplace",
        "label": "struct Counters.Counter",
        "members": [
          {
            "astId": 1900,
            "contract": "contracts/MyNFT.sol:MyNFT",
            "label": "_value",
            "offset": 0,
            "slot": "0",
            "type": "t_uint256"
          }
        ],
        "numberOfBytes": "32"
      },
      "t_struct(Step)3015_storage": {
        "encoding": "inplace",
        "label": "struct Roadmap.Step",
        "members": [
          {
            "astId": 3010,
            "contract": "contracts/MyNFT.sol:MyNFT",
            "label": "data",
            "offset": 0,
            "slot": "0",
            "type": "t_bytes32"
          },
          {
            "astId": 3012,
            "contract": "contracts/MyNFT.sol:MyNFT",
            "label": "message",
            "offset": 0,
            "slot": "1",
            "type": "t_string_storage"
          },
          {
            "astId": 3014,
            "contract": "contracts/MyNFT.sol:MyNFT",
            "label": "completed",
            "offset": 0,
            "slot": "2",
            "type": "t_bool"
          }
        ],
        "numberOfBytes": "96"
      },
      "t_uint256": {
        "encoding": "inplace",
        "label": "uint256",
        "numberOfBytes": "32"
      }
    }
  }
}