{
  "address": "0x752f18E429f641E6a01FB4F808DB94d5b40b08bc",
  "abi": [
    {
      "inputs": [],
      "stateMutability": "nonpayable",
      "type": "constructor"
    },
    {
      "anonymous": false,
      "inputs": [
        {
          "indexed": true,
          "internalType": "address",
          "name": "owner",
          "type": "address"
        },
        {
          "indexed": true,
          "internalType": "address",
          "name": "approved",
          "type": "address"
        },
        {
          "indexed": true,
          "internalType": "uint256",
          "name": "tokenId",
          "type": "uint256"
        }
      ],
      "name": "Approval",
      "type": "event"
    },
    {
      "anonymous": false,
      "inputs": [
        {
          "indexed": true,
          "internalType": "address",
          "name": "owner",
          "type": "address"
        },
        {
          "indexed": true,
          "internalType": "address",
          "name": "operator",
          "type": "address"
        },
        {
          "indexed": false,
          "internalType": "bool",
          "name": "approved",
          "type": "bool"
        }
      ],
      "name": "ApprovalForAll",
      "type": "event"
    },
    {
      "anonymous": false,
      "inputs": [
        {
          "indexed": true,
          "internalType": "address",
          "name": "previousOwner",
          "type": "address"
        },
        {
          "indexed": true,
          "internalType": "address",
          "name": "newOwner",
          "type": "address"
        }
      ],
      "name": "OwnershipTransferred",
      "type": "event"
    },
    {
      "anonymous": false,
      "inputs": [
        {
          "indexed": false,
          "internalType": "bytes32",
          "name": "data",
          "type": "bytes32"
        },
        {
          "indexed": false,
          "internalType": "string",
          "name": "message",
          "type": "string"
        }
      ],
      "name": "StepCreated",
      "type": "event"
    },
    {
      "anonymous": false,
      "inputs": [
        {
          "indexed": false,
          "internalType": "uint256",
          "name": "stepId",
          "type": "uint256"
        }
      ],
      "name": "StepExecuted",
      "type": "event"
    },
    {
      "anonymous": false,
      "inputs": [
        {
          "indexed": true,
          "internalType": "address",
          "name": "from",
          "type": "address"
        },
        {
          "indexed": true,
          "internalType": "address",
          "name": "to",
          "type": "address"
        },
        {
          "indexed": true,
          "internalType": "uint256",
          "name": "tokenId",
          "type": "uint256"
        }
      ],
      "name": "Transfer",
      "type": "event"
    },
    {
      "inputs": [],
      "name": "MINT_PRICE",
      "outputs": [
        {
          "internalType": "uint256",
          "name": "",
          "type": "uint256"
        }
      ],
      "stateMutability": "view",
      "type": "function"
    },
    {
      "inputs": [],
      "name": "abort",
      "outputs": [],
      "stateMutability": "nonpayable",
      "type": "function"
    },
    {
      "inputs": [],
      "name": "apeIsSent",
      "outputs": [
        {
          "internalType": "bool",
          "name": "",
          "type": "bool"
        }
      ],
      "stateMutability": "view",
      "type": "function"
    },
    {
      "inputs": [
        {
          "internalType": "address",
          "name": "to",
          "type": "address"
        },
        {
          "internalType": "uint256",
          "name": "tokenId",
          "type": "uint256"
        }
      ],
      "name": "approve",
      "outputs": [],
      "stateMutability": "nonpayable",
      "type": "function"
    },
    {
      "inputs": [
        {
          "internalType": "address",
          "name": "owner",
          "type": "address"
        }
      ],
      "name": "balanceOf",
      "outputs": [
        {
          "internalType": "uint256",
          "name": "",
          "type": "uint256"
        }
      ],
      "stateMutability": "view",
      "type": "function"
    },
    {
      "inputs": [],
      "name": "callbackError",
      "outputs": [
        {
          "internalType": "bool",
          "name": "",
          "type": "bool"
        }
      ],
      "stateMutability": "view",
      "type": "function"
    },
    {
      "inputs": [],
      "name": "charityIsSent",
      "outputs": [
        {
          "internalType": "bool",
          "name": "",
          "type": "bool"
        }
      ],
      "stateMutability": "view",
      "type": "function"
    },
    {
      "inputs": [
        {
          "internalType": "uint256[]",
          "name": "tokenIds",
          "type": "uint256[]"
        }
      ],
      "name": "claimRefund",
      "outputs": [],
      "stateMutability": "nonpayable",
      "type": "function"
    },
    {
      "inputs": [
        {
          "internalType": "uint256[]",
          "name": "tokenIds",
          "type": "uint256[]"
        }
      ],
      "name": "claimableAmount",
      "outputs": [
        {
          "internalType": "uint256",
          "name": "",
          "type": "uint256"
        }
      ],
      "stateMutability": "view",
      "type": "function"
    },
    {
      "inputs": [
        {
          "internalType": "uint256",
          "name": "stepId",
          "type": "uint256"
        }
      ],
      "name": "executeStep",
      "outputs": [],
      "stateMutability": "nonpayable",
      "type": "function"
    },
    {
      "inputs": [
        {
          "internalType": "uint256",
          "name": "tokenId",
          "type": "uint256"
        }
      ],
      "name": "getApproved",
      "outputs": [
        {
          "internalType": "address",
          "name": "",
          "type": "address"
        }
      ],
      "stateMutability": "view",
      "type": "function"
    },
    {
      "inputs": [],
      "name": "governanceIsApproved",
      "outputs": [
        {
          "internalType": "bool",
          "name": "",
          "type": "bool"
        }
      ],
      "stateMutability": "view",
      "type": "function"
    },
    {
      "inputs": [
        {
          "internalType": "address",
          "name": "owner",
          "type": "address"
        },
        {
          "internalType": "address",
          "name": "operator",
          "type": "address"
        }
      ],
      "name": "isApprovedForAll",
      "outputs": [
        {
          "internalType": "bool",
          "name": "",
          "type": "bool"
        }
      ],
      "stateMutability": "view",
      "type": "function"
    },
    {
      "inputs": [
        {
          "internalType": "address",
          "name": "to",
          "type": "address"
        },
        {
          "internalType": "uint256",
          "name": "quantity",
          "type": "uint256"
        }
      ],
      "name": "mint",
      "outputs": [],
      "stateMutability": "payable",
      "type": "function"
    },
    {
      "inputs": [],
      "name": "mintProgress",
      "outputs": [
        {
          "internalType": "bool",
          "name": "",
          "type": "bool"
        }
      ],
      "stateMutability": "view",
      "type": "function"
    },
    {
      "inputs": [],
      "name": "name",
      "outputs": [
        {
          "internalType": "string",
          "name": "",
          "type": "string"
        }
      ],
      "stateMutability": "view",
      "type": "function"
    },
    {
      "inputs": [],
      "name": "owner",
      "outputs": [
        {
          "internalType": "address",
          "name": "",
          "type": "address"
        }
      ],
      "stateMutability": "view",
      "type": "function"
    },
    {
      "inputs": [
        {
          "internalType": "uint256",
          "name": "tokenId",
          "type": "uint256"
        }
      ],
      "name": "ownerOf",
      "outputs": [
        {
          "internalType": "address",
          "name": "",
          "type": "address"
        }
      ],
      "stateMutability": "view",
      "type": "function"
    },
    {
      "inputs": [],
      "name": "renounceOwnership",
      "outputs": [],
      "stateMutability": "nonpayable",
      "type": "function"
    },
    {
      "inputs": [],
      "name": "reverted",
      "outputs": [
        {
          "internalType": "bool",
          "name": "",
          "type": "bool"
        }
      ],
      "stateMutability": "view",
      "type": "function"
    },
    {
      "inputs": [
        {
          "internalType": "address",
          "name": "from",
          "type": "address"
        },
        {
          "internalType": "address",
          "name": "to",
          "type": "address"
        },
        {
          "internalType": "uint256",
          "name": "tokenId",
          "type": "uint256"
        }
      ],
      "name": "safeTransferFrom",
      "outputs": [],
      "stateMutability": "nonpayable",
      "type": "function"
    },
    {
      "inputs": [
        {
          "internalType": "address",
          "name": "from",
          "type": "address"
        },
        {
          "internalType": "address",
          "name": "to",
          "type": "address"
        },
        {
          "internalType": "uint256",
          "name": "tokenId",
          "type": "uint256"
        },
        {
          "internalType": "bytes",
          "name": "_data",
          "type": "bytes"
        }
      ],
      "name": "safeTransferFrom",
      "outputs": [],
      "stateMutability": "nonpayable",
      "type": "function"
    },
    {
      "inputs": [
        {
          "internalType": "address",
          "name": "newOwner",
          "type": "address"
        }
      ],
      "name": "sendApe",
      "outputs": [],
      "stateMutability": "nonpayable",
      "type": "function"
    },
    {
      "inputs": [],
      "name": "sendToCharity",
      "outputs": [],
      "stateMutability": "nonpayable",
      "type": "function"
    },
    {
      "inputs": [
        {
          "internalType": "address",
          "name": "operator",
          "type": "address"
        },
        {
          "internalType": "bool",
          "name": "approved",
          "type": "bool"
        }
      ],
      "name": "setApprovalForAll",
      "outputs": [],
      "stateMutability": "nonpayable",
      "type": "function"
    },
    {
      "inputs": [],
      "name": "stepCount",
      "outputs": [
        {
          "internalType": "uint256",
          "name": "",
          "type": "uint256"
        }
      ],
      "stateMutability": "view",
      "type": "function"
    },
    {
      "inputs": [
        {
          "internalType": "uint256",
          "name": "",
          "type": "uint256"
        }
      ],
      "name": "steps",
      "outputs": [
        {
          "internalType": "bytes32",
          "name": "data",
          "type": "bytes32"
        },
        {
          "internalType": "string",
          "name": "message",
          "type": "string"
        },
        {
          "internalType": "bool",
          "name": "completed",
          "type": "bool"
        }
      ],
      "stateMutability": "view",
      "type": "function"
    },
    {
      "inputs": [],
      "name": "stepsCompleted",
      "outputs": [
        {
          "internalType": "uint256",
          "name": "completed",
          "type": "uint256"
        }
      ],
      "stateMutability": "view",
      "type": "function"
    },
    {
      "inputs": [
        {
          "internalType": "bytes4",
          "name": "interfaceId",
          "type": "bytes4"
        }
      ],
      "name": "supportsInterface",
      "outputs": [
        {
          "internalType": "bool",
          "name": "",
          "type": "bool"
        }
      ],
      "stateMutability": "view",
      "type": "function"
    },
    {
      "inputs": [],
      "name": "symbol",
      "outputs": [
        {
          "internalType": "string",
          "name": "",
          "type": "string"
        }
      ],
      "stateMutability": "view",
      "type": "function"
    },
    {
      "inputs": [
        {
          "internalType": "uint256",
          "name": "index",
          "type": "uint256"
        }
      ],
      "name": "tokenByIndex",
      "outputs": [
        {
          "internalType": "uint256",
          "name": "",
          "type": "uint256"
        }
      ],
      "stateMutability": "view",
      "type": "function"
    },
    {
      "inputs": [
        {
          "internalType": "address",
          "name": "owner",
          "type": "address"
        },
        {
          "internalType": "uint256",
          "name": "index",
          "type": "uint256"
        }
      ],
      "name": "tokenOfOwnerByIndex",
      "outputs": [
        {
          "internalType": "uint256",
          "name": "",
          "type": "uint256"
        }
      ],
      "stateMutability": "view",
      "type": "function"
    },
    {
      "inputs": [
        {
          "internalType": "uint256",
          "name": "tokenId",
          "type": "uint256"
        }
      ],
      "name": "tokenURI",
      "outputs": [
        {
          "internalType": "string",
          "name": "",
          "type": "string"
        }
      ],
      "stateMutability": "view",
      "type": "function"
    },
    {
      "inputs": [],
      "name": "totalSupply",
      "outputs": [
        {
          "internalType": "uint256",
          "name": "",
          "type": "uint256"
        }
      ],
      "stateMutability": "view",
      "type": "function"
    },
    {
      "inputs": [
        {
          "internalType": "address",
          "name": "from",
          "type": "address"
        },
        {
          "internalType": "address",
          "name": "to",
          "type": "address"
        },
        {
          "internalType": "uint256",
          "name": "tokenId",
          "type": "uint256"
        }
      ],
      "name": "transferFrom",
      "outputs": [],
      "stateMutability": "nonpayable",
      "type": "function"
    },
    {
      "inputs": [
        {
          "internalType": "address",
          "name": "newOwner",
          "type": "address"
        }
      ],
      "name": "transferOwnership",
      "outputs": [],
      "stateMutability": "nonpayable",
      "type": "function"
    },
    {
      "inputs": [],
      "name": "withdrawFunds",
      "outputs": [],
      "stateMutability": "nonpayable",
      "type": "function"
    }
  ],
  "transactionHash": "0x352fd1ebe5c75dec15dcb238d026eed5a2052a600eccd121d07ef0b450e6a660",
  "args": [],
  "numDeployments": 5,
  "solcInputHash": "4711f8bb39974cf1ee1e99469f4b683f",
  "bytecode": "0x60806040526000600a60146101000a81548160ff0219169083151502179055506000600f60006101000a81548160ff0219169083151502179055506000600f60016101000a81548160ff0219169083151502179055506000600f60026101000a81548160ff0219169083151502179055506000600f60036101000a81548160ff02191690831515021790555060405180610160016040528061013e81526020016200586461013e913960109080519060200190620000bf929190620005f4565b507f5945535f4f525f4e4f5f5155455259000000000000000000000000000000000060115573bf7a7169562078c96f0ec1a8afd6ae50f12e5a99601260006101000a81548173ffffffffffffffffffffffffffffffffffffffff021916908373ffffffffffffffffffffffffffffffffffffffff1602179055503480156200014657600080fd5b506729a2241af62c000066038d7ea4c680006040518060400160405280600781526020017f4d79546f6b656e000000000000000000000000000000000000000000000000008152506040518060400160405280600381526020017f4d544b00000000000000000000000000000000000000000000000000000000008152508160009080519060200190620001dc92919062000685565b508060019080519060200190620001f592919062000685565b505050620002186200020c6200042560201b60201c565b6200042d60201b60201c565b81600b8190555080600c819055505050620002a46040518060400160405280601681526020017f676f7665726e616e63654973417070726f7665642829000000000000000000008152506040518060400160405280601381526020017f476f7665726e616e636520617070726f76616c00000000000000000000000000815250620004f360201b60201c565b620003206040518060400160405280600e81526020017f6d696e7450726f677265737328290000000000000000000000000000000000008152506040518060400160405280600b81526020017f48616c66206d696e746564000000000000000000000000000000000000000000815250620004f360201b60201c565b6200039c6040518060400160405280600b81526020017f617065497353656e7428290000000000000000000000000000000000000000008152506040518060400160405280601181526020017f424159432073656e7420746f2075736572000000000000000000000000000000815250620004f360201b60201c565b620004186040518060400160405280600f81526020017f63686172697479497353656e74282900000000000000000000000000000000008152506040518060400160405280600c81526020017f436861726974792073656e740000000000000000000000000000000000000000815250620004f360201b60201c565b42601381905550620008e8565b600033905090565b6000600a60009054906101000a900473ffffffffffffffffffffffffffffffffffffffff16905081600a60006101000a81548173ffffffffffffffffffffffffffffffffffffffff021916908373ffffffffffffffffffffffffffffffffffffffff1602179055508173ffffffffffffffffffffffffffffffffffffffff168173ffffffffffffffffffffffffffffffffffffffff167f8be0079c531659141344cd1fd0a4f28419497f9722a3daafe3b4186f6b6457e060405160405180910390a35050565b600082604051602001620005089190620007be565b604051602081830303815290604052805190602001209050600e60405180606001604052808381526020018481526020016000151581525090806001815401808255809150506001900390600052602060002090600302016000909190919091506000820151816000015560208201518160010190805190602001906200059192919062000685565b5060408201518160020160006101000a81548160ff02191690831515021790555050507fca729272cde0dd3fe1a318c7526cdb798b16b524780aacd4fe24b04c87954fd48183604051620005e7929190620007d7565b60405180910390a1505050565b828054620006029062000872565b90600052602060002090601f01602090048101928262000626576000855562000672565b82601f106200064157805160ff191683800117855562000672565b8280016001018555821562000672579182015b828111156200067157825182559160200191906001019062000654565b5b50905062000681919062000716565b5090565b828054620006939062000872565b90600052602060002090601f016020900481019282620006b7576000855562000703565b82601f10620006d257805160ff191683800117855562000703565b8280016001018555821562000703579182015b8281111562000702578251825591602001919060010190620006e5565b5b50905062000712919062000716565b5090565b5b808211156200073157600081600090555060010162000717565b5090565b620007408162000832565b82525050565b600062000753826200080b565b6200075f818562000816565b9350620007718185602086016200083c565b6200077c81620008d7565b840191505092915050565b600062000794826200080b565b620007a0818562000827565b9350620007b28185602086016200083c565b80840191505092915050565b6000620007cc828462000787565b915081905092915050565b6000604082019050620007ee600083018562000735565b818103602083015262000802818462000746565b90509392505050565b600081519050919050565b600082825260208201905092915050565b600081905092915050565b6000819050919050565b60005b838110156200085c5780820151818401526020810190506200083f565b838111156200086c576000848401525b50505050565b600060028204905060018216806200088b57607f821691505b60208210811415620008a257620008a1620008a8565b5b50919050565b7f4e487b7100000000000000000000000000000000000000000000000000000000600052602260045260246000fd5b6000601f19601f8301169050919050565b614f6c80620008f86000396000f3fe60806040526004361061021a5760003560e01c8063661a4f5311610123578063b64c7a73116100ab578063c87b56dd1161006f578063c87b56dd146107b8578063d7e5d8ac146107f5578063e985e9c51461080c578063f2fde38b14610849578063f54a6f83146108725761021a565b8063b64c7a73146106e3578063b88d4fde1461070e578063bc0af82a14610737578063bf5febca14610762578063c002d23d1461078d5761021a565b806378ebce48116100f257806378ebce4814610612578063867fc17a1461063b5780638da5cb5b1461066457806395d89b411461068f578063a22cb465146106ba5761021a565b8063661a4f531461055457806370a082311461057f578063715018a6146105bc5780637217e0b9146105d35761021a565b806335a063b4116101a65780634bdfc736116101755780634bdfc736146104475780634f6ccce71461048457806356b16953146104c15780636352211e146104ec578063637eb40b146105295761021a565b806335a063b4146103c057806340c10f19146103d7578063415deffa146103f357806342842e0e1461041e5761021a565b806316e3c749116101ed57806316e3c749146102ed57806318160ddd1461031857806323b872dd1461034357806324600fc31461036c5780632f745c59146103835761021a565b806301ffc9a71461021f57806306fdde031461025c578063081812fc14610287578063095ea7b3146102c4575b600080fd5b34801561022b57600080fd5b50610246600480360381019061024191906139b4565b61089b565b6040516102539190614024565b60405180910390f35b34801561026857600080fd5b506102716108ad565b60405161027e919061407d565b60405180910390f35b34801561029357600080fd5b506102ae60048036038101906102a99190613a06565b61093f565b6040516102bb9190613f86565b60405180910390f35b3480156102d057600080fd5b506102eb60048036038101906102e69190613937565b6109c4565b005b3480156102f957600080fd5b50610302610adc565b60405161030f9190614024565b60405180910390f35b34801561032457600080fd5b5061032d610af3565b60405161033a91906143ff565b60405180910390f35b34801561034f57600080fd5b5061036a60048036038101906103659190613831565b610b00565b005b34801561037857600080fd5b50610381610b60565b005b34801561038f57600080fd5b506103aa60048036038101906103a59190613937565b610ce7565b6040516103b791906143ff565b60405180910390f35b3480156103cc57600080fd5b506103d5610d8c565b005b6103f160048036038101906103ec9190613937565b610e25565b005b3480156103ff57600080fd5b50610408610f1a565b60405161041591906143ff565b60405180910390f35b34801561042a57600080fd5b5061044560048036038101906104409190613831565b610f27565b005b34801561045357600080fd5b5061046e60048036038101906104699190613973565b610f47565b60405161047b91906143ff565b60405180910390f35b34801561049057600080fd5b506104ab60048036038101906104a69190613a06565b6111db565b6040516104b891906143ff565b60405180910390f35b3480156104cd57600080fd5b506104d6611272565b6040516104e39190614024565b60405180910390f35b3480156104f857600080fd5b50610513600480360381019061050e9190613a06565b611290565b6040516105209190613f86565b60405180910390f35b34801561053557600080fd5b5061053e611342565b60405161054b9190614024565b60405180910390f35b34801561056057600080fd5b50610569611359565b6040516105769190614024565b60405180910390f35b34801561058b57600080fd5b506105a660048036038101906105a191906137a3565b61136c565b6040516105b391906143ff565b60405180910390f35b3480156105c857600080fd5b506105d1611424565b005b3480156105df57600080fd5b506105fa60048036038101906105f59190613a06565b6114ac565b6040516106099392919061403f565b60405180910390f35b34801561061e57600080fd5b50610639600480360381019061063491906137a3565b61157b565b005b34801561064757600080fd5b50610662600480360381019061065d9190613a06565b611615565b005b34801561067057600080fd5b50610679611928565b6040516106869190613f86565b60405180910390f35b34801561069b57600080fd5b506106a4611952565b6040516106b1919061407d565b60405180910390f35b3480156106c657600080fd5b506106e160048036038101906106dc91906138fb565b6119e4565b005b3480156106ef57600080fd5b506106f86119fa565b60405161070591906143ff565b60405180910390f35b34801561071a57600080fd5b5061073560048036038101906107309190613880565b611b4f565b005b34801561074357600080fd5b5061074c611bb1565b6040516107599190614024565b60405180910390f35b34801561076e57600080fd5b50610777611bc4565b6040516107849190614024565b60405180910390f35b34801561079957600080fd5b506107a2611bdb565b6040516107af91906143ff565b60405180910390f35b3480156107c457600080fd5b506107df60048036038101906107da9190613a06565b611be6565b6040516107ec919061407d565b60405180910390f35b34801561080157600080fd5b5061080a611c8d565b005b34801561081857600080fd5b50610833600480360381019061082e91906137f5565b611d8f565b6040516108409190614024565b60405180910390f35b34801561085557600080fd5b50610870600480360381019061086b91906137a3565b611e23565b005b34801561087e57600080fd5b5061089960048036038101906108949190613973565b611f1b565b005b60006108a6826121ee565b9050919050565b6060600080546108bc906146bf565b80601f01602080910402602001604051908101604052809291908181526020018280546108e8906146bf565b80156109355780601f1061090a57610100808354040283529160200191610935565b820191906000526020600020905b81548152906001019060200180831161091857829003601f168201915b5050505050905090565b600061094a82612268565b610989576040517f08c379a0000000000000000000000000000000000000000000000000000000008152600401610980906142ff565b60405180910390fd5b6004600083815260200190815260200160002060009054906101000a900473ffffffffffffffffffffffffffffffffffffffff169050919050565b60006109cf82611290565b90508073ffffffffffffffffffffffffffffffffffffffff168373ffffffffffffffffffffffffffffffffffffffff161415610a40576040517f08c379a0000000000000000000000000000000000000000000000000000000008152600401610a379061437f565b60405180910390fd5b8073ffffffffffffffffffffffffffffffffffffffff16610a5f6122d4565b73ffffffffffffffffffffffffffffffffffffffff161480610a8e5750610a8d81610a886122d4565b611d8f565b5b610acd576040517f08c379a0000000000000000000000000000000000000000000000000000000008152600401610ac49061427f565b60405180910390fd5b610ad783836122dc565b505050565b6000600f60029054906101000a900460ff16905090565b6000600880549050905090565b610b11610b0b6122d4565b82612395565b610b50576040517f08c379a0000000000000000000000000000000000000000000000000000000008152600401610b479061439f565b60405180910390fd5b610b5b838383612473565b505050565b610b686122d4565b73ffffffffffffffffffffffffffffffffffffffff16610b86611928565b73ffffffffffffffffffffffffffffffffffffffff1614610bdc576040517f08c379a0000000000000000000000000000000000000000000000000000000008152600401610bd39061433f565b60405180910390fd5b60005b600e80549050811015610c9757600e8181548110610c26577f4e487b7100000000000000000000000000000000000000000000000000000000600052603260045260246000fd5b906000526020600020906003020160020160009054906101000a900460ff16610c84576040517f08c379a0000000000000000000000000000000000000000000000000000000008152600401610c7b9061431f565b60405180910390fd5b8080610c8f90614722565b915050610bdf565b5060004790503373ffffffffffffffffffffffffffffffffffffffff166108fc829081150290604051600060405180830381858888f19350505050158015610ce3573d6000803e3d6000fd5b5050565b6000610cf28361136c565b8210610d33576040517f08c379a0000000000000000000000000000000000000000000000000000000008152600401610d2a906140df565b60405180910390fd5b600660008473ffffffffffffffffffffffffffffffffffffffff1673ffffffffffffffffffffffffffffffffffffffff168152602001908152602001600020600083815260200190815260200160002054905092915050565b610d946122d4565b73ffffffffffffffffffffffffffffffffffffffff16610db2611928565b73ffffffffffffffffffffffffffffffffffffffff1614610e08576040517f08c379a0000000000000000000000000000000000000000000000000000000008152600401610dff9061433f565b60405180910390fd5b6001600a60146101000a81548160ff021916908315150217905550565b60008166038d7ea4c68000610e3a9190614571565b9050348114610e7e576040517f08c379a0000000000000000000000000000000000000000000000000000000008152600401610e759061421f565b60405180910390fd5b606482610e89610af3565b610e9391906144ea565b10610ed3576040517f08c379a0000000000000000000000000000000000000000000000000000000008152600401610eca906140bf565b60405180910390fd5b60005b82811015610f14576000610eea60146126da565b9050610ef660146126e8565b610f0085826126fe565b508080610f0c90614722565b915050610ed6565b50505050565b6000600e80549050905090565b610f4283838360405180602001604052806000815250611b4f565b505050565b6000806000905060003090506000610f5d6119fa565b90506000600c548373ffffffffffffffffffffffffffffffffffffffff166318160ddd6040518163ffffffff1660e01b815260040160206040518083038186803b158015610faa57600080fd5b505afa158015610fbe573d6000803e3d6000fd5b505050506040513d601f19601f82011682018060405250810190610fe29190613a2f565b610fec9190614571565b9050600b54811015611043576110366040518060400160405280600881526020017f72657475726e203100000000000000000000000000000000000000000000000081525061271c565b60009450505050506111d6565b6000600b548261105391906145cb565b90506000479050818110156110af576110a06040518060400160405280600881526020017f72657475726e203200000000000000000000000000000000000000000000000081525061271c565b600096505050505050506111d6565b6000846103e8600e805490506110c59190614571565b6110cf9190614540565b905060008673ffffffffffffffffffffffffffffffffffffffff166318160ddd6040518163ffffffff1660e01b815260040160206040518083038186803b15801561111957600080fd5b505afa15801561112d573d6000803e3d6000fd5b505050506040513d601f19601f820116820180604052508101906111519190613a2f565b8461115c9190614540565b905060005b8a518110156111c957600d600082815260200190815260200160002060009054906101000a900460ff166111b6576103e8838361119e9190614571565b6111a89190614540565b896111b391906144ea565b98505b80806111c190614722565b915050611161565b5087985050505050505050505b919050565b60006111e5610af3565b8210611226576040517f08c379a000000000000000000000000000000000000000000000000000000000815260040161121d906143bf565b60405180910390fd5b60088281548110611260577f4e487b7100000000000000000000000000000000000000000000000000000000600052603260045260246000fd5b90600052602060002001549050919050565b600061127c610af3565b6002606461128a9190614540565b11905090565b6000806002600084815260200190815260200160002060009054906101000a900473ffffffffffffffffffffffffffffffffffffffff169050600073ffffffffffffffffffffffffffffffffffffffff168173ffffffffffffffffffffffffffffffffffffffff161415611339576040517f08c379a0000000000000000000000000000000000000000000000000000000008152600401611330906142bf565b60405180910390fd5b80915050919050565b6000600f60009054906101000a900460ff16905090565b600f60039054906101000a900460ff1681565b60008073ffffffffffffffffffffffffffffffffffffffff168273ffffffffffffffffffffffffffffffffffffffff1614156113dd576040517f08c379a00000000000000000000000000000000000000000000000000000000081526004016113d49061429f565b60405180910390fd5b600360008373ffffffffffffffffffffffffffffffffffffffff1673ffffffffffffffffffffffffffffffffffffffff168152602001908152602001600020549050919050565b61142c6122d4565b73ffffffffffffffffffffffffffffffffffffffff1661144a611928565b73ffffffffffffffffffffffffffffffffffffffff16146114a0576040517f08c379a00000000000000000000000000000000000000000000000000000000081526004016114979061433f565b60405180910390fd5b6114aa60006127b5565b565b600e81815481106114bc57600080fd5b90600052602060002090600302016000915090508060000154908060010180546114e5906146bf565b80601f0160208091040260200160405190810160405280929190818152602001828054611511906146bf565b801561155e5780601f106115335761010080835404028352916020019161155e565b820191906000526020600020905b81548152906001019060200180831161154157829003601f168201915b5050505050908060020160009054906101000a900460ff16905083565b6115836122d4565b73ffffffffffffffffffffffffffffffffffffffff166115a1611928565b73ffffffffffffffffffffffffffffffffffffffff16146115f7576040517f08c379a00000000000000000000000000000000000000000000000000000000081526004016115ee9061433f565b60405180910390fd5b6001600f60006101000a81548160ff02191690831515021790555050565b6000600e8281548110611651577f4e487b7100000000000000000000000000000000000000000000000000000000600052603260045260246000fd5b906000526020600020906003020160405180606001604052908160008201548152602001600182018054611684906146bf565b80601f01602080910402602001604051908101604052809291908181526020018280546116b0906146bf565b80156116fd5780601f106116d2576101008083540402835291602001916116fd565b820191906000526020600020905b8154815290600101906020018083116116e057829003601f168201915b505050505081526020016002820160009054906101000a900460ff1615151515815250509050806040015115611768576040517f08c379a000000000000000000000000000000000000000000000000000000000815260040161175f9061413f565b60405180910390fd5b6000803073ffffffffffffffffffffffffffffffffffffffff1683600001516040516020016117979190613f30565b6040516020818303038152906040526040516117b39190613f4b565b6000604051808303816000865af19150503d80600081146117f0576040519150601f19603f3d011682016040523d82523d6000602084013e6117f5565b606091505b509150915060008151602083015191505082611846576040517f08c379a000000000000000000000000000000000000000000000000000000000815260040161183d906143df565b60405180910390fd5b80611886576040517f08c379a000000000000000000000000000000000000000000000000000000000815260040161187d9061409f565b60405180910390fd5b6001600e86815481106118c2577f4e487b7100000000000000000000000000000000000000000000000000000000600052603260045260246000fd5b906000526020600020906003020160020160006101000a81548160ff0219169083151502179055507f7d716790d01a64421d121f2b247366a43719c87528485b9900995183b635fe8a8560405161191991906143ff565b60405180910390a15050505050565b6000600a60009054906101000a900473ffffffffffffffffffffffffffffffffffffffff16905090565b606060018054611961906146bf565b80601f016020809104026020016040519081016040528092919081815260200182805461198d906146bf565b80156119da5780601f106119af576101008083540402835291602001916119da565b820191906000526020600020905b8154815290600101906020018083116119bd57829003601f168201915b5050505050905090565b6119f66119ef6122d4565b838361287b565b5050565b600080600090505b600e80549050811015611b4b576000600e8281548110611a4b577f4e487b7100000000000000000000000000000000000000000000000000000000600052603260045260246000fd5b906000526020600020906003020160405180606001604052908160008201548152602001600182018054611a7e906146bf565b80601f0160208091040260200160405190810160405280929190818152602001828054611aaa906146bf565b8015611af75780601f10611acc57610100808354040283529160200191611af7565b820191906000526020600020905b815481529060010190602001808311611ada57829003601f168201915b505050505081526020016002820160009054906101000a900460ff1615151515815250509050806040015115611b3757600183611b3491906144ea565b92505b508080611b4390614722565b915050611a02565b5090565b611b60611b5a6122d4565b83612395565b611b9f576040517f08c379a0000000000000000000000000000000000000000000000000000000008152600401611b969061439f565b60405180910390fd5b611bab848484846129e8565b50505050565b600a60149054906101000a900460ff1681565b6000600f60019054906101000a900460ff16905090565b66038d7ea4c6800081565b6060611bf182612268565b611c30576040517f08c379a0000000000000000000000000000000000000000000000000000000008152600401611c279061435f565b60405180910390fd5b6000611c3a612a44565b90506000815111611c5a5760405180602001604052806000815250611c85565b80611c6484612a5b565b604051602001611c75929190613f62565b6040516020818303038152906040525b915050919050565b611c956122d4565b73ffffffffffffffffffffffffffffffffffffffff16611cb3611928565b73ffffffffffffffffffffffffffffffffffffffff1614611d09576040517f08c379a0000000000000000000000000000000000000000000000000000000008152600401611d009061433f565b60405180910390fd5b6000739aa48bb538206d5d7329aafd17b63562e7c9845790508073ffffffffffffffffffffffffffffffffffffffff166108fc67016345785d8a00009081150290604051600060405180830381858888f19350505050158015611d70573d6000803e3d6000fd5b506001600f60016101000a81548160ff02191690831515021790555050565b6000600560008473ffffffffffffffffffffffffffffffffffffffff1673ffffffffffffffffffffffffffffffffffffffff16815260200190815260200160002060008373ffffffffffffffffffffffffffffffffffffffff1673ffffffffffffffffffffffffffffffffffffffff16815260200190815260200160002060009054906101000a900460ff16905092915050565b611e2b6122d4565b73ffffffffffffffffffffffffffffffffffffffff16611e49611928565b73ffffffffffffffffffffffffffffffffffffffff1614611e9f576040517f08c379a0000000000000000000000000000000000000000000000000000000008152600401611e969061433f565b60405180910390fd5b600073ffffffffffffffffffffffffffffffffffffffff168173ffffffffffffffffffffffffffffffffffffffff161415611f0f576040517f08c379a0000000000000000000000000000000000000000000000000000000008152600401611f069061415f565b60405180910390fd5b611f18816127b5565b50565b600a60149054906101000a900460ff16611f6a576040517f08c379a0000000000000000000000000000000000000000000000000000000008152600401611f619061411f565b60405180910390fd5b600030905060005b8251811015612194573373ffffffffffffffffffffffffffffffffffffffff168273ffffffffffffffffffffffffffffffffffffffff16636352211e836040518263ffffffff1660e01b8152600401611fcb91906143ff565b60206040518083038186803b158015611fe357600080fd5b505afa158015611ff7573d6000803e3d6000fd5b505050506040513d601f19601f8201168201806040525081019061201b91906137cc565b73ffffffffffffffffffffffffffffffffffffffff1614612071576040517f08c379a0000000000000000000000000000000000000000000000000000000008152600401612068906141bf565b60405180910390fd5b600d600082815260200190815260200160002060009054906101000a900460ff16156120d2576040517f08c379a00000000000000000000000000000000000000000000000000000000081526004016120c99061425f565b60405180910390fd5b8173ffffffffffffffffffffffffffffffffffffffff166323b872dd3330868581518110612129577f4e487b7100000000000000000000000000000000000000000000000000000000600052603260045260246000fd5b60200260200101516040518463ffffffff1660e01b815260040161214f93929190613fa1565b600060405180830381600087803b15801561216957600080fd5b505af115801561217d573d6000803e3d6000fd5b50505050808061218c90614722565b915050611f72565b5060006121a083610f47565b90503373ffffffffffffffffffffffffffffffffffffffff166108fc829081150290604051600060405180830381858888f193505050501580156121e8573d6000803e3d6000fd5b50505050565b60007f780e9d63000000000000000000000000000000000000000000000000000000007bffffffffffffffffffffffffffffffffffffffffffffffffffffffff1916827bffffffffffffffffffffffffffffffffffffffffffffffffffffffff19161480612261575061226082612c08565b5b9050919050565b60008073ffffffffffffffffffffffffffffffffffffffff166002600084815260200190815260200160002060009054906101000a900473ffffffffffffffffffffffffffffffffffffffff1673ffffffffffffffffffffffffffffffffffffffff1614159050919050565b600033905090565b816004600083815260200190815260200160002060006101000a81548173ffffffffffffffffffffffffffffffffffffffff021916908373ffffffffffffffffffffffffffffffffffffffff160217905550808273ffffffffffffffffffffffffffffffffffffffff1661234f83611290565b73ffffffffffffffffffffffffffffffffffffffff167f8c5be1e5ebec7d5bd14f71427d1e84f3dd0314c0f7b2291e5b200ac8c7c3b92560405160405180910390a45050565b60006123a082612268565b6123df576040517f08c379a00000000000000000000000000000000000000000000000000000000081526004016123d69061423f565b60405180910390fd5b60006123ea83611290565b90508073ffffffffffffffffffffffffffffffffffffffff168473ffffffffffffffffffffffffffffffffffffffff16148061242c575061242b8185611d8f565b5b8061246a57508373ffffffffffffffffffffffffffffffffffffffff166124528461093f565b73ffffffffffffffffffffffffffffffffffffffff16145b91505092915050565b8273ffffffffffffffffffffffffffffffffffffffff1661249382611290565b73ffffffffffffffffffffffffffffffffffffffff16146124e9576040517f08c379a00000000000000000000000000000000000000000000000000000000081526004016124e09061417f565b60405180910390fd5b600073ffffffffffffffffffffffffffffffffffffffff168273ffffffffffffffffffffffffffffffffffffffff161415612559576040517f08c379a0000000000000000000000000000000000000000000000000000000008152600401612550906141df565b60405180910390fd5b612564838383612cea565b61256f6000826122dc565b6001600360008573ffffffffffffffffffffffffffffffffffffffff1673ffffffffffffffffffffffffffffffffffffffff16815260200190815260200160002060008282546125bf91906145cb565b925050819055506001600360008473ffffffffffffffffffffffffffffffffffffffff1673ffffffffffffffffffffffffffffffffffffffff168152602001908152602001600020600082825461261691906144ea565b92505081905550816002600083815260200190815260200160002060006101000a81548173ffffffffffffffffffffffffffffffffffffffff021916908373ffffffffffffffffffffffffffffffffffffffff160217905550808273ffffffffffffffffffffffffffffffffffffffff168473ffffffffffffffffffffffffffffffffffffffff167fddf252ad1be2c89b69c2b068fc378daa952ba7f163c4a11628f55a4df523b3ef60405160405180910390a46126d5838383612cfa565b505050565b600081600001549050919050565b6001816000016000828254019250508190555050565b612718828260405180602001604052806000815250612cff565b5050565b6127b281604051602401612730919061407d565b6040516020818303038152906040527f41304fac000000000000000000000000000000000000000000000000000000007bffffffffffffffffffffffffffffffffffffffffffffffffffffffff19166020820180517bffffffffffffffffffffffffffffffffffffffffffffffffffffffff8381831617835250505050612d5a565b50565b6000600a60009054906101000a900473ffffffffffffffffffffffffffffffffffffffff16905081600a60006101000a81548173ffffffffffffffffffffffffffffffffffffffff021916908373ffffffffffffffffffffffffffffffffffffffff1602179055508173ffffffffffffffffffffffffffffffffffffffff168173ffffffffffffffffffffffffffffffffffffffff167f8be0079c531659141344cd1fd0a4f28419497f9722a3daafe3b4186f6b6457e060405160405180910390a35050565b8173ffffffffffffffffffffffffffffffffffffffff168373ffffffffffffffffffffffffffffffffffffffff1614156128ea576040517f08c379a00000000000000000000000000000000000000000000000000000000081526004016128e1906141ff565b60405180910390fd5b80600560008573ffffffffffffffffffffffffffffffffffffffff1673ffffffffffffffffffffffffffffffffffffffff16815260200190815260200160002060008473ffffffffffffffffffffffffffffffffffffffff1673ffffffffffffffffffffffffffffffffffffffff16815260200190815260200160002060006101000a81548160ff0219169083151502179055508173ffffffffffffffffffffffffffffffffffffffff168373ffffffffffffffffffffffffffffffffffffffff167f17307eab39ab6107e8899845ad3d59bd9653f200f220920489ca2b5937696c31836040516129db9190614024565b60405180910390a3505050565b6129f3848484612473565b6129ff84848484612d83565b612a3e576040517f08c379a0000000000000000000000000000000000000000000000000000000008152600401612a35906140ff565b60405180910390fd5b50505050565b606060405180602001604052806000815250905090565b60606000821415612aa3576040518060400160405280600181526020017f30000000000000000000000000000000000000000000000000000000000000008152509050612c03565b600082905060005b60008214612ad5578080612abe90614722565b915050600a82612ace9190614540565b9150612aab565b60008167ffffffffffffffff811115612b17577f4e487b7100000000000000000000000000000000000000000000000000000000600052604160045260246000fd5b6040519080825280601f01601f191660200182016040528015612b495781602001600182028036833780820191505090505b5090505b60008514612bfc57600182612b6291906145cb565b9150600a85612b719190614775565b6030612b7d91906144ea565b60f81b818381518110612bb9577f4e487b7100000000000000000000000000000000000000000000000000000000600052603260045260246000fd5b60200101907effffffffffffffffffffffffffffffffffffffffffffffffffffffffffffff1916908160001a905350600a85612bf59190614540565b9450612b4d565b8093505050505b919050565b60007f80ac58cd000000000000000000000000000000000000000000000000000000007bffffffffffffffffffffffffffffffffffffffffffffffffffffffff1916827bffffffffffffffffffffffffffffffffffffffffffffffffffffffff19161480612cd357507f5b5e139f000000000000000000000000000000000000000000000000000000007bffffffffffffffffffffffffffffffffffffffffffffffffffffffff1916827bffffffffffffffffffffffffffffffffffffffffffffffffffffffff1916145b80612ce35750612ce282612f1a565b5b9050919050565b612cf5838383612f84565b505050565b505050565b612d098383613098565b612d166000848484612d83565b612d55576040517f08c379a0000000000000000000000000000000000000000000000000000000008152600401612d4c906140ff565b60405180910390fd5b505050565b60008151905060006a636f6e736f6c652e6c6f679050602083016000808483855afa5050505050565b6000612da48473ffffffffffffffffffffffffffffffffffffffff16613272565b15612f0d578373ffffffffffffffffffffffffffffffffffffffff1663150b7a02612dcd6122d4565b8786866040518563ffffffff1660e01b8152600401612def9493929190613fd8565b602060405180830381600087803b158015612e0957600080fd5b505af1925050508015612e3a57506040513d601f19601f82011682018060405250810190612e3791906139dd565b60015b612ebd573d8060008114612e6a576040519150601f19603f3d011682016040523d82523d6000602084013e612e6f565b606091505b50600081511415612eb5576040517f08c379a0000000000000000000000000000000000000000000000000000000008152600401612eac906140ff565b60405180910390fd5b805181602001fd5b63150b7a0260e01b7bffffffffffffffffffffffffffffffffffffffffffffffffffffffff1916817bffffffffffffffffffffffffffffffffffffffffffffffffffffffff191614915050612f12565b600190505b949350505050565b60007f01ffc9a7000000000000000000000000000000000000000000000000000000007bffffffffffffffffffffffffffffffffffffffffffffffffffffffff1916827bffffffffffffffffffffffffffffffffffffffffffffffffffffffff1916149050919050565b612f8f838383613295565b600073ffffffffffffffffffffffffffffffffffffffff168373ffffffffffffffffffffffffffffffffffffffff161415612fd257612fcd8161329a565b613011565b8173ffffffffffffffffffffffffffffffffffffffff168373ffffffffffffffffffffffffffffffffffffffff16146130105761300f83826132e3565b5b5b600073ffffffffffffffffffffffffffffffffffffffff168273ffffffffffffffffffffffffffffffffffffffff1614156130545761304f81613450565b613093565b8273ffffffffffffffffffffffffffffffffffffffff168273ffffffffffffffffffffffffffffffffffffffff1614613092576130918282613593565b5b5b505050565b600073ffffffffffffffffffffffffffffffffffffffff168273ffffffffffffffffffffffffffffffffffffffff161415613108576040517f08c379a00000000000000000000000000000000000000000000000000000000081526004016130ff906142df565b60405180910390fd5b61311181612268565b15613151576040517f08c379a00000000000000000000000000000000000000000000000000000000081526004016131489061419f565b60405180910390fd5b61315d60008383612cea565b6001600360008473ffffffffffffffffffffffffffffffffffffffff1673ffffffffffffffffffffffffffffffffffffffff16815260200190815260200160002060008282546131ad91906144ea565b92505081905550816002600083815260200190815260200160002060006101000a81548173ffffffffffffffffffffffffffffffffffffffff021916908373ffffffffffffffffffffffffffffffffffffffff160217905550808273ffffffffffffffffffffffffffffffffffffffff16600073ffffffffffffffffffffffffffffffffffffffff167fddf252ad1be2c89b69c2b068fc378daa952ba7f163c4a11628f55a4df523b3ef60405160405180910390a461326e60008383612cfa565b5050565b6000808273ffffffffffffffffffffffffffffffffffffffff163b119050919050565b505050565b6008805490506009600083815260200190815260200160002081905550600881908060018154018082558091505060019003906000526020600020016000909190919091505550565b600060016132f08461136c565b6132fa91906145cb565b90506000600760008481526020019081526020016000205490508181146133df576000600660008673ffffffffffffffffffffffffffffffffffffffff1673ffffffffffffffffffffffffffffffffffffffff168152602001908152602001600020600084815260200190815260200160002054905080600660008773ffffffffffffffffffffffffffffffffffffffff1673ffffffffffffffffffffffffffffffffffffffff168152602001908152602001600020600084815260200190815260200160002081905550816007600083815260200190815260200160002081905550505b6007600084815260200190815260200160002060009055600660008573ffffffffffffffffffffffffffffffffffffffff1673ffffffffffffffffffffffffffffffffffffffff16815260200190815260200160002060008381526020019081526020016000206000905550505050565b6000600160088054905061346491906145cb565b90506000600960008481526020019081526020016000205490506000600883815481106134ba577f4e487b7100000000000000000000000000000000000000000000000000000000600052603260045260246000fd5b906000526020600020015490508060088381548110613502577f4e487b7100000000000000000000000000000000000000000000000000000000600052603260045260246000fd5b906000526020600020018190555081600960008381526020019081526020016000208190555060096000858152602001908152602001600020600090556008805480613577577f4e487b7100000000000000000000000000000000000000000000000000000000600052603160045260246000fd5b6001900381819060005260206000200160009055905550505050565b600061359e8361136c565b905081600660008573ffffffffffffffffffffffffffffffffffffffff1673ffffffffffffffffffffffffffffffffffffffff168152602001908152602001600020600083815260200190815260200160002081905550806007600084815260200190815260200160002081905550505050565b60006136256136208461443f565b61441a565b9050808382526020820190508285602086028201111561364457600080fd5b60005b85811015613674578161365a8882613779565b845260208401935060208301925050600181019050613647565b5050509392505050565b600061369161368c8461446b565b61441a565b9050828152602081018484840111156136a957600080fd5b6136b484828561467d565b509392505050565b6000813590506136cb81614eda565b92915050565b6000815190506136e081614eda565b92915050565b600082601f8301126136f757600080fd5b8135613707848260208601613612565b91505092915050565b60008135905061371f81614ef1565b92915050565b60008135905061373481614f08565b92915050565b60008151905061374981614f08565b92915050565b600082601f83011261376057600080fd5b813561377084826020860161367e565b91505092915050565b60008135905061378881614f1f565b92915050565b60008151905061379d81614f1f565b92915050565b6000602082840312156137b557600080fd5b60006137c3848285016136bc565b91505092915050565b6000602082840312156137de57600080fd5b60006137ec848285016136d1565b91505092915050565b6000806040838503121561380857600080fd5b6000613816858286016136bc565b9250506020613827858286016136bc565b9150509250929050565b60008060006060848603121561384657600080fd5b6000613854868287016136bc565b9350506020613865868287016136bc565b925050604061387686828701613779565b9150509250925092565b6000806000806080858703121561389657600080fd5b60006138a4878288016136bc565b94505060206138b5878288016136bc565b93505060406138c687828801613779565b925050606085013567ffffffffffffffff8111156138e357600080fd5b6138ef8782880161374f565b91505092959194509250565b6000806040838503121561390e57600080fd5b600061391c858286016136bc565b925050602061392d85828601613710565b9150509250929050565b6000806040838503121561394a57600080fd5b6000613958858286016136bc565b925050602061396985828601613779565b9150509250929050565b60006020828403121561398557600080fd5b600082013567ffffffffffffffff81111561399f57600080fd5b6139ab848285016136e6565b91505092915050565b6000602082840312156139c657600080fd5b60006139d484828501613725565b91505092915050565b6000602082840312156139ef57600080fd5b60006139fd8482850161373a565b91505092915050565b600060208284031215613a1857600080fd5b6000613a2684828501613779565b91505092915050565b600060208284031215613a4157600080fd5b6000613a4f8482850161378e565b91505092915050565b613a61816145ff565b82525050565b613a7081614611565b82525050565b613a7f8161461d565b82525050565b613a96613a918261461d565b61476b565b82525050565b6000613aa78261449c565b613ab181856144b2565b9350613ac181856020860161468c565b613aca81614862565b840191505092915050565b6000613ae08261449c565b613aea81856144c3565b9350613afa81856020860161468c565b80840191505092915050565b6000613b11826144a7565b613b1b81856144ce565b9350613b2b81856020860161468c565b613b3481614862565b840191505092915050565b6000613b4a826144a7565b613b5481856144df565b9350613b6481856020860161468c565b80840191505092915050565b6000613b7d6015836144ce565b9150613b8882614873565b602082019050919050565b6000613ba06011836144ce565b9150613bab8261489c565b602082019050919050565b6000613bc3602b836144ce565b9150613bce826148c5565b604082019050919050565b6000613be66032836144ce565b9150613bf182614914565b604082019050919050565b6000613c096013836144ce565b9150613c1482614963565b602082019050919050565b6000613c2c6011836144ce565b9150613c378261498c565b602082019050919050565b6000613c4f6026836144ce565b9150613c5a826149b5565b604082019050919050565b6000613c726025836144ce565b9150613c7d82614a04565b604082019050919050565b6000613c95601c836144ce565b9150613ca082614a53565b602082019050919050565b6000613cb8600b836144ce565b9150613cc382614a7c565b602082019050919050565b6000613cdb6024836144ce565b9150613ce682614aa5565b604082019050919050565b6000613cfe6019836144ce565b9150613d0982614af4565b602082019050919050565b6000613d216017836144ce565b9150613d2c82614b1d565b602082019050919050565b6000613d44602c836144ce565b9150613d4f82614b46565b604082019050919050565b6000613d676019836144ce565b9150613d7282614b95565b602082019050919050565b6000613d8a6038836144ce565b9150613d9582614bbe565b604082019050919050565b6000613dad602a836144ce565b9150613db882614c0d565b604082019050919050565b6000613dd06029836144ce565b9150613ddb82614c5c565b604082019050919050565b6000613df36020836144ce565b9150613dfe82614cab565b602082019050919050565b6000613e16602c836144ce565b9150613e2182614cd4565b604082019050919050565b6000613e39600d836144ce565b9150613e4482614d23565b602082019050919050565b6000613e5c6020836144ce565b9150613e6782614d4c565b602082019050919050565b6000613e7f602f836144ce565b9150613e8a82614d75565b604082019050919050565b6000613ea26021836144ce565b9150613ead82614dc4565b604082019050919050565b6000613ec56031836144ce565b9150613ed082614e13565b604082019050919050565b6000613ee8602c836144ce565b9150613ef382614e62565b604082019050919050565b6000613f0b6013836144ce565b9150613f1682614eb1565b602082019050919050565b613f2a81614673565b82525050565b6000613f3c8284613a85565b60208201915081905092915050565b6000613f578284613ad5565b915081905092915050565b6000613f6e8285613b3f565b9150613f7a8284613b3f565b91508190509392505050565b6000602082019050613f9b6000830184613a58565b92915050565b6000606082019050613fb66000830186613a58565b613fc36020830185613a58565b613fd06040830184613f21565b949350505050565b6000608082019050613fed6000830187613a58565b613ffa6020830186613a58565b6140076040830185613f21565b81810360608301526140198184613a9c565b905095945050505050565b60006020820190506140396000830184613a67565b92915050565b60006060820190506140546000830186613a76565b81810360208301526140668185613b06565b90506140756040830184613a67565b949350505050565b600060208201905081810360008301526140978184613b06565b905092915050565b600060208201905081810360008301526140b881613b70565b9050919050565b600060208201905081810360008301526140d881613b93565b9050919050565b600060208201905081810360008301526140f881613bb6565b9050919050565b6000602082019050818103600083015261411881613bd9565b9050919050565b6000602082019050818103600083015261413881613bfc565b9050919050565b6000602082019050818103600083015261415881613c1f565b9050919050565b6000602082019050818103600083015261417881613c42565b9050919050565b6000602082019050818103600083015261419881613c65565b9050919050565b600060208201905081810360008301526141b881613c88565b9050919050565b600060208201905081810360008301526141d881613cab565b9050919050565b600060208201905081810360008301526141f881613cce565b9050919050565b6000602082019050818103600083015261421881613cf1565b9050919050565b6000602082019050818103600083015261423881613d14565b9050919050565b6000602082019050818103600083015261425881613d37565b9050919050565b6000602082019050818103600083015261427881613d5a565b9050919050565b6000602082019050818103600083015261429881613d7d565b9050919050565b600060208201905081810360008301526142b881613da0565b9050919050565b600060208201905081810360008301526142d881613dc3565b9050919050565b600060208201905081810360008301526142f881613de6565b9050919050565b6000602082019050818103600083015261431881613e09565b9050919050565b6000602082019050818103600083015261433881613e2c565b9050919050565b6000602082019050818103600083015261435881613e4f565b9050919050565b6000602082019050818103600083015261437881613e72565b9050919050565b6000602082019050818103600083015261439881613e95565b9050919050565b600060208201905081810360008301526143b881613eb8565b9050919050565b600060208201905081810360008301526143d881613edb565b9050919050565b600060208201905081810360008301526143f881613efe565b9050919050565b60006020820190506144146000830184613f21565b92915050565b6000614424614435565b905061443082826146f1565b919050565b6000604051905090565b600067ffffffffffffffff82111561445a57614459614833565b5b602082029050602081019050919050565b600067ffffffffffffffff82111561448657614485614833565b5b61448f82614862565b9050602081019050919050565b600081519050919050565b600081519050919050565b600082825260208201905092915050565b600081905092915050565b600082825260208201905092915050565b600081905092915050565b60006144f582614673565b915061450083614673565b9250827fffffffffffffffffffffffffffffffffffffffffffffffffffffffffffffffff03821115614535576145346147a6565b5b828201905092915050565b600061454b82614673565b915061455683614673565b925082614566576145656147d5565b5b828204905092915050565b600061457c82614673565b915061458783614673565b9250817fffffffffffffffffffffffffffffffffffffffffffffffffffffffffffffffff04831182151516156145c0576145bf6147a6565b5b828202905092915050565b60006145d682614673565b91506145e183614673565b9250828210156145f4576145f36147a6565b5b828203905092915050565b600061460a82614653565b9050919050565b60008115159050919050565b6000819050919050565b60007fffffffff0000000000000000000000000000000000000000000000000000000082169050919050565b600073ffffffffffffffffffffffffffffffffffffffff82169050919050565b6000819050919050565b82818337600083830152505050565b60005b838110156146aa57808201518184015260208101905061468f565b838111156146b9576000848401525b50505050565b600060028204905060018216806146d757607f821691505b602082108114156146eb576146ea614804565b5b50919050565b6146fa82614862565b810181811067ffffffffffffffff8211171561471957614718614833565b5b80604052505050565b600061472d82614673565b91507fffffffffffffffffffffffffffffffffffffffffffffffffffffffffffffffff8214156147605761475f6147a6565b5b600182019050919050565b6000819050919050565b600061478082614673565b915061478b83614673565b92508261479b5761479a6147d5565b5b828206905092915050565b7f4e487b7100000000000000000000000000000000000000000000000000000000600052601160045260246000fd5b7f4e487b7100000000000000000000000000000000000000000000000000000000600052601260045260246000fd5b7f4e487b7100000000000000000000000000000000000000000000000000000000600052602260045260246000fd5b7f4e487b7100000000000000000000000000000000000000000000000000000000600052604160045260246000fd5b6000601f19601f8301169050919050565b7f726573756c74206e6f74207375636365737366756c0000000000000000000000600082015250565b7f4e6f7420656e6f75676820737570706c79000000000000000000000000000000600082015250565b7f455243373231456e756d657261626c653a206f776e657220696e646578206f7560008201527f74206f6620626f756e6473000000000000000000000000000000000000000000602082015250565b7f4552433732313a207472616e7366657220746f206e6f6e20455243373231526560008201527f63656976657220696d706c656d656e7465720000000000000000000000000000602082015250565b7f5265766572746564206e6f742061637469766500000000000000000000000000600082015250565b7f616c726561647920636f6d706c65746564000000000000000000000000000000600082015250565b7f4f776e61626c653a206e6577206f776e657220697320746865207a65726f206160008201527f6464726573730000000000000000000000000000000000000000000000000000602082015250565b7f4552433732313a207472616e736665722066726f6d20696e636f72726563742060008201527f6f776e6572000000000000000000000000000000000000000000000000000000602082015250565b7f4552433732313a20746f6b656e20616c7265616479206d696e74656400000000600082015250565b7f57726f6e67206f776e6572000000000000000000000000000000000000000000600082015250565b7f4552433732313a207472616e7366657220746f20746865207a65726f2061646460008201527f7265737300000000000000000000000000000000000000000000000000000000602082015250565b7f4552433732313a20617070726f766520746f2063616c6c657200000000000000600082015250565b7f56616c75652069732077726f6e6720666f72206d696e74000000000000000000600082015250565b7f4552433732313a206f70657261746f7220717565727920666f72206e6f6e657860008201527f697374656e7420746f6b656e0000000000000000000000000000000000000000602082015250565b7f416c726561647920636c61696d656420666f7220746f6b656e00000000000000600082015250565b7f4552433732313a20617070726f76652063616c6c6572206973206e6f74206f7760008201527f6e6572206e6f7220617070726f76656420666f7220616c6c0000000000000000602082015250565b7f4552433732313a2062616c616e636520717565727920666f7220746865207a6560008201527f726f206164647265737300000000000000000000000000000000000000000000602082015250565b7f4552433732313a206f776e657220717565727920666f72206e6f6e657869737460008201527f656e7420746f6b656e0000000000000000000000000000000000000000000000602082015250565b7f4552433732313a206d696e7420746f20746865207a65726f2061646472657373600082015250565b7f4552433732313a20617070726f76656420717565727920666f72206e6f6e657860008201527f697374656e7420746f6b656e0000000000000000000000000000000000000000602082015250565b7f4e6f7420636f6d706c6574656400000000000000000000000000000000000000600082015250565b7f4f776e61626c653a2063616c6c6572206973206e6f7420746865206f776e6572600082015250565b7f4552433732314d657461646174613a2055524920717565727920666f72206e6f60008201527f6e6578697374656e7420746f6b656e0000000000000000000000000000000000602082015250565b7f4552433732313a20617070726f76616c20746f2063757272656e74206f776e6560008201527f7200000000000000000000000000000000000000000000000000000000000000602082015250565b7f4552433732313a207472616e736665722063616c6c6572206973206e6f74206f60008201527f776e6572206e6f7220617070726f766564000000000000000000000000000000602082015250565b7f455243373231456e756d657261626c653a20676c6f62616c20696e646578206f60008201527f7574206f6620626f756e64730000000000000000000000000000000000000000602082015250565b7f63616c6c206e6f74207375636365737366756c00000000000000000000000000600082015250565b614ee3816145ff565b8114614eee57600080fd5b50565b614efa81614611565b8114614f0557600080fd5b50565b614f1181614627565b8114614f1c57600080fd5b50565b614f2881614673565b8114614f3357600080fd5b5056fea264697066735822122007358957546d3230279c1b679d4d03dfee96a8a23b3a2d1de81154f7168d45c364736f6c63430008040033307837313361343836313736363532303734363836353230373336653631373037333638366637343230373636663734363532303633366636653734363136393665363936653637323035623532346634313434346434313530356634313433343335303435343335343435343435643230363336663664373036633635373436353634323037373639373436383230366436663732363532303734363836353665323033353330323037303635373236333635366537343631363736353230366636363230373436383635323037363666373436353733323036313732363532303539343535333366326336383734373437303733336132663266363436353664366632653733366536313730373336383666373432653666373236373266323332663634363537363634363537363634363537363265363537343638",
  "devdoc": {
    "kind": "dev",
    "methods": {
      "approve(address,uint256)": {
        "details": "See {IERC721-approve}."
      },
      "balanceOf(address)": {
        "details": "See {IERC721-balanceOf}."
      },
      "getApproved(uint256)": {
        "details": "See {IERC721-getApproved}."
      },
      "isApprovedForAll(address,address)": {
        "details": "See {IERC721-isApprovedForAll}."
      },
      "name()": {
        "details": "See {IERC721Metadata-name}."
      },
      "owner()": {
        "details": "Returns the address of the current owner."
      },
      "ownerOf(uint256)": {
        "details": "See {IERC721-ownerOf}."
      },
      "renounceOwnership()": {
        "details": "Leaves the contract without owner. It will not be possible to call `onlyOwner` functions anymore. Can only be called by the current owner. NOTE: Renouncing ownership will leave the contract without an owner, thereby removing any functionality that is only available to the owner."
      },
      "safeTransferFrom(address,address,uint256)": {
        "details": "See {IERC721-safeTransferFrom}."
      },
      "safeTransferFrom(address,address,uint256,bytes)": {
        "details": "See {IERC721-safeTransferFrom}."
      },
      "setApprovalForAll(address,bool)": {
        "details": "See {IERC721-setApprovalForAll}."
      },
      "symbol()": {
        "details": "See {IERC721Metadata-symbol}."
      },
      "tokenByIndex(uint256)": {
        "details": "See {IERC721Enumerable-tokenByIndex}."
      },
      "tokenOfOwnerByIndex(address,uint256)": {
        "details": "See {IERC721Enumerable-tokenOfOwnerByIndex}."
      },
      "tokenURI(uint256)": {
        "details": "See {IERC721Metadata-tokenURI}."
      },
      "totalSupply()": {
        "details": "See {IERC721Enumerable-totalSupply}."
      },
      "transferFrom(address,address,uint256)": {
        "details": "See {IERC721-transferFrom}."
      },
      "transferOwnership(address)": {
        "details": "Transfers ownership of the contract to a new account (`newOwner`). Can only be called by the current owner."
      }
    },
    "version": 1
  },
  "userdoc": {
    "kind": "user",
    "methods": {},
    "version": 1
  },
  "storageLayout": {
    "storage": [
      {
        "astId": 208,
        "contract": "contracts/MyNFT.sol:MyNFT",
        "label": "_name",
        "offset": 0,
        "slot": "0",
        "type": "t_string_storage"
      },
      {
        "astId": 210,
        "contract": "contracts/MyNFT.sol:MyNFT",
        "label": "_symbol",
        "offset": 0,
        "slot": "1",
        "type": "t_string_storage"
      },
      {
        "astId": 214,
        "contract": "contracts/MyNFT.sol:MyNFT",
        "label": "_owners",
        "offset": 0,
        "slot": "2",
        "type": "t_mapping(t_uint256,t_address)"
      },
      {
        "astId": 218,
        "contract": "contracts/MyNFT.sol:MyNFT",
        "label": "_balances",
        "offset": 0,
        "slot": "3",
        "type": "t_mapping(t_address,t_uint256)"
      },
      {
        "astId": 222,
        "contract": "contracts/MyNFT.sol:MyNFT",
        "label": "_tokenApprovals",
        "offset": 0,
        "slot": "4",
        "type": "t_mapping(t_uint256,t_address)"
      },
      {
        "astId": 228,
        "contract": "contracts/MyNFT.sol:MyNFT",
        "label": "_operatorApprovals",
        "offset": 0,
        "slot": "5",
        "type": "t_mapping(t_address,t_mapping(t_address,t_bool))"
      },
      {
        "astId": 1197,
        "contract": "contracts/MyNFT.sol:MyNFT",
        "label": "_ownedTokens",
        "offset": 0,
        "slot": "6",
        "type": "t_mapping(t_address,t_mapping(t_uint256,t_uint256))"
      },
      {
        "astId": 1201,
        "contract": "contracts/MyNFT.sol:MyNFT",
        "label": "_ownedTokensIndex",
        "offset": 0,
        "slot": "7",
        "type": "t_mapping(t_uint256,t_uint256)"
      },
      {
        "astId": 1204,
        "contract": "contracts/MyNFT.sol:MyNFT",
        "label": "_allTokens",
        "offset": 0,
        "slot": "8",
        "type": "t_array(t_uint256)dyn_storage"
      },
      {
        "astId": 1208,
        "contract": "contracts/MyNFT.sol:MyNFT",
        "label": "_allTokensIndex",
        "offset": 0,
        "slot": "9",
        "type": "t_mapping(t_uint256,t_uint256)"
      },
      {
        "astId": 7,
        "contract": "contracts/MyNFT.sol:MyNFT",
        "label": "_owner",
        "offset": 0,
        "slot": "10",
        "type": "t_address"
      },
      {
        "astId": 2829,
        "contract": "contracts/MyNFT.sol:MyNFT",
        "label": "reverted",
        "offset": 20,
        "slot": "10",
        "type": "t_bool"
      },
      {
        "astId": 2831,
        "contract": "contracts/MyNFT.sol:MyNFT",
        "label": "reservedAmount",
        "offset": 0,
        "slot": "11",
        "type": "t_uint256"
      },
      {
        "astId": 2833,
        "contract": "contracts/MyNFT.sol:MyNFT",
        "label": "mintPrice",
        "offset": 0,
        "slot": "12",
        "type": "t_uint256"
      },
      {
        "astId": 2837,
        "contract": "contracts/MyNFT.sol:MyNFT",
        "label": "claimed",
        "offset": 0,
        "slot": "13",
        "type": "t_mapping(t_uint256,t_bool)"
      },
      {
        "astId": 2858,
        "contract": "contracts/MyNFT.sol:MyNFT",
        "label": "steps",
        "offset": 0,
        "slot": "14",
        "type": "t_array(t_struct(Step)2844_storage)dyn_storage"
      },
      {
        "astId": 2589,
        "contract": "contracts/MyNFT.sol:MyNFT",
        "label": "apeSent",
        "offset": 0,
        "slot": "15",
        "type": "t_bool"
      },
      {
        "astId": 2592,
        "contract": "contracts/MyNFT.sol:MyNFT",
        "label": "charitySent",
        "offset": 1,
        "slot": "15",
        "type": "t_bool"
      },
      {
        "astId": 2595,
        "contract": "contracts/MyNFT.sol:MyNFT",
        "label": "governanceApproved",
        "offset": 2,
        "slot": "15",
        "type": "t_bool"
      },
      {
        "astId": 2598,
        "contract": "contracts/MyNFT.sol:MyNFT",
        "label": "callbackError",
        "offset": 3,
        "slot": "15",
        "type": "t_bool"
      },
      {
        "astId": 2601,
        "contract": "contracts/MyNFT.sol:MyNFT",
        "label": "ancillaryData",
        "offset": 0,
        "slot": "16",
        "type": "t_bytes_storage"
      },
      {
        "astId": 2604,
        "contract": "contracts/MyNFT.sol:MyNFT",
        "label": "priceIdentifier",
        "offset": 0,
        "slot": "17",
        "type": "t_bytes32"
      },
      {
        "astId": 2607,
        "contract": "contracts/MyNFT.sol:MyNFT",
        "label": "DAI",
        "offset": 0,
        "slot": "18",
        "type": "t_address"
      },
      {
        "astId": 2609,
        "contract": "contracts/MyNFT.sol:MyNFT",
        "label": "creationTimestamp",
        "offset": 0,
        "slot": "19",
        "type": "t_uint256"
      },
      {
        "astId": 2612,
        "contract": "contracts/MyNFT.sol:MyNFT",
        "label": "_tokenIdCounter",
        "offset": 0,
        "slot": "20",
        "type": "t_struct(Counter)1901_storage"
      }
    ],
    "types": {
      "t_address": {
        "encoding": "inplace",
        "label": "address",
        "numberOfBytes": "20"
      },
      "t_array(t_struct(Step)2844_storage)dyn_storage": {
        "base": "t_struct(Step)2844_storage",
        "encoding": "dynamic_array",
        "label": "struct Roadmap.Step[]",
        "numberOfBytes": "32"
      },
      "t_array(t_uint256)dyn_storage": {
        "base": "t_uint256",
        "encoding": "dynamic_array",
        "label": "uint256[]",
        "numberOfBytes": "32"
      },
      "t_bool": {
        "encoding": "inplace",
        "label": "bool",
        "numberOfBytes": "1"
      },
      "t_bytes32": {
        "encoding": "inplace",
        "label": "bytes32",
        "numberOfBytes": "32"
      },
      "t_bytes_storage": {
        "encoding": "bytes",
        "label": "bytes",
        "numberOfBytes": "32"
      },
      "t_mapping(t_address,t_bool)": {
        "encoding": "mapping",
        "key": "t_address",
        "label": "mapping(address => bool)",
        "numberOfBytes": "32",
        "value": "t_bool"
      },
      "t_mapping(t_address,t_mapping(t_address,t_bool))": {
        "encoding": "mapping",
        "key": "t_address",
        "label": "mapping(address => mapping(address => bool))",
        "numberOfBytes": "32",
        "value": "t_mapping(t_address,t_bool)"
      },
      "t_mapping(t_address,t_mapping(t_uint256,t_uint256))": {
        "encoding": "mapping",
        "key": "t_address",
        "label": "mapping(address => mapping(uint256 => uint256))",
        "numberOfBytes": "32",
        "value": "t_mapping(t_uint256,t_uint256)"
      },
      "t_mapping(t_address,t_uint256)": {
        "encoding": "mapping",
        "key": "t_address",
        "label": "mapping(address => uint256)",
        "numberOfBytes": "32",
        "value": "t_uint256"
      },
      "t_mapping(t_uint256,t_address)": {
        "encoding": "mapping",
        "key": "t_uint256",
        "label": "mapping(uint256 => address)",
        "numberOfBytes": "32",
        "value": "t_address"
      },
      "t_mapping(t_uint256,t_bool)": {
        "encoding": "mapping",
        "key": "t_uint256",
        "label": "mapping(uint256 => bool)",
        "numberOfBytes": "32",
        "value": "t_bool"
      },
      "t_mapping(t_uint256,t_uint256)": {
        "encoding": "mapping",
        "key": "t_uint256",
        "label": "mapping(uint256 => uint256)",
        "numberOfBytes": "32",
        "value": "t_uint256"
      },
      "t_string_storage": {
        "encoding": "bytes",
        "label": "string",
        "numberOfBytes": "32"
      },
      "t_struct(Counter)1901_storage": {
        "encoding": "inplace",
        "label": "struct Counters.Counter",
        "members": [
          {
            "astId": 1900,
            "contract": "contracts/MyNFT.sol:MyNFT",
            "label": "_value",
            "offset": 0,
            "slot": "0",
            "type": "t_uint256"
          }
        ],
        "numberOfBytes": "32"
      },
      "t_struct(Step)2844_storage": {
        "encoding": "inplace",
        "label": "struct Roadmap.Step",
        "members": [
          {
            "astId": 2839,
            "contract": "contracts/MyNFT.sol:MyNFT",
            "label": "data",
            "offset": 0,
            "slot": "0",
            "type": "t_bytes32"
          },
          {
            "astId": 2841,
            "contract": "contracts/MyNFT.sol:MyNFT",
            "label": "message",
            "offset": 0,
            "slot": "1",
            "type": "t_string_storage"
          },
          {
            "astId": 2843,
            "contract": "contracts/MyNFT.sol:MyNFT",
            "label": "completed",
            "offset": 0,
            "slot": "2",
            "type": "t_bool"
          }
        ],
        "numberOfBytes": "96"
      },
      "t_uint256": {
        "encoding": "inplace",
        "label": "uint256",
        "numberOfBytes": "32"
      }
    }
  }
}