{
  "address": "0x5FbDB2315678afecb367f032d93F642f64180aa3",
  "abi": [
    {
      "inputs": [],
      "stateMutability": "nonpayable",
      "type": "constructor"
    },
    {
      "anonymous": false,
      "inputs": [
        {
          "indexed": true,
          "internalType": "address",
          "name": "owner",
          "type": "address"
        },
        {
          "indexed": true,
          "internalType": "address",
          "name": "approved",
          "type": "address"
        },
        {
          "indexed": true,
          "internalType": "uint256",
          "name": "tokenId",
          "type": "uint256"
        }
      ],
      "name": "Approval",
      "type": "event"
    },
    {
      "anonymous": false,
      "inputs": [
        {
          "indexed": true,
          "internalType": "address",
          "name": "owner",
          "type": "address"
        },
        {
          "indexed": true,
          "internalType": "address",
          "name": "operator",
          "type": "address"
        },
        {
          "indexed": false,
          "internalType": "bool",
          "name": "approved",
          "type": "bool"
        }
      ],
      "name": "ApprovalForAll",
      "type": "event"
    },
    {
      "anonymous": false,
      "inputs": [
        {
          "indexed": true,
          "internalType": "address",
          "name": "previousOwner",
          "type": "address"
        },
        {
          "indexed": true,
          "internalType": "address",
          "name": "newOwner",
          "type": "address"
        }
      ],
      "name": "OwnershipTransferred",
      "type": "event"
    },
    {
      "anonymous": false,
      "inputs": [
        {
          "indexed": false,
          "internalType": "enum Roadmap.StepTypes",
          "name": "stepType",
          "type": "uint8"
        },
        {
          "indexed": false,
          "internalType": "bytes4",
          "name": "data",
          "type": "bytes4"
        },
        {
          "indexed": false,
          "internalType": "string",
          "name": "message",
          "type": "string"
        }
      ],
      "name": "StepCreated",
      "type": "event"
    },
    {
      "anonymous": false,
      "inputs": [
        {
          "indexed": false,
          "internalType": "uint256",
          "name": "stepId",
          "type": "uint256"
        }
      ],
      "name": "StepExecuted",
      "type": "event"
    },
    {
      "anonymous": false,
      "inputs": [
        {
          "indexed": true,
          "internalType": "address",
          "name": "from",
          "type": "address"
        },
        {
          "indexed": true,
          "internalType": "address",
          "name": "to",
          "type": "address"
        },
        {
          "indexed": true,
          "internalType": "uint256",
          "name": "tokenId",
          "type": "uint256"
        }
      ],
      "name": "Transfer",
      "type": "event"
    },
    {
      "inputs": [],
      "name": "abort",
      "outputs": [],
      "stateMutability": "nonpayable",
      "type": "function"
    },
    {
      "inputs": [
        {
          "internalType": "address",
          "name": "to",
          "type": "address"
        },
        {
          "internalType": "uint256",
          "name": "tokenId",
          "type": "uint256"
        }
      ],
      "name": "approve",
      "outputs": [],
      "stateMutability": "nonpayable",
      "type": "function"
    },
    {
      "inputs": [
        {
          "internalType": "address",
          "name": "owner",
          "type": "address"
        }
      ],
      "name": "balanceOf",
      "outputs": [
        {
          "internalType": "uint256",
          "name": "",
          "type": "uint256"
        }
      ],
      "stateMutability": "view",
      "type": "function"
    },
    {
      "inputs": [
        {
          "internalType": "uint256[]",
          "name": "tokenIds",
          "type": "uint256[]"
        }
      ],
      "name": "claimAbort",
      "outputs": [],
      "stateMutability": "nonpayable",
      "type": "function"
    },
    {
      "inputs": [
        {
          "internalType": "uint256",
          "name": "stepId",
          "type": "uint256"
        }
      ],
      "name": "executeStep",
      "outputs": [],
      "stateMutability": "nonpayable",
      "type": "function"
    },
    {
      "inputs": [
        {
          "internalType": "uint256",
          "name": "tokenId",
          "type": "uint256"
        }
      ],
      "name": "getApproved",
      "outputs": [
        {
          "internalType": "address",
          "name": "",
          "type": "address"
        }
      ],
      "stateMutability": "view",
      "type": "function"
    },
    {
      "inputs": [],
      "name": "helpKoalas",
      "outputs": [],
      "stateMutability": "nonpayable",
      "type": "function"
    },
    {
      "inputs": [
        {
          "internalType": "address",
          "name": "owner",
          "type": "address"
        },
        {
          "internalType": "address",
          "name": "operator",
          "type": "address"
        }
      ],
      "name": "isApprovedForAll",
      "outputs": [
        {
          "internalType": "bool",
          "name": "",
          "type": "bool"
        }
      ],
      "stateMutability": "view",
      "type": "function"
    },
    {
      "inputs": [],
      "name": "mint",
      "outputs": [],
      "stateMutability": "nonpayable",
      "type": "function"
    },
    {
      "inputs": [],
      "name": "mintedComplete",
      "outputs": [
        {
          "internalType": "bool",
          "name": "",
          "type": "bool"
        }
      ],
      "stateMutability": "view",
      "type": "function"
    },
    {
      "inputs": [],
      "name": "name",
      "outputs": [
        {
          "internalType": "string",
          "name": "",
          "type": "string"
        }
      ],
      "stateMutability": "view",
      "type": "function"
    },
    {
      "inputs": [],
      "name": "owner",
      "outputs": [
        {
          "internalType": "address",
          "name": "",
          "type": "address"
        }
      ],
      "stateMutability": "view",
      "type": "function"
    },
    {
      "inputs": [
        {
          "internalType": "uint256",
          "name": "tokenId",
          "type": "uint256"
        }
      ],
      "name": "ownerOf",
      "outputs": [
        {
          "internalType": "address",
          "name": "",
          "type": "address"
        }
      ],
      "stateMutability": "view",
      "type": "function"
    },
    {
      "inputs": [],
      "name": "renounceOwnership",
      "outputs": [],
      "stateMutability": "nonpayable",
      "type": "function"
    },
    {
      "inputs": [],
      "name": "reverted",
      "outputs": [
        {
          "internalType": "bool",
          "name": "",
          "type": "bool"
        }
      ],
      "stateMutability": "view",
      "type": "function"
    },
    {
      "inputs": [
        {
          "internalType": "address",
          "name": "from",
          "type": "address"
        },
        {
          "internalType": "address",
          "name": "to",
          "type": "address"
        },
        {
          "internalType": "uint256",
          "name": "tokenId",
          "type": "uint256"
        }
      ],
      "name": "safeTransferFrom",
      "outputs": [],
      "stateMutability": "nonpayable",
      "type": "function"
    },
    {
      "inputs": [
        {
          "internalType": "address",
          "name": "from",
          "type": "address"
        },
        {
          "internalType": "address",
          "name": "to",
          "type": "address"
        },
        {
          "internalType": "uint256",
          "name": "tokenId",
          "type": "uint256"
        },
        {
          "internalType": "bytes",
          "name": "_data",
          "type": "bytes"
        }
      ],
      "name": "safeTransferFrom",
      "outputs": [],
      "stateMutability": "nonpayable",
      "type": "function"
    },
    {
      "inputs": [
        {
          "internalType": "address",
          "name": "newOwner",
          "type": "address"
        }
      ],
      "name": "sendApe",
      "outputs": [],
      "stateMutability": "nonpayable",
      "type": "function"
    },
    {
      "inputs": [
        {
          "internalType": "address",
          "name": "operator",
          "type": "address"
        },
        {
          "internalType": "bool",
          "name": "approved",
          "type": "bool"
        }
      ],
      "name": "setApprovalForAll",
      "outputs": [],
      "stateMutability": "nonpayable",
      "type": "function"
    },
    {
      "inputs": [
        {
          "internalType": "uint256",
          "name": "",
          "type": "uint256"
        }
      ],
      "name": "steps",
      "outputs": [
        {
          "internalType": "enum Roadmap.StepTypes",
          "name": "stepType",
          "type": "uint8"
        },
        {
          "internalType": "bytes4",
          "name": "data",
          "type": "bytes4"
        },
        {
          "internalType": "string",
          "name": "message",
          "type": "string"
        },
        {
          "internalType": "bool",
          "name": "completed",
          "type": "bool"
        }
      ],
      "stateMutability": "view",
      "type": "function"
    },
    {
      "inputs": [
        {
          "internalType": "bytes4",
          "name": "interfaceId",
          "type": "bytes4"
        }
      ],
      "name": "supportsInterface",
      "outputs": [
        {
          "internalType": "bool",
          "name": "",
          "type": "bool"
        }
      ],
      "stateMutability": "view",
      "type": "function"
    },
    {
      "inputs": [],
      "name": "symbol",
      "outputs": [
        {
          "internalType": "string",
          "name": "",
          "type": "string"
        }
      ],
      "stateMutability": "view",
      "type": "function"
    },
    {
      "inputs": [
        {
          "internalType": "uint256",
          "name": "index",
          "type": "uint256"
        }
      ],
      "name": "tokenByIndex",
      "outputs": [
        {
          "internalType": "uint256",
          "name": "",
          "type": "uint256"
        }
      ],
      "stateMutability": "view",
      "type": "function"
    },
    {
      "inputs": [
        {
          "internalType": "address",
          "name": "owner",
          "type": "address"
        },
        {
          "internalType": "uint256",
          "name": "index",
          "type": "uint256"
        }
      ],
      "name": "tokenOfOwnerByIndex",
      "outputs": [
        {
          "internalType": "uint256",
          "name": "",
          "type": "uint256"
        }
      ],
      "stateMutability": "view",
      "type": "function"
    },
    {
      "inputs": [
        {
          "internalType": "uint256",
          "name": "tokenId",
          "type": "uint256"
        }
      ],
      "name": "tokenURI",
      "outputs": [
        {
          "internalType": "string",
          "name": "",
          "type": "string"
        }
      ],
      "stateMutability": "view",
      "type": "function"
    },
    {
      "inputs": [],
      "name": "totalSupply",
      "outputs": [
        {
          "internalType": "uint256",
          "name": "",
          "type": "uint256"
        }
      ],
      "stateMutability": "view",
      "type": "function"
    },
    {
      "inputs": [
        {
          "internalType": "address",
          "name": "from",
          "type": "address"
        },
        {
          "internalType": "address",
          "name": "to",
          "type": "address"
        },
        {
          "internalType": "uint256",
          "name": "tokenId",
          "type": "uint256"
        }
      ],
      "name": "transferFrom",
      "outputs": [],
      "stateMutability": "nonpayable",
      "type": "function"
    },
    {
      "inputs": [
        {
          "internalType": "address",
          "name": "newOwner",
          "type": "address"
        }
      ],
      "name": "transferOwnership",
      "outputs": [],
      "stateMutability": "nonpayable",
      "type": "function"
    },
    {
      "inputs": [],
      "name": "withdrawFunds",
      "outputs": [],
      "stateMutability": "nonpayable",
      "type": "function"
    }
  ],
  "transactionHash": "0x40a72223c3d867e7beb6c408de1a6016911191132f867ee1fb41a80de51a53d9",
  "args": [],
  "numDeployments": 1,
  "solcInputHash": "a50079c76894b6a7c75643efe6f59174",
  "bytecode": "0x60806040526000600a60146101000a81548160ff0219169083151502179055506729a2241af62c0000600d556000600e60006101000a81548160ff0219169083151502179055506000600e60016101000a81548160ff0219169083151502179055503480156200006e57600080fd5b50600d546040518060400160405280600781526020017f4d79546f6b656e000000000000000000000000000000000000000000000000008152506040518060400160405280600381526020017f4d544b00000000000000000000000000000000000000000000000000000000008152508160009080519060200190620000f692919062000557565b5080600190805190602001906200010f92919062000557565b5050506200013262000126620002e460201b60201c565b620002ec60201b60201c565b80600b8190555050620001a360007fc801490710eb3d84c73250bf15c8eb0a02a8437bdc4b8ea46108c084c8d1444d6040518060400160405280601381526020017f476f7665726e616e636520617070726f76616c00000000000000000000000000815250620003b260201b60201c565b6200020c60017ffb1886505822f9be24f74d341b8c03d453decdae5e67aa5fb229c1e3cc1d8d046040518060400160405280601181526020017f4d696e74696e6720636f6d706c65746564000000000000000000000000000000815250620003b260201b60201c565b6200027560017fffe3e9c2dbd5ced161de34e1162a78d663018d080b1e69015718c754c8b015ca6040518060400160405280601181526020017f424159432073656e7420746f2075736572000000000000000000000000000000815250620003b260201b60201c565b620002de60017f9aaa65d9a64b82e219c15f8793d1b7d4fa32b558938f23a4833142a3da74c8e26040518060400160405280600c81526020017f436861726974792073656e740000000000000000000000000000000000000000815250620003b260201b60201c565b62000811565b600033905090565b6000600a60009054906101000a900473ffffffffffffffffffffffffffffffffffffffff16905081600a60006101000a81548173ffffffffffffffffffffffffffffffffffffffff021916908373ffffffffffffffffffffffffffffffffffffffff1602179055508173ffffffffffffffffffffffffffffffffffffffff168173ffffffffffffffffffffffffffffffffffffffff167f8be0079c531659141344cd1fd0a4f28419497f9722a3daafe3b4186f6b6457e060405160405180910390a35050565b600c6040518060800160405280856001811115620003f9577f4e487b7100000000000000000000000000000000000000000000000000000000600052602160045260246000fd5b8152602001847bffffffffffffffffffffffffffffffffffffffffffffffffffffffff1916815260200183815260200160001515815250908060018154018082558091505060019003906000526020600020906003020160009091909190915060008201518160000160006101000a81548160ff02191690836001811115620004ab577f4e487b7100000000000000000000000000000000000000000000000000000000600052602160045260246000fd5b021790555060208201518160000160016101000a81548163ffffffff021916908360e01c02179055506040820151816001019080519060200190620004f292919062000557565b5060608201518160020160006101000a81548160ff02191690831515021790555050507ffa1d4f274f42027d9c63d36808532acd2224f51d7b4cfeaa5de8556e0290402a8383836040516200054a939291906200066a565b60405180910390a1505050565b828054620005659062000755565b90600052602060002090601f016020900481019282620005895760008555620005d5565b82601f10620005a457805160ff1916838001178555620005d5565b82800160010185558215620005d5579182015b82811115620005d4578251825591602001919060010190620005b7565b5b509050620005e49190620005e8565b5090565b5b8082111562000603576000816000905550600101620005e9565b5090565b6200061281620006ca565b82525050565b62000623816200070b565b82525050565b60006200063682620006ae565b620006428185620006b9565b9350620006548185602086016200071f565b6200065f81620007e9565b840191505092915050565b600060608201905062000681600083018662000618565b62000690602083018562000607565b8181036040830152620006a4818462000629565b9050949350505050565b600081519050919050565b600082825260208201905092915050565b60007fffffffff0000000000000000000000000000000000000000000000000000000082169050919050565b60008190506200070682620007fa565b919050565b60006200071882620006f6565b9050919050565b60005b838110156200073f57808201518184015260208101905062000722565b838111156200074f576000848401525b50505050565b600060028204905060018216806200076e57607f821691505b60208210811415620007855762000784620007ba565b5b50919050565b7f4e487b7100000000000000000000000000000000000000000000000000000000600052602160045260246000fd5b7f4e487b7100000000000000000000000000000000000000000000000000000000600052602260045260246000fd5b6000601f19601f8301169050919050565b600281106200080e576200080d6200078b565b5b50565b613ec780620008216000396000f3fe608060405234801561001057600080fd5b50600436106101cf5760003560e01c80636352211e1161010457806395d89b41116100a2578063c87b56dd11610071578063c87b56dd146104cf578063e985e9c5146104ff578063f2fde38b1461052f578063fb1886501461054b576101cf565b806395d89b411461045b578063a22cb46514610479578063b88d4fde14610495578063bc0af82a146104b1576101cf565b80637217e0b9116100de5780637217e0b9146103d257806378ebce4814610405578063867fc17a146104215780638da5cb5b1461043d576101cf565b80636352211e1461036857806370a0823114610398578063715018a6146103c8576101cf565b806324600fc31161017157806342842e0e1161014b57806342842e0e146102f65780634cd020d9146103125780634f6ccce71461031c57806352aa05071461034c576101cf565b806324600fc3146102b25780632f745c59146102bc57806335a063b4146102ec576101cf565b8063095ea7b3116101ad578063095ea7b3146102525780631249c58b1461026e57806318160ddd1461027857806323b872dd14610296576101cf565b806301ffc9a7146101d457806306fdde0314610204578063081812fc14610222575b600080fd5b6101ee60048036038101906101e99190612cd1565b610569565b6040516101fb9190613181565b60405180910390f35b61020c61057b565b60405161021991906131e8565b60405180910390f35b61023c60048036038101906102379190612d23565b61060d565b604051610249919061311a565b60405180910390f35b61026c60048036038101906102679190612c54565b610692565b005b6102766107aa565b005b6102806107cf565b60405161028d919061348a565b60405180910390f35b6102b060048036038101906102ab9190612b4e565b6107dc565b005b6102ba61083c565b005b6102d660048036038101906102d19190612c54565b6109c3565b6040516102e3919061348a565b60405180910390f35b6102f4610a68565b005b610310600480360381019061030b9190612b4e565b610b01565b005b61031a610b21565b005b61033660048036038101906103319190612d23565b610bba565b604051610343919061348a565b60405180910390f35b61036660048036038101906103619190612c90565b610c51565b005b610382600480360381019061037d9190612d23565b610ca3565b60405161038f919061311a565b60405180910390f35b6103b260048036038101906103ad9190612ae9565b610d55565b6040516103bf919061348a565b60405180910390f35b6103d0610e0d565b005b6103ec60048036038101906103e79190612d23565b610e95565b6040516103fc949392919061319c565b60405180910390f35b61041f600480360381019061041a9190612ae9565b610f84565b005b61043b60048036038101906104369190612d23565b61101e565b005b61044561129d565b604051610452919061311a565b60405180910390f35b6104636112c7565b60405161047091906131e8565b60405180910390f35b610493600480360381019061048e9190612c18565b611359565b005b6104af60048036038101906104aa9190612b9d565b61136f565b005b6104b96113d1565b6040516104c69190613181565b60405180910390f35b6104e960048036038101906104e49190612d23565b6113e4565b6040516104f691906131e8565b60405180910390f35b61051960048036038101906105149190612b12565b61148b565b6040516105269190613181565b60405180910390f35b61054960048036038101906105449190612ae9565b61151f565b005b610553611617565b6040516105609190613181565b60405180910390f35b600061057482611620565b9050919050565b60606000805461058a90613700565b80601f01602080910402602001604051908101604052809291908181526020018280546105b690613700565b80156106035780601f106105d857610100808354040283529160200191610603565b820191906000526020600020905b8154815290600101906020018083116105e657829003601f168201915b5050505050905090565b60006106188261169a565b610657576040517f08c379a000000000000000000000000000000000000000000000000000000000815260040161064e906133aa565b60405180910390fd5b6004600083815260200190815260200160002060009054906101000a900473ffffffffffffffffffffffffffffffffffffffff169050919050565b600061069d82610ca3565b90508073ffffffffffffffffffffffffffffffffffffffff168373ffffffffffffffffffffffffffffffffffffffff16141561070e576040517f08c379a00000000000000000000000000000000000000000000000000000000081526004016107059061342a565b60405180910390fd5b8073ffffffffffffffffffffffffffffffffffffffff1661072d611706565b73ffffffffffffffffffffffffffffffffffffffff16148061075c575061075b81610756611706565b61148b565b5b61079b576040517f08c379a00000000000000000000000000000000000000000000000000000000081526004016107929061332a565b60405180910390fd5b6107a5838361170e565b505050565b60006107b6600f6117c7565b90506107c2600f6117d5565b6107cc33826117eb565b50565b6000600880549050905090565b6107ed6107e7611706565b82611809565b61082c576040517f08c379a00000000000000000000000000000000000000000000000000000000081526004016108239061344a565b60405180910390fd5b6108378383836118e7565b505050565b610844611706565b73ffffffffffffffffffffffffffffffffffffffff1661086261129d565b73ffffffffffffffffffffffffffffffffffffffff16146108b8576040517f08c379a00000000000000000000000000000000000000000000000000000000081526004016108af906133ea565b60405180910390fd5b60005b600c8054905081101561097357600c8181548110610902577f4e487b7100000000000000000000000000000000000000000000000000000000600052603260045260246000fd5b906000526020600020906003020160020160009054906101000a900460ff16610960576040517f08c379a0000000000000000000000000000000000000000000000000000000008152600401610957906133ca565b60405180910390fd5b808061096b90613763565b9150506108bb565b5060004790503373ffffffffffffffffffffffffffffffffffffffff166108fc829081150290604051600060405180830381858888f193505050501580156109bf573d6000803e3d6000fd5b5050565b60006109ce83610d55565b8210610a0f576040517f08c379a0000000000000000000000000000000000000000000000000000000008152600401610a069061320a565b60405180910390fd5b600660008473ffffffffffffffffffffffffffffffffffffffff1673ffffffffffffffffffffffffffffffffffffffff168152602001908152602001600020600083815260200190815260200160002054905092915050565b610a70611706565b73ffffffffffffffffffffffffffffffffffffffff16610a8e61129d565b73ffffffffffffffffffffffffffffffffffffffff1614610ae4576040517f08c379a0000000000000000000000000000000000000000000000000000000008152600401610adb906133ea565b60405180910390fd5b6001600a60146101000a81548160ff021916908315150217905550565b610b1c8383836040518060200160405280600081525061136f565b505050565b610b29611706565b73ffffffffffffffffffffffffffffffffffffffff16610b4761129d565b73ffffffffffffffffffffffffffffffffffffffff1614610b9d576040517f08c379a0000000000000000000000000000000000000000000000000000000008152600401610b94906133ea565b60405180910390fd5b6001600e60016101000a81548160ff021916908315150217905550565b6000610bc46107cf565b8210610c05576040517f08c379a0000000000000000000000000000000000000000000000000000000008152600401610bfc9061346a565b60405180910390fd5b60088281548110610c3f577f4e487b7100000000000000000000000000000000000000000000000000000000600052603260045260246000fd5b90600052602060002001549050919050565b600a60149054906101000a900460ff16610ca0576040517f08c379a0000000000000000000000000000000000000000000000000000000008152600401610c979061324a565b60405180910390fd5b50565b6000806002600084815260200190815260200160002060009054906101000a900473ffffffffffffffffffffffffffffffffffffffff169050600073ffffffffffffffffffffffffffffffffffffffff168173ffffffffffffffffffffffffffffffffffffffff161415610d4c576040517f08c379a0000000000000000000000000000000000000000000000000000000008152600401610d439061336a565b60405180910390fd5b80915050919050565b60008073ffffffffffffffffffffffffffffffffffffffff168273ffffffffffffffffffffffffffffffffffffffff161415610dc6576040517f08c379a0000000000000000000000000000000000000000000000000000000008152600401610dbd9061334a565b60405180910390fd5b600360008373ffffffffffffffffffffffffffffffffffffffff1673ffffffffffffffffffffffffffffffffffffffff168152602001908152602001600020549050919050565b610e15611706565b73ffffffffffffffffffffffffffffffffffffffff16610e3361129d565b73ffffffffffffffffffffffffffffffffffffffff1614610e89576040517f08c379a0000000000000000000000000000000000000000000000000000000008152600401610e80906133ea565b60405180910390fd5b610e936000611b4e565b565b600c8181548110610ea557600080fd5b90600052602060002090600302016000915090508060000160009054906101000a900460ff16908060000160019054906101000a900460e01b90806001018054610eee90613700565b80601f0160208091040260200160405190810160405280929190818152602001828054610f1a90613700565b8015610f675780601f10610f3c57610100808354040283529160200191610f67565b820191906000526020600020905b815481529060010190602001808311610f4a57829003601f168201915b5050505050908060020160009054906101000a900460ff16905084565b610f8c611706565b73ffffffffffffffffffffffffffffffffffffffff16610faa61129d565b73ffffffffffffffffffffffffffffffffffffffff1614611000576040517f08c379a0000000000000000000000000000000000000000000000000000000008152600401610ff7906133ea565b60405180910390fd5b6001600e60006101000a81548160ff02191690831515021790555050565b6000600c828154811061105a577f4e487b7100000000000000000000000000000000000000000000000000000000600052603260045260246000fd5b90600052602060002090600302016040518060800160405290816000820160009054906101000a900460ff1660018111156110be577f4e487b7100000000000000000000000000000000000000000000000000000000600052602160045260246000fd5b60018111156110f6577f4e487b7100000000000000000000000000000000000000000000000000000000600052602160045260246000fd5b81526020016000820160019054906101000a900460e01b7bffffffffffffffffffffffffffffffffffffffffffffffffffffffff19167bffffffffffffffffffffffffffffffffffffffffffffffffffffffff1916815260200160018201805461115f90613700565b80601f016020809104026020016040519081016040528092919081815260200182805461118b90613700565b80156111d85780601f106111ad576101008083540402835291602001916111d8565b820191906000526020600020905b8154815290600101906020018083116111bb57829003601f168201915b505050505081526020016002820160009054906101000a900460ff16151515158152505090506001600c838154811061123a577f4e487b7100000000000000000000000000000000000000000000000000000000600052603260045260246000fd5b906000526020600020906003020160020160006101000a81548160ff0219169083151502179055507f7d716790d01a64421d121f2b247366a43719c87528485b9900995183b635fe8a82604051611291919061348a565b60405180910390a15050565b6000600a60009054906101000a900473ffffffffffffffffffffffffffffffffffffffff16905090565b6060600180546112d690613700565b80601f016020809104026020016040519081016040528092919081815260200182805461130290613700565b801561134f5780601f106113245761010080835404028352916020019161134f565b820191906000526020600020905b81548152906001019060200180831161133257829003601f168201915b5050505050905090565b61136b611364611706565b8383611c14565b5050565b61138061137a611706565b83611809565b6113bf576040517f08c379a00000000000000000000000000000000000000000000000000000000081526004016113b69061344a565b60405180910390fd5b6113cb84848484611d81565b50505050565b600a60149054906101000a900460ff1681565b60606113ef8261169a565b61142e576040517f08c379a00000000000000000000000000000000000000000000000000000000081526004016114259061340a565b60405180910390fd5b6000611438611ddd565b905060008151116114585760405180602001604052806000815250611483565b8061146284611df4565b6040516020016114739291906130f6565b6040516020818303038152906040525b915050919050565b6000600560008473ffffffffffffffffffffffffffffffffffffffff1673ffffffffffffffffffffffffffffffffffffffff16815260200190815260200160002060008373ffffffffffffffffffffffffffffffffffffffff1673ffffffffffffffffffffffffffffffffffffffff16815260200190815260200160002060009054906101000a900460ff16905092915050565b611527611706565b73ffffffffffffffffffffffffffffffffffffffff1661154561129d565b73ffffffffffffffffffffffffffffffffffffffff161461159b576040517f08c379a0000000000000000000000000000000000000000000000000000000008152600401611592906133ea565b60405180910390fd5b600073ffffffffffffffffffffffffffffffffffffffff168173ffffffffffffffffffffffffffffffffffffffff16141561160b576040517f08c379a00000000000000000000000000000000000000000000000000000000081526004016116029061326a565b60405180910390fd5b61161481611b4e565b50565b60006001905090565b60007f780e9d63000000000000000000000000000000000000000000000000000000007bffffffffffffffffffffffffffffffffffffffffffffffffffffffff1916827bffffffffffffffffffffffffffffffffffffffffffffffffffffffff19161480611693575061169282611fa1565b5b9050919050565b60008073ffffffffffffffffffffffffffffffffffffffff166002600084815260200190815260200160002060009054906101000a900473ffffffffffffffffffffffffffffffffffffffff1673ffffffffffffffffffffffffffffffffffffffff1614159050919050565b600033905090565b816004600083815260200190815260200160002060006101000a81548173ffffffffffffffffffffffffffffffffffffffff021916908373ffffffffffffffffffffffffffffffffffffffff160217905550808273ffffffffffffffffffffffffffffffffffffffff1661178183610ca3565b73ffffffffffffffffffffffffffffffffffffffff167f8c5be1e5ebec7d5bd14f71427d1e84f3dd0314c0f7b2291e5b200ac8c7c3b92560405160405180910390a45050565b600081600001549050919050565b6001816000016000828254019250508190555050565b611805828260405180602001604052806000815250612083565b5050565b60006118148261169a565b611853576040517f08c379a000000000000000000000000000000000000000000000000000000000815260040161184a9061330a565b60405180910390fd5b600061185e83610ca3565b90508073ffffffffffffffffffffffffffffffffffffffff168473ffffffffffffffffffffffffffffffffffffffff1614806118cd57508373ffffffffffffffffffffffffffffffffffffffff166118b58461060d565b73ffffffffffffffffffffffffffffffffffffffff16145b806118de57506118dd818561148b565b5b91505092915050565b8273ffffffffffffffffffffffffffffffffffffffff1661190782610ca3565b73ffffffffffffffffffffffffffffffffffffffff161461195d576040517f08c379a00000000000000000000000000000000000000000000000000000000081526004016119549061328a565b60405180910390fd5b600073ffffffffffffffffffffffffffffffffffffffff168273ffffffffffffffffffffffffffffffffffffffff1614156119cd576040517f08c379a00000000000000000000000000000000000000000000000000000000081526004016119c4906132ca565b60405180910390fd5b6119d88383836120de565b6119e360008261170e565b6001600360008573ffffffffffffffffffffffffffffffffffffffff1673ffffffffffffffffffffffffffffffffffffffff1681526020019081526020016000206000828254611a3391906135f1565b925050819055506001600360008473ffffffffffffffffffffffffffffffffffffffff1673ffffffffffffffffffffffffffffffffffffffff1681526020019081526020016000206000828254611a8a919061356a565b92505081905550816002600083815260200190815260200160002060006101000a81548173ffffffffffffffffffffffffffffffffffffffff021916908373ffffffffffffffffffffffffffffffffffffffff160217905550808273ffffffffffffffffffffffffffffffffffffffff168473ffffffffffffffffffffffffffffffffffffffff167fddf252ad1be2c89b69c2b068fc378daa952ba7f163c4a11628f55a4df523b3ef60405160405180910390a4611b498383836120ee565b505050565b6000600a60009054906101000a900473ffffffffffffffffffffffffffffffffffffffff16905081600a60006101000a81548173ffffffffffffffffffffffffffffffffffffffff021916908373ffffffffffffffffffffffffffffffffffffffff1602179055508173ffffffffffffffffffffffffffffffffffffffff168173ffffffffffffffffffffffffffffffffffffffff167f8be0079c531659141344cd1fd0a4f28419497f9722a3daafe3b4186f6b6457e060405160405180910390a35050565b8173ffffffffffffffffffffffffffffffffffffffff168373ffffffffffffffffffffffffffffffffffffffff161415611c83576040517f08c379a0000000000000000000000000000000000000000000000000000000008152600401611c7a906132ea565b60405180910390fd5b80600560008573ffffffffffffffffffffffffffffffffffffffff1673ffffffffffffffffffffffffffffffffffffffff16815260200190815260200160002060008473ffffffffffffffffffffffffffffffffffffffff1673ffffffffffffffffffffffffffffffffffffffff16815260200190815260200160002060006101000a81548160ff0219169083151502179055508173ffffffffffffffffffffffffffffffffffffffff168373ffffffffffffffffffffffffffffffffffffffff167f17307eab39ab6107e8899845ad3d59bd9653f200f220920489ca2b5937696c3183604051611d749190613181565b60405180910390a3505050565b611d8c8484846118e7565b611d98848484846120f3565b611dd7576040517f08c379a0000000000000000000000000000000000000000000000000000000008152600401611dce9061322a565b60405180910390fd5b50505050565b606060405180602001604052806000815250905090565b60606000821415611e3c576040518060400160405280600181526020017f30000000000000000000000000000000000000000000000000000000000000008152509050611f9c565b600082905060005b60008214611e6e578080611e5790613763565b915050600a82611e6791906135c0565b9150611e44565b60008167ffffffffffffffff811115611eb0577f4e487b7100000000000000000000000000000000000000000000000000000000600052604160045260246000fd5b6040519080825280601f01601f191660200182016040528015611ee25781602001600182028036833780820191505090505b5090505b60008514611f9557600182611efb91906135f1565b9150600a85611f0a91906137ac565b6030611f16919061356a565b60f81b818381518110611f52577f4e487b7100000000000000000000000000000000000000000000000000000000600052603260045260246000fd5b60200101907effffffffffffffffffffffffffffffffffffffffffffffffffffffffffffff1916908160001a905350600a85611f8e91906135c0565b9450611ee6565b8093505050505b919050565b60007f80ac58cd000000000000000000000000000000000000000000000000000000007bffffffffffffffffffffffffffffffffffffffffffffffffffffffff1916827bffffffffffffffffffffffffffffffffffffffffffffffffffffffff1916148061206c57507f5b5e139f000000000000000000000000000000000000000000000000000000007bffffffffffffffffffffffffffffffffffffffffffffffffffffffff1916827bffffffffffffffffffffffffffffffffffffffffffffffffffffffff1916145b8061207c575061207b8261228a565b5b9050919050565b61208d83836122f4565b61209a60008484846120f3565b6120d9576040517f08c379a00000000000000000000000000000000000000000000000000000000081526004016120d09061322a565b60405180910390fd5b505050565b6120e98383836124ce565b505050565b505050565b60006121148473ffffffffffffffffffffffffffffffffffffffff166125e2565b1561227d578373ffffffffffffffffffffffffffffffffffffffff1663150b7a0261213d611706565b8786866040518563ffffffff1660e01b815260040161215f9493929190613135565b602060405180830381600087803b15801561217957600080fd5b505af19250505080156121aa57506040513d601f19601f820116820180604052508101906121a79190612cfa565b60015b61222d573d80600081146121da576040519150601f19603f3d011682016040523d82523d6000602084013e6121df565b606091505b50600081511415612225576040517f08c379a000000000000000000000000000000000000000000000000000000000815260040161221c9061322a565b60405180910390fd5b805181602001fd5b63150b7a0260e01b7bffffffffffffffffffffffffffffffffffffffffffffffffffffffff1916817bffffffffffffffffffffffffffffffffffffffffffffffffffffffff191614915050612282565b600190505b949350505050565b60007f01ffc9a7000000000000000000000000000000000000000000000000000000007bffffffffffffffffffffffffffffffffffffffffffffffffffffffff1916827bffffffffffffffffffffffffffffffffffffffffffffffffffffffff1916149050919050565b600073ffffffffffffffffffffffffffffffffffffffff168273ffffffffffffffffffffffffffffffffffffffff161415612364576040517f08c379a000000000000000000000000000000000000000000000000000000000815260040161235b9061338a565b60405180910390fd5b61236d8161169a565b156123ad576040517f08c379a00000000000000000000000000000000000000000000000000000000081526004016123a4906132aa565b60405180910390fd5b6123b9600083836120de565b6001600360008473ffffffffffffffffffffffffffffffffffffffff1673ffffffffffffffffffffffffffffffffffffffff1681526020019081526020016000206000828254612409919061356a565b92505081905550816002600083815260200190815260200160002060006101000a81548173ffffffffffffffffffffffffffffffffffffffff021916908373ffffffffffffffffffffffffffffffffffffffff160217905550808273ffffffffffffffffffffffffffffffffffffffff16600073ffffffffffffffffffffffffffffffffffffffff167fddf252ad1be2c89b69c2b068fc378daa952ba7f163c4a11628f55a4df523b3ef60405160405180910390a46124ca600083836120ee565b5050565b6124d9838383612605565b600073ffffffffffffffffffffffffffffffffffffffff168373ffffffffffffffffffffffffffffffffffffffff16141561251c576125178161260a565b61255b565b8173ffffffffffffffffffffffffffffffffffffffff168373ffffffffffffffffffffffffffffffffffffffff161461255a576125598382612653565b5b5b600073ffffffffffffffffffffffffffffffffffffffff168273ffffffffffffffffffffffffffffffffffffffff16141561259e57612599816127c0565b6125dd565b8273ffffffffffffffffffffffffffffffffffffffff168273ffffffffffffffffffffffffffffffffffffffff16146125dc576125db8282612903565b5b5b505050565b6000808273ffffffffffffffffffffffffffffffffffffffff163b119050919050565b505050565b6008805490506009600083815260200190815260200160002081905550600881908060018154018082558091505060019003906000526020600020016000909190919091505550565b6000600161266084610d55565b61266a91906135f1565b905060006007600084815260200190815260200160002054905081811461274f576000600660008673ffffffffffffffffffffffffffffffffffffffff1673ffffffffffffffffffffffffffffffffffffffff168152602001908152602001600020600084815260200190815260200160002054905080600660008773ffffffffffffffffffffffffffffffffffffffff1673ffffffffffffffffffffffffffffffffffffffff168152602001908152602001600020600084815260200190815260200160002081905550816007600083815260200190815260200160002081905550505b6007600084815260200190815260200160002060009055600660008573ffffffffffffffffffffffffffffffffffffffff1673ffffffffffffffffffffffffffffffffffffffff16815260200190815260200160002060008381526020019081526020016000206000905550505050565b600060016008805490506127d491906135f1565b905060006009600084815260200190815260200160002054905060006008838154811061282a577f4e487b7100000000000000000000000000000000000000000000000000000000600052603260045260246000fd5b906000526020600020015490508060088381548110612872577f4e487b7100000000000000000000000000000000000000000000000000000000600052603260045260246000fd5b9060005260206000200181905550816009600083815260200190815260200160002081905550600960008581526020019081526020016000206000905560088054806128e7577f4e487b7100000000000000000000000000000000000000000000000000000000600052603160045260246000fd5b6001900381819060005260206000200160009055905550505050565b600061290e83610d55565b905081600660008573ffffffffffffffffffffffffffffffffffffffff1673ffffffffffffffffffffffffffffffffffffffff168152602001908152602001600020600083815260200190815260200160002081905550806007600084815260200190815260200160002081905550505050565b6000612995612990846134ca565b6134a5565b905080838252602082019050828560208602820111156129b457600080fd5b60005b858110156129e457816129ca8882612ad4565b8452602084019350602083019250506001810190506129b7565b5050509392505050565b6000612a016129fc846134f6565b6134a5565b905082815260208101848484011115612a1957600080fd5b612a248482856136be565b509392505050565b600081359050612a3b81613e35565b92915050565b600082601f830112612a5257600080fd5b8135612a62848260208601612982565b91505092915050565b600081359050612a7a81613e4c565b92915050565b600081359050612a8f81613e63565b92915050565b600081519050612aa481613e63565b92915050565b600082601f830112612abb57600080fd5b8135612acb8482602086016129ee565b91505092915050565b600081359050612ae381613e7a565b92915050565b600060208284031215612afb57600080fd5b6000612b0984828501612a2c565b91505092915050565b60008060408385031215612b2557600080fd5b6000612b3385828601612a2c565b9250506020612b4485828601612a2c565b9150509250929050565b600080600060608486031215612b6357600080fd5b6000612b7186828701612a2c565b9350506020612b8286828701612a2c565b9250506040612b9386828701612ad4565b9150509250925092565b60008060008060808587031215612bb357600080fd5b6000612bc187828801612a2c565b9450506020612bd287828801612a2c565b9350506040612be387828801612ad4565b925050606085013567ffffffffffffffff811115612c0057600080fd5b612c0c87828801612aaa565b91505092959194509250565b60008060408385031215612c2b57600080fd5b6000612c3985828601612a2c565b9250506020612c4a85828601612a6b565b9150509250929050565b60008060408385031215612c6757600080fd5b6000612c7585828601612a2c565b9250506020612c8685828601612ad4565b9150509250929050565b600060208284031215612ca257600080fd5b600082013567ffffffffffffffff811115612cbc57600080fd5b612cc884828501612a41565b91505092915050565b600060208284031215612ce357600080fd5b6000612cf184828501612a80565b91505092915050565b600060208284031215612d0c57600080fd5b6000612d1a84828501612a95565b91505092915050565b600060208284031215612d3557600080fd5b6000612d4384828501612ad4565b91505092915050565b612d5581613625565b82525050565b612d6481613637565b82525050565b612d7381613643565b82525050565b6000612d8482613527565b612d8e818561353d565b9350612d9e8185602086016136cd565b612da7816138c8565b840191505092915050565b612dbb816136ac565b82525050565b6000612dcc82613532565b612dd6818561354e565b9350612de68185602086016136cd565b612def816138c8565b840191505092915050565b6000612e0582613532565b612e0f818561355f565b9350612e1f8185602086016136cd565b80840191505092915050565b6000612e38602b8361354e565b9150612e43826138d9565b604082019050919050565b6000612e5b60328361354e565b9150612e6682613928565b604082019050919050565b6000612e7e60138361354e565b9150612e8982613977565b602082019050919050565b6000612ea160268361354e565b9150612eac826139a0565b604082019050919050565b6000612ec460258361354e565b9150612ecf826139ef565b604082019050919050565b6000612ee7601c8361354e565b9150612ef282613a3e565b602082019050919050565b6000612f0a60248361354e565b9150612f1582613a67565b604082019050919050565b6000612f2d60198361354e565b9150612f3882613ab6565b602082019050919050565b6000612f50602c8361354e565b9150612f5b82613adf565b604082019050919050565b6000612f7360388361354e565b9150612f7e82613b2e565b604082019050919050565b6000612f96602a8361354e565b9150612fa182613b7d565b604082019050919050565b6000612fb960298361354e565b9150612fc482613bcc565b604082019050919050565b6000612fdc60208361354e565b9150612fe782613c1b565b602082019050919050565b6000612fff602c8361354e565b915061300a82613c44565b604082019050919050565b6000613022600d8361354e565b915061302d82613c93565b602082019050919050565b600061304560208361354e565b915061305082613cbc565b602082019050919050565b6000613068602f8361354e565b915061307382613ce5565b604082019050919050565b600061308b60218361354e565b915061309682613d34565b604082019050919050565b60006130ae60318361354e565b91506130b982613d83565b604082019050919050565b60006130d1602c8361354e565b91506130dc82613dd2565b604082019050919050565b6130f0816136a2565b82525050565b60006131028285612dfa565b915061310e8284612dfa565b91508190509392505050565b600060208201905061312f6000830184612d4c565b92915050565b600060808201905061314a6000830187612d4c565b6131576020830186612d4c565b61316460408301856130e7565b81810360608301526131768184612d79565b905095945050505050565b60006020820190506131966000830184612d5b565b92915050565b60006080820190506131b16000830187612db2565b6131be6020830186612d6a565b81810360408301526131d08185612dc1565b90506131df6060830184612d5b565b95945050505050565b600060208201905081810360008301526132028184612dc1565b905092915050565b6000602082019050818103600083015261322381612e2b565b9050919050565b6000602082019050818103600083015261324381612e4e565b9050919050565b6000602082019050818103600083015261326381612e71565b9050919050565b6000602082019050818103600083015261328381612e94565b9050919050565b600060208201905081810360008301526132a381612eb7565b9050919050565b600060208201905081810360008301526132c381612eda565b9050919050565b600060208201905081810360008301526132e381612efd565b9050919050565b6000602082019050818103600083015261330381612f20565b9050919050565b6000602082019050818103600083015261332381612f43565b9050919050565b6000602082019050818103600083015261334381612f66565b9050919050565b6000602082019050818103600083015261336381612f89565b9050919050565b6000602082019050818103600083015261338381612fac565b9050919050565b600060208201905081810360008301526133a381612fcf565b9050919050565b600060208201905081810360008301526133c381612ff2565b9050919050565b600060208201905081810360008301526133e381613015565b9050919050565b6000602082019050818103600083015261340381613038565b9050919050565b600060208201905081810360008301526134238161305b565b9050919050565b600060208201905081810360008301526134438161307e565b9050919050565b60006020820190508181036000830152613463816130a1565b9050919050565b60006020820190508181036000830152613483816130c4565b9050919050565b600060208201905061349f60008301846130e7565b92915050565b60006134af6134c0565b90506134bb8282613732565b919050565b6000604051905090565b600067ffffffffffffffff8211156134e5576134e4613899565b5b602082029050602081019050919050565b600067ffffffffffffffff82111561351157613510613899565b5b61351a826138c8565b9050602081019050919050565b600081519050919050565b600081519050919050565b600082825260208201905092915050565b600082825260208201905092915050565b600081905092915050565b6000613575826136a2565b9150613580836136a2565b9250827fffffffffffffffffffffffffffffffffffffffffffffffffffffffffffffffff038211156135b5576135b46137dd565b5b828201905092915050565b60006135cb826136a2565b91506135d6836136a2565b9250826135e6576135e561380c565b5b828204905092915050565b60006135fc826136a2565b9150613607836136a2565b92508282101561361a576136196137dd565b5b828203905092915050565b600061363082613682565b9050919050565b60008115159050919050565b60007fffffffff0000000000000000000000000000000000000000000000000000000082169050919050565b600081905061367d82613e21565b919050565b600073ffffffffffffffffffffffffffffffffffffffff82169050919050565b6000819050919050565b60006136b78261366f565b9050919050565b82818337600083830152505050565b60005b838110156136eb5780820151818401526020810190506136d0565b838111156136fa576000848401525b50505050565b6000600282049050600182168061371857607f821691505b6020821081141561372c5761372b61386a565b5b50919050565b61373b826138c8565b810181811067ffffffffffffffff8211171561375a57613759613899565b5b80604052505050565b600061376e826136a2565b91507fffffffffffffffffffffffffffffffffffffffffffffffffffffffffffffffff8214156137a1576137a06137dd565b5b600182019050919050565b60006137b7826136a2565b91506137c2836136a2565b9250826137d2576137d161380c565b5b828206905092915050565b7f4e487b7100000000000000000000000000000000000000000000000000000000600052601160045260246000fd5b7f4e487b7100000000000000000000000000000000000000000000000000000000600052601260045260246000fd5b7f4e487b7100000000000000000000000000000000000000000000000000000000600052602160045260246000fd5b7f4e487b7100000000000000000000000000000000000000000000000000000000600052602260045260246000fd5b7f4e487b7100000000000000000000000000000000000000000000000000000000600052604160045260246000fd5b6000601f19601f8301169050919050565b7f455243373231456e756d657261626c653a206f776e657220696e646578206f7560008201527f74206f6620626f756e6473000000000000000000000000000000000000000000602082015250565b7f4552433732313a207472616e7366657220746f206e6f6e20455243373231526560008201527f63656976657220696d706c656d656e7465720000000000000000000000000000602082015250565b7f5265766572746564206e6f742061637469766500000000000000000000000000600082015250565b7f4f776e61626c653a206e6577206f776e657220697320746865207a65726f206160008201527f6464726573730000000000000000000000000000000000000000000000000000602082015250565b7f4552433732313a207472616e736665722066726f6d20696e636f72726563742060008201527f6f776e6572000000000000000000000000000000000000000000000000000000602082015250565b7f4552433732313a20746f6b656e20616c7265616479206d696e74656400000000600082015250565b7f4552433732313a207472616e7366657220746f20746865207a65726f2061646460008201527f7265737300000000000000000000000000000000000000000000000000000000602082015250565b7f4552433732313a20617070726f766520746f2063616c6c657200000000000000600082015250565b7f4552433732313a206f70657261746f7220717565727920666f72206e6f6e657860008201527f697374656e7420746f6b656e0000000000000000000000000000000000000000602082015250565b7f4552433732313a20617070726f76652063616c6c6572206973206e6f74206f7760008201527f6e6572206e6f7220617070726f76656420666f7220616c6c0000000000000000602082015250565b7f4552433732313a2062616c616e636520717565727920666f7220746865207a6560008201527f726f206164647265737300000000000000000000000000000000000000000000602082015250565b7f4552433732313a206f776e657220717565727920666f72206e6f6e657869737460008201527f656e7420746f6b656e0000000000000000000000000000000000000000000000602082015250565b7f4552433732313a206d696e7420746f20746865207a65726f2061646472657373600082015250565b7f4552433732313a20617070726f76656420717565727920666f72206e6f6e657860008201527f697374656e7420746f6b656e0000000000000000000000000000000000000000602082015250565b7f4e6f7420636f6d706c6574656400000000000000000000000000000000000000600082015250565b7f4f776e61626c653a2063616c6c6572206973206e6f7420746865206f776e6572600082015250565b7f4552433732314d657461646174613a2055524920717565727920666f72206e6f60008201527f6e6578697374656e7420746f6b656e0000000000000000000000000000000000602082015250565b7f4552433732313a20617070726f76616c20746f2063757272656e74206f776e6560008201527f7200000000000000000000000000000000000000000000000000000000000000602082015250565b7f4552433732313a207472616e736665722063616c6c6572206973206e6f74206f60008201527f776e6572206e6f7220617070726f766564000000000000000000000000000000602082015250565b7f455243373231456e756d657261626c653a20676c6f62616c20696e646578206f60008201527f7574206f6620626f756e64730000000000000000000000000000000000000000602082015250565b60028110613e3257613e3161383b565b5b50565b613e3e81613625565b8114613e4957600080fd5b50565b613e5581613637565b8114613e6057600080fd5b50565b613e6c81613643565b8114613e7757600080fd5b50565b613e83816136a2565b8114613e8e57600080fd5b5056fea2646970667358221220a07baebf53eb0e8669acbc9fe826514c5a791a0b26006a66a4d2670a6d3835cf64736f6c63430008040033",
  "devdoc": {
    "kind": "dev",
    "methods": {
      "approve(address,uint256)": {
        "details": "See {IERC721-approve}."
      },
      "balanceOf(address)": {
        "details": "See {IERC721-balanceOf}."
      },
      "getApproved(uint256)": {
        "details": "See {IERC721-getApproved}."
      },
      "isApprovedForAll(address,address)": {
        "details": "See {IERC721-isApprovedForAll}."
      },
      "name()": {
        "details": "See {IERC721Metadata-name}."
      },
      "owner()": {
        "details": "Returns the address of the current owner."
      },
      "ownerOf(uint256)": {
        "details": "See {IERC721-ownerOf}."
      },
      "renounceOwnership()": {
        "details": "Leaves the contract without owner. It will not be possible to call `onlyOwner` functions anymore. Can only be called by the current owner. NOTE: Renouncing ownership will leave the contract without an owner, thereby removing any functionality that is only available to the owner."
      },
      "safeTransferFrom(address,address,uint256)": {
        "details": "See {IERC721-safeTransferFrom}."
      },
      "safeTransferFrom(address,address,uint256,bytes)": {
        "details": "See {IERC721-safeTransferFrom}."
      },
      "setApprovalForAll(address,bool)": {
        "details": "See {IERC721-setApprovalForAll}."
      },
      "symbol()": {
        "details": "See {IERC721Metadata-symbol}."
      },
      "tokenByIndex(uint256)": {
        "details": "See {IERC721Enumerable-tokenByIndex}."
      },
      "tokenOfOwnerByIndex(address,uint256)": {
        "details": "See {IERC721Enumerable-tokenOfOwnerByIndex}."
      },
      "tokenURI(uint256)": {
        "details": "See {IERC721Metadata-tokenURI}."
      },
      "totalSupply()": {
        "details": "See {IERC721Enumerable-totalSupply}."
      },
      "transferFrom(address,address,uint256)": {
        "details": "See {IERC721-transferFrom}."
      },
      "transferOwnership(address)": {
        "details": "Transfers ownership of the contract to a new account (`newOwner`). Can only be called by the current owner."
      }
    },
    "version": 1
  },
  "userdoc": {
    "kind": "user",
    "methods": {},
    "version": 1
  },
  "storageLayout": {
    "storage": [
      {
        "astId": 130,
        "contract": "contracts/MyNFT.sol:MyNFT",
        "label": "_name",
        "offset": 0,
        "slot": "0",
        "type": "t_string_storage"
      },
      {
        "astId": 132,
        "contract": "contracts/MyNFT.sol:MyNFT",
        "label": "_symbol",
        "offset": 0,
        "slot": "1",
        "type": "t_string_storage"
      },
      {
        "astId": 136,
        "contract": "contracts/MyNFT.sol:MyNFT",
        "label": "_owners",
        "offset": 0,
        "slot": "2",
        "type": "t_mapping(t_uint256,t_address)"
      },
      {
        "astId": 140,
        "contract": "contracts/MyNFT.sol:MyNFT",
        "label": "_balances",
        "offset": 0,
        "slot": "3",
        "type": "t_mapping(t_address,t_uint256)"
      },
      {
        "astId": 144,
        "contract": "contracts/MyNFT.sol:MyNFT",
        "label": "_tokenApprovals",
        "offset": 0,
        "slot": "4",
        "type": "t_mapping(t_uint256,t_address)"
      },
      {
        "astId": 150,
        "contract": "contracts/MyNFT.sol:MyNFT",
        "label": "_operatorApprovals",
        "offset": 0,
        "slot": "5",
        "type": "t_mapping(t_address,t_mapping(t_address,t_bool))"
      },
      {
        "astId": 1119,
        "contract": "contracts/MyNFT.sol:MyNFT",
        "label": "_ownedTokens",
        "offset": 0,
        "slot": "6",
        "type": "t_mapping(t_address,t_mapping(t_uint256,t_uint256))"
      },
      {
        "astId": 1123,
        "contract": "contracts/MyNFT.sol:MyNFT",
        "label": "_ownedTokensIndex",
        "offset": 0,
        "slot": "7",
        "type": "t_mapping(t_uint256,t_uint256)"
      },
      {
        "astId": 1126,
        "contract": "contracts/MyNFT.sol:MyNFT",
        "label": "_allTokens",
        "offset": 0,
        "slot": "8",
        "type": "t_array(t_uint256)dyn_storage"
      },
      {
        "astId": 1130,
        "contract": "contracts/MyNFT.sol:MyNFT",
        "label": "_allTokensIndex",
        "offset": 0,
        "slot": "9",
        "type": "t_mapping(t_uint256,t_uint256)"
      },
      {
        "astId": 7,
        "contract": "contracts/MyNFT.sol:MyNFT",
        "label": "_owner",
        "offset": 0,
        "slot": "10",
        "type": "t_address"
      },
      {
        "astId": 2626,
        "contract": "contracts/MyNFT.sol:MyNFT",
        "label": "reverted",
        "offset": 20,
        "slot": "10",
        "type": "t_bool"
      },
      {
        "astId": 2628,
        "contract": "contracts/MyNFT.sol:MyNFT",
        "label": "reservedAmount",
        "offset": 0,
        "slot": "11",
        "type": "t_uint256"
      },
      {
        "astId": 2658,
        "contract": "contracts/MyNFT.sol:MyNFT",
        "label": "steps",
        "offset": 0,
        "slot": "12",
        "type": "t_array(t_struct(Step)2641_storage)dyn_storage"
      },
      {
        "astId": 2461,
        "contract": "contracts/MyNFT.sol:MyNFT",
        "label": "RESERVED_TREASURY_AMOUNT",
        "offset": 0,
        "slot": "13",
        "type": "t_uint256"
      },
      {
        "astId": 2464,
        "contract": "contracts/MyNFT.sol:MyNFT",
        "label": "apeSent",
        "offset": 0,
        "slot": "14",
        "type": "t_bool"
      },
      {
        "astId": 2467,
        "contract": "contracts/MyNFT.sol:MyNFT",
        "label": "koalasSent",
        "offset": 1,
        "slot": "14",
        "type": "t_bool"
      },
      {
        "astId": 2470,
        "contract": "contracts/MyNFT.sol:MyNFT",
        "label": "_tokenIdCounter",
        "offset": 0,
        "slot": "15",
        "type": "t_struct(Counter)1823_storage"
      }
    ],
    "types": {
      "t_address": {
        "encoding": "inplace",
        "label": "address",
        "numberOfBytes": "20"
      },
      "t_array(t_struct(Step)2641_storage)dyn_storage": {
        "base": "t_struct(Step)2641_storage",
        "encoding": "dynamic_array",
        "label": "struct Roadmap.Step[]",
        "numberOfBytes": "32"
      },
      "t_array(t_uint256)dyn_storage": {
        "base": "t_uint256",
        "encoding": "dynamic_array",
        "label": "uint256[]",
        "numberOfBytes": "32"
      },
      "t_bool": {
        "encoding": "inplace",
        "label": "bool",
        "numberOfBytes": "1"
      },
      "t_bytes4": {
        "encoding": "inplace",
        "label": "bytes4",
        "numberOfBytes": "4"
      },
      "t_enum(StepTypes)2631": {
        "encoding": "inplace",
        "label": "enum Roadmap.StepTypes",
        "numberOfBytes": "1"
      },
      "t_mapping(t_address,t_bool)": {
        "encoding": "mapping",
        "key": "t_address",
        "label": "mapping(address => bool)",
        "numberOfBytes": "32",
        "value": "t_bool"
      },
      "t_mapping(t_address,t_mapping(t_address,t_bool))": {
        "encoding": "mapping",
        "key": "t_address",
        "label": "mapping(address => mapping(address => bool))",
        "numberOfBytes": "32",
        "value": "t_mapping(t_address,t_bool)"
      },
      "t_mapping(t_address,t_mapping(t_uint256,t_uint256))": {
        "encoding": "mapping",
        "key": "t_address",
        "label": "mapping(address => mapping(uint256 => uint256))",
        "numberOfBytes": "32",
        "value": "t_mapping(t_uint256,t_uint256)"
      },
      "t_mapping(t_address,t_uint256)": {
        "encoding": "mapping",
        "key": "t_address",
        "label": "mapping(address => uint256)",
        "numberOfBytes": "32",
        "value": "t_uint256"
      },
      "t_mapping(t_uint256,t_address)": {
        "encoding": "mapping",
        "key": "t_uint256",
        "label": "mapping(uint256 => address)",
        "numberOfBytes": "32",
        "value": "t_address"
      },
      "t_mapping(t_uint256,t_uint256)": {
        "encoding": "mapping",
        "key": "t_uint256",
        "label": "mapping(uint256 => uint256)",
        "numberOfBytes": "32",
        "value": "t_uint256"
      },
      "t_string_storage": {
        "encoding": "bytes",
        "label": "string",
        "numberOfBytes": "32"
      },
      "t_struct(Counter)1823_storage": {
        "encoding": "inplace",
        "label": "struct Counters.Counter",
        "members": [
          {
            "astId": 1822,
            "contract": "contracts/MyNFT.sol:MyNFT",
            "label": "_value",
            "offset": 0,
            "slot": "0",
            "type": "t_uint256"
          }
        ],
        "numberOfBytes": "32"
      },
      "t_struct(Step)2641_storage": {
        "encoding": "inplace",
        "label": "struct Roadmap.Step",
        "members": [
          {
            "astId": 2634,
            "contract": "contracts/MyNFT.sol:MyNFT",
            "label": "stepType",
            "offset": 0,
            "slot": "0",
            "type": "t_enum(StepTypes)2631"
          },
          {
            "astId": 2636,
            "contract": "contracts/MyNFT.sol:MyNFT",
            "label": "data",
            "offset": 1,
            "slot": "0",
            "type": "t_bytes4"
          },
          {
            "astId": 2638,
            "contract": "contracts/MyNFT.sol:MyNFT",
            "label": "message",
            "offset": 0,
            "slot": "1",
            "type": "t_string_storage"
          },
          {
            "astId": 2640,
            "contract": "contracts/MyNFT.sol:MyNFT",
            "label": "completed",
            "offset": 0,
            "slot": "2",
            "type": "t_bool"
          }
        ],
        "numberOfBytes": "96"
      },
      "t_uint256": {
        "encoding": "inplace",
        "label": "uint256",
        "numberOfBytes": "32"
      }
    }
  }
}